{
  "_format": "hh3-artifact-1",
  "contractName": "BondingCurve",
  "sourceName": "contracts/BondingCurve.sol",
  "abi": [
    {
      "inputs": [],
      "stateMutability": "nonpayable",
      "type": "constructor"
    },
    {
      "inputs": [],
      "name": "ReentrancyGuardReentrantCall",
      "type": "error"
    },
    {
      "inputs": [
        {
          "internalType": "address",
          "name": "token",
          "type": "address"
        }
      ],
      "name": "SafeERC20FailedOperation",
      "type": "error"
    },
    {
      "anonymous": false,
      "inputs": [
        {
          "indexed": true,
          "internalType": "address",
          "name": "buyer",
          "type": "address"
        },
        {
          "indexed": true,
          "internalType": "address",
          "name": "recipient",
          "type": "address"
        },
        {
          "indexed": false,
          "internalType": "uint256",
          "name": "usdcIn",
          "type": "uint256"
        },
        {
          "indexed": false,
          "internalType": "uint256",
          "name": "tokensOut",
          "type": "uint256"
        },
        {
          "indexed": false,
          "internalType": "uint256",
          "name": "fee",
          "type": "uint256"
        }
      ],
      "name": "Buy",
      "type": "event"
    },
    {
      "anonymous": false,
      "inputs": [
        {
          "indexed": true,
          "internalType": "address",
          "name": "token_",
          "type": "address"
        },
        {
          "indexed": true,
          "internalType": "address",
          "name": "pool",
          "type": "address"
        },
        {
          "indexed": false,
          "internalType": "uint256",
          "name": "usdcLiquidity",
          "type": "uint256"
        },
        {
          "indexed": false,
          "internalType": "uint256",
          "name": "tokenLiquidity",
          "type": "uint256"
        }
      ],
      "name": "Graduated",
      "type": "event"
    },
    {
      "anonymous": false,
      "inputs": [
        {
          "indexed": true,
          "internalType": "address",
          "name": "seller",
          "type": "address"
        },
        {
          "indexed": false,
          "internalType": "uint256",
          "name": "tokensIn",
          "type": "uint256"
        },
        {
          "indexed": false,
          "internalType": "uint256",
          "name": "usdcOut",
          "type": "uint256"
        },
        {
          "indexed": false,
          "internalType": "uint256",
          "name": "fee",
          "type": "uint256"
        }
      ],
      "name": "Sell",
      "type": "event"
    },
    {
      "inputs": [],
      "name": "CREATOR_FEE_BPS",
      "outputs": [
        {
          "internalType": "uint256",
          "name": "",
          "type": "uint256"
        }
      ],
      "stateMutability": "view",
      "type": "function"
    },
    {
      "inputs": [],
      "name": "FEE_BPS",
      "outputs": [
        {
          "internalType": "uint256",
          "name": "",
          "type": "uint256"
        }
      ],
      "stateMutability": "view",
      "type": "function"
    },
    {
      "inputs": [],
      "name": "GRADUATION_TARGET",
      "outputs": [
        {
          "internalType": "uint256",
          "name": "",
          "type": "uint256"
        }
      ],
      "stateMutability": "view",
      "type": "function"
    },
    {
      "inputs": [],
      "name": "K",
      "outputs": [
        {
          "internalType": "uint256",
          "name": "",
          "type": "uint256"
        }
      ],
      "stateMutability": "view",
      "type": "function"
    },
    {
      "inputs": [],
      "name": "PROTOCOL_FEE_BPS",
      "outputs": [
        {
          "internalType": "uint256",
          "name": "",
          "type": "uint256"
        }
      ],
      "stateMutability": "view",
      "type": "function"
    },
    {
      "inputs": [],
      "name": "VIRTUAL_TOKENS",
      "outputs": [
        {
          "internalType": "uint256",
          "name": "",
          "type": "uint256"
        }
      ],
      "stateMutability": "view",
      "type": "function"
    },
    {
      "inputs": [],
      "name": "VIRTUAL_USDC",
      "outputs": [
        {
          "internalType": "uint256",
          "name": "",
          "type": "uint256"
        }
      ],
      "stateMutability": "view",
      "type": "function"
    },
    {
      "inputs": [
        {
          "internalType": "uint256",
          "name": "minTokensOut",
          "type": "uint256"
        },
        {
          "internalType": "address",
          "name": "recipient",
          "type": "address"
        }
      ],
      "name": "buy",
      "outputs": [],
      "stateMutability": "payable",
      "type": "function"
    },
    {
      "inputs": [],
      "name": "buyCount",
      "outputs": [
        {
          "internalType": "uint256",
          "name": "",
          "type": "uint256"
        }
      ],
      "stateMutability": "view",
      "type": "function"
    },
    {
      "inputs": [],
      "name": "creator",
      "outputs": [
        {
          "internalType": "address",
          "name": "",
          "type": "address"
        }
      ],
      "stateMutability": "view",
      "type": "function"
    },
    {
      "inputs": [],
      "name": "factory",
      "outputs": [
        {
          "internalType": "address",
          "name": "",
          "type": "address"
        }
      ],
      "stateMutability": "view",
      "type": "function"
    },
    {
      "inputs": [],
      "name": "feeVault",
      "outputs": [
        {
          "internalType": "address",
          "name": "",
          "type": "address"
        }
      ],
      "stateMutability": "view",
      "type": "function"
    },
    {
      "inputs": [
        {
          "internalType": "address",
          "name": "",
          "type": "address"
        }
      ],
      "name": "firstBuyTimestamp",
      "outputs": [
        {
          "internalType": "uint256",
          "name": "",
          "type": "uint256"
        }
      ],
      "stateMutability": "view",
      "type": "function"
    },
    {
      "inputs": [],
      "name": "getArenaMetrics",
      "outputs": [
        {
          "components": [
            {
              "internalType": "uint256",
              "name": "totalBuyVolume",
              "type": "uint256"
            },
            {
              "internalType": "uint256",
              "name": "totalSellVolume",
              "type": "uint256"
            },
            {
              "internalType": "uint256",
              "name": "buyCount",
              "type": "uint256"
            },
            {
              "internalType": "uint256",
              "name": "sellCount",
              "type": "uint256"
            },
            {
              "internalType": "uint256",
              "name": "uniqueBuyerCount",
              "type": "uint256"
            },
            {
              "internalType": "uint256",
              "name": "holderCount",
              "type": "uint256"
            },
            {
              "internalType": "uint256",
              "name": "retainedBuyers",
              "type": "uint256"
            },
            {
              "internalType": "uint256",
              "name": "buyPressureBps",
              "type": "uint256"
            },
            {
              "internalType": "uint256",
              "name": "percentCompleteBps",
              "type": "uint256"
            }
          ],
          "internalType": "struct BondingCurve.ArenaMetrics",
          "name": "",
          "type": "tuple"
        }
      ],
      "stateMutability": "view",
      "type": "function"
    },
    {
      "inputs": [],
      "name": "graduated",
      "outputs": [
        {
          "internalType": "bool",
          "name": "",
          "type": "bool"
        }
      ],
      "stateMutability": "view",
      "type": "function"
    },
    {
      "inputs": [
        {
          "internalType": "address",
          "name": "",
          "type": "address"
        }
      ],
      "name": "holderBalance",
      "outputs": [
        {
          "internalType": "uint256",
          "name": "",
          "type": "uint256"
        }
      ],
      "stateMutability": "view",
      "type": "function"
    },
    {
      "inputs": [],
      "name": "holderCount",
      "outputs": [
        {
          "internalType": "uint256",
          "name": "",
          "type": "uint256"
        }
      ],
      "stateMutability": "view",
      "type": "function"
    },
    {
      "inputs": [
        {
          "internalType": "address",
          "name": "_token",
          "type": "address"
        },
        {
          "internalType": "address",
          "name": "_creator",
          "type": "address"
        },
        {
          "internalType": "address",
          "name": "_referrer",
          "type": "address"
        },
        {
          "internalType": "address",
          "name": "_feeVault",
          "type": "address"
        },
        {
          "internalType": "address",
          "name": "_factory",
          "type": "address"
        },
        {
          "internalType": "address",
          "name": "_postMigrationFactory",
          "type": "address"
        }
      ],
      "name": "initialize",
      "outputs": [],
      "stateMutability": "nonpayable",
      "type": "function"
    },
    {
      "inputs": [],
      "name": "postMigrationFactory",
      "outputs": [
        {
          "internalType": "address",
          "name": "",
          "type": "address"
        }
      ],
      "stateMutability": "view",
      "type": "function"
    },
    {
      "inputs": [
        {
          "internalType": "uint256",
          "name": "usdcIn",
          "type": "uint256"
        }
      ],
      "name": "quoteBuy",
      "outputs": [
        {
          "internalType": "uint256",
          "name": "tokensOut",
          "type": "uint256"
        },
        {
          "internalType": "uint256",
          "name": "priceImpactBps",
          "type": "uint256"
        }
      ],
      "stateMutability": "view",
      "type": "function"
    },
    {
      "inputs": [
        {
          "internalType": "uint256",
          "name": "tokensIn",
          "type": "uint256"
        }
      ],
      "name": "quoteSell",
      "outputs": [
        {
          "internalType": "uint256",
          "name": "usdcOut",
          "type": "uint256"
        },
        {
          "internalType": "uint256",
          "name": "priceImpactBps",
          "type": "uint256"
        }
      ],
      "stateMutability": "view",
      "type": "function"
    },
    {
      "inputs": [],
      "name": "realTokensSold",
      "outputs": [
        {
          "internalType": "uint256",
          "name": "",
          "type": "uint256"
        }
      ],
      "stateMutability": "view",
      "type": "function"
    },
    {
      "inputs": [],
      "name": "realUSDCRaised",
      "outputs": [
        {
          "internalType": "uint256",
          "name": "",
          "type": "uint256"
        }
      ],
      "stateMutability": "view",
      "type": "function"
    },
    {
      "inputs": [],
      "name": "referrer",
      "outputs": [
        {
          "internalType": "address",
          "name": "",
          "type": "address"
        }
      ],
      "stateMutability": "view",
      "type": "function"
    },
    {
      "inputs": [
        {
          "internalType": "uint256",
          "name": "tokensIn",
          "type": "uint256"
        },
        {
          "internalType": "uint256",
          "name": "minUSDCOut",
          "type": "uint256"
        }
      ],
      "name": "sell",
      "outputs": [],
      "stateMutability": "nonpayable",
      "type": "function"
    },
    {
      "inputs": [],
      "name": "sellCount",
      "outputs": [
        {
          "internalType": "uint256",
          "name": "",
          "type": "uint256"
        }
      ],
      "stateMutability": "view",
      "type": "function"
    },
    {
      "inputs": [],
      "name": "spotPrice",
      "outputs": [
        {
          "internalType": "uint256",
          "name": "price",
          "type": "uint256"
        }
      ],
      "stateMutability": "view",
      "type": "function"
    },
    {
      "inputs": [],
      "name": "token",
      "outputs": [
        {
          "internalType": "address",
          "name": "",
          "type": "address"
        }
      ],
      "stateMutability": "view",
      "type": "function"
    },
    {
      "inputs": [],
      "name": "totalBuyVolume",
      "outputs": [
        {
          "internalType": "uint256",
          "name": "",
          "type": "uint256"
        }
      ],
      "stateMutability": "view",
      "type": "function"
    },
    {
      "inputs": [],
      "name": "totalSellVolume",
      "outputs": [
        {
          "internalType": "uint256",
          "name": "",
          "type": "uint256"
        }
      ],
      "stateMutability": "view",
      "type": "function"
    },
    {
      "inputs": [],
      "name": "uniqueBuyerCount",
      "outputs": [
        {
          "internalType": "uint256",
          "name": "",
          "type": "uint256"
        }
      ],
      "stateMutability": "view",
      "type": "function"
    },
    {
      "stateMutability": "payable",
      "type": "receive"
    }
  ],
  "bytecode": "0x608060405234801561000f575f80fd5b5060017f9b779b17422d0df92223018b32b4d1fa46e071723d6817e2486d003becc55f00556011805460ff19166001179055611bce8061004e5f395ff3fe6080604052600436106101d3575f3560e01c8063ab6ddfa8116100fd578063ca70307511610092578063e7c2b77211610062578063e7c2b77214610550578063e90ceb9f14610580578063f0a374cc1461059f578063fc0c546a146105b4575f80fd5b8063ca703075146104e9578063cc2a9a5b146104fe578063cc3cbd2a1461051d578063d79875eb14610531575f80fd5b8063bf333f2c116100cd578063bf333f2c1461046e578063c13ee4e114610482578063c1a844f0146104ad578063c45a0155146104ca575f80fd5b8063ab6ddfa814610405578063aec60fab14610430578063b9e5a03b14610445578063be3782281461045a575f80fd5b80635b1d8d97116101735780637deb6025116101435780637deb60251461039e57806396951fd8146103b3578063a64190c4146103d2578063a932492f146103f1575f80fd5b80635b1d8d97146102ce578063633136ac146102e357806368447c93146103635780636fb8320d14610382575f80fd5b8063398482d8116101ae578063398482d81461025257806341e70fa614610266578063478222c21461027b5780634beb394c1461029a575f80fd5b806302d05d3f146101de5780630c6b67371461021a5780631aab9a9f1461023d575f80fd5b366101da57005b5f80fd5b3480156101e9575f80fd5b506001546101fd906001600160a01b031681565b6040516001600160a01b0390911681526020015b60405180910390f35b348015610225575f80fd5b5061022f600b5481565b604051908152602001610211565b348015610248575f80fd5b5061022f600d5481565b34801561025d575f80fd5b5061022f6105d2565b348015610271575f80fd5b5061022f60095481565b348015610286575f80fd5b506003546101fd906001600160a01b031681565b3480156102a5575f80fd5b506102b96102b4366004611968565b61062e565b60408051928352602083019190915201610211565b3480156102d9575f80fd5b5061022f60075481565b3480156102ee575f80fd5b506102f7610752565b60405161021191905f61012082019050825182526020830151602083015260408301516040830152606083015160608301526080830151608083015260a083015160a083015260c083015160c083015260e083015160e083015261010080840151818401525092915050565b34801561036e575f80fd5b506002546101fd906001600160a01b031681565b34801561038d575f80fd5b5061022f681b1ae4d6e2ef50000081565b6103b16103ac366004611996565b610865565b005b3480156103be575f80fd5b506005546101fd906001600160a01b031681565b3480156103dd575f80fd5b506102b96103ec366004611968565b610e5b565b3480156103fc575f80fd5b5061022f610f83565b348015610410575f80fd5b5061022f61041f3660046119c4565b600e6020525f908152604090205481565b34801561043b575f80fd5b5061022f600c5481565b348015610450575f80fd5b5061022f60085481565b348015610465575f80fd5b5061022f602881565b348015610479575f80fd5b5061022f603c81565b34801561048d575f80fd5b5061022f61049c3660046119c4565b600f6020525f908152604090205481565b3480156104b8575f80fd5b5061022f69010f0cf064dd5920000081565b3480156104d5575f80fd5b506004546101fd906001600160a01b031681565b3480156104f4575f80fd5b5061022f600a5481565b348015610509575f80fd5b506103b16105183660046119e6565b610fa5565b348015610528575f80fd5b5061022f601481565b34801561053c575f80fd5b506103b161054b366004611a64565b61107e565b34801561055b575f80fd5b5060055461057090600160a01b900460ff1681565b6040519015158152602001610211565b34801561058b575f80fd5b5061022f680a18f07d736b90be55601d1b81565b3480156105aa575f80fd5b5061022f60065481565b3480156105bf575f80fd5b505f546101fd906001600160a01b031681565b5f80600654681b1ae4d6e2ef5000006105eb9190611a98565b90505f600754680a18f07d736b90be55601d1b6106089190611ab1565b90508061061d83670de0b6b3a7640000611ac4565b6106279190611adb565b9250505090565b5f808061271061063f603c86611ac4565b6106499190611adb565b90505f6106568286611ab1565b90505f600654681b1ae4d6e2ef5000006106709190611a98565b90505f61067d8383611a98565b90505f600754680a18f07d736b90be55601d1b61069a9190611ab1565b9050816106bc680a18f07d736b90be55601d1b681b1ae4d6e2ef500000611ac4565b6106c69190611adb565b6106d09082611ab1565b96508615610748575f816106ec85670de0b6b3a7640000611ac4565b6106f69190611adb565b90505f8861070c87670de0b6b3a7640000611ac4565b6107169190611adb565b905081811115610745578161271061072e8284611ab1565b6107389190611ac4565b6107429190611adb565b97505b50505b5050505050915091565b6107986040518061012001604052805f81526020015f81526020015f81526020015f81526020015f81526020015f81526020015f81526020015f81526020015f81525090565b600d546009546008545f916107ac91611a98565b90505f8082116107bc575f6107d7565b816127106008546107cd9190611ac4565b6107d79190611adb565b90505f69010f0cf064dd592000006127106006546107f59190611ac4565b6107ff9190611adb565b905061271081111561081057506127105b60405180610120016040528060085481526020016009548152602001600a548152602001600b548152602001600c548152602001600d5481526020018581526020018381526020018281525094505050505090565b61086d6114ec565b600480545f54604051635b14f18360e01b81526001600160a01b03918216938101939093521690635b14f18390602401602060405180830381865afa1580156108b8573d5f803e3d5ffd5b505050506040513d601f19601f820116820180604052508101906108dc9190611afa565b156109255760405162461bcd60e51b8152602060048201526014602482015273109bdb991a5b99d0dd5c9d994e881c185d5cd95960621b60448201526064015b60405180910390fd5b600554600160a01b900460ff16156109795760405162461bcd60e51b8152602060048201526017602482015276109bdb991a5b99d0dd5c9d994e8819dc98591d585d1959604a1b604482015260640161091c565b5f34116109c85760405162461bcd60e51b815260206004820152601860248201527f426f6e64696e6743757276653a207a65726f2076616c75650000000000000000604482015260640161091c565b6001600160a01b038116610a1e5760405162461bcd60e51b815260206004820152601c60248201527f426f6e64696e6743757276653a207a65726f20726563697069656e7400000000604482015260640161091c565b5f612710610a2d603c34611ac4565b610a379190611adb565b90505f610a448234611ab1565b90505f60065469010f0cf064dd59200000610a5f9190611ab1565b90505f80828410610ad557825f610a79603c612710611ab1565b6001610a88603c612710611ab1565b610a929190611ab1565b610a9e61271085611ac4565b610aa89190611a98565b610ab29190611adb565b9050610abe8134611ab1565b9250610aca8282611ab1565b965090945060019250505b5f600654681b1ae4d6e2ef500000610aed9190611a98565b90505f610afa8683611a98565b90505f600754680a18f07d736b90be55601d1b610b179190611ab1565b90505f82610b3a680a18f07d736b90be55601d1b681b1ae4d6e2ef500000611ac4565b610b449190611adb565b610b4e9083611ab1565b90508a811015610b995760405162461bcd60e51b8152602060048201526016602482015275426f6e64696e6743757276653a20736c69707061676560501b604482015260640161091c565b81811115610bf35760405162461bcd60e51b815260206004820152602160248201527f426f6e64696e6743757276653a20696e73756666696369656e7420746f6b656e6044820152607360f81b606482015260840161091c565b8760065f828254610c049190611a98565b925050819055508060075f828254610c1c9190611a98565b925050819055508760085f828254610c349190611a98565b9091555050600a8054905f610c4883611b19565b90915550506001600160a01b038a165f9081526010602052604090205460ff16610cbc576001600160a01b038a165f908152601060205260408120805460ff19166001179055600c805491610c9c83611b19565b90915550506001600160a01b038a165f908152600f602052604090204290555b6001600160a01b038a165f908152600e60205260408120549003610cef57600d8054905f610ce983611b19565b91905055505b6001600160a01b038a165f908152600e602052604081208054839290610d16908490611a98565b909155505060408051898152602081018390529081018a90526001600160a01b038b169033907ef93dbdb72854b6b6fb35433086556f2635fc83c37080c667496fecfa650fb49060600160405180910390a38815610d7757610d7789611507565b5f54610d8d906001600160a01b03168b836115b1565b8415610e2a576040515f90339087908381818185875af1925050503d805f8114610dd2576040519150601f19603f3d011682016040523d82523d5f602084013e610dd7565b606091505b5050905080610e285760405162461bcd60e51b815260206004820152601b60248201527f426f6e64696e6743757276653a20726566756e64206661696c65640000000000604482015260640161091c565b505b8515610e3857610e386115eb565b505050505050505050610e5760015f80516020611b7983398151915255565b5050565b5f805f600654681b1ae4d6e2ef500000610e759190611a98565b90505f84600754680a18f07d736b90be55601d1b610e939190611ab1565b610e9d9190611a98565b90505f81610ec0680a18f07d736b90be55601d1b681b1ae4d6e2ef500000611ac4565b610eca9190611adb565b610ed49084611ab1565b90505f612710610ee5603c84611ac4565b610eef9190611adb565b9050610efb8183611ab1565b95505f600754680a18f07d736b90be55601d1b610f189190611ab1565b90505f88118015610f2857505f81115b15610748575f81610f4187670de0b6b3a7640000611ac4565b610f4b9190611adb565b90505f89610f6186670de0b6b3a7640000611ac4565b610f6b9190611adb565b905080821115610745578161271061072e8383611ab1565b610fa2680a18f07d736b90be55601d1b681b1ae4d6e2ef500000611ac4565b81565b60115460ff16156110025760405162461bcd60e51b815260206004820152602160248201527f426f6e64696e6743757276653a20616c726561647920696e697469616c697a656044820152601960fa1b606482015260840161091c565b60118054600160ff1990911681179091555f80546001600160a01b03199081166001600160a01b03998a1617909155815481169688169690961790556002805486169487169490941790935560038054851692861692909217909155600480548416918516919091179055600580549092169216919091179055565b6110866114ec565b600480545f54604051635b14f18360e01b81526001600160a01b03918216938101939093521690635b14f18390602401602060405180830381865afa1580156110d1573d5f803e3d5ffd5b505050506040513d601f19601f820116820180604052508101906110f59190611afa565b156111395760405162461bcd60e51b8152602060048201526014602482015273109bdb991a5b99d0dd5c9d994e881c185d5cd95960621b604482015260640161091c565b600554600160a01b900460ff161561118d5760405162461bcd60e51b8152602060048201526017602482015276109bdb991a5b99d0dd5c9d994e8819dc98591d585d1959604a1b604482015260640161091c565b5f82116111dc5760405162461bcd60e51b815260206004820152601960248201527f426f6e64696e6743757276653a207a65726f20746f6b656e7300000000000000604482015260640161091c565b5f600654681b1ae4d6e2ef5000006111f49190611a98565b90505f83600754680a18f07d736b90be55601d1b6112129190611ab1565b61121c9190611a98565b90505f8161123f680a18f07d736b90be55601d1b681b1ae4d6e2ef500000611ac4565b6112499190611adb565b6112539084611ab1565b90506006548111156112a75760405162461bcd60e51b815260206004820152601f60248201527f426f6e64696e6743757276653a20696e73756666696369656e74205553444300604482015260640161091c565b5f6127106112b6603c84611ac4565b6112c09190611adb565b90505f6112cd8284611ab1565b9050858110156113185760405162461bcd60e51b8152602060048201526016602482015275426f6e64696e6743757276653a20736c69707061676560501b604482015260640161091c565b8260065f8282546113299190611ab1565b925050819055508660075f8282546113419190611ab1565b925050819055508260095f8282546113599190611a98565b9091555050600b8054905f61136d83611b19565b9091555050335f908152600e602052604090205480156113d1578088106113b757335f908152600e60205260408120819055600d8054916113ad83611b31565b91905055506113d1565b6113c18882611ab1565b335f908152600e60205260409020555b604080518981526020810184905290810184905233907f846c37eef631e0943682d87352ec117c20008eb7f425c9b85ac011a6d4774cc09060600160405180910390a25f5461142b906001600160a01b031633308b61182c565b821561143a5761143a83611507565b6040515f90339084908381818185875af1925050503d805f8114611479576040519150601f19603f3d011682016040523d82523d5f602084013e61147e565b606091505b50509050806114cf5760405162461bcd60e51b815260206004820152601d60248201527f426f6e64696e6743757276653a207472616e73666572206661696c6564000000604482015260640161091c565b50505050505050610e5760015f80516020611b7983398151915255565b6114f4611868565b60025f80516020611b7983398151915255565b5f603c611515602884611ac4565b61151f9190611adb565b90505f61152c8284611ab1565b60035460015460025460405163413a883160e11b81526001600160a01b039283166004820152908216602482015260448101869052606481018490525f60848201529293501690638275106290859060a4015f604051808303818588803b158015611595575f80fd5b505af11580156115a7573d5f803e3d5ffd5b5050505050505050565b6115be8383836001611899565b6115e657604051635274afe760e01b81526001600160a01b038416600482015260240161091c565b505050565b6005805460ff60a01b1916600160a01b1790555f80546040516370a0823160e01b81523060048201526001600160a01b03909116906370a0823190602401602060405180830381865afa158015611644573d5f803e3d5ffd5b505050506040513d601f19601f820116820180604052508101906116689190611b46565b6006545f5460055460405163095ea7b360e01b81526001600160a01b03918216600482015260248101859052939450919291169063095ea7b3906044016020604051808303815f875af11580156116c1573d5f803e3d5ffd5b505050506040513d601f19601f820116820180604052508101906116e59190611afa565b506005545f80546001546002546040516324f241ed60e21b81526001600160a01b03938416600482015291831660248301528216604482015260648101869052919216906393c907b490849060840160206040518083038185885af1158015611750573d5f803e3d5ffd5b50505050506040513d601f19601f820116820180604052508101906117759190611b5d565b5f5460408051858152602081018790529293506001600160a01b03808516939216917f18a56450d3c666e2bae9e0829fcada82a9ab0deef6e33c2496752c88d4155c9d910160405180910390a3600480545f546040516330c2bfdd60e01b81526001600160a01b0391821693810193909352838116602484015216906330c2bfdd906044015f604051808303815f87803b158015611811575f80fd5b505af1158015611823573d5f803e3d5ffd5b50505050505050565b61183a8484848460016118fb565b61186257604051635274afe760e01b81526001600160a01b038516600482015260240161091c565b50505050565b5f80516020611b798339815191525460020361189757604051633ee5aeb560e01b815260040160405180910390fd5b565b60405163a9059cbb60e01b5f8181526001600160a01b038616600452602485905291602083604481808b5af1925060015f511483166118ef5783831516156118e3573d5f823e3d81fd5b5f873b113d1516831692505b60405250949350505050565b6040516323b872dd60e01b5f8181526001600160a01b038781166004528616602452604485905291602083606481808c5af1925060015f5114831661195757838315161561194b573d5f823e3d81fd5b5f883b113d1516831692505b604052505f60605295945050505050565b5f60208284031215611978575f80fd5b5035919050565b6001600160a01b0381168114611993575f80fd5b50565b5f80604083850312156119a7575f80fd5b8235915060208301356119b98161197f565b809150509250929050565b5f602082840312156119d4575f80fd5b81356119df8161197f565b9392505050565b5f805f805f8060c087890312156119fb575f80fd5b8635611a068161197f565b95506020870135611a168161197f565b94506040870135611a268161197f565b93506060870135611a368161197f565b92506080870135611a468161197f565b915060a0870135611a568161197f565b809150509295509295509295565b5f8060408385031215611a75575f80fd5b50508035926020909101359150565b634e487b7160e01b5f52601160045260245ffd5b80820180821115611aab57611aab611a84565b92915050565b81810381811115611aab57611aab611a84565b8082028115828204841417611aab57611aab611a84565b5f82611af557634e487b7160e01b5f52601260045260245ffd5b500490565b5f60208284031215611b0a575f80fd5b815180151581146119df575f80fd5b5f60018201611b2a57611b2a611a84565b5060010190565b5f81611b3f57611b3f611a84565b505f190190565b5f60208284031215611b56575f80fd5b5051919050565b5f60208284031215611b6d575f80fd5b81516119df8161197f56fe9b779b17422d0df92223018b32b4d1fa46e071723d6817e2486d003becc55f00a2646970667358221220fa12e91141e433f76cf0954c406d555e7ada53b61f6e912f77232d7cc05af65364736f6c63430008180033",
  "linkReferences": {},
  "deployedLinkReferences": {},
  "immutableReferences": {},
  "inputSourceName": "project/contracts/BondingCurve.sol",
  "buildInfoId": "solc-0_8_24-5869f655642f4453cb7a1ae3a723731b073f53e7"
}