{
  "_format": "hh3-artifact-1",
  "contractName": "FeeVault",
  "sourceName": "contracts/FeeVault.sol",
  "abi": [
    {
      "inputs": [],
      "stateMutability": "nonpayable",
      "type": "constructor"
    },
    {
      "inputs": [
        {
          "internalType": "address",
          "name": "owner",
          "type": "address"
        }
      ],
      "name": "OwnableInvalidOwner",
      "type": "error"
    },
    {
      "inputs": [
        {
          "internalType": "address",
          "name": "account",
          "type": "address"
        }
      ],
      "name": "OwnableUnauthorizedAccount",
      "type": "error"
    },
    {
      "inputs": [
        {
          "internalType": "address",
          "name": "token",
          "type": "address"
        }
      ],
      "name": "SafeERC20FailedOperation",
      "type": "error"
    },
    {
      "anonymous": false,
      "inputs": [
        {
          "indexed": true,
          "internalType": "address",
          "name": "creator",
          "type": "address"
        },
        {
          "indexed": false,
          "internalType": "uint256",
          "name": "amount",
          "type": "uint256"
        }
      ],
      "name": "CreatorFeesClaimed",
      "type": "event"
    },
    {
      "anonymous": false,
      "inputs": [
        {
          "indexed": true,
          "internalType": "address",
          "name": "factory_",
          "type": "address"
        }
      ],
      "name": "FactoryAuthorized",
      "type": "event"
    },
    {
      "anonymous": false,
      "inputs": [
        {
          "indexed": true,
          "internalType": "address",
          "name": "factory_",
          "type": "address"
        }
      ],
      "name": "FactoryRevoked",
      "type": "event"
    },
    {
      "anonymous": false,
      "inputs": [
        {
          "indexed": true,
          "internalType": "address",
          "name": "previousOwner",
          "type": "address"
        },
        {
          "indexed": true,
          "internalType": "address",
          "name": "newOwner",
          "type": "address"
        }
      ],
      "name": "OwnershipTransferred",
      "type": "event"
    },
    {
      "anonymous": false,
      "inputs": [
        {
          "indexed": true,
          "internalType": "address",
          "name": "source",
          "type": "address"
        },
        {
          "indexed": false,
          "internalType": "uint256",
          "name": "amount",
          "type": "uint256"
        }
      ],
      "name": "ProtocolFeeDeposited",
      "type": "event"
    },
    {
      "anonymous": false,
      "inputs": [
        {
          "indexed": true,
          "internalType": "address",
          "name": "to",
          "type": "address"
        },
        {
          "indexed": false,
          "internalType": "uint256",
          "name": "amount",
          "type": "uint256"
        }
      ],
      "name": "ProtocolFeesClaimed",
      "type": "event"
    },
    {
      "anonymous": false,
      "inputs": [
        {
          "indexed": true,
          "internalType": "address",
          "name": "referrer",
          "type": "address"
        },
        {
          "indexed": false,
          "internalType": "uint256",
          "name": "amount",
          "type": "uint256"
        }
      ],
      "name": "ReferrerFeesClaimed",
      "type": "event"
    },
    {
      "anonymous": false,
      "inputs": [
        {
          "indexed": true,
          "internalType": "address",
          "name": "secondOwner_",
          "type": "address"
        }
      ],
      "name": "SecondOwnerSet",
      "type": "event"
    },
    {
      "anonymous": false,
      "inputs": [
        {
          "indexed": true,
          "internalType": "address",
          "name": "source",
          "type": "address"
        }
      ],
      "name": "SourceAuthorized",
      "type": "event"
    },
    {
      "anonymous": false,
      "inputs": [
        {
          "indexed": true,
          "internalType": "address",
          "name": "source",
          "type": "address"
        }
      ],
      "name": "SourceRevoked",
      "type": "event"
    },
    {
      "anonymous": false,
      "inputs": [
        {
          "indexed": true,
          "internalType": "address",
          "name": "source",
          "type": "address"
        },
        {
          "indexed": true,
          "internalType": "address",
          "name": "creator",
          "type": "address"
        },
        {
          "indexed": true,
          "internalType": "address",
          "name": "referrer",
          "type": "address"
        },
        {
          "indexed": false,
          "internalType": "uint256",
          "name": "protocolAmt",
          "type": "uint256"
        },
        {
          "indexed": false,
          "internalType": "uint256",
          "name": "creatorAmt",
          "type": "uint256"
        }
      ],
      "name": "SplitFeeDeposited",
      "type": "event"
    },
    {
      "inputs": [],
      "name": "REFERRAL_SHARE_OF_CREATOR",
      "outputs": [
        {
          "internalType": "uint256",
          "name": "",
          "type": "uint256"
        }
      ],
      "stateMutability": "view",
      "type": "function"
    },
    {
      "inputs": [
        {
          "internalType": "address",
          "name": "factory_",
          "type": "address"
        }
      ],
      "name": "authorizeFactory",
      "outputs": [],
      "stateMutability": "nonpayable",
      "type": "function"
    },
    {
      "inputs": [
        {
          "internalType": "address",
          "name": "source",
          "type": "address"
        }
      ],
      "name": "authorizeSource",
      "outputs": [],
      "stateMutability": "nonpayable",
      "type": "function"
    },
    {
      "inputs": [
        {
          "internalType": "address",
          "name": "",
          "type": "address"
        }
      ],
      "name": "authorizedFactories",
      "outputs": [
        {
          "internalType": "bool",
          "name": "",
          "type": "bool"
        }
      ],
      "stateMutability": "view",
      "type": "function"
    },
    {
      "inputs": [
        {
          "internalType": "address",
          "name": "",
          "type": "address"
        }
      ],
      "name": "authorizedSources",
      "outputs": [
        {
          "internalType": "bool",
          "name": "",
          "type": "bool"
        }
      ],
      "stateMutability": "view",
      "type": "function"
    },
    {
      "inputs": [],
      "name": "claimCreatorFees",
      "outputs": [],
      "stateMutability": "nonpayable",
      "type": "function"
    },
    {
      "inputs": [],
      "name": "claimProtocolFees",
      "outputs": [],
      "stateMutability": "nonpayable",
      "type": "function"
    },
    {
      "inputs": [],
      "name": "claimReferrerFees",
      "outputs": [],
      "stateMutability": "nonpayable",
      "type": "function"
    },
    {
      "inputs": [
        {
          "internalType": "address",
          "name": "",
          "type": "address"
        }
      ],
      "name": "creatorClaimable",
      "outputs": [
        {
          "internalType": "uint256",
          "name": "",
          "type": "uint256"
        }
      ],
      "stateMutability": "view",
      "type": "function"
    },
    {
      "inputs": [],
      "name": "depositProtocolFee",
      "outputs": [],
      "stateMutability": "payable",
      "type": "function"
    },
    {
      "inputs": [
        {
          "internalType": "address",
          "name": "creator",
          "type": "address"
        },
        {
          "internalType": "address",
          "name": "referrer",
          "type": "address"
        },
        {
          "internalType": "uint256",
          "name": "protocolAmt",
          "type": "uint256"
        },
        {
          "internalType": "uint256",
          "name": "creatorAmt",
          "type": "uint256"
        }
      ],
      "name": "depositSplitFee",
      "outputs": [],
      "stateMutability": "payable",
      "type": "function"
    },
    {
      "inputs": [],
      "name": "owner",
      "outputs": [
        {
          "internalType": "address",
          "name": "",
          "type": "address"
        }
      ],
      "stateMutability": "view",
      "type": "function"
    },
    {
      "inputs": [],
      "name": "protocolClaimable",
      "outputs": [
        {
          "internalType": "uint256",
          "name": "",
          "type": "uint256"
        }
      ],
      "stateMutability": "view",
      "type": "function"
    },
    {
      "inputs": [
        {
          "internalType": "address",
          "name": "",
          "type": "address"
        }
      ],
      "name": "referrerClaimable",
      "outputs": [
        {
          "internalType": "uint256",
          "name": "",
          "type": "uint256"
        }
      ],
      "stateMutability": "view",
      "type": "function"
    },
    {
      "inputs": [],
      "name": "renounceOwnership",
      "outputs": [],
      "stateMutability": "nonpayable",
      "type": "function"
    },
    {
      "inputs": [
        {
          "internalType": "address",
          "name": "token",
          "type": "address"
        },
        {
          "internalType": "address",
          "name": "to",
          "type": "address"
        },
        {
          "internalType": "uint256",
          "name": "amount",
          "type": "uint256"
        }
      ],
      "name": "rescueERC20",
      "outputs": [],
      "stateMutability": "nonpayable",
      "type": "function"
    },
    {
      "inputs": [
        {
          "internalType": "address",
          "name": "to",
          "type": "address"
        }
      ],
      "name": "rescueExcessNative",
      "outputs": [],
      "stateMutability": "nonpayable",
      "type": "function"
    },
    {
      "inputs": [
        {
          "internalType": "address",
          "name": "factory_",
          "type": "address"
        }
      ],
      "name": "revokeFactory",
      "outputs": [],
      "stateMutability": "nonpayable",
      "type": "function"
    },
    {
      "inputs": [
        {
          "internalType": "address",
          "name": "source",
          "type": "address"
        }
      ],
      "name": "revokeSource",
      "outputs": [],
      "stateMutability": "nonpayable",
      "type": "function"
    },
    {
      "inputs": [],
      "name": "secondOwner",
      "outputs": [
        {
          "internalType": "address",
          "name": "",
          "type": "address"
        }
      ],
      "stateMutability": "view",
      "type": "function"
    },
    {
      "inputs": [
        {
          "internalType": "address",
          "name": "secondOwner_",
          "type": "address"
        }
      ],
      "name": "setSecondOwner",
      "outputs": [],
      "stateMutability": "nonpayable",
      "type": "function"
    },
    {
      "inputs": [],
      "name": "totalAccountedUSDC",
      "outputs": [
        {
          "internalType": "uint256",
          "name": "",
          "type": "uint256"
        }
      ],
      "stateMutability": "view",
      "type": "function"
    },
    {
      "inputs": [
        {
          "internalType": "address",
          "name": "newOwner",
          "type": "address"
        }
      ],
      "name": "transferOwnership",
      "outputs": [],
      "stateMutability": "nonpayable",
      "type": "function"
    },
    {
      "stateMutability": "payable",
      "type": "receive"
    }
  ],
  "bytecode": "0x608060405234801561000f575f80fd5b50338061003557604051631e4fbdf760e01b81525f600482015260240160405180910390fd5b61003e81610044565b50610093565b5f80546001600160a01b038381166001600160a01b0319831681178455604051919092169283917f8be0079c531659141344cd1fd0a4f28419497f9722a3daafe3b4186f6b6457e09190a35050565b6110db806100a05f395ff3fe60806040526004361061013e575f3560e01c80638da5cb5b116100b3578063bbedb64b1161006d578063bbedb64b14610356578063ce228ad214610375578063dcd6fcaf1461038a578063e5b769c4146103a9578063ecd24a82146103c8578063f2fde38b146103f6575f80fd5b80638da5cb5b146102a1578063939ad2c2146102bd578063964ebf42146102c5578063acbb262514610303578063b2118a8d14610322578063bbd93c4b14610341575f80fd5b8063351fee4611610104578063351fee46146101ef5780634a7d036914610203578063636c26561461021757806365b08e091461024257806368a9f31c14610256578063715018a61461028d575f80fd5b80621189dd146101495780630417a7101461016a578063121f612c14610192578063181fd012146101a557806327cca4e4146101c4575f80fd5b3661014557005b5f80fd5b348015610154575f80fd5b50610168610163366004610f60565b610415565b005b348015610175575f80fd5b5061017f6107d081565b6040519081526020015b60405180910390f35b6101686101a0366004610f80565b610465565b3480156101b0575f80fd5b506101686101bf366004610f60565b610672565b3480156101cf575f80fd5b5061017f6101de366004610f60565b60036020525f908152604090205481565b3480156101fa575f80fd5b506101686106c5565b34801561020e575f80fd5b5061016861075d565b348015610222575f80fd5b5061017f610231366004610f60565b60026020525f908152604090205481565b34801561024d575f80fd5b5061016861094e565b348015610261575f80fd5b50600554610275906001600160a01b031681565b6040516001600160a01b039091168152602001610189565b348015610298575f80fd5b506101686109df565b3480156102ac575f80fd5b505f546001600160a01b0316610275565b6101686109f2565b3480156102d0575f80fd5b506102f36102df366004610f60565b60066020525f908152604090205460ff1681565b6040519015158152602001610189565b34801561030e575f80fd5b5061016861031d366004610f60565b610ab5565b34801561032d575f80fd5b5061016861033c366004610fbf565b610b72565b34801561034c575f80fd5b5061017f60045481565b348015610361575f80fd5b50610168610370366004610f60565b610b93565b348015610380575f80fd5b5061017f60015481565b348015610395575f80fd5b506101686103a4366004610f60565b610c9e565b3480156103b4575f80fd5b506101686103c3366004610f60565b610cee565b3480156103d3575f80fd5b506102f36103e2366004610f60565b60076020525f908152604090205460ff1681565b348015610401575f80fd5b50610168610410366004610f60565b610d5a565b61041d610d94565b6001600160a01b0381165f81815260076020526040808220805460ff19169055517fd25dd45a1811dc9170ab90c454ef2024f3086a79da5279a8d42f39bdda8f36d19190a250565b335f9081526006602052604090205460ff166104c85760405162461bcd60e51b815260206004820152601f60248201527f4665655661756c743a206e6f7420617574686f72697a656420736f757263650060448201526064015b60405180910390fd5b6104d2818361100c565b34146105205760405162461bcd60e51b815260206004820152601860248201527f4665655661756c743a2076616c7565206d69736d61746368000000000000000060448201526064016104bf565b8160015f828254610531919061100c565b90915550506001600160a01b0383161580159061054d57505f81115b156105de575f6127106105626107d084611025565b61056c919061103c565b90505f610579828461105b565b6001600160a01b0387165f908152600260205260408120805492935083929091906105a590849061100c565b90915550506001600160a01b0385165f90815260036020526040812080548492906105d190849061100c565b9091555061060b92505050565b6001600160a01b0384165f908152600260205260408120805483929061060590849061100c565b90915550505b3460045f82825461061c919061100c565b909155505060408051838152602081018390526001600160a01b03808616929087169133917f6f1812ac60560add64fe1009bc946edfacfc179d8e6eafbd8c4fc934101ee283910160405180910390a450505050565b61067a610d94565b6001600160a01b0381165f81815260076020526040808220805460ff19166001179055517f2fa23115f2b369fc34eda97ccf6bc2fab82882719f0547f3e45a9a400086aeae9190a250565b335f90815260026020526040902054806106f15760405162461bcd60e51b81526004016104bf9061106e565b335f9081526002602052604081208190556004805483929061071490849061105b565b9091555061072490503382610dc0565b60405181815233907fd046302bdc39599e60a5981e59227dcd1c643f512f56f2e984390c3ac6eadedb906020015b60405180910390a250565b5f546001600160a01b031633148061077f57506005546001600160a01b031633145b6107c45760405162461bcd60e51b81526020600482015260166024820152752332b2ab30bab63a1d103737ba1030b71037bbb732b960511b60448201526064016104bf565b600154806107e45760405162461bcd60e51b81526004016104bf9061106e565b5f6001819055508060045f8282546107fc919061105b565b90915550506005546001600160a01b0316156108f2575f61081e60028361103c565b90505f61082b828461105b565b600554909150610844906001600160a01b031683610dc0565b61085e6108585f546001600160a01b031690565b82610dc0565b5f546001600160a01b03166001600160a01b03167f0f58cb6262d88971b87878468debb7bc81f1714be597710e16a9fb84c66ff7b5826040516108a391815260200190565b60405180910390a26005546040518381526001600160a01b03909116907f0f58cb6262d88971b87878468debb7bc81f1714be597710e16a9fb84c66ff7b59060200160405180910390a2505050565b6109066108585f546001600160a01b031690565b5f546001600160a01b03166001600160a01b03167f0f58cb6262d88971b87878468debb7bc81f1714be597710e16a9fb84c66ff7b58260405161075291815260200190565b50565b335f908152600360205260409020548061097a5760405162461bcd60e51b81526004016104bf9061106e565b335f9081526003602052604081208190556004805483929061099d90849061105b565b909155506109ad90503382610dc0565b60405181815233907f2546672a975ef5e2de5a33b38c7ff4453d874ce5f273494c6544790c8c0c4e9990602001610752565b6109e7610d94565b6109f05f610e5f565b565b335f9081526006602052604090205460ff16610a505760405162461bcd60e51b815260206004820152601f60248201527f4665655661756c743a206e6f7420617574686f72697a656420736f757263650060448201526064016104bf565b3460015f828254610a61919061100c565b925050819055503460045f828254610a79919061100c565b909155505060405134815233907f976cb2034efd8460171c354591cdd9fc14fcabda0805ee745de0215f3583ded29060200160405180910390a2565b5f546001600160a01b0316331480610adb5750335f9081526007602052604090205460ff165b610b275760405162461bcd60e51b815260206004820152601e60248201527f4665655661756c743a206e6f74206f776e6572206f7220666163746f7279000060448201526064016104bf565b6001600160a01b0381165f81815260066020526040808220805460ff19166001179055517f4259866215295669a8aa580379fdb1207113bfbe3fd2e1915e992bdba65acc079190a250565b610b7a610d94565b610b8e6001600160a01b0384168383610eae565b505050565b610b9b610d94565b6001600160a01b038116610bea5760405162461bcd60e51b81526020600482015260166024820152754665655661756c743a207a65726f206164647265737360501b60448201526064016104bf565b5f546001600160a01b03166001600160a01b0316816001600160a01b031603610c555760405162461bcd60e51b815260206004820152601f60248201527f4665655661756c743a2073616d65206173207072696d617279206f776e65720060448201526064016104bf565b600580546001600160a01b0319166001600160a01b0383169081179091556040517fbea61419e66bc3a01913ee169e373798b049e2089baeafab7381467a5cd7a3e4905f90a250565b610ca6610d94565b6001600160a01b0381165f81815260066020526040808220805460ff19169055517ffe99fcb294979665c2561e12bf52a9b17f0412fdafecd42b4642a8582637322a9190a250565b610cf6610d94565b5f60045447610d05919061105b565b90505f8111610d4c5760405162461bcd60e51b81526020600482015260136024820152724665655661756c743a206e6f2065786365737360681b60448201526064016104bf565b610d568282610dc0565b5050565b610d62610d94565b6001600160a01b038116610d8b57604051631e4fbdf760e01b81525f60048201526024016104bf565b61094b81610e5f565b5f546001600160a01b031633146109f05760405163118cdaa760e01b81523360048201526024016104bf565b5f826001600160a01b0316826040515f6040518083038185875af1925050503d805f8114610e09576040519150601f19603f3d011682016040523d82523d5f602084013e610e0e565b606091505b5050905080610b8e5760405162461bcd60e51b815260206004820181905260248201527f4665655661756c743a206e6174697665207472616e73666572206661696c656460448201526064016104bf565b5f80546001600160a01b038381166001600160a01b0319831681178455604051919092169283917f8be0079c531659141344cd1fd0a4f28419497f9722a3daafe3b4186f6b6457e09190a35050565b610ebb8383836001610ee3565b610b8e57604051635274afe760e01b81526001600160a01b03841660048201526024016104bf565b60405163a9059cbb60e01b5f8181526001600160a01b038616600452602485905291602083604481808b5af1925060015f51148316610f39578383151615610f2d573d5f823e3d81fd5b5f873b113d1516831692505b60405250949350505050565b80356001600160a01b0381168114610f5b575f80fd5b919050565b5f60208284031215610f70575f80fd5b610f7982610f45565b9392505050565b5f805f8060808587031215610f93575f80fd5b610f9c85610f45565b9350610faa60208601610f45565b93969395505050506040820135916060013590565b5f805f60608486031215610fd1575f80fd5b610fda84610f45565b9250610fe860208501610f45565b9150604084013590509250925092565b634e487b7160e01b5f52601160045260245ffd5b8082018082111561101f5761101f610ff8565b92915050565b808202811582820484141761101f5761101f610ff8565b5f8261105657634e487b7160e01b5f52601260045260245ffd5b500490565b8181038181111561101f5761101f610ff8565b6020808252601a908201527f4665655661756c743a206e6f7468696e6720746f20636c61696d00000000000060408201526060019056fea26469706673582212206a4d44687f9661e2fa2558e8ea897b08f4a7de4a31a2acc84fe34cfba5af187664736f6c63430008180033",
  "linkReferences": {},
  "deployedLinkReferences": {},
  "immutableReferences": {},
  "inputSourceName": "project/contracts/FeeVault.sol",
  "buildInfoId": "solc-0_8_24-3fe038c30ced612ccda2ce1eda4dcbd586166f91"
}