{
  "_format": "hh3-artifact-1",
  "contractName": "TokenFactory",
  "sourceName": "contracts/TokenFactory.sol",
  "abi": [
    {
      "inputs": [
        {
          "internalType": "address",
          "name": "_launchTokenImpl",
          "type": "address"
        },
        {
          "internalType": "address",
          "name": "_bondingCurveImpl",
          "type": "address"
        },
        {
          "internalType": "address",
          "name": "_vestingVaultImpl",
          "type": "address"
        },
        {
          "internalType": "address",
          "name": "_postMigrationFactory",
          "type": "address"
        },
        {
          "internalType": "address",
          "name": "_feeVault",
          "type": "address"
        },
        {
          "internalType": "uint256",
          "name": "_defaultCliffDays",
          "type": "uint256"
        }
      ],
      "stateMutability": "nonpayable",
      "type": "constructor"
    },
    {
      "inputs": [],
      "name": "FailedDeployment",
      "type": "error"
    },
    {
      "inputs": [
        {
          "internalType": "uint256",
          "name": "balance",
          "type": "uint256"
        },
        {
          "internalType": "uint256",
          "name": "needed",
          "type": "uint256"
        }
      ],
      "name": "InsufficientBalance",
      "type": "error"
    },
    {
      "inputs": [
        {
          "internalType": "address",
          "name": "owner",
          "type": "address"
        }
      ],
      "name": "OwnableInvalidOwner",
      "type": "error"
    },
    {
      "inputs": [
        {
          "internalType": "address",
          "name": "account",
          "type": "address"
        }
      ],
      "name": "OwnableUnauthorizedAccount",
      "type": "error"
    },
    {
      "anonymous": false,
      "inputs": [
        {
          "indexed": true,
          "internalType": "address",
          "name": "creator",
          "type": "address"
        }
      ],
      "name": "ArenaWin",
      "type": "event"
    },
    {
      "anonymous": false,
      "inputs": [
        {
          "indexed": true,
          "internalType": "address",
          "name": "token",
          "type": "address"
        }
      ],
      "name": "CurvePaused",
      "type": "event"
    },
    {
      "anonymous": false,
      "inputs": [
        {
          "indexed": true,
          "internalType": "address",
          "name": "token",
          "type": "address"
        }
      ],
      "name": "CurveUnpaused",
      "type": "event"
    },
    {
      "anonymous": false,
      "inputs": [
        {
          "indexed": true,
          "internalType": "address",
          "name": "previousOwner",
          "type": "address"
        },
        {
          "indexed": true,
          "internalType": "address",
          "name": "newOwner",
          "type": "address"
        }
      ],
      "name": "OwnershipTransferred",
      "type": "event"
    },
    {
      "anonymous": false,
      "inputs": [
        {
          "indexed": true,
          "internalType": "address",
          "name": "token",
          "type": "address"
        }
      ],
      "name": "SocialLinksUpdated",
      "type": "event"
    },
    {
      "anonymous": false,
      "inputs": [
        {
          "indexed": true,
          "internalType": "address",
          "name": "token",
          "type": "address"
        },
        {
          "indexed": true,
          "internalType": "address",
          "name": "curve",
          "type": "address"
        },
        {
          "indexed": true,
          "internalType": "address",
          "name": "creator",
          "type": "address"
        },
        {
          "indexed": false,
          "internalType": "string",
          "name": "name",
          "type": "string"
        },
        {
          "indexed": false,
          "internalType": "string",
          "name": "symbol",
          "type": "string"
        }
      ],
      "name": "TokenCreated",
      "type": "event"
    },
    {
      "anonymous": false,
      "inputs": [
        {
          "indexed": true,
          "internalType": "address",
          "name": "token",
          "type": "address"
        },
        {
          "indexed": true,
          "internalType": "address",
          "name": "pool",
          "type": "address"
        }
      ],
      "name": "TokenGraduated",
      "type": "event"
    },
    {
      "inputs": [],
      "name": "arenaRegistry",
      "outputs": [
        {
          "internalType": "address",
          "name": "",
          "type": "address"
        }
      ],
      "stateMutability": "view",
      "type": "function"
    },
    {
      "inputs": [],
      "name": "bondingCurveImpl",
      "outputs": [
        {
          "internalType": "address",
          "name": "",
          "type": "address"
        }
      ],
      "stateMutability": "view",
      "type": "function"
    },
    {
      "inputs": [
        {
          "components": [
            {
              "internalType": "string",
              "name": "name",
              "type": "string"
            },
            {
              "internalType": "string",
              "name": "symbol",
              "type": "string"
            },
            {
              "internalType": "string",
              "name": "description",
              "type": "string"
            },
            {
              "internalType": "string",
              "name": "imageURI",
              "type": "string"
            },
            {
              "components": [
                {
                  "internalType": "string",
                  "name": "website",
                  "type": "string"
                },
                {
                  "internalType": "string",
                  "name": "twitter",
                  "type": "string"
                },
                {
                  "internalType": "string",
                  "name": "telegram",
                  "type": "string"
                },
                {
                  "internalType": "string",
                  "name": "discord",
                  "type": "string"
                },
                {
                  "internalType": "string",
                  "name": "extra",
                  "type": "string"
                }
              ],
              "internalType": "struct TokenFactory.SocialLinks",
              "name": "links",
              "type": "tuple"
            },
            {
              "internalType": "address[]",
              "name": "beneficiaries",
              "type": "address[]"
            },
            {
              "internalType": "uint256[]",
              "name": "bpsAllocations",
              "type": "uint256[]"
            },
            {
              "internalType": "uint256",
              "name": "cliffDays",
              "type": "uint256"
            },
            {
              "internalType": "address",
              "name": "referrer",
              "type": "address"
            }
          ],
          "internalType": "struct TokenFactory.CreateParams",
          "name": "p",
          "type": "tuple"
        }
      ],
      "name": "createToken",
      "outputs": [
        {
          "internalType": "address",
          "name": "tokenAddr",
          "type": "address"
        },
        {
          "internalType": "address",
          "name": "curveAddr",
          "type": "address"
        }
      ],
      "stateMutability": "payable",
      "type": "function"
    },
    {
      "inputs": [],
      "name": "defaultCliffDays",
      "outputs": [
        {
          "internalType": "uint256",
          "name": "",
          "type": "uint256"
        }
      ],
      "stateMutability": "view",
      "type": "function"
    },
    {
      "inputs": [],
      "name": "feeVault",
      "outputs": [
        {
          "internalType": "address",
          "name": "",
          "type": "address"
        }
      ],
      "stateMutability": "view",
      "type": "function"
    },
    {
      "inputs": [
        {
          "internalType": "address",
          "name": "creator_",
          "type": "address"
        }
      ],
      "name": "getCreatorStats",
      "outputs": [
        {
          "internalType": "uint256",
          "name": "tokensCreated",
          "type": "uint256"
        },
        {
          "internalType": "uint256",
          "name": "tokensGraduated",
          "type": "uint256"
        },
        {
          "internalType": "uint256",
          "name": "arenaBattlesWon",
          "type": "uint256"
        },
        {
          "internalType": "address[]",
          "name": "tokenList",
          "type": "address[]"
        }
      ],
      "stateMutability": "view",
      "type": "function"
    },
    {
      "inputs": [
        {
          "internalType": "uint256",
          "name": "offset",
          "type": "uint256"
        },
        {
          "internalType": "uint256",
          "name": "limit",
          "type": "uint256"
        }
      ],
      "name": "getGraduatedTokens",
      "outputs": [
        {
          "components": [
            {
              "internalType": "address",
              "name": "token",
              "type": "address"
            },
            {
              "internalType": "address",
              "name": "curve",
              "type": "address"
            },
            {
              "internalType": "address",
              "name": "vestingVault",
              "type": "address"
            },
            {
              "internalType": "address",
              "name": "creator",
              "type": "address"
            },
            {
              "internalType": "address",
              "name": "referrer",
              "type": "address"
            },
            {
              "internalType": "string",
              "name": "name",
              "type": "string"
            },
            {
              "internalType": "string",
              "name": "symbol",
              "type": "string"
            },
            {
              "internalType": "string",
              "name": "description",
              "type": "string"
            },
            {
              "internalType": "string",
              "name": "imageURI",
              "type": "string"
            },
            {
              "components": [
                {
                  "internalType": "string",
                  "name": "website",
                  "type": "string"
                },
                {
                  "internalType": "string",
                  "name": "twitter",
                  "type": "string"
                },
                {
                  "internalType": "string",
                  "name": "telegram",
                  "type": "string"
                },
                {
                  "internalType": "string",
                  "name": "discord",
                  "type": "string"
                },
                {
                  "internalType": "string",
                  "name": "extra",
                  "type": "string"
                }
              ],
              "internalType": "struct TokenFactory.SocialLinks",
              "name": "links",
              "type": "tuple"
            },
            {
              "internalType": "uint256",
              "name": "createdAt",
              "type": "uint256"
            },
            {
              "internalType": "bool",
              "name": "graduated",
              "type": "bool"
            },
            {
              "internalType": "address",
              "name": "migrationPool",
              "type": "address"
            }
          ],
          "internalType": "struct TokenFactory.TokenRecord[]",
          "name": "",
          "type": "tuple[]"
        }
      ],
      "stateMutability": "view",
      "type": "function"
    },
    {
      "inputs": [],
      "name": "getTokenCount",
      "outputs": [
        {
          "internalType": "uint256",
          "name": "",
          "type": "uint256"
        }
      ],
      "stateMutability": "view",
      "type": "function"
    },
    {
      "inputs": [
        {
          "internalType": "address",
          "name": "tokenAddr",
          "type": "address"
        }
      ],
      "name": "getTokenRecord",
      "outputs": [
        {
          "components": [
            {
              "internalType": "address",
              "name": "token",
              "type": "address"
            },
            {
              "internalType": "address",
              "name": "curve",
              "type": "address"
            },
            {
              "internalType": "address",
              "name": "vestingVault",
              "type": "address"
            },
            {
              "internalType": "address",
              "name": "creator",
              "type": "address"
            },
            {
              "internalType": "address",
              "name": "referrer",
              "type": "address"
            },
            {
              "internalType": "string",
              "name": "name",
              "type": "string"
            },
            {
              "internalType": "string",
              "name": "symbol",
              "type": "string"
            },
            {
              "internalType": "string",
              "name": "description",
              "type": "string"
            },
            {
              "internalType": "string",
              "name": "imageURI",
              "type": "string"
            },
            {
              "components": [
                {
                  "internalType": "string",
                  "name": "website",
                  "type": "string"
                },
                {
                  "internalType": "string",
                  "name": "twitter",
                  "type": "string"
                },
                {
                  "internalType": "string",
                  "name": "telegram",
                  "type": "string"
                },
                {
                  "internalType": "string",
                  "name": "discord",
                  "type": "string"
                },
                {
                  "internalType": "string",
                  "name": "extra",
                  "type": "string"
                }
              ],
              "internalType": "struct TokenFactory.SocialLinks",
              "name": "links",
              "type": "tuple"
            },
            {
              "internalType": "uint256",
              "name": "createdAt",
              "type": "uint256"
            },
            {
              "internalType": "bool",
              "name": "graduated",
              "type": "bool"
            },
            {
              "internalType": "address",
              "name": "migrationPool",
              "type": "address"
            }
          ],
          "internalType": "struct TokenFactory.TokenRecord",
          "name": "",
          "type": "tuple"
        }
      ],
      "stateMutability": "view",
      "type": "function"
    },
    {
      "inputs": [
        {
          "internalType": "uint256",
          "name": "offset",
          "type": "uint256"
        },
        {
          "internalType": "uint256",
          "name": "limit",
          "type": "uint256"
        }
      ],
      "name": "getTokens",
      "outputs": [
        {
          "components": [
            {
              "internalType": "address",
              "name": "token",
              "type": "address"
            },
            {
              "internalType": "address",
              "name": "curve",
              "type": "address"
            },
            {
              "internalType": "address",
              "name": "vestingVault",
              "type": "address"
            },
            {
              "internalType": "address",
              "name": "creator",
              "type": "address"
            },
            {
              "internalType": "address",
              "name": "referrer",
              "type": "address"
            },
            {
              "internalType": "string",
              "name": "name",
              "type": "string"
            },
            {
              "internalType": "string",
              "name": "symbol",
              "type": "string"
            },
            {
              "internalType": "string",
              "name": "description",
              "type": "string"
            },
            {
              "internalType": "string",
              "name": "imageURI",
              "type": "string"
            },
            {
              "components": [
                {
                  "internalType": "string",
                  "name": "website",
                  "type": "string"
                },
                {
                  "internalType": "string",
                  "name": "twitter",
                  "type": "string"
                },
                {
                  "internalType": "string",
                  "name": "telegram",
                  "type": "string"
                },
                {
                  "internalType": "string",
                  "name": "discord",
                  "type": "string"
                },
                {
                  "internalType": "string",
                  "name": "extra",
                  "type": "string"
                }
              ],
              "internalType": "struct TokenFactory.SocialLinks",
              "name": "links",
              "type": "tuple"
            },
            {
              "internalType": "uint256",
              "name": "createdAt",
              "type": "uint256"
            },
            {
              "internalType": "bool",
              "name": "graduated",
              "type": "bool"
            },
            {
              "internalType": "address",
              "name": "migrationPool",
              "type": "address"
            }
          ],
          "internalType": "struct TokenFactory.TokenRecord[]",
          "name": "",
          "type": "tuple[]"
        }
      ],
      "stateMutability": "view",
      "type": "function"
    },
    {
      "inputs": [
        {
          "internalType": "address",
          "name": "tokenAddr",
          "type": "address"
        }
      ],
      "name": "isPaused",
      "outputs": [
        {
          "internalType": "bool",
          "name": "",
          "type": "bool"
        }
      ],
      "stateMutability": "view",
      "type": "function"
    },
    {
      "inputs": [],
      "name": "launchTokenImpl",
      "outputs": [
        {
          "internalType": "address",
          "name": "",
          "type": "address"
        }
      ],
      "stateMutability": "view",
      "type": "function"
    },
    {
      "inputs": [
        {
          "internalType": "address",
          "name": "creator_",
          "type": "address"
        }
      ],
      "name": "onArenaWin",
      "outputs": [],
      "stateMutability": "nonpayable",
      "type": "function"
    },
    {
      "inputs": [
        {
          "internalType": "address",
          "name": "tokenAddr",
          "type": "address"
        },
        {
          "internalType": "address",
          "name": "pool",
          "type": "address"
        }
      ],
      "name": "onGraduation",
      "outputs": [],
      "stateMutability": "nonpayable",
      "type": "function"
    },
    {
      "inputs": [],
      "name": "owner",
      "outputs": [
        {
          "internalType": "address",
          "name": "",
          "type": "address"
        }
      ],
      "stateMutability": "view",
      "type": "function"
    },
    {
      "inputs": [
        {
          "internalType": "address",
          "name": "tokenAddr",
          "type": "address"
        }
      ],
      "name": "pauseCurve",
      "outputs": [],
      "stateMutability": "nonpayable",
      "type": "function"
    },
    {
      "inputs": [
        {
          "internalType": "address",
          "name": "",
          "type": "address"
        }
      ],
      "name": "pausedCurves",
      "outputs": [
        {
          "internalType": "bool",
          "name": "",
          "type": "bool"
        }
      ],
      "stateMutability": "view",
      "type": "function"
    },
    {
      "inputs": [],
      "name": "postMigrationFactory",
      "outputs": [
        {
          "internalType": "address",
          "name": "",
          "type": "address"
        }
      ],
      "stateMutability": "view",
      "type": "function"
    },
    {
      "inputs": [],
      "name": "renounceOwnership",
      "outputs": [],
      "stateMutability": "nonpayable",
      "type": "function"
    },
    {
      "inputs": [
        {
          "internalType": "address",
          "name": "_arenaRegistry",
          "type": "address"
        }
      ],
      "name": "setArenaRegistry",
      "outputs": [],
      "stateMutability": "nonpayable",
      "type": "function"
    },
    {
      "inputs": [
        {
          "internalType": "uint256",
          "name": "_days",
          "type": "uint256"
        }
      ],
      "name": "setDefaultCliffDays",
      "outputs": [],
      "stateMutability": "nonpayable",
      "type": "function"
    },
    {
      "inputs": [
        {
          "internalType": "address",
          "name": "",
          "type": "address"
        }
      ],
      "name": "tokenIndex",
      "outputs": [
        {
          "internalType": "uint256",
          "name": "",
          "type": "uint256"
        }
      ],
      "stateMutability": "view",
      "type": "function"
    },
    {
      "inputs": [
        {
          "internalType": "address",
          "name": "newOwner",
          "type": "address"
        }
      ],
      "name": "transferOwnership",
      "outputs": [],
      "stateMutability": "nonpayable",
      "type": "function"
    },
    {
      "inputs": [
        {
          "internalType": "address",
          "name": "tokenAddr",
          "type": "address"
        }
      ],
      "name": "unpauseCurve",
      "outputs": [],
      "stateMutability": "nonpayable",
      "type": "function"
    },
    {
      "inputs": [
        {
          "internalType": "address",
          "name": "tokenAddr",
          "type": "address"
        },
        {
          "components": [
            {
              "internalType": "string",
              "name": "website",
              "type": "string"
            },
            {
              "internalType": "string",
              "name": "twitter",
              "type": "string"
            },
            {
              "internalType": "string",
              "name": "telegram",
              "type": "string"
            },
            {
              "internalType": "string",
              "name": "discord",
              "type": "string"
            },
            {
              "internalType": "string",
              "name": "extra",
              "type": "string"
            }
          ],
          "internalType": "struct TokenFactory.SocialLinks",
          "name": "links",
          "type": "tuple"
        }
      ],
      "name": "updateSocialLinks",
      "outputs": [],
      "stateMutability": "nonpayable",
      "type": "function"
    },
    {
      "inputs": [],
      "name": "vestingVaultImpl",
      "outputs": [
        {
          "internalType": "address",
          "name": "",
          "type": "address"
        }
      ],
      "stateMutability": "view",
      "type": "function"
    }
  ],
  "bytecode": "0x608060405234801562000010575f80fd5b5060405162003b9038038062003b90833981016040819052620000339162000137565b33806200005957604051631e4fbdf760e01b81525f600482015260240160405180910390fd5b6200006481620000cc565b50600180546001600160a01b03199081166001600160a01b0398891617909155600280548216968816969096179095556003805486169487169490941790935560048054851692861692909217909155600580549093169316929092179055600755620001ab565b5f80546001600160a01b038381166001600160a01b0319831681178455604051919092169283917f8be0079c531659141344cd1fd0a4f28419497f9722a3daafe3b4186f6b6457e09190a35050565b80516001600160a01b038116811462000132575f80fd5b919050565b5f805f805f8060c087890312156200014d575f80fd5b62000158876200011b565b955062000168602088016200011b565b945062000178604088016200011b565b935062000188606088016200011b565b925062000198608088016200011b565b915060a087015190509295509295509295565b6139d780620001b95f395ff3fe60806040526004361061017b575f3560e01c8063715018a6116100cd5780639a57702511610087578063cef274d011610062578063cef274d0146104b4578063d615feaf146104d3578063e51c0506146104f2578063f2fde38b14610511575f80fd5b80639a577025146104385780639ef0bcdf146104575780639f82d47214610485575f80fd5b8063715018a61461039757806378a89567146103ab5780638da5cb5b146103bf57806393916711146103db57806396951fd8146103fa5780639981af7a14610419575f80fd5b8063478222c2116101385780635b14f183116101135780635b14f183146102f05780635b7b33ee1461033757806364c7d661146103565780636ec1add114610382575f80fd5b8063478222c214610286578063494cfc6c146102a5578063520f0cc1146102d1575f80fd5b80630b920e991461017f578063100b64ff146101b75780632a4fb36a146101d857806330c2bfdd1461020f578063427f91a61461022e57806346d4dbbf14610267575b5f80fd5b61019261018d366004612e18565b610530565b604080516001600160a01b039384168152929091166020830152015b60405180910390f35b3480156101c2575f80fd5b506101d66101d1366004612e71565b610a0f565b005b3480156101e3575f80fd5b506002546101f7906001600160a01b031681565b6040516001600160a01b0390911681526020016101ae565b34801561021a575f80fd5b506101d6610229366004612e8a565b610a5f565b348015610239575f80fd5b50610259610248366004612e71565b60096020525f908152604090205481565b6040519081526020016101ae565b348015610272575f80fd5b506101d6610281366004612e71565b610c85565b348015610291575f80fd5b506005546101f7906001600160a01b031681565b3480156102b0575f80fd5b506102c46102bf366004612ebb565b610cd8565b6040516101ae91906130e4565b3480156102dc575f80fd5b506101d66102eb366004612e71565b6113a5565b3480156102fb575f80fd5b5061032761030a366004612e71565b6001600160a01b03165f908152600b602052604090205460ff1690565b60405190151581526020016101ae565b348015610342575f80fd5b506102c4610351366004612ebb565b611456565b348015610361575f80fd5b50610375610370366004612e71565b611bce565b6040516101ae9190613146565b34801561038d575f80fd5b5061025960075481565b3480156103a2575f80fd5b506101d66121e9565b3480156103b6575f80fd5b50600854610259565b3480156103ca575f80fd5b505f546001600160a01b03166101f7565b3480156103e6575f80fd5b506003546101f7906001600160a01b031681565b348015610405575f80fd5b506004546101f7906001600160a01b031681565b348015610424575f80fd5b506101d6610433366004613158565b6121fc565b348015610443575f80fd5b506101d6610452366004612e71565b612323565b348015610462575f80fd5b50610327610471366004612e71565b600b6020525f908152604090205460ff1681565b348015610490575f80fd5b506104a461049f366004612e71565b61234d565b6040516101ae94939291906131a8565b3480156104bf575f80fd5b506101d66104ce36600461320d565b6123db565b3480156104de575f80fd5b506001546101f7906001600160a01b031681565b3480156104fd575f80fd5b506006546101f7906001600160a01b031681565b34801561051c575f80fd5b506101d661052b366004612e71565b612442565b5f80670de0b6b3a76400003410156105855760405162461bcd60e51b8152602060048201526013602482015272466163746f72793a206d696e2031205553444360681b60448201526064015b60405180910390fd5b61059260c0840184613224565b90506105a160a0850185613224565b9050146105f05760405162461bcd60e51b815260206004820152601860248201527f466163746f72793a206c656e677468206d69736d617463680000000000000000604482015260640161057c565b5f805b61060060c0860186613224565b90508110156106425761061660c0860186613224565b8281811061062657610626613270565b90506020020135826106389190613298565b91506001016105f3565b506101f48111156106955760405162461bcd60e51b815260206004820152601760248201527f466163746f72793a206d61782035252076657374696e67000000000000000000604482015260640161057c565b6001546106aa906001600160a01b031661247f565b92506001600160a01b038316634cd88b766106c586806132ab565b6106d260208901896132ab565b6040518563ffffffff1660e01b81526004016106f19493929190613315565b5f604051808303815f87803b158015610708575f80fd5b505af115801561071a573d5f803e3d5ffd5b505050505f836001600160a01b031663902d55a56040518163ffffffff1660e01b8152600401602060405180830381865afa15801561075b573d5f803e3d5ffd5b505050506040513d601f19601f8201168201806040525081019061077f9190613346565b90505f808061079160a0890189613224565b905011801561079f57505f84115b15610846575f808860e00135116107b8576007546107be565b8760e001355b9050601e81101580156107d25750605a8111155b61081a5760405162461bcd60e51b8152602060048201526019602482015278466163746f72793a20636c6966662033302d3930206461797360381b604482015260640161057c565b61084087858761082d60a08d018d613224565b61083a60c08f018f613224565b8861248a565b93509150505b61086b86610854848661335d565b6108666101208b016101008c01612e71565b6126b9565b94506108798686838a6128da565b335f908152600a6020526040812080549161089383613370565b9091555050335f908152600a602090815260408220600301805460018101825590835291200180546001600160a01b0319166001600160a01b03888116919091179091556006541615610949576006546040516392a07a7360e01b81526001600160a01b0388811660048301528781166024830152336044830152909116906392a07a73906064015f604051808303815f87803b158015610932575f80fd5b505af1158015610944573d5f803e3d5ffd5b505050505b604051637deb602560e01b81525f60048201523360248201526001600160a01b03861690637deb60259034906044015f604051808303818588803b15801561098f575f80fd5b505af11580156109a1573d5f803e3d5ffd5b5033935050506001600160a01b03878116915088167fd911716c3fddc130bd228e9fc8082f495d0afacfab26b5e436e8c1a083af94276109e18b806132ab565b6109ee60208e018e6132ab565b6040516109fe9493929190613315565b60405180910390a450505050915091565b610a17612c4a565b6001600160a01b0381165f818152600b6020526040808220805460ff19169055517fb515f57ae9e26106b4dd54681a989ddf6adcd699feff211698326ccd158ea5bd9190a250565b6001600160a01b0382165f9081526009602052604090205480610a945760405162461bcd60e51b815260040161057c90613388565b5f6008610aa260018461335d565b81548110610ab257610ab2613270565b5f918252602090912060109091020160018101549091506001600160a01b03163314610b165760405162461bcd60e51b8152602060048201526013602482015272466163746f72793a206f6e6c7920637572766560681b604482015260640161057c565b600f810180546001600160a01b03808616610100026001600160a81b03199092169190911760011790915560055460405163acbb262560e01b815291169063acbb262590610b779086906004016001600160a01b0391909116815260200190565b5f604051808303815f87803b158015610b8e575f80fd5b505af1158015610ba0573d5f803e3d5ffd5b5050505060038101546001600160a01b03165f908152600a60205260408120600101805491610bce83613370565b90915550506006546001600160a01b031615610c3f576006546040516337a8d1f160e01b81526001600160a01b038681166004830152909116906337a8d1f1906024015f604051808303815f87803b158015610c28575f80fd5b505af1158015610c3a573d5f803e3d5ffd5b505050505b826001600160a01b0316846001600160a01b03167f806ef27e0c58d1db68e3780cb50bde63b59139693b61ab9fdff83126acc3a9a060405160405180910390a350505050565b610c8d612c4a565b6001600160a01b0381165f818152600b6020526040808220805460ff19166001179055517f2a94c55570a3cd2182569037c1e552bb8443ecfe3184143b8f762bfbfb950ead9190a250565b600854606090808410610d1e57604080515f8082526020820190925290610d15565b610d02612d59565b815260200190600190039081610cfa5790505b5091505061139f565b8281610d2a8287613298565b1115610d3d57610d3a858361335d565b90505b5f816001600160401b03811115610d5657610d566133b8565b604051908082528060200260200182016040528015610d8f57816020015b610d7c612d59565b815260200190600190039081610d745790505b5090505f5b82811015611399576008610da88289613298565b81548110610db857610db8613270565b5f918252602091829020604080516101a081018252601090930290910180546001600160a01b039081168452600182015481169484019490945260028101548416918301919091526003810154831660608301526004810154909216608082015260058201805491929160a084019190610e31906133cc565b80601f0160208091040260200160405190810160405280929190818152602001828054610e5d906133cc565b8015610ea85780601f10610e7f57610100808354040283529160200191610ea8565b820191905f5260205f20905b815481529060010190602001808311610e8b57829003601f168201915b50505050508152602001600682018054610ec1906133cc565b80601f0160208091040260200160405190810160405280929190818152602001828054610eed906133cc565b8015610f385780601f10610f0f57610100808354040283529160200191610f38565b820191905f5260205f20905b815481529060010190602001808311610f1b57829003601f168201915b50505050508152602001600782018054610f51906133cc565b80601f0160208091040260200160405190810160405280929190818152602001828054610f7d906133cc565b8015610fc85780601f10610f9f57610100808354040283529160200191610fc8565b820191905f5260205f20905b815481529060010190602001808311610fab57829003601f168201915b50505050508152602001600882018054610fe1906133cc565b80601f016020809104026020016040519081016040528092919081815260200182805461100d906133cc565b80156110585780601f1061102f57610100808354040283529160200191611058565b820191905f5260205f20905b81548152906001019060200180831161103b57829003601f168201915b50505050508152602001600982016040518060a00160405290815f82018054611080906133cc565b80601f01602080910402602001604051908101604052809291908181526020018280546110ac906133cc565b80156110f75780601f106110ce576101008083540402835291602001916110f7565b820191905f5260205f20905b8154815290600101906020018083116110da57829003601f168201915b50505050508152602001600182018054611110906133cc565b80601f016020809104026020016040519081016040528092919081815260200182805461113c906133cc565b80156111875780601f1061115e57610100808354040283529160200191611187565b820191905f5260205f20905b81548152906001019060200180831161116a57829003601f168201915b505050505081526020016002820180546111a0906133cc565b80601f01602080910402602001604051908101604052809291908181526020018280546111cc906133cc565b80156112175780601f106111ee57610100808354040283529160200191611217565b820191905f5260205f20905b8154815290600101906020018083116111fa57829003601f168201915b50505050508152602001600382018054611230906133cc565b80601f016020809104026020016040519081016040528092919081815260200182805461125c906133cc565b80156112a75780601f1061127e576101008083540402835291602001916112a7565b820191905f5260205f20905b81548152906001019060200180831161128a57829003601f168201915b505050505081526020016004820180546112c0906133cc565b80601f01602080910402602001604051908101604052809291908181526020018280546112ec906133cc565b80156113375780601f1061130e57610100808354040283529160200191611337565b820191905f5260205f20905b81548152906001019060200180831161131a57829003601f168201915b505050919092525050508152600e8201546020820152600f9091015460ff81161515604083015261010090046001600160a01b0316606090910152825183908390811061138657611386613270565b6020908102919091010152600101610d94565b50925050505b92915050565b6006546001600160a01b031633146113f55760405162461bcd60e51b8152602060048201526013602482015272466163746f72793a206f6e6c79206172656e6160681b604482015260640161057c565b6001600160a01b0381165f908152600a6020526040812060020180549161141b83613370565b90915550506040516001600160a01b038216907f5af9ee93084d22702a3caa060245d86c73a2414f2c8f90c6cee3d9818fc42fa5905f90a250565b60605f805b6008548110156114a9576008818154811061147857611478613270565b5f9182526020909120600f601090920201015460ff16156114a1578161149d81613370565b9250505b60010161145b565b508084106114e957604080515f8082526020820190925290610d15565b6114ce612d59565b8152602001906001900390816114c65790505091505061139f565b82816114f58287613298565b111561150857611505858361335d565b90505b5f816001600160401b03811115611521576115216133b8565b60405190808252806020026020018201604052801561155a57816020015b611547612d59565b81526020019060019003908161153f5790505b5090505f805f5b6008548110801561157157508482105b15611bc1576008818154811061158957611589613270565b5f9182526020909120600f601090920201015460ff1615611baf57888310611ba157600881815481106115be576115be613270565b5f918252602091829020604080516101a081018252601090930290910180546001600160a01b039081168452600182015481169484019490945260028101548416918301919091526003810154831660608301526004810154909216608082015260058201805491929160a084019190611637906133cc565b80601f0160208091040260200160405190810160405280929190818152602001828054611663906133cc565b80156116ae5780601f10611685576101008083540402835291602001916116ae565b820191905f5260205f20905b81548152906001019060200180831161169157829003601f168201915b505050505081526020016006820180546116c7906133cc565b80601f01602080910402602001604051908101604052809291908181526020018280546116f3906133cc565b801561173e5780601f106117155761010080835404028352916020019161173e565b820191905f5260205f20905b81548152906001019060200180831161172157829003601f168201915b50505050508152602001600782018054611757906133cc565b80601f0160208091040260200160405190810160405280929190818152602001828054611783906133cc565b80156117ce5780601f106117a5576101008083540402835291602001916117ce565b820191905f5260205f20905b8154815290600101906020018083116117b157829003601f168201915b505050505081526020016008820180546117e7906133cc565b80601f0160208091040260200160405190810160405280929190818152602001828054611813906133cc565b801561185e5780601f106118355761010080835404028352916020019161185e565b820191905f5260205f20905b81548152906001019060200180831161184157829003601f168201915b50505050508152602001600982016040518060a00160405290815f82018054611886906133cc565b80601f01602080910402602001604051908101604052809291908181526020018280546118b2906133cc565b80156118fd5780601f106118d4576101008083540402835291602001916118fd565b820191905f5260205f20905b8154815290600101906020018083116118e057829003601f168201915b50505050508152602001600182018054611916906133cc565b80601f0160208091040260200160405190810160405280929190818152602001828054611942906133cc565b801561198d5780601f106119645761010080835404028352916020019161198d565b820191905f5260205f20905b81548152906001019060200180831161197057829003601f168201915b505050505081526020016002820180546119a6906133cc565b80601f01602080910402602001604051908101604052809291908181526020018280546119d2906133cc565b8015611a1d5780601f106119f457610100808354040283529160200191611a1d565b820191905f5260205f20905b815481529060010190602001808311611a0057829003601f168201915b50505050508152602001600382018054611a36906133cc565b80601f0160208091040260200160405190810160405280929190818152602001828054611a62906133cc565b8015611aad5780601f10611a8457610100808354040283529160200191611aad565b820191905f5260205f20905b815481529060010190602001808311611a9057829003601f168201915b50505050508152602001600482018054611ac6906133cc565b80601f0160208091040260200160405190810160405280929190818152602001828054611af2906133cc565b8015611b3d5780601f10611b1457610100808354040283529160200191611b3d565b820191905f5260205f20905b815481529060010190602001808311611b2057829003601f168201915b505050919092525050508152600e8201546020820152600f9091015460ff81161515604083015261010090046001600160a01b03166060909101528483611b8381613370565b945081518110611b9557611b95613270565b60200260200101819052505b82611bab81613370565b9350505b80611bb981613370565b915050611561565b5091979650505050505050565b611bd6612d59565b6001600160a01b0382165f9081526009602052604090205480611c0b5760405162461bcd60e51b815260040161057c90613388565b6008611c1860018361335d565b81548110611c2857611c28613270565b5f918252602091829020604080516101a081018252601090930290910180546001600160a01b039081168452600182015481169484019490945260028101548416918301919091526003810154831660608301526004810154909216608082015260058201805491929160a084019190611ca1906133cc565b80601f0160208091040260200160405190810160405280929190818152602001828054611ccd906133cc565b8015611d185780601f10611cef57610100808354040283529160200191611d18565b820191905f5260205f20905b815481529060010190602001808311611cfb57829003601f168201915b50505050508152602001600682018054611d31906133cc565b80601f0160208091040260200160405190810160405280929190818152602001828054611d5d906133cc565b8015611da85780601f10611d7f57610100808354040283529160200191611da8565b820191905f5260205f20905b815481529060010190602001808311611d8b57829003601f168201915b50505050508152602001600782018054611dc1906133cc565b80601f0160208091040260200160405190810160405280929190818152602001828054611ded906133cc565b8015611e385780601f10611e0f57610100808354040283529160200191611e38565b820191905f5260205f20905b815481529060010190602001808311611e1b57829003601f168201915b50505050508152602001600882018054611e51906133cc565b80601f0160208091040260200160405190810160405280929190818152602001828054611e7d906133cc565b8015611ec85780601f10611e9f57610100808354040283529160200191611ec8565b820191905f5260205f20905b815481529060010190602001808311611eab57829003601f168201915b50505050508152602001600982016040518060a00160405290815f82018054611ef0906133cc565b80601f0160208091040260200160405190810160405280929190818152602001828054611f1c906133cc565b8015611f675780601f10611f3e57610100808354040283529160200191611f67565b820191905f5260205f20905b815481529060010190602001808311611f4a57829003601f168201915b50505050508152602001600182018054611f80906133cc565b80601f0160208091040260200160405190810160405280929190818152602001828054611fac906133cc565b8015611ff75780601f10611fce57610100808354040283529160200191611ff7565b820191905f5260205f20905b815481529060010190602001808311611fda57829003601f168201915b50505050508152602001600282018054612010906133cc565b80601f016020809104026020016040519081016040528092919081815260200182805461203c906133cc565b80156120875780601f1061205e57610100808354040283529160200191612087565b820191905f5260205f20905b81548152906001019060200180831161206a57829003601f168201915b505050505081526020016003820180546120a0906133cc565b80601f01602080910402602001604051908101604052809291908181526020018280546120cc906133cc565b80156121175780601f106120ee57610100808354040283529160200191612117565b820191905f5260205f20905b8154815290600101906020018083116120fa57829003601f168201915b50505050508152602001600482018054612130906133cc565b80601f016020809104026020016040519081016040528092919081815260200182805461215c906133cc565b80156121a75780601f1061217e576101008083540402835291602001916121a7565b820191905f5260205f20905b81548152906001019060200180831161218a57829003601f168201915b505050919092525050508152600e8201546020820152600f9091015460ff81161515604083015261010090046001600160a01b03166060909101529392505050565b6121f1612c4a565b6121fa5f612c76565b565b6001600160a01b0382165f90815260096020526040902054806122315760405162461bcd60e51b815260040161057c90613388565b33600861223f60018461335d565b8154811061224f5761224f613270565b5f9182526020909120600360109092020101546001600160a01b0316146122b05760405162461bcd60e51b81526020600482015260156024820152742330b1ba37b93c9d1037b7363c9031b932b0ba37b960591b604482015260640161057c565b8160086122be60018461335d565b815481106122ce576122ce613270565b905f5260205f20906010020160090181816122e99190613518565b50506040516001600160a01b038416907f6414f75c6408b533c3ee371911056f2283f84431bada5895dc518adb4f6b522e905f90a2505050565b61232b612c4a565b600680546001600160a01b0319166001600160a01b0392909216919091179055565b6001600160a01b0381165f908152600a60209081526040918290208054600182015460028301546003840180548751818802810188019098528088529396929591946060949093928301828280156123cc57602002820191905f5260205f20905b81546001600160a01b031681526001909101906020018083116123ae575b50505050509150509193509193565b6123e3612c4a565b601e81101580156123f55750605a8111155b61243d5760405162461bcd60e51b8152602060048201526019602482015278466163746f72793a20636c6966662033302d3930206461797360381b604482015260640161057c565b600755565b61244a612c4a565b6001600160a01b03811661247357604051631e4fbdf760e01b81525f600482015260240161057c565b61247c81612c76565b50565b5f61139f825f612cc5565b5f80612710612499898b61364c565b6124a39190613663565b90505f866001600160401b038111156124be576124be6133b8565b6040519080825280602002602001820160405280156124e7578160200160208202803683370190505b5090505f805b888110156125735761271088888381811061250a5761250a613270565b905060200201358d61251c919061364c565b6125269190613663565b83828151811061253857612538613270565b60200260200101818152505082818151811061255657612556613270565b6020026020010151826125699190613298565b91506001016124ed565b50828110156125bd57612586818461335d565b8260018451612595919061335d565b815181106125a5576125a5613270565b602002602001018181516125b99190613298565b9052505b6003546125d2906001600160a01b031661247f565b60405163a9059cbb60e01b81526001600160a01b03808316600483015260248201869052919550908d169063a9059cbb906044016020604051808303815f875af1158015612622573d5f803e3d5ffd5b505050506040513d601f19601f820116820180604052508101906126469190613682565b50604051632ba2ae5760e21b81526001600160a01b0385169063ae8ab95c9061267d908f9030908e908e9089908d906004016136a1565b5f604051808303815f87803b158015612694575f80fd5b505af11580156126a6573d5f803e3d5ffd5b5050505050509850989650505050505050565b6002545f906126d0906001600160a01b031661247f565b60405163087fe3f760e31b81526001600160a01b038083166004830152919250908516906343ff1fb8906024015f604051808303815f87803b158015612714575f80fd5b505af1158015612726573d5f803e3d5ffd5b505060405163a9059cbb60e01b81526001600160a01b038481166004830152602482018790528716925063a9059cbb91506044016020604051808303815f875af1158015612776573d5f803e3d5ffd5b505050506040513d601f19601f8201168201806040525081019061279a9190613682565b506005546004805460405163cc2a9a5b60e01b81526001600160a01b038881169382019390935233602482015285831660448201529282166064840152306084840152811660a483015282169063cc2a9a5b9060c4015f604051808303815f87803b158015612807575f80fd5b505af1158015612819573d5f803e3d5ffd5b505060055460405163acbb262560e01b81526001600160a01b038581166004830152909116925063acbb262591506024015f604051808303815f87803b158015612861575f80fd5b505af1158015612873573d5f803e3d5ffd5b505060048054604051632c3bf5c560e21b81526001600160a01b03868116938201939093529116925063b0efd71491506024015f604051808303815f87803b1580156128bd575f80fd5b505af11580156128cf573d5f803e3d5ffd5b505050509392505050565b6008604051806101a00160405280866001600160a01b03168152602001856001600160a01b03168152602001846001600160a01b03168152602001336001600160a01b03168152602001836101000160208101906129389190612e71565b6001600160a01b0316815260200161295084806132ab565b8080601f0160208091040260200160405190810160405280939291908181526020018383808284375f92019190915250505090825250602090810190612998908501856132ab565b8080601f0160208091040260200160405190810160405280939291908181526020018383808284375f920191909152505050908252506020016129de60408501856132ab565b8080601f0160208091040260200160405190810160405280939291908181526020018383808284375f92019190915250505090825250602001612a2460608501856132ab565b8080601f0160208091040260200160405190810160405280939291908181526020018383808284375f92019190915250505090825250602001612a6a6080850185613745565b612a7390613813565b8152426020808301919091525f6040808401829052606093840182905285546001808201885596835291839020855160109093020180546001600160a01b03199081166001600160a01b0394851617825593860151968101805485169784169790971790965584015160028601805484169183169190911790559183015160038501805483169184169190911790556080830151600485018054909216921691909117905560a08101519091906005820190612b2f90826138e7565b5060c08201516006820190612b4490826138e7565b5060e08201516007820190612b5990826138e7565b506101008201516008820190612b6f90826138e7565b50610120820151805160098301908190612b8990826138e7565b5060208201516001820190612b9e90826138e7565b5060408201516002820190612bb390826138e7565b5060608201516003820190612bc890826138e7565b5060808201516004820190612bdd90826138e7565b505050610140820151600e820155610160820151600f9091018054610180909301516001600160a81b0319909316911515610100600160a81b031916919091176101006001600160a01b039384160217905560085494165f90815260096020526040902093909355505050565b5f546001600160a01b031633146121fa5760405163118cdaa760e01b815233600482015260240161057c565b5f80546001600160a01b038381166001600160a01b0319831681178455604051919092169283917f8be0079c531659141344cd1fd0a4f28419497f9722a3daafe3b4186f6b6457e09190a35050565b5f81471015612cf05760405163cf47918160e01b81524760048201526024810183905260440161057c565b763d602d80600a3d3981f3363d3d373d3d3d363d730000008360601b60e81c175f526e5af43d82803e903d91602b57fd5bf38360781b176020526037600983f090506001600160a01b03811661139f5760405163b06ebf3d60e01b815260040160405180910390fd5b604051806101a001604052805f6001600160a01b031681526020015f6001600160a01b031681526020015f6001600160a01b031681526020015f6001600160a01b031681526020015f6001600160a01b0316815260200160608152602001606081526020016060815260200160608152602001612dfe6040518060a0016040528060608152602001606081526020016060815260200160608152602001606081525090565b81525f602082018190526040820181905260609091015290565b5f60208284031215612e28575f80fd5b81356001600160401b03811115612e3d575f80fd5b82016101208185031215612e4f575f80fd5b9392505050565b80356001600160a01b0381168114612e6c575f80fd5b919050565b5f60208284031215612e81575f80fd5b612e4f82612e56565b5f8060408385031215612e9b575f80fd5b612ea483612e56565b9150612eb260208401612e56565b90509250929050565b5f8060408385031215612ecc575f80fd5b50508035926020909101359150565b5f81518084525f5b81811015612eff57602081850181015186830182015201612ee3565b505f602082860101526020601f19601f83011685010191505092915050565b5f815160a08452612f3260a0850182612edb565b905060208301518482036020860152612f4b8282612edb565b91505060408301518482036040860152612f658282612edb565b91505060608301518482036060860152612f7f8282612edb565b91505060808301518482036080860152612f998282612edb565b95945050505050565b80516001600160a01b031682525f6101a06020830151612fcd60208601826001600160a01b03169052565b506040830151612fe860408601826001600160a01b03169052565b50606083015161300360608601826001600160a01b03169052565b50608083015161301e60808601826001600160a01b03169052565b5060a08301518160a086015261303682860182612edb565b91505060c083015184820360c08601526130508282612edb565b91505060e083015184820360e086015261306a8282612edb565b91505061010080840151858303828701526130858382612edb565b9250505061012080840151858303828701526130a18382612f1e565b92505050610140808401518186015250610160808401516130c58287018215159052565b5050610180928301516001600160a01b03169390920192909252919050565b5f60208083016020845280855180835260408601915060408160051b8701019250602087015f5b8281101561313957603f19888603018452613127858351612fa2565b9450928501929085019060010161310b565b5092979650505050505050565b602081525f612e4f6020830184612fa2565b5f8060408385031215613169575f80fd5b61317283612e56565b915060208301356001600160401b0381111561318c575f80fd5b830160a0818603121561319d575f80fd5b809150509250929050565b5f6080820186835260208660208501528560408501526080606085015281855180845260a0860191506020870193505f5b818110156131fe5784516001600160a01b0316835293830193918301916001016131d9565b50909998505050505050505050565b5f6020828403121561321d575f80fd5b5035919050565b5f808335601e19843603018112613239575f80fd5b8301803591506001600160401b03821115613252575f80fd5b6020019150600581901b3603821315613269575f80fd5b9250929050565b634e487b7160e01b5f52603260045260245ffd5b634e487b7160e01b5f52601160045260245ffd5b8082018082111561139f5761139f613284565b5f808335601e198436030181126132c0575f80fd5b8301803591506001600160401b038211156132d9575f80fd5b602001915036819003821315613269575f80fd5b81835281816020850137505f828201602090810191909152601f909101601f19169091010190565b604081525f6133286040830186886132ed565b828103602084015261333b8185876132ed565b979650505050505050565b5f60208284031215613356575f80fd5b5051919050565b8181038181111561139f5761139f613284565b5f6001820161338157613381613284565b5060010190565b6020808252601690820152752330b1ba37b93c9d103ab735b737bbb7103a37b5b2b760511b604082015260600190565b634e487b7160e01b5f52604160045260245ffd5b600181811c908216806133e057607f821691505b6020821081036133fe57634e487b7160e01b5f52602260045260245ffd5b50919050565b601f82111561344b57805f5260205f20601f840160051c810160208510156134295750805b601f840160051c820191505b81811015613448575f8155600101613435565b50505b505050565b5f19600383901b1c191660019190911b1790565b6001600160401b0383111561347b5761347b6133b8565b61348f8361348983546133cc565b83613404565b5f601f8411600181146134bb575f85156134a95750838201355b6134b38682613450565b845550613448565b5f83815260208120601f198716915b828110156134ea57868501358255602094850194600190920191016134ca565b5086821015613506575f1960f88860031b161c19848701351681555b505060018560011b0183555050505050565b61352282836132ab565b6001600160401b03811115613539576135396133b8565b61354d8161354785546133cc565b85613404565b5f601f821160018114613579575f83156135675750838201355b6135718482613450565b8655506135d0565b5f85815260208120601f198516915b828110156135a85786850135825560209485019460019092019101613588565b50848210156135c4575f1960f88660031b161c19848701351681555b505060018360011b0185555b505050506135e160208301836132ab565b6135ef818360018601613464565b50506135fe60408301836132ab565b61360c818360028601613464565b505061361b60608301836132ab565b613629818360038601613464565b505061363860808301836132ab565b613646818360048601613464565b50505050565b808202811582820484141761139f5761139f613284565b5f8261367d57634e487b7160e01b5f52601260045260245ffd5b500490565b5f60208284031215613692575f80fd5b81518015158114612e4f575f80fd5b6001600160a01b03878116825286811660208084019190915260a06040840181905283018690525f91879160c08501845b898110156136f757836136e486612e56565b16825293820193908201906001016136d2565b5085810360608701528751808252908201935091508087015f5b8381101561372d57815185529382019390820190600101613711565b50505050608092909201929092529695505050505050565b5f8235609e19833603018112613759575f80fd5b9190910192915050565b60405160a081016001600160401b0381118282101715613785576137856133b8565b60405290565b5f82601f83011261379a575f80fd5b81356001600160401b03808211156137b4576137b46133b8565b604051601f8301601f19908116603f011681019082821181831017156137dc576137dc6133b8565b816040528381528660208588010111156137f4575f80fd5b836020870160208301375f602085830101528094505050505092915050565b5f60a08236031215613823575f80fd5b61382b613763565b82356001600160401b0380821115613841575f80fd5b61384d3683870161378b565b83526020850135915080821115613862575f80fd5b61386e3683870161378b565b60208401526040850135915080821115613886575f80fd5b6138923683870161378b565b604084015260608501359150808211156138aa575f80fd5b6138b63683870161378b565b606084015260808501359150808211156138ce575f80fd5b506138db3682860161378b565b60808301525092915050565b81516001600160401b03811115613900576139006133b8565b6139148161390e84546133cc565b84613404565b602080601f831160018114613942575f84156139305750858301515b61393a8582613450565b865550613999565b5f85815260208120601f198616915b8281101561397057888601518255948401946001909101908401613951565b508582101561398d57878501515f19600388901b60f8161c191681555b505060018460011b0185555b50505050505056fea2646970667358221220e87c539ee67e6491594ce12831bb4be09ea04c3c148dcfa4e79d621d2def780764736f6c63430008180033",
  "linkReferences": {},
  "deployedLinkReferences": {},
  "immutableReferences": {},
  "inputSourceName": "project/contracts/TokenFactory.sol",
  "buildInfoId": "solc-0_8_24-5869f655642f4453cb7a1ae3a723731b073f53e7"
}