{
  "_format": "hh3-artifact-1",
  "contractName": "VestingVault",
  "sourceName": "contracts/VestingVault.sol",
  "abi": [
    {
      "inputs": [],
      "stateMutability": "nonpayable",
      "type": "constructor"
    },
    {
      "inputs": [
        {
          "internalType": "address",
          "name": "token",
          "type": "address"
        }
      ],
      "name": "SafeERC20FailedOperation",
      "type": "error"
    },
    {
      "anonymous": false,
      "inputs": [
        {
          "indexed": true,
          "internalType": "address",
          "name": "beneficiary",
          "type": "address"
        },
        {
          "indexed": false,
          "internalType": "uint256",
          "name": "amount",
          "type": "uint256"
        }
      ],
      "name": "Claimed",
      "type": "event"
    },
    {
      "inputs": [
        {
          "internalType": "address",
          "name": "",
          "type": "address"
        }
      ],
      "name": "beneficiaryIndex",
      "outputs": [
        {
          "internalType": "uint256",
          "name": "",
          "type": "uint256"
        }
      ],
      "stateMutability": "view",
      "type": "function"
    },
    {
      "inputs": [],
      "name": "claim",
      "outputs": [],
      "stateMutability": "nonpayable",
      "type": "function"
    },
    {
      "inputs": [
        {
          "internalType": "address",
          "name": "wallet",
          "type": "address"
        }
      ],
      "name": "claimable",
      "outputs": [
        {
          "internalType": "uint256",
          "name": "",
          "type": "uint256"
        }
      ],
      "stateMutability": "view",
      "type": "function"
    },
    {
      "inputs": [],
      "name": "cliffDuration",
      "outputs": [
        {
          "internalType": "uint256",
          "name": "",
          "type": "uint256"
        }
      ],
      "stateMutability": "view",
      "type": "function"
    },
    {
      "inputs": [],
      "name": "factory",
      "outputs": [
        {
          "internalType": "address",
          "name": "",
          "type": "address"
        }
      ],
      "stateMutability": "view",
      "type": "function"
    },
    {
      "inputs": [],
      "name": "getAllBeneficiaries",
      "outputs": [
        {
          "internalType": "address[]",
          "name": "wallets",
          "type": "address[]"
        },
        {
          "internalType": "uint256[]",
          "name": "allocations",
          "type": "uint256[]"
        },
        {
          "internalType": "uint256[]",
          "name": "claimedAmounts",
          "type": "uint256[]"
        }
      ],
      "stateMutability": "view",
      "type": "function"
    },
    {
      "inputs": [
        {
          "internalType": "address",
          "name": "wallet",
          "type": "address"
        }
      ],
      "name": "getVestingSchedule",
      "outputs": [
        {
          "internalType": "uint256",
          "name": "totalAllocation",
          "type": "uint256"
        },
        {
          "internalType": "uint256",
          "name": "claimed",
          "type": "uint256"
        },
        {
          "internalType": "uint256",
          "name": "claimableNow",
          "type": "uint256"
        },
        {
          "internalType": "uint256",
          "name": "cliffEnd",
          "type": "uint256"
        },
        {
          "internalType": "uint256",
          "name": "vestingEnd",
          "type": "uint256"
        }
      ],
      "stateMutability": "view",
      "type": "function"
    },
    {
      "inputs": [
        {
          "internalType": "address",
          "name": "_token",
          "type": "address"
        },
        {
          "internalType": "address",
          "name": "_factory",
          "type": "address"
        },
        {
          "internalType": "address[]",
          "name": "wallets",
          "type": "address[]"
        },
        {
          "internalType": "uint256[]",
          "name": "amounts",
          "type": "uint256[]"
        },
        {
          "internalType": "uint256",
          "name": "cliffDays",
          "type": "uint256"
        }
      ],
      "name": "init",
      "outputs": [],
      "stateMutability": "nonpayable",
      "type": "function"
    },
    {
      "inputs": [],
      "name": "linearDuration",
      "outputs": [
        {
          "internalType": "uint256",
          "name": "",
          "type": "uint256"
        }
      ],
      "stateMutability": "view",
      "type": "function"
    },
    {
      "inputs": [],
      "name": "startTime",
      "outputs": [
        {
          "internalType": "uint256",
          "name": "",
          "type": "uint256"
        }
      ],
      "stateMutability": "view",
      "type": "function"
    },
    {
      "inputs": [],
      "name": "token",
      "outputs": [
        {
          "internalType": "contract IERC20",
          "name": "",
          "type": "address"
        }
      ],
      "stateMutability": "view",
      "type": "function"
    },
    {
      "inputs": [],
      "name": "totalVestingDuration",
      "outputs": [
        {
          "internalType": "uint256",
          "name": "",
          "type": "uint256"
        }
      ],
      "stateMutability": "view",
      "type": "function"
    }
  ],
  "bytecode": "0x608060405234801561000f575f80fd5b506008805460ff19166001179055610e178061002a5f395ff3fe608060405234801561000f575f80fd5b50600436106100b1575f3560e01c80639f8290631161006e5780639f8290631461011b578063ae8ab95c14610156578063c45a015514610169578063d85349f714610194578063dbb1815d1461019d578063fc0c546a146101bc575f80fd5b80632f14bae8146100b5578063402914f5146100d55780634e71d92d146100f65780636a4a13b11461010057806378e97925146101095780639b78a07014610112575b5f80fd5b6100bd6101ce565b6040516100cc93929190610bb8565b60405180910390f35b6100e86100e3366004610c48565b61036c565b6040519081526020016100cc565b6100fe6103e3565b005b6100e860055481565b6100e860025481565b6100e860045481565b61012e610129366004610c48565b61054b565b604080519586526020860194909452928401919091526060830152608082015260a0016100cc565b6100fe610164366004610cb0565b61063b565b60015461017c906001600160a01b031681565b6040516001600160a01b0390911681526020016100cc565b6100e860035481565b6100e86101ab366004610c48565b60076020525f908152604090205481565b5f5461017c906001600160a01b031681565b600654606090819081908067ffffffffffffffff8111156101f1576101f1610d43565b60405190808252806020026020018201604052801561021a578160200160208202803683370190505b5093508067ffffffffffffffff81111561023657610236610d43565b60405190808252806020026020018201604052801561025f578160200160208202803683370190505b5092508067ffffffffffffffff81111561027b5761027b610d43565b6040519080825280602002602001820160405280156102a4578160200160208202803683370190505b5091505f5b81811015610365575f600682815481106102c5576102c5610d57565b5f9182526020909120600390910201805487519192506001600160a01b0316908790849081106102f7576102f7610d57565b60200260200101906001600160a01b031690816001600160a01b031681525050806001015485838151811061032e5761032e610d57565b602002602001018181525050806002015484838151811061035157610351610d57565b6020908102919091010152506001016102a9565b5050909192565b6001600160a01b0381165f9081526007602052604081205480820361039357505f92915050565b5f60066103a1600184610d7f565b815481106103b1576103b1610d57565b905f5260205f209060030201905080600201546103d18260010154610a89565b6103db9190610d7f565b949350505050565b335f90815260076020526040902054806104445760405162461bcd60e51b815260206004820152601f60248201527f56657374696e675661756c743a206e6f7420612062656e65666963696172790060448201526064015b60405180910390fd5b5f6006610452600184610d7f565b8154811061046257610462610d57565b905f5260205f20906003020190505f61047e8260010154610a89565b90505f8260020154826104919190610d7f565b90505f81116104e25760405162461bcd60e51b815260206004820152601e60248201527f56657374696e675661756c743a206e6f7468696e6720746f20636c61696d0000604482015260640161043b565b80836002015f8282546104f59190610d98565b90915550505f54610510906001600160a01b03163383610ae2565b60405181815233907fd8138f8a3f377c5259ca548e70e4c2de94f129f5a11036a15b69513cba2b426a9060200160405180910390a250505050565b6001600160a01b0381165f908152600760205260408120548190819081908190806105b85760405162461bcd60e51b815260206004820152601f60248201527f56657374696e675661756c743a206e6f7420612062656e656669636961727900604482015260640161043b565b5f60066105c6600184610d7f565b815481106105d6576105d6610d57565b5f918252602090912060039091020160018101546002820154909850965090508561060088610a89565b61060a9190610d7f565b945060035460025461061c9190610d98565b935060055460025461062e9190610d98565b9250505091939590929450565b60085460ff16156106985760405162461bcd60e51b815260206004820152602160248201527f56657374696e675661756c743a20616c726561647920696e697469616c697a656044820152601960fa1b606482015260840161043b565b6008805460ff191660011790558382146106f45760405162461bcd60e51b815260206004820152601d60248201527f56657374696e675661756c743a206c656e677468206d69736d61746368000000604482015260640161043b565b836107415760405162461bcd60e51b815260206004820152601e60248201527f56657374696e675661756c743a206e6f2062656e656669636961726965730000604482015260640161043b565b601e81101580156107535750605a8111155b61079f5760405162461bcd60e51b815260206004820152601e60248201527f56657374696e675661756c743a20636c6966662033302d393020646179730000604482015260640161043b565b5f80546001600160a01b03808a166001600160a01b0319928316179092556001805492891692909116919091179055426002556107df8162015180610dab565b60038190556301e1338060058190556107f89190610d7f565b6004555f5b84811015610a7f575f86868381811061081857610818610d57565b905060200201602081019061082d9190610c48565b6001600160a01b0316036108835760405162461bcd60e51b815260206004820152601a60248201527f56657374696e675661756c743a207a65726f2061646472657373000000000000604482015260640161043b565b5f84848381811061089657610896610d57565b90506020020135116108ea5760405162461bcd60e51b815260206004820152601960248201527f56657374696e675661756c743a207a65726f20616d6f756e7400000000000000604482015260640161043b565b60075f8787848181106108ff576108ff610d57565b90506020020160208101906109149190610c48565b6001600160a01b0316815260208101919091526040015f20541561097a5760405162461bcd60e51b815260206004820152601760248201527f56657374696e675661756c743a206475706c6963617465000000000000000000604482015260640161043b565b6006604051806060016040528088888581811061099957610999610d57565b90506020020160208101906109ae9190610c48565b6001600160a01b031681526020018686858181106109ce576109ce610d57565b602090810292909201358352505f918101829052835460018082018655948352818320845160039092020180546001600160a01b0319166001600160a01b03909216919091178155908301519381019390935560409091015160029092019190915560065490600790888885818110610a4957610a49610d57565b9050602002016020810190610a5e9190610c48565b6001600160a01b0316815260208101919091526040015f20556001016107fd565b5050505050505050565b5f80600354600254610a9b9190610d98565b905080421015610aad57505f92915050565b5f610ab88242610d7f565b90506004548110610acb57509192915050565b600454610ad88286610dab565b6103db9190610dc2565b610aef8383836001610b1c565b610b1757604051635274afe760e01b81526001600160a01b038416600482015260240161043b565b505050565b60405163a9059cbb60e01b5f8181526001600160a01b038616600452602485905291602083604481808b5af1925060015f51148316610b72578383151615610b66573d5f823e3d81fd5b5f873b113d1516831692505b60405250949350505050565b5f815180845260208085019450602084015f5b83811015610bad57815187529582019590820190600101610b91565b509495945050505050565b606080825284519082018190525f906020906080840190828801845b82811015610bf95781516001600160a01b031684529284019290840190600101610bd4565b5050508381036020850152610c0e8187610b7e565b9150508281036040840152610c238185610b7e565b9695505050505050565b80356001600160a01b0381168114610c43575f80fd5b919050565b5f60208284031215610c58575f80fd5b610c6182610c2d565b9392505050565b5f8083601f840112610c78575f80fd5b50813567ffffffffffffffff811115610c8f575f80fd5b6020830191508360208260051b8501011115610ca9575f80fd5b9250929050565b5f805f805f805f60a0888a031215610cc6575f80fd5b610ccf88610c2d565b9650610cdd60208901610c2d565b9550604088013567ffffffffffffffff80821115610cf9575f80fd5b610d058b838c01610c68565b909750955060608a0135915080821115610d1d575f80fd5b50610d2a8a828b01610c68565b989b979a50959894979596608090950135949350505050565b634e487b7160e01b5f52604160045260245ffd5b634e487b7160e01b5f52603260045260245ffd5b634e487b7160e01b5f52601160045260245ffd5b81810381811115610d9257610d92610d6b565b92915050565b80820180821115610d9257610d92610d6b565b8082028115828204841417610d9257610d92610d6b565b5f82610ddc57634e487b7160e01b5f52601260045260245ffd5b50049056fea2646970667358221220363a68836d6d9ab4c49a55dd1fdcc1fc1facf53deee260742633a86198c3756564736f6c63430008180033",
  "linkReferences": {},
  "deployedLinkReferences": {},
  "immutableReferences": {},
  "inputSourceName": "project/contracts/VestingVault.sol",
  "buildInfoId": "solc-0_8_24-09f59ff99871a1c50df726f3227da91cf885a75d"
}