{
  "_format": "hh3-artifact-1",
  "contractName": "ArenaRegistry",
  "sourceName": "contracts/ArenaRegistry.sol",
  "abi": [
    {
      "inputs": [
        {
          "internalType": "address",
          "name": "_factory",
          "type": "address"
        },
        {
          "internalType": "uint256",
          "name": "_battleDuration",
          "type": "uint256"
        }
      ],
      "stateMutability": "nonpayable",
      "type": "constructor"
    },
    {
      "inputs": [
        {
          "internalType": "address",
          "name": "owner",
          "type": "address"
        }
      ],
      "name": "OwnableInvalidOwner",
      "type": "error"
    },
    {
      "inputs": [
        {
          "internalType": "address",
          "name": "account",
          "type": "address"
        }
      ],
      "name": "OwnableUnauthorizedAccount",
      "type": "error"
    },
    {
      "anonymous": false,
      "inputs": [
        {
          "indexed": true,
          "internalType": "uint256",
          "name": "battleId",
          "type": "uint256"
        },
        {
          "indexed": true,
          "internalType": "address",
          "name": "winner",
          "type": "address"
        },
        {
          "indexed": true,
          "internalType": "address",
          "name": "winnerCreator",
          "type": "address"
        },
        {
          "indexed": false,
          "internalType": "uint256",
          "name": "score",
          "type": "uint256"
        }
      ],
      "name": "BattleResolved",
      "type": "event"
    },
    {
      "anonymous": false,
      "inputs": [
        {
          "indexed": true,
          "internalType": "uint256",
          "name": "battleId",
          "type": "uint256"
        },
        {
          "indexed": false,
          "internalType": "uint256",
          "name": "startTime",
          "type": "uint256"
        },
        {
          "indexed": false,
          "internalType": "uint256",
          "name": "endTime",
          "type": "uint256"
        }
      ],
      "name": "BattleStarted",
      "type": "event"
    },
    {
      "anonymous": false,
      "inputs": [
        {
          "indexed": true,
          "internalType": "uint256",
          "name": "battleId",
          "type": "uint256"
        },
        {
          "indexed": true,
          "internalType": "address",
          "name": "token",
          "type": "address"
        },
        {
          "indexed": true,
          "internalType": "address",
          "name": "creator",
          "type": "address"
        }
      ],
      "name": "GraduationWin",
      "type": "event"
    },
    {
      "anonymous": false,
      "inputs": [
        {
          "indexed": true,
          "internalType": "address",
          "name": "previousOwner",
          "type": "address"
        },
        {
          "indexed": true,
          "internalType": "address",
          "name": "newOwner",
          "type": "address"
        }
      ],
      "name": "OwnershipTransferred",
      "type": "event"
    },
    {
      "anonymous": false,
      "inputs": [
        {
          "indexed": true,
          "internalType": "uint256",
          "name": "battleId",
          "type": "uint256"
        },
        {
          "indexed": true,
          "internalType": "address",
          "name": "token",
          "type": "address"
        },
        {
          "indexed": true,
          "internalType": "address",
          "name": "creator",
          "type": "address"
        }
      ],
      "name": "TokenEntered",
      "type": "event"
    },
    {
      "inputs": [],
      "name": "battleCount",
      "outputs": [
        {
          "internalType": "uint256",
          "name": "",
          "type": "uint256"
        }
      ],
      "stateMutability": "view",
      "type": "function"
    },
    {
      "inputs": [],
      "name": "battleDuration",
      "outputs": [
        {
          "internalType": "uint256",
          "name": "",
          "type": "uint256"
        }
      ],
      "stateMutability": "view",
      "type": "function"
    },
    {
      "inputs": [
        {
          "internalType": "address",
          "name": "",
          "type": "address"
        }
      ],
      "name": "creatorRecords",
      "outputs": [
        {
          "internalType": "uint256",
          "name": "totalWins",
          "type": "uint256"
        },
        {
          "internalType": "uint256",
          "name": "battlesParticipated",
          "type": "uint256"
        }
      ],
      "stateMutability": "view",
      "type": "function"
    },
    {
      "inputs": [
        {
          "internalType": "address",
          "name": "token",
          "type": "address"
        },
        {
          "internalType": "address",
          "name": "curve",
          "type": "address"
        },
        {
          "internalType": "address",
          "name": "creator",
          "type": "address"
        }
      ],
      "name": "enterBattle",
      "outputs": [],
      "stateMutability": "nonpayable",
      "type": "function"
    },
    {
      "inputs": [],
      "name": "factory",
      "outputs": [
        {
          "internalType": "address",
          "name": "",
          "type": "address"
        }
      ],
      "stateMutability": "view",
      "type": "function"
    },
    {
      "inputs": [
        {
          "internalType": "uint256",
          "name": "battleId",
          "type": "uint256"
        }
      ],
      "name": "getBattleLeaderboard",
      "outputs": [
        {
          "components": [
            {
              "internalType": "address",
              "name": "token",
              "type": "address"
            },
            {
              "internalType": "address",
              "name": "creator",
              "type": "address"
            },
            {
              "internalType": "uint256",
              "name": "score",
              "type": "uint256"
            }
          ],
          "internalType": "struct ArenaRegistry.LeaderboardEntry[]",
          "name": "",
          "type": "tuple[]"
        }
      ],
      "stateMutability": "view",
      "type": "function"
    },
    {
      "inputs": [
        {
          "internalType": "uint256",
          "name": "battleId",
          "type": "uint256"
        }
      ],
      "name": "getBattleParticipants",
      "outputs": [
        {
          "components": [
            {
              "internalType": "address",
              "name": "token",
              "type": "address"
            },
            {
              "internalType": "address",
              "name": "curve",
              "type": "address"
            },
            {
              "internalType": "address",
              "name": "creator",
              "type": "address"
            }
          ],
          "internalType": "struct ArenaRegistry.Participant[]",
          "name": "",
          "type": "tuple[]"
        }
      ],
      "stateMutability": "view",
      "type": "function"
    },
    {
      "inputs": [
        {
          "internalType": "address",
          "name": "creator_",
          "type": "address"
        }
      ],
      "name": "getCreatorArenaRecord",
      "outputs": [
        {
          "components": [
            {
              "internalType": "uint256",
              "name": "totalWins",
              "type": "uint256"
            },
            {
              "internalType": "uint256",
              "name": "battlesParticipated",
              "type": "uint256"
            }
          ],
          "internalType": "struct ArenaRegistry.CreatorRecord",
          "name": "",
          "type": "tuple"
        }
      ],
      "stateMutability": "view",
      "type": "function"
    },
    {
      "inputs": [],
      "name": "getCurrentBattle",
      "outputs": [
        {
          "internalType": "uint256",
          "name": "battleId",
          "type": "uint256"
        },
        {
          "internalType": "uint256",
          "name": "startTime",
          "type": "uint256"
        },
        {
          "internalType": "uint256",
          "name": "endTime",
          "type": "uint256"
        },
        {
          "internalType": "uint256",
          "name": "participantCount",
          "type": "uint256"
        },
        {
          "internalType": "bool",
          "name": "resolved",
          "type": "bool"
        },
        {
          "internalType": "address",
          "name": "winner",
          "type": "address"
        },
        {
          "internalType": "address",
          "name": "winnerCreator",
          "type": "address"
        }
      ],
      "stateMutability": "view",
      "type": "function"
    },
    {
      "inputs": [
        {
          "internalType": "uint256",
          "name": "",
          "type": "uint256"
        },
        {
          "internalType": "address",
          "name": "",
          "type": "address"
        }
      ],
      "name": "isParticipant",
      "outputs": [
        {
          "internalType": "bool",
          "name": "",
          "type": "bool"
        }
      ],
      "stateMutability": "view",
      "type": "function"
    },
    {
      "inputs": [
        {
          "internalType": "address",
          "name": "token",
          "type": "address"
        }
      ],
      "name": "onGraduation",
      "outputs": [],
      "stateMutability": "nonpayable",
      "type": "function"
    },
    {
      "inputs": [],
      "name": "owner",
      "outputs": [
        {
          "internalType": "address",
          "name": "",
          "type": "address"
        }
      ],
      "stateMutability": "view",
      "type": "function"
    },
    {
      "inputs": [],
      "name": "renounceOwnership",
      "outputs": [],
      "stateMutability": "nonpayable",
      "type": "function"
    },
    {
      "inputs": [
        {
          "internalType": "uint256",
          "name": "battleId",
          "type": "uint256"
        }
      ],
      "name": "resolveBattle",
      "outputs": [],
      "stateMutability": "nonpayable",
      "type": "function"
    },
    {
      "inputs": [
        {
          "internalType": "uint256",
          "name": "_duration",
          "type": "uint256"
        }
      ],
      "name": "setBattleDuration",
      "outputs": [],
      "stateMutability": "nonpayable",
      "type": "function"
    },
    {
      "inputs": [
        {
          "internalType": "address",
          "name": "_factory",
          "type": "address"
        }
      ],
      "name": "setFactory",
      "outputs": [],
      "stateMutability": "nonpayable",
      "type": "function"
    },
    {
      "inputs": [
        {
          "internalType": "address",
          "name": "newOwner",
          "type": "address"
        }
      ],
      "name": "transferOwnership",
      "outputs": [],
      "stateMutability": "nonpayable",
      "type": "function"
    }
  ],
  "bytecode": "0x608060405234801562000010575f80fd5b506040516200165638038062001656833981016040819052620000339162000178565b33806200005957604051631e4fbdf760e01b81525f600482015260240160405180910390fd5b620000648162000097565b50600180546001600160a01b0319166001600160a01b03841617905560028190556200008f620000e6565b5050620001eb565b5f80546001600160a01b038381166001600160a01b0319831681178455604051919092169283917f8be0079c531659141344cd1fd0a4f28419497f9722a3daafe3b4186f6b6457e09190a35050565b60038054600181018083555f838152919290839081106200010b576200010b620001b1565b5f9182526020909120426005909202018181556002549092506200012f91620001c5565b60018201819055815460408051918252602082019290925283917f5c1ce71ae6c3eb50b41231fe5991c4de20d0c55b7f4b6dec220b3b2da664c427910160405180910390a25050565b5f80604083850312156200018a575f80fd5b82516001600160a01b0381168114620001a1575f80fd5b6020939093015192949293505050565b634e487b7160e01b5f52603260045260245ffd5b80820180821115620001e557634e487b7160e01b5f52601160045260245ffd5b92915050565b61145d80620001f95f395ff3fe608060405234801561000f575f80fd5b5060043610610106575f3560e01c80638da5cb5b1161009e578063d93705a51161006e578063d93705a51461029a578063e00b6363146102ad578063eff08ca8146102b5578063f2fde38b14610323578063fa6335df14610336575f80fd5b80638da5cb5b1461020557806392a07a7314610229578063b9c360721461023c578063c45a015514610287575f80fd5b80635bb47808116100d95780635bb4780814610196578063715018a6146101a9578063758d9b89146101b15780637986a3c8146101ee575f80fd5b8063330561091461010a57806337a8d1f11461013357806344162cc5146101485780634aef85261461015b575b5f80fd5b61011d61011836600461110b565b610356565b60405161012a9190611122565b60405180910390f35b6101466101413660046111a4565b610428565b005b61014661015636600461110b565b6105c8565b6101816101693660046111a4565b60056020525f90815260409020805460019091015482565b6040805192835260208301919091520161012a565b6101466101a43660046111a4565b61061b565b610146610645565b6101de6101bf3660046111bd565b600460209081525f928352604080842090915290825290205460ff1681565b604051901515815260200161012a565b6101f760025481565b60405190815260200161012a565b5f546001600160a01b03165b6040516001600160a01b03909116815260200161012a565b6101466102373660046111e7565b610658565b610244610852565b604080519788526020880196909652948601939093526060850191909152151560808401526001600160a01b0390811660a08401521660c082015260e00161012a565b600154610211906001600160a01b031681565b6101466102a836600461110b565b6108c8565b6003546101f7565b6103086102c33660046111a4565b604080518082019091525f8082526020820152506001600160a01b03165f90815260056020908152604091829020825180840190935280548352600101549082015290565b6040805182518152602092830151928101929092520161012a565b6101466103313660046111a4565b610af6565b61034961034436600461110b565b610b33565b60405161012a9190611227565b60035460609082106103835760405162461bcd60e51b815260040161037a9061127e565b60405180910390fd5b60038281548110610396576103966112ad565b905f5260205f209060050201600201805480602002602001604051908101604052809291908181526020015f905b8282101561041d575f848152602090819020604080516060810182526003860290920180546001600160a01b039081168452600180830154821685870152600290920154169183019190915290835290920191016103c4565b505050509050919050565b6001546001600160a01b031633146104785760405162461bcd60e51b81526020600482015260136024820152724172656e613a206f6e6c7920666163746f727960681b604482015260640161037a565b5f610481610d73565b90505f60038281548110610497576104976112ad565b5f9182526020909120600590910201600381015490915060ff16156104bb57505050565b5f8281526004602090815260408083206001600160a01b038716845290915290205460ff166104e957505050565b5f805b600283015481101561057557846001600160a01b0316836002018281548110610517576105176112ad565b5f9182526020909120600390910201546001600160a01b03160361056d5782600201818154811061054a5761054a6112ad565b5f9182526020909120600260039092020101546001600160a01b03169150610575565b6001016104ec565b50610581838583610d89565b806001600160a01b0316846001600160a01b0316847f6cc5adbd75ef38430eb91158ce917f3859af49c28f22a5845a1e827932a2a42260405160405180910390a450505050565b6105d0610e82565b5f81116106165760405162461bcd60e51b815260206004820152601460248201527320b932b7309d103d32b93790323ab930ba34b7b760611b604482015260640161037a565b600255565b610623610e82565b600180546001600160a01b0319166001600160a01b0392909216919091179055565b61064d610e82565b6106565f610eae565b565b6001546001600160a01b031633146106a85760405162461bcd60e51b81526020600482015260136024820152724172656e613a206f6e6c7920666163746f727960681b604482015260640161037a565b5f6106b1610efd565b5f8181526004602090815260408083206001600160a01b038916845290915290205490915060ff161561071f5760405162461bcd60e51b8152602060048201526016602482015275105c995b984e88185b1c9958591e48195b9d195c995960521b604482015260640161037a565b5f8181526004602090815260408083206001600160a01b03881684529091529020805460ff19166001179055600380548290811061075f5761075f6112ad565b5f9182526020808320604080516060810182526001600160a01b03808b16825289811682860190815289821683850181815260026005998a029097018701805460018181018355918c52898c209651600390910290960180549686166001600160a01b0319978816178155935184820180549187169188169190911790559051929096018054929093169190931617905585529290915290822001805491610806836112d5565b9190505550816001600160a01b0316846001600160a01b0316827f97e53895446d0779f2f0b97494e51c574f3aa405d1c43deaf06cf8b98b95e64960405160405180910390a450505050565b5f805f805f805f610861610d73565b96505f60038881548110610877576108776112ad565b5f918252602090912060059091020180546001820154600283015460038401546004909401549b9c929b919a50985060ff831697506001600160a01b03610100909304831696509091169350915050565b60035481106108e95760405162461bcd60e51b815260040161037a9061127e565b5f600382815481106108fd576108fd6112ad565b5f9182526020909120600590910201600381015490915060ff16156109645760405162461bcd60e51b815260206004820152601760248201527f4172656e613a20616c7265616479207265736f6c766564000000000000000000604482015260640161037a565b80600101544210156109b85760405162461bcd60e51b815260206004820152601760248201527f4172656e613a20626174746c65206e6f7420656e646564000000000000000000604482015260640161037a565b60028101545f03610a165760038101805460ff191660011790556040515f90819084907f6a2f70f9cd37cba9c79b58d9ae7fa9c626add25f1b9ac66c368f9efff49341d890610a0a9084815260200190565b60405180910390a45050565b5f8080805b6002850154811015610a95575f856002018281548110610a3d57610a3d6112ad565b5f91825260208220600160039092020190810154909250610a66906001600160a01b0316610f78565b905083811115610a8b57815460028301546001600160a01b0391821697501694509250825b5050600101610a1b565b50610aa1858484610d89565b816001600160a01b0316836001600160a01b0316867f6a2f70f9cd37cba9c79b58d9ae7fa9c626add25f1b9ac66c368f9efff49341d884604051610ae791815260200190565b60405180910390a45050505050565b610afe610e82565b6001600160a01b038116610b2757604051631e4fbdf760e01b81525f600482015260240161037a565b610b3081610eae565b50565b6003546060908210610b575760405162461bcd60e51b815260040161037a9061127e565b5f60038381548110610b6b57610b6b6112ad565b5f91825260208220600260059092020190810154909250908167ffffffffffffffff811115610b9c57610b9c6112ed565b604051908082528060200260200182016040528015610be557816020015b604080516060810182525f80825260208083018290529282015282525f19909201910181610bba5790505b5090505f5b82811015610c82575f846002018281548110610c0857610c086112ad565b5f91825260209182902060408051606081018252600390930290910180546001600160a01b03908116845260028201548116948401949094526001810154909450919290830191610c599116610f78565b815250838381518110610c6e57610c6e6112ad565b602090810291909101015250600101610bea565b5060015b82811015610d6a575f828281518110610ca157610ca16112ad565b602002602001015190505f8290505b5f81118015610ce95750604082015184610ccb600184611301565b81518110610cdb57610cdb6112ad565b602002602001015160400151105b15610d425783610cfa600183611301565b81518110610d0a57610d0a6112ad565b6020026020010151848281518110610d2457610d246112ad565b60200260200101819052508080610d3a9061131a565b915050610cb0565b81848281518110610d5557610d556112ad565b60209081029190910101525050600101610c86565b50949350505050565b6003545f90610d8490600190611301565b905090565b5f60038481548110610d9d57610d9d6112ad565b5f9182526020909120600360059092020190810180546001600160a01b03808716610100026001600160a81b0319909216919091176001179091556004820180549185166001600160a01b03199092168217905590915015610e7c576001600160a01b0382165f908152600560205260408120805491610e1c836112d5565b909155505060015460405163520f0cc160e01b81526001600160a01b0384811660048301529091169063520f0cc1906024015f604051808303815f87803b158015610e65575f80fd5b505af1158015610e77573d5f803e3d5ffd5b505050505b50505050565b5f546001600160a01b031633146106565760405163118cdaa760e01b815233600482015260240161037a565b5f80546001600160a01b038381166001600160a01b0319831681178455604051919092169283917f8be0079c531659141344cd1fd0a4f28419497f9722a3daafe3b4186f6b6457e09190a35050565b6003545f908190610f1090600190611301565b90505f60038281548110610f2657610f266112ad565b5f9182526020909120600590910201600381015490915060ff1680610f4f575080600101544210155b15610f7257610f5c61107e565b600354610f6b90600190611301565b9250505090565b50919050565b5f80826001600160a01b031663633136ac6040518163ffffffff1660e01b815260040161012060405180830381865afa158015610fb7573d5f803e3d5ffd5b505050506040513d601f19601f82011682018060405250810190610fdb9190611365565b90508061010001516005610fef91906113de565b60a0820151610fff9060326113de565b60e083015161100f90600a6113de565b835161102490670de0b6b3a7640000906113f5565b60808501516110349060646113de565b60c08601516110459061012c6113de565b61104f9190611414565b6110599190611414565b6110639190611414565b61106d9190611414565b6110779190611414565b9392505050565b60038054600181018083555f838152919290839081106110a0576110a06112ad565b5f9182526020909120426005909202018181556002549092506110c291611414565b60018201819055815460408051918252602082019290925283917f5c1ce71ae6c3eb50b41231fe5991c4de20d0c55b7f4b6dec220b3b2da664c427910160405180910390a25050565b5f6020828403121561111b575f80fd5b5035919050565b602080825282518282018190525f919060409081850190868401855b8281101561117c57815180516001600160a01b039081168652878201518116888701529086015116858501526060909301929085019060010161113e565b5091979650505050505050565b80356001600160a01b038116811461119f575f80fd5b919050565b5f602082840312156111b4575f80fd5b61107782611189565b5f80604083850312156111ce575f80fd5b823591506111de60208401611189565b90509250929050565b5f805f606084860312156111f9575f80fd5b61120284611189565b925061121060208501611189565b915061121e60408501611189565b90509250925092565b602080825282518282018190525f919060409081850190868401855b8281101561117c57815180516001600160a01b0390811686528782015116878601528501518585015260609093019290850190600101611243565b6020808252601590820152744172656e613a20696e76616c696420626174746c6560581b604082015260600190565b634e487b7160e01b5f52603260045260245ffd5b634e487b7160e01b5f52601160045260245ffd5b5f600182016112e6576112e66112c1565b5060010190565b634e487b7160e01b5f52604160045260245ffd5b81810381811115611314576113146112c1565b92915050565b5f81611328576113286112c1565b505f190190565b604051610120810167ffffffffffffffff8111828210171561135f57634e487b7160e01b5f52604160045260245ffd5b60405290565b5f6101208284031215611376575f80fd5b61137e61132f565b825181526020830151602082015260408301516040820152606083015160608201526080830151608082015260a083015160a082015260c083015160c082015260e083015160e08201526101008084015181830152508091505092915050565b8082028115828204841417611314576113146112c1565b5f8261140f57634e487b7160e01b5f52601260045260245ffd5b500490565b80820180821115611314576113146112c156fea2646970667358221220b063d04035456abe06c550fb8c5e2fb5c6006f6dc20095697ee66c30f2b5aa9364736f6c63430008180033",
  "linkReferences": {},
  "deployedLinkReferences": {},
  "immutableReferences": {},
  "inputSourceName": "project/contracts/ArenaRegistry.sol",
  "buildInfoId": "solc-0_8_24-faeab627b5924d47227edd308545b6689ffe02d5"
}