{"project/contracts/FeeVault.sol":{"FeeVault":{"abi":[{"inputs":[],"stateMutability":"nonpayable","type":"constructor"},{"inputs":[{"internalType":"address","name":"owner","type":"address"}],"name":"OwnableInvalidOwner","type":"error"},{"inputs":[{"internalType":"address","name":"account","type":"address"}],"name":"OwnableUnauthorizedAccount","type":"error"},{"inputs":[{"internalType":"address","name":"token","type":"address"}],"name":"SafeERC20FailedOperation","type":"error"},{"anonymous":false,"inputs":[{"indexed":true,"internalType":"address","name":"creator","type":"address"},{"indexed":false,"internalType":"uint256","name":"amount","type":"uint256"}],"name":"CreatorFeesClaimed","type":"event"},{"anonymous":false,"inputs":[{"indexed":true,"internalType":"address","name":"factory_","type":"address"}],"name":"FactoryAuthorized","type":"event"},{"anonymous":false,"inputs":[{"indexed":true,"internalType":"address","name":"factory_","type":"address"}],"name":"FactoryRevoked","type":"event"},{"anonymous":false,"inputs":[{"indexed":true,"internalType":"address","name":"previousOwner","type":"address"},{"indexed":true,"internalType":"address","name":"newOwner","type":"address"}],"name":"OwnershipTransferred","type":"event"},{"anonymous":false,"inputs":[{"indexed":true,"internalType":"address","name":"source","type":"address"},{"indexed":false,"internalType":"uint256","name":"amount","type":"uint256"}],"name":"ProtocolFeeDeposited","type":"event"},{"anonymous":false,"inputs":[{"indexed":true,"internalType":"address","name":"to","type":"address"},{"indexed":false,"internalType":"uint256","name":"amount","type":"uint256"}],"name":"ProtocolFeesClaimed","type":"event"},{"anonymous":false,"inputs":[{"indexed":true,"internalType":"address","name":"referrer","type":"address"},{"indexed":false,"internalType":"uint256","name":"amount","type":"uint256"}],"name":"ReferrerFeesClaimed","type":"event"},{"anonymous":false,"inputs":[{"indexed":true,"internalType":"address","name":"secondOwner_","type":"address"}],"name":"SecondOwnerSet","type":"event"},{"anonymous":false,"inputs":[{"indexed":true,"internalType":"address","name":"source","type":"address"}],"name":"SourceAuthorized","type":"event"},{"anonymous":false,"inputs":[{"indexed":true,"internalType":"address","name":"source","type":"address"}],"name":"SourceRevoked","type":"event"},{"anonymous":false,"inputs":[{"indexed":true,"internalType":"address","name":"source","type":"address"},{"indexed":true,"internalType":"address","name":"creator","type":"address"},{"indexed":true,"internalType":"address","name":"referrer","type":"address"},{"indexed":false,"internalType":"uint256","name":"protocolAmt","type":"uint256"},{"indexed":false,"internalType":"uint256","name":"creatorAmt","type":"uint256"}],"name":"SplitFeeDeposited","type":"event"},{"inputs":[],"name":"REFERRAL_SHARE_OF_CREATOR","outputs":[{"internalType":"uint256","name":"","type":"uint256"}],"stateMutability":"view","type":"function"},{"inputs":[{"internalType":"address","name":"factory_","type":"address"}],"name":"authorizeFactory","outputs":[],"stateMutability":"nonpayable","type":"function"},{"inputs":[{"internalType":"address","name":"source","type":"address"}],"name":"authorizeSource","outputs":[],"stateMutability":"nonpayable","type":"function"},{"inputs":[{"internalType":"address","name":"","type":"address"}],"name":"authorizedFactories","outputs":[{"internalType":"bool","name":"","type":"bool"}],"stateMutability":"view","type":"function"},{"inputs":[{"internalType":"address","name":"","type":"address"}],"name":"authorizedSources","outputs":[{"internalType":"bool","name":"","type":"bool"}],"stateMutability":"view","type":"function"},{"inputs":[],"name":"claimCreatorFees","outputs":[],"stateMutability":"nonpayable","type":"function"},{"inputs":[],"name":"claimProtocolFees","outputs":[],"stateMutability":"nonpayable","type":"function"},{"inputs":[],"name":"claimReferrerFees","outputs":[],"stateMutability":"nonpayable","type":"function"},{"inputs":[{"internalType":"address","name":"","type":"address"}],"name":"creatorClaimable","outputs":[{"internalType":"uint256","name":"","type":"uint256"}],"stateMutability":"view","type":"function"},{"inputs":[],"name":"depositProtocolFee","outputs":[],"stateMutability":"payable","type":"function"},{"inputs":[{"internalType":"address","name":"creator","type":"address"},{"internalType":"address","name":"referrer","type":"address"},{"internalType":"uint256","name":"protocolAmt","type":"uint256"},{"internalType":"uint256","name":"creatorAmt","type":"uint256"}],"name":"depositSplitFee","outputs":[],"stateMutability":"payable","type":"function"},{"inputs":[],"name":"owner","outputs":[{"internalType":"address","name":"","type":"address"}],"stateMutability":"view","type":"function"},{"inputs":[],"name":"protocolClaimable","outputs":[{"internalType":"uint256","name":"","type":"uint256"}],"stateMutability":"view","type":"function"},{"inputs":[{"internalType":"address","name":"","type":"address"}],"name":"referrerClaimable","outputs":[{"internalType":"uint256","name":"","type":"uint256"}],"stateMutability":"view","type":"function"},{"inputs":[],"name":"renounceOwnership","outputs":[],"stateMutability":"nonpayable","type":"function"},{"inputs":[{"internalType":"address","name":"token","type":"address"},{"internalType":"address","name":"to","type":"address"},{"internalType":"uint256","name":"amount","type":"uint256"}],"name":"rescueERC20","outputs":[],"stateMutability":"nonpayable","type":"function"},{"inputs":[{"internalType":"address","name":"to","type":"address"}],"name":"rescueExcessNative","outputs":[],"stateMutability":"nonpayable","type":"function"},{"inputs":[{"internalType":"address","name":"factory_","type":"address"}],"name":"revokeFactory","outputs":[],"stateMutability":"nonpayable","type":"function"},{"inputs":[{"internalType":"address","name":"source","type":"address"}],"name":"revokeSource","outputs":[],"stateMutability":"nonpayable","type":"function"},{"inputs":[],"name":"secondOwner","outputs":[{"internalType":"address","name":"","type":"address"}],"stateMutability":"view","type":"function"},{"inputs":[{"internalType":"address","name":"secondOwner_","type":"address"}],"name":"setSecondOwner","outputs":[],"stateMutability":"nonpayable","type":"function"},{"inputs":[],"name":"totalAccountedUSDC","outputs":[{"internalType":"uint256","name":"","type":"uint256"}],"stateMutability":"view","type":"function"},{"inputs":[{"internalType":"address","name":"newOwner","type":"address"}],"name":"transferOwnership","outputs":[],"stateMutability":"nonpayable","type":"function"},{"stateMutability":"payable","type":"receive"}],"evm":{"bytecode":{"linkReferences":{},"object":"608060405234801561000f575f80fd5b50338061003557604051631e4fbdf760e01b81525f600482015260240160405180910390fd5b61003e81610044565b50610093565b5f80546001600160a01b038381166001600160a01b0319831681178455604051919092169283917f8be0079c531659141344cd1fd0a4f28419497f9722a3daafe3b4186f6b6457e09190a35050565b6110db806100a05f395ff3fe60806040526004361061013e575f3560e01c80638da5cb5b116100b3578063bbedb64b1161006d578063bbedb64b14610356578063ce228ad214610375578063dcd6fcaf1461038a578063e5b769c4146103a9578063ecd24a82146103c8578063f2fde38b146103f6575f80fd5b80638da5cb5b146102a1578063939ad2c2146102bd578063964ebf42146102c5578063acbb262514610303578063b2118a8d14610322578063bbd93c4b14610341575f80fd5b8063351fee4611610104578063351fee46146101ef5780634a7d036914610203578063636c26561461021757806365b08e091461024257806368a9f31c14610256578063715018a61461028d575f80fd5b80621189dd146101495780630417a7101461016a578063121f612c14610192578063181fd012146101a557806327cca4e4146101c4575f80fd5b3661014557005b5f80fd5b348015610154575f80fd5b50610168610163366004610f60565b610415565b005b348015610175575f80fd5b5061017f6107d081565b6040519081526020015b60405180910390f35b6101686101a0366004610f80565b610465565b3480156101b0575f80fd5b506101686101bf366004610f60565b610672565b3480156101cf575f80fd5b5061017f6101de366004610f60565b60036020525f908152604090205481565b3480156101fa575f80fd5b506101686106c5565b34801561020e575f80fd5b5061016861075d565b348015610222575f80fd5b5061017f610231366004610f60565b60026020525f908152604090205481565b34801561024d575f80fd5b5061016861094e565b348015610261575f80fd5b50600554610275906001600160a01b031681565b6040516001600160a01b039091168152602001610189565b348015610298575f80fd5b506101686109df565b3480156102ac575f80fd5b505f546001600160a01b0316610275565b6101686109f2565b3480156102d0575f80fd5b506102f36102df366004610f60565b60066020525f908152604090205460ff1681565b6040519015158152602001610189565b34801561030e575f80fd5b5061016861031d366004610f60565b610ab5565b34801561032d575f80fd5b5061016861033c366004610fbf565b610b72565b34801561034c575f80fd5b5061017f60045481565b348015610361575f80fd5b50610168610370366004610f60565b610b93565b348015610380575f80fd5b5061017f60015481565b348015610395575f80fd5b506101686103a4366004610f60565b610c9e565b3480156103b4575f80fd5b506101686103c3366004610f60565b610cee565b3480156103d3575f80fd5b506102f36103e2366004610f60565b60076020525f908152604090205460ff1681565b348015610401575f80fd5b50610168610410366004610f60565b610d5a565b61041d610d94565b6001600160a01b0381165f81815260076020526040808220805460ff19169055517fd25dd45a1811dc9170ab90c454ef2024f3086a79da5279a8d42f39bdda8f36d19190a250565b335f9081526006602052604090205460ff166104c85760405162461bcd60e51b815260206004820152601f60248201527f4665655661756c743a206e6f7420617574686f72697a656420736f757263650060448201526064015b60405180910390fd5b6104d2818361100c565b34146105205760405162461bcd60e51b815260206004820152601860248201527f4665655661756c743a2076616c7565206d69736d61746368000000000000000060448201526064016104bf565b8160015f828254610531919061100c565b90915550506001600160a01b0383161580159061054d57505f81115b156105de575f6127106105626107d084611025565b61056c919061103c565b90505f610579828461105b565b6001600160a01b0387165f908152600260205260408120805492935083929091906105a590849061100c565b90915550506001600160a01b0385165f90815260036020526040812080548492906105d190849061100c565b9091555061060b92505050565b6001600160a01b0384165f908152600260205260408120805483929061060590849061100c565b90915550505b3460045f82825461061c919061100c565b909155505060408051838152602081018390526001600160a01b03808616929087169133917f6f1812ac60560add64fe1009bc946edfacfc179d8e6eafbd8c4fc934101ee283910160405180910390a450505050565b61067a610d94565b6001600160a01b0381165f81815260076020526040808220805460ff19166001179055517f2fa23115f2b369fc34eda97ccf6bc2fab82882719f0547f3e45a9a400086aeae9190a250565b335f90815260026020526040902054806106f15760405162461bcd60e51b81526004016104bf9061106e565b335f9081526002602052604081208190556004805483929061071490849061105b565b9091555061072490503382610dc0565b60405181815233907fd046302bdc39599e60a5981e59227dcd1c643f512f56f2e984390c3ac6eadedb906020015b60405180910390a250565b5f546001600160a01b031633148061077f57506005546001600160a01b031633145b6107c45760405162461bcd60e51b81526020600482015260166024820152752332b2ab30bab63a1d103737ba1030b71037bbb732b960511b60448201526064016104bf565b600154806107e45760405162461bcd60e51b81526004016104bf9061106e565b5f6001819055508060045f8282546107fc919061105b565b90915550506005546001600160a01b0316156108f2575f61081e60028361103c565b90505f61082b828461105b565b600554909150610844906001600160a01b031683610dc0565b61085e6108585f546001600160a01b031690565b82610dc0565b5f546001600160a01b03166001600160a01b03167f0f58cb6262d88971b87878468debb7bc81f1714be597710e16a9fb84c66ff7b5826040516108a391815260200190565b60405180910390a26005546040518381526001600160a01b03909116907f0f58cb6262d88971b87878468debb7bc81f1714be597710e16a9fb84c66ff7b59060200160405180910390a2505050565b6109066108585f546001600160a01b031690565b5f546001600160a01b03166001600160a01b03167f0f58cb6262d88971b87878468debb7bc81f1714be597710e16a9fb84c66ff7b58260405161075291815260200190565b50565b335f908152600360205260409020548061097a5760405162461bcd60e51b81526004016104bf9061106e565b335f9081526003602052604081208190556004805483929061099d90849061105b565b909155506109ad90503382610dc0565b60405181815233907f2546672a975ef5e2de5a33b38c7ff4453d874ce5f273494c6544790c8c0c4e9990602001610752565b6109e7610d94565b6109f05f610e5f565b565b335f9081526006602052604090205460ff16610a505760405162461bcd60e51b815260206004820152601f60248201527f4665655661756c743a206e6f7420617574686f72697a656420736f757263650060448201526064016104bf565b3460015f828254610a61919061100c565b925050819055503460045f828254610a79919061100c565b909155505060405134815233907f976cb2034efd8460171c354591cdd9fc14fcabda0805ee745de0215f3583ded29060200160405180910390a2565b5f546001600160a01b0316331480610adb5750335f9081526007602052604090205460ff165b610b275760405162461bcd60e51b815260206004820152601e60248201527f4665655661756c743a206e6f74206f776e6572206f7220666163746f7279000060448201526064016104bf565b6001600160a01b0381165f81815260066020526040808220805460ff19166001179055517f4259866215295669a8aa580379fdb1207113bfbe3fd2e1915e992bdba65acc079190a250565b610b7a610d94565b610b8e6001600160a01b0384168383610eae565b505050565b610b9b610d94565b6001600160a01b038116610bea5760405162461bcd60e51b81526020600482015260166024820152754665655661756c743a207a65726f206164647265737360501b60448201526064016104bf565b5f546001600160a01b03166001600160a01b0316816001600160a01b031603610c555760405162461bcd60e51b815260206004820152601f60248201527f4665655661756c743a2073616d65206173207072696d617279206f776e65720060448201526064016104bf565b600580546001600160a01b0319166001600160a01b0383169081179091556040517fbea61419e66bc3a01913ee169e373798b049e2089baeafab7381467a5cd7a3e4905f90a250565b610ca6610d94565b6001600160a01b0381165f81815260066020526040808220805460ff19169055517ffe99fcb294979665c2561e12bf52a9b17f0412fdafecd42b4642a8582637322a9190a250565b610cf6610d94565b5f60045447610d05919061105b565b90505f8111610d4c5760405162461bcd60e51b81526020600482015260136024820152724665655661756c743a206e6f2065786365737360681b60448201526064016104bf565b610d568282610dc0565b5050565b610d62610d94565b6001600160a01b038116610d8b57604051631e4fbdf760e01b81525f60048201526024016104bf565b61094b81610e5f565b5f546001600160a01b031633146109f05760405163118cdaa760e01b81523360048201526024016104bf565b5f826001600160a01b0316826040515f6040518083038185875af1925050503d805f8114610e09576040519150601f19603f3d011682016040523d82523d5f602084013e610e0e565b606091505b5050905080610b8e5760405162461bcd60e51b815260206004820181905260248201527f4665655661756c743a206e6174697665207472616e73666572206661696c656460448201526064016104bf565b5f80546001600160a01b038381166001600160a01b0319831681178455604051919092169283917f8be0079c531659141344cd1fd0a4f28419497f9722a3daafe3b4186f6b6457e09190a35050565b610ebb8383836001610ee3565b610b8e57604051635274afe760e01b81526001600160a01b03841660048201526024016104bf565b60405163a9059cbb60e01b5f8181526001600160a01b038616600452602485905291602083604481808b5af1925060015f51148316610f39578383151615610f2d573d5f823e3d81fd5b5f873b113d1516831692505b60405250949350505050565b80356001600160a01b0381168114610f5b575f80fd5b919050565b5f60208284031215610f70575f80fd5b610f7982610f45565b9392505050565b5f805f8060808587031215610f93575f80fd5b610f9c85610f45565b9350610faa60208601610f45565b93969395505050506040820135916060013590565b5f805f60608486031215610fd1575f80fd5b610fda84610f45565b9250610fe860208501610f45565b9150604084013590509250925092565b634e487b7160e01b5f52601160045260245ffd5b8082018082111561101f5761101f610ff8565b92915050565b808202811582820484141761101f5761101f610ff8565b5f8261105657634e487b7160e01b5f52601260045260245ffd5b500490565b8181038181111561101f5761101f610ff8565b6020808252601a908201527f4665655661756c743a206e6f7468696e6720746f20636c61696d00000000000060408201526060019056fea26469706673582212206a4d44687f9661e2fa2558e8ea897b08f4a7de4a31a2acc84fe34cfba5af187664736f6c63430008180033","opcodes":"PUSH1 0x80 PUSH1 0x40 MSTORE CALLVALUE DUP1 ISZERO PUSH2 0xF JUMPI PUSH0 DUP1 REVERT JUMPDEST POP CALLER DUP1 PUSH2 0x35 JUMPI PUSH1 0x40 MLOAD PUSH4 0x1E4FBDF7 PUSH1 0xE0 SHL DUP2 MSTORE PUSH0 PUSH1 0x4 DUP3 ADD MSTORE PUSH1 0x24 ADD PUSH1 0x40 MLOAD DUP1 SWAP2 SUB SWAP1 REVERT JUMPDEST PUSH2 0x3E DUP2 PUSH2 0x44 JUMP JUMPDEST POP PUSH2 0x93 JUMP JUMPDEST PUSH0 DUP1 SLOAD PUSH1 0x1 PUSH1 0x1 PUSH1 0xA0 SHL SUB DUP4 DUP2 AND PUSH1 0x1 PUSH1 0x1 PUSH1 0xA0 SHL SUB NOT DUP4 AND DUP2 OR DUP5 SSTORE PUSH1 0x40 MLOAD SWAP2 SWAP1 SWAP3 AND SWAP3 DUP4 SWAP2 PUSH32 0x8BE0079C531659141344CD1FD0A4F28419497F9722A3DAAFE3B4186F6B6457E0 SWAP2 SWAP1 LOG3 POP POP JUMP JUMPDEST PUSH2 0x10DB DUP1 PUSH2 0xA0 PUSH0 CODECOPY PUSH0 RETURN INVALID PUSH1 0x80 PUSH1 0x40 MSTORE PUSH1 0x4 CALLDATASIZE LT PUSH2 0x13E JUMPI PUSH0 CALLDATALOAD PUSH1 0xE0 SHR DUP1 PUSH4 0x8DA5CB5B GT PUSH2 0xB3 JUMPI DUP1 PUSH4 0xBBEDB64B GT PUSH2 0x6D JUMPI DUP1 PUSH4 0xBBEDB64B EQ PUSH2 0x356 JUMPI DUP1 PUSH4 0xCE228AD2 EQ PUSH2 0x375 JUMPI DUP1 PUSH4 0xDCD6FCAF EQ PUSH2 0x38A JUMPI DUP1 PUSH4 0xE5B769C4 EQ PUSH2 0x3A9 JUMPI DUP1 PUSH4 0xECD24A82 EQ PUSH2 0x3C8 JUMPI DUP1 PUSH4 0xF2FDE38B EQ PUSH2 0x3F6 JUMPI PUSH0 DUP1 REVERT JUMPDEST DUP1 PUSH4 0x8DA5CB5B EQ PUSH2 0x2A1 JUMPI DUP1 PUSH4 0x939AD2C2 EQ PUSH2 0x2BD JUMPI DUP1 PUSH4 0x964EBF42 EQ PUSH2 0x2C5 JUMPI DUP1 PUSH4 0xACBB2625 EQ PUSH2 0x303 JUMPI DUP1 PUSH4 0xB2118A8D EQ PUSH2 0x322 JUMPI DUP1 PUSH4 0xBBD93C4B EQ PUSH2 0x341 JUMPI PUSH0 DUP1 REVERT JUMPDEST DUP1 PUSH4 0x351FEE46 GT PUSH2 0x104 JUMPI DUP1 PUSH4 0x351FEE46 EQ PUSH2 0x1EF JUMPI DUP1 PUSH4 0x4A7D0369 EQ PUSH2 0x203 JUMPI DUP1 PUSH4 0x636C2656 EQ PUSH2 0x217 JUMPI DUP1 PUSH4 0x65B08E09 EQ PUSH2 0x242 JUMPI DUP1 PUSH4 0x68A9F31C EQ PUSH2 0x256 JUMPI DUP1 PUSH4 0x715018A6 EQ PUSH2 0x28D JUMPI PUSH0 DUP1 REVERT JUMPDEST DUP1 PUSH3 0x1189DD EQ PUSH2 0x149 JUMPI DUP1 PUSH4 0x417A710 EQ PUSH2 0x16A JUMPI DUP1 PUSH4 0x121F612C EQ PUSH2 0x192 JUMPI DUP1 PUSH4 0x181FD012 EQ PUSH2 0x1A5 JUMPI DUP1 PUSH4 0x27CCA4E4 EQ PUSH2 0x1C4 JUMPI PUSH0 DUP1 REVERT JUMPDEST CALLDATASIZE PUSH2 0x145 JUMPI STOP JUMPDEST PUSH0 DUP1 REVERT JUMPDEST CALLVALUE DUP1 ISZERO PUSH2 0x154 JUMPI PUSH0 DUP1 REVERT JUMPDEST POP PUSH2 0x168 PUSH2 0x163 CALLDATASIZE PUSH1 0x4 PUSH2 0xF60 JUMP JUMPDEST PUSH2 0x415 JUMP JUMPDEST STOP JUMPDEST CALLVALUE DUP1 ISZERO PUSH2 0x175 JUMPI PUSH0 DUP1 REVERT JUMPDEST POP PUSH2 0x17F PUSH2 0x7D0 DUP2 JUMP JUMPDEST PUSH1 0x40 MLOAD SWAP1 DUP2 MSTORE PUSH1 0x20 ADD JUMPDEST PUSH1 0x40 MLOAD DUP1 SWAP2 SUB SWAP1 RETURN JUMPDEST PUSH2 0x168 PUSH2 0x1A0 CALLDATASIZE PUSH1 0x4 PUSH2 0xF80 JUMP JUMPDEST PUSH2 0x465 JUMP JUMPDEST CALLVALUE DUP1 ISZERO PUSH2 0x1B0 JUMPI PUSH0 DUP1 REVERT JUMPDEST POP PUSH2 0x168 PUSH2 0x1BF CALLDATASIZE PUSH1 0x4 PUSH2 0xF60 JUMP JUMPDEST PUSH2 0x672 JUMP JUMPDEST CALLVALUE DUP1 ISZERO PUSH2 0x1CF JUMPI PUSH0 DUP1 REVERT JUMPDEST POP PUSH2 0x17F PUSH2 0x1DE CALLDATASIZE PUSH1 0x4 PUSH2 0xF60 JUMP JUMPDEST PUSH1 0x3 PUSH1 0x20 MSTORE PUSH0 SWAP1 DUP2 MSTORE PUSH1 0x40 SWAP1 KECCAK256 SLOAD DUP2 JUMP JUMPDEST CALLVALUE DUP1 ISZERO PUSH2 0x1FA JUMPI PUSH0 DUP1 REVERT JUMPDEST POP PUSH2 0x168 PUSH2 0x6C5 JUMP JUMPDEST CALLVALUE DUP1 ISZERO PUSH2 0x20E JUMPI PUSH0 DUP1 REVERT JUMPDEST POP PUSH2 0x168 PUSH2 0x75D JUMP JUMPDEST CALLVALUE DUP1 ISZERO PUSH2 0x222 JUMPI PUSH0 DUP1 REVERT JUMPDEST POP PUSH2 0x17F PUSH2 0x231 CALLDATASIZE PUSH1 0x4 PUSH2 0xF60 JUMP JUMPDEST PUSH1 0x2 PUSH1 0x20 MSTORE PUSH0 SWAP1 DUP2 MSTORE PUSH1 0x40 SWAP1 KECCAK256 SLOAD DUP2 JUMP JUMPDEST CALLVALUE DUP1 ISZERO PUSH2 0x24D JUMPI PUSH0 DUP1 REVERT JUMPDEST POP PUSH2 0x168 PUSH2 0x94E JUMP JUMPDEST CALLVALUE DUP1 ISZERO PUSH2 0x261 JUMPI PUSH0 DUP1 REVERT JUMPDEST POP PUSH1 0x5 SLOAD PUSH2 0x275 SWAP1 PUSH1 0x1 PUSH1 0x1 PUSH1 0xA0 SHL SUB AND DUP2 JUMP JUMPDEST PUSH1 0x40 MLOAD PUSH1 0x1 PUSH1 0x1 PUSH1 0xA0 SHL SUB SWAP1 SWAP2 AND DUP2 MSTORE PUSH1 0x20 ADD PUSH2 0x189 JUMP JUMPDEST CALLVALUE DUP1 ISZERO PUSH2 0x298 JUMPI PUSH0 DUP1 REVERT JUMPDEST POP PUSH2 0x168 PUSH2 0x9DF JUMP JUMPDEST CALLVALUE DUP1 ISZERO PUSH2 0x2AC JUMPI PUSH0 DUP1 REVERT JUMPDEST POP PUSH0 SLOAD PUSH1 0x1 PUSH1 0x1 PUSH1 0xA0 SHL SUB AND PUSH2 0x275 JUMP JUMPDEST PUSH2 0x168 PUSH2 0x9F2 JUMP JUMPDEST CALLVALUE DUP1 ISZERO PUSH2 0x2D0 JUMPI PUSH0 DUP1 REVERT JUMPDEST POP PUSH2 0x2F3 PUSH2 0x2DF CALLDATASIZE PUSH1 0x4 PUSH2 0xF60 JUMP JUMPDEST PUSH1 0x6 PUSH1 0x20 MSTORE PUSH0 SWAP1 DUP2 MSTORE PUSH1 0x40 SWAP1 KECCAK256 SLOAD PUSH1 0xFF AND DUP2 JUMP JUMPDEST PUSH1 0x40 MLOAD SWAP1 ISZERO ISZERO DUP2 MSTORE PUSH1 0x20 ADD PUSH2 0x189 JUMP JUMPDEST CALLVALUE DUP1 ISZERO PUSH2 0x30E JUMPI PUSH0 DUP1 REVERT JUMPDEST POP PUSH2 0x168 PUSH2 0x31D CALLDATASIZE PUSH1 0x4 PUSH2 0xF60 JUMP JUMPDEST PUSH2 0xAB5 JUMP JUMPDEST CALLVALUE DUP1 ISZERO PUSH2 0x32D JUMPI PUSH0 DUP1 REVERT JUMPDEST POP PUSH2 0x168 PUSH2 0x33C CALLDATASIZE PUSH1 0x4 PUSH2 0xFBF JUMP JUMPDEST PUSH2 0xB72 JUMP JUMPDEST CALLVALUE DUP1 ISZERO PUSH2 0x34C JUMPI PUSH0 DUP1 REVERT JUMPDEST POP PUSH2 0x17F PUSH1 0x4 SLOAD DUP2 JUMP JUMPDEST CALLVALUE DUP1 ISZERO PUSH2 0x361 JUMPI PUSH0 DUP1 REVERT JUMPDEST POP PUSH2 0x168 PUSH2 0x370 CALLDATASIZE PUSH1 0x4 PUSH2 0xF60 JUMP JUMPDEST PUSH2 0xB93 JUMP JUMPDEST CALLVALUE DUP1 ISZERO PUSH2 0x380 JUMPI PUSH0 DUP1 REVERT JUMPDEST POP PUSH2 0x17F PUSH1 0x1 SLOAD DUP2 JUMP JUMPDEST CALLVALUE DUP1 ISZERO PUSH2 0x395 JUMPI PUSH0 DUP1 REVERT JUMPDEST POP PUSH2 0x168 PUSH2 0x3A4 CALLDATASIZE PUSH1 0x4 PUSH2 0xF60 JUMP JUMPDEST PUSH2 0xC9E JUMP JUMPDEST CALLVALUE DUP1 ISZERO PUSH2 0x3B4 JUMPI PUSH0 DUP1 REVERT JUMPDEST POP PUSH2 0x168 PUSH2 0x3C3 CALLDATASIZE PUSH1 0x4 PUSH2 0xF60 JUMP JUMPDEST PUSH2 0xCEE JUMP JUMPDEST CALLVALUE DUP1 ISZERO PUSH2 0x3D3 JUMPI PUSH0 DUP1 REVERT JUMPDEST POP PUSH2 0x2F3 PUSH2 0x3E2 CALLDATASIZE PUSH1 0x4 PUSH2 0xF60 JUMP JUMPDEST PUSH1 0x7 PUSH1 0x20 MSTORE PUSH0 SWAP1 DUP2 MSTORE PUSH1 0x40 SWAP1 KECCAK256 SLOAD PUSH1 0xFF AND DUP2 JUMP JUMPDEST CALLVALUE DUP1 ISZERO PUSH2 0x401 JUMPI PUSH0 DUP1 REVERT JUMPDEST POP PUSH2 0x168 PUSH2 0x410 CALLDATASIZE PUSH1 0x4 PUSH2 0xF60 JUMP JUMPDEST PUSH2 0xD5A JUMP JUMPDEST PUSH2 0x41D PUSH2 0xD94 JUMP JUMPDEST PUSH1 0x1 PUSH1 0x1 PUSH1 0xA0 SHL SUB DUP2 AND PUSH0 DUP2 DUP2 MSTORE PUSH1 0x7 PUSH1 0x20 MSTORE PUSH1 0x40 DUP1 DUP3 KECCAK256 DUP1 SLOAD PUSH1 0xFF NOT AND SWAP1 SSTORE MLOAD PUSH32 0xD25DD45A1811DC9170AB90C454EF2024F3086A79DA5279A8D42F39BDDA8F36D1 SWAP2 SWAP1 LOG2 POP JUMP JUMPDEST CALLER PUSH0 SWAP1 DUP2 MSTORE PUSH1 0x6 PUSH1 0x20 MSTORE PUSH1 0x40 SWAP1 KECCAK256 SLOAD PUSH1 0xFF AND PUSH2 0x4C8 JUMPI PUSH1 0x40 MLOAD PUSH3 0x461BCD PUSH1 0xE5 SHL DUP2 MSTORE PUSH1 0x20 PUSH1 0x4 DUP3 ADD MSTORE PUSH1 0x1F PUSH1 0x24 DUP3 ADD MSTORE PUSH32 0x4665655661756C743A206E6F7420617574686F72697A656420736F7572636500 PUSH1 0x44 DUP3 ADD MSTORE PUSH1 0x64 ADD JUMPDEST PUSH1 0x40 MLOAD DUP1 SWAP2 SUB SWAP1 REVERT JUMPDEST PUSH2 0x4D2 DUP2 DUP4 PUSH2 0x100C JUMP JUMPDEST CALLVALUE EQ PUSH2 0x520 JUMPI PUSH1 0x40 MLOAD PUSH3 0x461BCD PUSH1 0xE5 SHL DUP2 MSTORE PUSH1 0x20 PUSH1 0x4 DUP3 ADD MSTORE PUSH1 0x18 PUSH1 0x24 DUP3 ADD MSTORE PUSH32 0x4665655661756C743A2076616C7565206D69736D617463680000000000000000 PUSH1 0x44 DUP3 ADD MSTORE PUSH1 0x64 ADD PUSH2 0x4BF JUMP JUMPDEST DUP2 PUSH1 0x1 PUSH0 DUP3 DUP3 SLOAD PUSH2 0x531 SWAP2 SWAP1 PUSH2 0x100C JUMP JUMPDEST SWAP1 SWAP2 SSTORE POP POP PUSH1 0x1 PUSH1 0x1 PUSH1 0xA0 SHL SUB DUP4 AND ISZERO DUP1 ISZERO SWAP1 PUSH2 0x54D JUMPI POP PUSH0 DUP2 GT JUMPDEST ISZERO PUSH2 0x5DE JUMPI PUSH0 PUSH2 0x2710 PUSH2 0x562 PUSH2 0x7D0 DUP5 PUSH2 0x1025 JUMP JUMPDEST PUSH2 0x56C SWAP2 SWAP1 PUSH2 0x103C JUMP JUMPDEST SWAP1 POP PUSH0 PUSH2 0x579 DUP3 DUP5 PUSH2 0x105B JUMP JUMPDEST PUSH1 0x1 PUSH1 0x1 PUSH1 0xA0 SHL SUB DUP8 AND PUSH0 SWAP1 DUP2 MSTORE PUSH1 0x2 PUSH1 0x20 MSTORE PUSH1 0x40 DUP2 KECCAK256 DUP1 SLOAD SWAP3 SWAP4 POP DUP4 SWAP3 SWAP1 SWAP2 SWAP1 PUSH2 0x5A5 SWAP1 DUP5 SWAP1 PUSH2 0x100C JUMP JUMPDEST SWAP1 SWAP2 SSTORE POP POP PUSH1 0x1 PUSH1 0x1 PUSH1 0xA0 SHL SUB DUP6 AND PUSH0 SWAP1 DUP2 MSTORE PUSH1 0x3 PUSH1 0x20 MSTORE PUSH1 0x40 DUP2 KECCAK256 DUP1 SLOAD DUP5 SWAP3 SWAP1 PUSH2 0x5D1 SWAP1 DUP5 SWAP1 PUSH2 0x100C JUMP JUMPDEST SWAP1 SWAP2 SSTORE POP PUSH2 0x60B SWAP3 POP POP POP JUMP JUMPDEST PUSH1 0x1 PUSH1 0x1 PUSH1 0xA0 SHL SUB DUP5 AND PUSH0 SWAP1 DUP2 MSTORE PUSH1 0x2 PUSH1 0x20 MSTORE PUSH1 0x40 DUP2 KECCAK256 DUP1 SLOAD DUP4 SWAP3 SWAP1 PUSH2 0x605 SWAP1 DUP5 SWAP1 PUSH2 0x100C JUMP JUMPDEST SWAP1 SWAP2 SSTORE POP POP JUMPDEST CALLVALUE PUSH1 0x4 PUSH0 DUP3 DUP3 SLOAD PUSH2 0x61C SWAP2 SWAP1 PUSH2 0x100C JUMP JUMPDEST SWAP1 SWAP2 SSTORE POP POP PUSH1 0x40 DUP1 MLOAD DUP4 DUP2 MSTORE PUSH1 0x20 DUP2 ADD DUP4 SWAP1 MSTORE PUSH1 0x1 PUSH1 0x1 PUSH1 0xA0 SHL SUB DUP1 DUP7 AND SWAP3 SWAP1 DUP8 AND SWAP2 CALLER SWAP2 PUSH32 0x6F1812AC60560ADD64FE1009BC946EDFACFC179D8E6EAFBD8C4FC934101EE283 SWAP2 ADD PUSH1 0x40 MLOAD DUP1 SWAP2 SUB SWAP1 LOG4 POP POP POP POP JUMP JUMPDEST PUSH2 0x67A PUSH2 0xD94 JUMP JUMPDEST PUSH1 0x1 PUSH1 0x1 PUSH1 0xA0 SHL SUB DUP2 AND PUSH0 DUP2 DUP2 MSTORE PUSH1 0x7 PUSH1 0x20 MSTORE PUSH1 0x40 DUP1 DUP3 KECCAK256 DUP1 SLOAD PUSH1 0xFF NOT AND PUSH1 0x1 OR SWAP1 SSTORE MLOAD PUSH32 0x2FA23115F2B369FC34EDA97CCF6BC2FAB82882719F0547F3E45A9A400086AEAE SWAP2 SWAP1 LOG2 POP JUMP JUMPDEST CALLER PUSH0 SWAP1 DUP2 MSTORE PUSH1 0x2 PUSH1 0x20 MSTORE PUSH1 0x40 SWAP1 KECCAK256 SLOAD DUP1 PUSH2 0x6F1 JUMPI PUSH1 0x40 MLOAD PUSH3 0x461BCD PUSH1 0xE5 SHL DUP2 MSTORE PUSH1 0x4 ADD PUSH2 0x4BF SWAP1 PUSH2 0x106E JUMP JUMPDEST CALLER PUSH0 SWAP1 DUP2 MSTORE PUSH1 0x2 PUSH1 0x20 MSTORE PUSH1 0x40 DUP2 KECCAK256 DUP2 SWAP1 SSTORE PUSH1 0x4 DUP1 SLOAD DUP4 SWAP3 SWAP1 PUSH2 0x714 SWAP1 DUP5 SWAP1 PUSH2 0x105B JUMP JUMPDEST SWAP1 SWAP2 SSTORE POP PUSH2 0x724 SWAP1 POP CALLER DUP3 PUSH2 0xDC0 JUMP JUMPDEST PUSH1 0x40 MLOAD DUP2 DUP2 MSTORE CALLER SWAP1 PUSH32 0xD046302BDC39599E60A5981E59227DCD1C643F512F56F2E984390C3AC6EADEDB SWAP1 PUSH1 0x20 ADD JUMPDEST PUSH1 0x40 MLOAD DUP1 SWAP2 SUB SWAP1 LOG2 POP JUMP JUMPDEST PUSH0 SLOAD PUSH1 0x1 PUSH1 0x1 PUSH1 0xA0 SHL SUB AND CALLER EQ DUP1 PUSH2 0x77F JUMPI POP PUSH1 0x5 SLOAD PUSH1 0x1 PUSH1 0x1 PUSH1 0xA0 SHL SUB AND CALLER EQ JUMPDEST PUSH2 0x7C4 JUMPI PUSH1 0x40 MLOAD PUSH3 0x461BCD PUSH1 0xE5 SHL DUP2 MSTORE PUSH1 0x20 PUSH1 0x4 DUP3 ADD MSTORE PUSH1 0x16 PUSH1 0x24 DUP3 ADD MSTORE PUSH22 0x2332B2AB30BAB63A1D103737BA1030B71037BBB732B9 PUSH1 0x51 SHL PUSH1 0x44 DUP3 ADD MSTORE PUSH1 0x64 ADD PUSH2 0x4BF JUMP JUMPDEST PUSH1 0x1 SLOAD DUP1 PUSH2 0x7E4 JUMPI PUSH1 0x40 MLOAD PUSH3 0x461BCD PUSH1 0xE5 SHL DUP2 MSTORE PUSH1 0x4 ADD PUSH2 0x4BF SWAP1 PUSH2 0x106E JUMP JUMPDEST PUSH0 PUSH1 0x1 DUP2 SWAP1 SSTORE POP DUP1 PUSH1 0x4 PUSH0 DUP3 DUP3 SLOAD PUSH2 0x7FC SWAP2 SWAP1 PUSH2 0x105B JUMP JUMPDEST SWAP1 SWAP2 SSTORE POP POP PUSH1 0x5 SLOAD PUSH1 0x1 PUSH1 0x1 PUSH1 0xA0 SHL SUB AND ISZERO PUSH2 0x8F2 JUMPI PUSH0 PUSH2 0x81E PUSH1 0x2 DUP4 PUSH2 0x103C JUMP JUMPDEST SWAP1 POP PUSH0 PUSH2 0x82B DUP3 DUP5 PUSH2 0x105B JUMP JUMPDEST PUSH1 0x5 SLOAD SWAP1 SWAP2 POP PUSH2 0x844 SWAP1 PUSH1 0x1 PUSH1 0x1 PUSH1 0xA0 SHL SUB AND DUP4 PUSH2 0xDC0 JUMP JUMPDEST PUSH2 0x85E PUSH2 0x858 PUSH0 SLOAD PUSH1 0x1 PUSH1 0x1 PUSH1 0xA0 SHL SUB AND SWAP1 JUMP JUMPDEST DUP3 PUSH2 0xDC0 JUMP JUMPDEST PUSH0 SLOAD PUSH1 0x1 PUSH1 0x1 PUSH1 0xA0 SHL SUB AND PUSH1 0x1 PUSH1 0x1 PUSH1 0xA0 SHL SUB AND PUSH32 0xF58CB6262D88971B87878468DEBB7BC81F1714BE597710E16A9FB84C66FF7B5 DUP3 PUSH1 0x40 MLOAD PUSH2 0x8A3 SWAP2 DUP2 MSTORE PUSH1 0x20 ADD SWAP1 JUMP JUMPDEST PUSH1 0x40 MLOAD DUP1 SWAP2 SUB SWAP1 LOG2 PUSH1 0x5 SLOAD PUSH1 0x40 MLOAD DUP4 DUP2 MSTORE PUSH1 0x1 PUSH1 0x1 PUSH1 0xA0 SHL SUB SWAP1 SWAP2 AND SWAP1 PUSH32 0xF58CB6262D88971B87878468DEBB7BC81F1714BE597710E16A9FB84C66FF7B5 SWAP1 PUSH1 0x20 ADD PUSH1 0x40 MLOAD DUP1 SWAP2 SUB SWAP1 LOG2 POP POP POP JUMP JUMPDEST PUSH2 0x906 PUSH2 0x858 PUSH0 SLOAD PUSH1 0x1 PUSH1 0x1 PUSH1 0xA0 SHL SUB AND SWAP1 JUMP JUMPDEST PUSH0 SLOAD PUSH1 0x1 PUSH1 0x1 PUSH1 0xA0 SHL SUB AND PUSH1 0x1 PUSH1 0x1 PUSH1 0xA0 SHL SUB AND PUSH32 0xF58CB6262D88971B87878468DEBB7BC81F1714BE597710E16A9FB84C66FF7B5 DUP3 PUSH1 0x40 MLOAD PUSH2 0x752 SWAP2 DUP2 MSTORE PUSH1 0x20 ADD SWAP1 JUMP JUMPDEST POP JUMP JUMPDEST CALLER PUSH0 SWAP1 DUP2 MSTORE PUSH1 0x3 PUSH1 0x20 MSTORE PUSH1 0x40 SWAP1 KECCAK256 SLOAD DUP1 PUSH2 0x97A JUMPI PUSH1 0x40 MLOAD PUSH3 0x461BCD PUSH1 0xE5 SHL DUP2 MSTORE PUSH1 0x4 ADD PUSH2 0x4BF SWAP1 PUSH2 0x106E JUMP JUMPDEST CALLER PUSH0 SWAP1 DUP2 MSTORE PUSH1 0x3 PUSH1 0x20 MSTORE PUSH1 0x40 DUP2 KECCAK256 DUP2 SWAP1 SSTORE PUSH1 0x4 DUP1 SLOAD DUP4 SWAP3 SWAP1 PUSH2 0x99D SWAP1 DUP5 SWAP1 PUSH2 0x105B JUMP JUMPDEST SWAP1 SWAP2 SSTORE POP PUSH2 0x9AD SWAP1 POP CALLER DUP3 PUSH2 0xDC0 JUMP JUMPDEST PUSH1 0x40 MLOAD DUP2 DUP2 MSTORE CALLER SWAP1 PUSH32 0x2546672A975EF5E2DE5A33B38C7FF4453D874CE5F273494C6544790C8C0C4E99 SWAP1 PUSH1 0x20 ADD PUSH2 0x752 JUMP JUMPDEST PUSH2 0x9E7 PUSH2 0xD94 JUMP JUMPDEST PUSH2 0x9F0 PUSH0 PUSH2 0xE5F JUMP JUMPDEST JUMP JUMPDEST CALLER PUSH0 SWAP1 DUP2 MSTORE PUSH1 0x6 PUSH1 0x20 MSTORE PUSH1 0x40 SWAP1 KECCAK256 SLOAD PUSH1 0xFF AND PUSH2 0xA50 JUMPI PUSH1 0x40 MLOAD PUSH3 0x461BCD PUSH1 0xE5 SHL DUP2 MSTORE PUSH1 0x20 PUSH1 0x4 DUP3 ADD MSTORE PUSH1 0x1F PUSH1 0x24 DUP3 ADD MSTORE PUSH32 0x4665655661756C743A206E6F7420617574686F72697A656420736F7572636500 PUSH1 0x44 DUP3 ADD MSTORE PUSH1 0x64 ADD PUSH2 0x4BF JUMP JUMPDEST CALLVALUE PUSH1 0x1 PUSH0 DUP3 DUP3 SLOAD PUSH2 0xA61 SWAP2 SWAP1 PUSH2 0x100C JUMP JUMPDEST SWAP3 POP POP DUP2 SWAP1 SSTORE POP CALLVALUE PUSH1 0x4 PUSH0 DUP3 DUP3 SLOAD PUSH2 0xA79 SWAP2 SWAP1 PUSH2 0x100C JUMP JUMPDEST SWAP1 SWAP2 SSTORE POP POP PUSH1 0x40 MLOAD CALLVALUE DUP2 MSTORE CALLER SWAP1 PUSH32 0x976CB2034EFD8460171C354591CDD9FC14FCABDA0805EE745DE0215F3583DED2 SWAP1 PUSH1 0x20 ADD PUSH1 0x40 MLOAD DUP1 SWAP2 SUB SWAP1 LOG2 JUMP JUMPDEST PUSH0 SLOAD PUSH1 0x1 PUSH1 0x1 PUSH1 0xA0 SHL SUB AND CALLER EQ DUP1 PUSH2 0xADB JUMPI POP CALLER PUSH0 SWAP1 DUP2 MSTORE PUSH1 0x7 PUSH1 0x20 MSTORE PUSH1 0x40 SWAP1 KECCAK256 SLOAD PUSH1 0xFF AND JUMPDEST PUSH2 0xB27 JUMPI PUSH1 0x40 MLOAD PUSH3 0x461BCD PUSH1 0xE5 SHL DUP2 MSTORE PUSH1 0x20 PUSH1 0x4 DUP3 ADD MSTORE PUSH1 0x1E PUSH1 0x24 DUP3 ADD MSTORE PUSH32 0x4665655661756C743A206E6F74206F776E6572206F7220666163746F72790000 PUSH1 0x44 DUP3 ADD MSTORE PUSH1 0x64 ADD PUSH2 0x4BF JUMP JUMPDEST PUSH1 0x1 PUSH1 0x1 PUSH1 0xA0 SHL SUB DUP2 AND PUSH0 DUP2 DUP2 MSTORE PUSH1 0x6 PUSH1 0x20 MSTORE PUSH1 0x40 DUP1 DUP3 KECCAK256 DUP1 SLOAD PUSH1 0xFF NOT AND PUSH1 0x1 OR SWAP1 SSTORE MLOAD PUSH32 0x4259866215295669A8AA580379FDB1207113BFBE3FD2E1915E992BDBA65ACC07 SWAP2 SWAP1 LOG2 POP JUMP JUMPDEST PUSH2 0xB7A PUSH2 0xD94 JUMP JUMPDEST PUSH2 0xB8E PUSH1 0x1 PUSH1 0x1 PUSH1 0xA0 SHL SUB DUP5 AND DUP4 DUP4 PUSH2 0xEAE JUMP JUMPDEST POP POP POP JUMP JUMPDEST PUSH2 0xB9B PUSH2 0xD94 JUMP JUMPDEST PUSH1 0x1 PUSH1 0x1 PUSH1 0xA0 SHL SUB DUP2 AND PUSH2 0xBEA JUMPI PUSH1 0x40 MLOAD PUSH3 0x461BCD PUSH1 0xE5 SHL DUP2 MSTORE PUSH1 0x20 PUSH1 0x4 DUP3 ADD MSTORE PUSH1 0x16 PUSH1 0x24 DUP3 ADD MSTORE PUSH22 0x4665655661756C743A207A65726F2061646472657373 PUSH1 0x50 SHL PUSH1 0x44 DUP3 ADD MSTORE PUSH1 0x64 ADD PUSH2 0x4BF JUMP JUMPDEST PUSH0 SLOAD PUSH1 0x1 PUSH1 0x1 PUSH1 0xA0 SHL SUB AND PUSH1 0x1 PUSH1 0x1 PUSH1 0xA0 SHL SUB AND DUP2 PUSH1 0x1 PUSH1 0x1 PUSH1 0xA0 SHL SUB AND SUB PUSH2 0xC55 JUMPI PUSH1 0x40 MLOAD PUSH3 0x461BCD PUSH1 0xE5 SHL DUP2 MSTORE PUSH1 0x20 PUSH1 0x4 DUP3 ADD MSTORE PUSH1 0x1F PUSH1 0x24 DUP3 ADD MSTORE PUSH32 0x4665655661756C743A2073616D65206173207072696D617279206F776E657200 PUSH1 0x44 DUP3 ADD MSTORE PUSH1 0x64 ADD PUSH2 0x4BF JUMP JUMPDEST PUSH1 0x5 DUP1 SLOAD PUSH1 0x1 PUSH1 0x1 PUSH1 0xA0 SHL SUB NOT AND PUSH1 0x1 PUSH1 0x1 PUSH1 0xA0 SHL SUB DUP4 AND SWAP1 DUP2 OR SWAP1 SWAP2 SSTORE PUSH1 0x40 MLOAD PUSH32 0xBEA61419E66BC3A01913EE169E373798B049E2089BAEAFAB7381467A5CD7A3E4 SWAP1 PUSH0 SWAP1 LOG2 POP JUMP JUMPDEST PUSH2 0xCA6 PUSH2 0xD94 JUMP JUMPDEST PUSH1 0x1 PUSH1 0x1 PUSH1 0xA0 SHL SUB DUP2 AND PUSH0 DUP2 DUP2 MSTORE PUSH1 0x6 PUSH1 0x20 MSTORE PUSH1 0x40 DUP1 DUP3 KECCAK256 DUP1 SLOAD PUSH1 0xFF NOT AND SWAP1 SSTORE MLOAD PUSH32 0xFE99FCB294979665C2561E12BF52A9B17F0412FDAFECD42B4642A8582637322A SWAP2 SWAP1 LOG2 POP JUMP JUMPDEST PUSH2 0xCF6 PUSH2 0xD94 JUMP JUMPDEST PUSH0 PUSH1 0x4 SLOAD SELFBALANCE PUSH2 0xD05 SWAP2 SWAP1 PUSH2 0x105B JUMP JUMPDEST SWAP1 POP PUSH0 DUP2 GT PUSH2 0xD4C JUMPI PUSH1 0x40 MLOAD PUSH3 0x461BCD PUSH1 0xE5 SHL DUP2 MSTORE PUSH1 0x20 PUSH1 0x4 DUP3 ADD MSTORE PUSH1 0x13 PUSH1 0x24 DUP3 ADD MSTORE PUSH19 0x4665655661756C743A206E6F20657863657373 PUSH1 0x68 SHL PUSH1 0x44 DUP3 ADD MSTORE PUSH1 0x64 ADD PUSH2 0x4BF JUMP JUMPDEST PUSH2 0xD56 DUP3 DUP3 PUSH2 0xDC0 JUMP JUMPDEST POP POP JUMP JUMPDEST PUSH2 0xD62 PUSH2 0xD94 JUMP JUMPDEST PUSH1 0x1 PUSH1 0x1 PUSH1 0xA0 SHL SUB DUP2 AND PUSH2 0xD8B JUMPI PUSH1 0x40 MLOAD PUSH4 0x1E4FBDF7 PUSH1 0xE0 SHL DUP2 MSTORE PUSH0 PUSH1 0x4 DUP3 ADD MSTORE PUSH1 0x24 ADD PUSH2 0x4BF JUMP JUMPDEST PUSH2 0x94B DUP2 PUSH2 0xE5F JUMP JUMPDEST PUSH0 SLOAD PUSH1 0x1 PUSH1 0x1 PUSH1 0xA0 SHL SUB AND CALLER EQ PUSH2 0x9F0 JUMPI PUSH1 0x40 MLOAD PUSH4 0x118CDAA7 PUSH1 0xE0 SHL DUP2 MSTORE CALLER PUSH1 0x4 DUP3 ADD MSTORE PUSH1 0x24 ADD PUSH2 0x4BF JUMP JUMPDEST PUSH0 DUP3 PUSH1 0x1 PUSH1 0x1 PUSH1 0xA0 SHL SUB AND DUP3 PUSH1 0x40 MLOAD PUSH0 PUSH1 0x40 MLOAD DUP1 DUP4 SUB DUP2 DUP6 DUP8 GAS CALL SWAP3 POP POP POP RETURNDATASIZE DUP1 PUSH0 DUP2 EQ PUSH2 0xE09 JUMPI PUSH1 0x40 MLOAD SWAP2 POP PUSH1 0x1F NOT PUSH1 0x3F RETURNDATASIZE ADD AND DUP3 ADD PUSH1 0x40 MSTORE RETURNDATASIZE DUP3 MSTORE RETURNDATASIZE PUSH0 PUSH1 0x20 DUP5 ADD RETURNDATACOPY PUSH2 0xE0E JUMP JUMPDEST PUSH1 0x60 SWAP2 POP JUMPDEST POP POP SWAP1 POP DUP1 PUSH2 0xB8E JUMPI PUSH1 0x40 MLOAD PUSH3 0x461BCD PUSH1 0xE5 SHL DUP2 MSTORE PUSH1 0x20 PUSH1 0x4 DUP3 ADD DUP2 SWAP1 MSTORE PUSH1 0x24 DUP3 ADD MSTORE PUSH32 0x4665655661756C743A206E6174697665207472616E73666572206661696C6564 PUSH1 0x44 DUP3 ADD MSTORE PUSH1 0x64 ADD PUSH2 0x4BF JUMP JUMPDEST PUSH0 DUP1 SLOAD PUSH1 0x1 PUSH1 0x1 PUSH1 0xA0 SHL SUB DUP4 DUP2 AND PUSH1 0x1 PUSH1 0x1 PUSH1 0xA0 SHL SUB NOT DUP4 AND DUP2 OR DUP5 SSTORE PUSH1 0x40 MLOAD SWAP2 SWAP1 SWAP3 AND SWAP3 DUP4 SWAP2 PUSH32 0x8BE0079C531659141344CD1FD0A4F28419497F9722A3DAAFE3B4186F6B6457E0 SWAP2 SWAP1 LOG3 POP POP JUMP JUMPDEST PUSH2 0xEBB DUP4 DUP4 DUP4 PUSH1 0x1 PUSH2 0xEE3 JUMP JUMPDEST PUSH2 0xB8E JUMPI PUSH1 0x40 MLOAD PUSH4 0x5274AFE7 PUSH1 0xE0 SHL DUP2 MSTORE PUSH1 0x1 PUSH1 0x1 PUSH1 0xA0 SHL SUB DUP5 AND PUSH1 0x4 DUP3 ADD MSTORE PUSH1 0x24 ADD PUSH2 0x4BF JUMP JUMPDEST PUSH1 0x40 MLOAD PUSH4 0xA9059CBB PUSH1 0xE0 SHL PUSH0 DUP2 DUP2 MSTORE PUSH1 0x1 PUSH1 0x1 PUSH1 0xA0 SHL SUB DUP7 AND PUSH1 0x4 MSTORE PUSH1 0x24 DUP6 SWAP1 MSTORE SWAP2 PUSH1 0x20 DUP4 PUSH1 0x44 DUP2 DUP1 DUP12 GAS CALL SWAP3 POP PUSH1 0x1 PUSH0 MLOAD EQ DUP4 AND PUSH2 0xF39 JUMPI DUP4 DUP4 ISZERO AND ISZERO PUSH2 0xF2D JUMPI RETURNDATASIZE PUSH0 DUP3 RETURNDATACOPY RETURNDATASIZE DUP2 REVERT JUMPDEST PUSH0 DUP8 EXTCODESIZE GT RETURNDATASIZE ISZERO AND DUP4 AND SWAP3 POP JUMPDEST PUSH1 0x40 MSTORE POP SWAP5 SWAP4 POP POP POP POP JUMP JUMPDEST DUP1 CALLDATALOAD PUSH1 0x1 PUSH1 0x1 PUSH1 0xA0 SHL SUB DUP2 AND DUP2 EQ PUSH2 0xF5B JUMPI PUSH0 DUP1 REVERT JUMPDEST SWAP2 SWAP1 POP JUMP JUMPDEST PUSH0 PUSH1 0x20 DUP3 DUP5 SUB SLT ISZERO PUSH2 0xF70 JUMPI PUSH0 DUP1 REVERT JUMPDEST PUSH2 0xF79 DUP3 PUSH2 0xF45 JUMP JUMPDEST SWAP4 SWAP3 POP POP POP JUMP JUMPDEST PUSH0 DUP1 PUSH0 DUP1 PUSH1 0x80 DUP6 DUP8 SUB SLT ISZERO PUSH2 0xF93 JUMPI PUSH0 DUP1 REVERT JUMPDEST PUSH2 0xF9C DUP6 PUSH2 0xF45 JUMP JUMPDEST SWAP4 POP PUSH2 0xFAA PUSH1 0x20 DUP7 ADD PUSH2 0xF45 JUMP JUMPDEST SWAP4 SWAP7 SWAP4 SWAP6 POP POP POP POP PUSH1 0x40 DUP3 ADD CALLDATALOAD SWAP2 PUSH1 0x60 ADD CALLDATALOAD SWAP1 JUMP JUMPDEST PUSH0 DUP1 PUSH0 PUSH1 0x60 DUP5 DUP7 SUB SLT ISZERO PUSH2 0xFD1 JUMPI PUSH0 DUP1 REVERT JUMPDEST PUSH2 0xFDA DUP5 PUSH2 0xF45 JUMP JUMPDEST SWAP3 POP PUSH2 0xFE8 PUSH1 0x20 DUP6 ADD PUSH2 0xF45 JUMP JUMPDEST SWAP2 POP PUSH1 0x40 DUP5 ADD CALLDATALOAD SWAP1 POP SWAP3 POP SWAP3 POP SWAP3 JUMP JUMPDEST PUSH4 0x4E487B71 PUSH1 0xE0 SHL PUSH0 MSTORE PUSH1 0x11 PUSH1 0x4 MSTORE PUSH1 0x24 PUSH0 REVERT JUMPDEST DUP1 DUP3 ADD DUP1 DUP3 GT ISZERO PUSH2 0x101F JUMPI PUSH2 0x101F PUSH2 0xFF8 JUMP JUMPDEST SWAP3 SWAP2 POP POP JUMP JUMPDEST DUP1 DUP3 MUL DUP2 ISZERO DUP3 DUP3 DIV DUP5 EQ OR PUSH2 0x101F JUMPI PUSH2 0x101F PUSH2 0xFF8 JUMP JUMPDEST PUSH0 DUP3 PUSH2 0x1056 JUMPI PUSH4 0x4E487B71 PUSH1 0xE0 SHL PUSH0 MSTORE PUSH1 0x12 PUSH1 0x4 MSTORE PUSH1 0x24 PUSH0 REVERT JUMPDEST POP DIV SWAP1 JUMP JUMPDEST DUP2 DUP2 SUB DUP2 DUP2 GT ISZERO PUSH2 0x101F JUMPI PUSH2 0x101F PUSH2 0xFF8 JUMP JUMPDEST PUSH1 0x20 DUP1 DUP3 MSTORE PUSH1 0x1A SWAP1 DUP3 ADD MSTORE PUSH32 0x4665655661756C743A206E6F7468696E6720746F20636C61696D000000000000 PUSH1 0x40 DUP3 ADD MSTORE PUSH1 0x60 ADD SWAP1 JUMP INVALID LOG2 PUSH5 0x6970667358 0x22 SLT KECCAK256 PUSH11 0x4D44687F9661E2FA2558E8 0xEA DUP10 PUSH28 0x8F4A7DE4A31A2ACC84FE34CFBA5AF187664736F6C63430008180033 "},"methodIdentifiers":{"REFERRAL_SHARE_OF_CREATOR()":"0417a710","authorizeFactory(address)":"181fd012","authorizeSource(address)":"acbb2625","authorizedFactories(address)":"ecd24a82","authorizedSources(address)":"964ebf42","claimCreatorFees()":"351fee46","claimProtocolFees()":"4a7d0369","claimReferrerFees()":"65b08e09","creatorClaimable(address)":"636c2656","depositProtocolFee()":"939ad2c2","depositSplitFee(address,address,uint256,uint256)":"121f612c","owner()":"8da5cb5b","protocolClaimable()":"ce228ad2","referrerClaimable(address)":"27cca4e4","renounceOwnership()":"715018a6","rescueERC20(address,address,uint256)":"b2118a8d","rescueExcessNative(address)":"e5b769c4","revokeFactory(address)":"001189dd","revokeSource(address)":"dcd6fcaf","secondOwner()":"68a9f31c","setSecondOwner(address)":"bbedb64b","totalAccountedUSDC()":"bbd93c4b","transferOwnership(address)":"f2fde38b"}}}}}