{"project/contracts/BondingCurve.sol":{"BondingCurve":{"abi":[{"inputs":[],"stateMutability":"nonpayable","type":"constructor"},{"inputs":[],"name":"ReentrancyGuardReentrantCall","type":"error"},{"inputs":[{"internalType":"address","name":"token","type":"address"}],"name":"SafeERC20FailedOperation","type":"error"},{"anonymous":false,"inputs":[{"indexed":true,"internalType":"address","name":"buyer","type":"address"},{"indexed":true,"internalType":"address","name":"recipient","type":"address"},{"indexed":false,"internalType":"uint256","name":"usdcIn","type":"uint256"},{"indexed":false,"internalType":"uint256","name":"tokensOut","type":"uint256"},{"indexed":false,"internalType":"uint256","name":"fee","type":"uint256"}],"name":"Buy","type":"event"},{"anonymous":false,"inputs":[{"indexed":true,"internalType":"address","name":"token_","type":"address"},{"indexed":true,"internalType":"address","name":"pool","type":"address"},{"indexed":false,"internalType":"uint256","name":"usdcLiquidity","type":"uint256"},{"indexed":false,"internalType":"uint256","name":"tokenLiquidity","type":"uint256"}],"name":"Graduated","type":"event"},{"anonymous":false,"inputs":[{"indexed":true,"internalType":"address","name":"seller","type":"address"},{"indexed":false,"internalType":"uint256","name":"tokensIn","type":"uint256"},{"indexed":false,"internalType":"uint256","name":"usdcOut","type":"uint256"},{"indexed":false,"internalType":"uint256","name":"fee","type":"uint256"}],"name":"Sell","type":"event"},{"inputs":[],"name":"FEE_BPS","outputs":[{"internalType":"uint256","name":"","type":"uint256"}],"stateMutability":"view","type":"function"},{"inputs":[],"name":"GRADUATION_TARGET","outputs":[{"internalType":"uint256","name":"","type":"uint256"}],"stateMutability":"view","type":"function"},{"inputs":[],"name":"K","outputs":[{"internalType":"uint256","name":"","type":"uint256"}],"stateMutability":"view","type":"function"},{"inputs":[],"name":"VIRTUAL_TOKENS","outputs":[{"internalType":"uint256","name":"","type":"uint256"}],"stateMutability":"view","type":"function"},{"inputs":[],"name":"VIRTUAL_USDC","outputs":[{"internalType":"uint256","name":"","type":"uint256"}],"stateMutability":"view","type":"function"},{"inputs":[{"internalType":"uint256","name":"minTokensOut","type":"uint256"},{"internalType":"address","name":"recipient","type":"address"}],"name":"buy","outputs":[],"stateMutability":"payable","type":"function"},{"inputs":[],"name":"buyCount","outputs":[{"internalType":"uint256","name":"","type":"uint256"}],"stateMutability":"view","type":"function"},{"inputs":[],"name":"creator","outputs":[{"internalType":"address","name":"","type":"address"}],"stateMutability":"view","type":"function"},{"inputs":[],"name":"factory","outputs":[{"internalType":"address","name":"","type":"address"}],"stateMutability":"view","type":"function"},{"inputs":[],"name":"feeVault","outputs":[{"internalType":"address","name":"","type":"address"}],"stateMutability":"view","type":"function"},{"inputs":[{"internalType":"address","name":"","type":"address"}],"name":"firstBuyTimestamp","outputs":[{"internalType":"uint256","name":"","type":"uint256"}],"stateMutability":"view","type":"function"},{"inputs":[],"name":"getArenaMetrics","outputs":[{"components":[{"internalType":"uint256","name":"totalBuyVolume","type":"uint256"},{"internalType":"uint256","name":"totalSellVolume","type":"uint256"},{"internalType":"uint256","name":"buyCount","type":"uint256"},{"internalType":"uint256","name":"sellCount","type":"uint256"},{"internalType":"uint256","name":"uniqueBuyerCount","type":"uint256"},{"internalType":"uint256","name":"holderCount","type":"uint256"},{"internalType":"uint256","name":"retainedBuyers","type":"uint256"},{"internalType":"uint256","name":"buyPressureBps","type":"uint256"},{"internalType":"uint256","name":"percentCompleteBps","type":"uint256"}],"internalType":"struct BondingCurve.ArenaMetrics","name":"","type":"tuple"}],"stateMutability":"view","type":"function"},{"inputs":[],"name":"graduated","outputs":[{"internalType":"bool","name":"","type":"bool"}],"stateMutability":"view","type":"function"},{"inputs":[{"internalType":"address","name":"","type":"address"}],"name":"holderBalance","outputs":[{"internalType":"uint256","name":"","type":"uint256"}],"stateMutability":"view","type":"function"},{"inputs":[],"name":"holderCount","outputs":[{"internalType":"uint256","name":"","type":"uint256"}],"stateMutability":"view","type":"function"},{"inputs":[{"internalType":"address","name":"_token","type":"address"},{"internalType":"address","name":"_creator","type":"address"},{"internalType":"address","name":"_referrer","type":"address"},{"internalType":"address","name":"_feeVault","type":"address"},{"internalType":"address","name":"_factory","type":"address"},{"internalType":"address","name":"_postMigrationFactory","type":"address"}],"name":"initialize","outputs":[],"stateMutability":"nonpayable","type":"function"},{"inputs":[],"name":"postMigrationFactory","outputs":[{"internalType":"address","name":"","type":"address"}],"stateMutability":"view","type":"function"},{"inputs":[{"internalType":"uint256","name":"usdcIn","type":"uint256"}],"name":"quoteBuy","outputs":[{"internalType":"uint256","name":"tokensOut","type":"uint256"},{"internalType":"uint256","name":"priceImpactBps","type":"uint256"}],"stateMutability":"view","type":"function"},{"inputs":[{"internalType":"uint256","name":"tokensIn","type":"uint256"}],"name":"quoteSell","outputs":[{"internalType":"uint256","name":"usdcOut","type":"uint256"},{"internalType":"uint256","name":"priceImpactBps","type":"uint256"}],"stateMutability":"view","type":"function"},{"inputs":[],"name":"realTokensSold","outputs":[{"internalType":"uint256","name":"","type":"uint256"}],"stateMutability":"view","type":"function"},{"inputs":[],"name":"realUSDCRaised","outputs":[{"internalType":"uint256","name":"","type":"uint256"}],"stateMutability":"view","type":"function"},{"inputs":[],"name":"referrer","outputs":[{"internalType":"address","name":"","type":"address"}],"stateMutability":"view","type":"function"},{"inputs":[{"internalType":"uint256","name":"tokensIn","type":"uint256"},{"internalType":"uint256","name":"minUSDCOut","type":"uint256"}],"name":"sell","outputs":[],"stateMutability":"nonpayable","type":"function"},{"inputs":[],"name":"sellCount","outputs":[{"internalType":"uint256","name":"","type":"uint256"}],"stateMutability":"view","type":"function"},{"inputs":[],"name":"spotPrice","outputs":[{"internalType":"uint256","name":"price","type":"uint256"}],"stateMutability":"view","type":"function"},{"inputs":[],"name":"token","outputs":[{"internalType":"address","name":"","type":"address"}],"stateMutability":"view","type":"function"},{"inputs":[],"name":"totalBuyVolume","outputs":[{"internalType":"uint256","name":"","type":"uint256"}],"stateMutability":"view","type":"function"},{"inputs":[],"name":"totalSellVolume","outputs":[{"internalType":"uint256","name":"","type":"uint256"}],"stateMutability":"view","type":"function"},{"inputs":[],"name":"uniqueBuyerCount","outputs":[{"internalType":"uint256","name":"","type":"uint256"}],"stateMutability":"view","type":"function"},{"stateMutability":"payable","type":"receive"}],"evm":{"bytecode":{"linkReferences":{},"object":"608060405234801561000f575f80fd5b5060017f9b779b17422d0df92223018b32b4d1fa46e071723d6817e2486d003becc55f00556011805460ff19166001179055611b9b8061004e5f395ff3fe6080604052600436106101bd575f3560e01c8063a932492f116100f2578063c45a015511610092578063e7c2b77211610062578063e7c2b77214610511578063e90ceb9f14610541578063f0a374cc14610560578063fc0c546a14610575575f80fd5b8063c45a01551461049f578063ca703075146104be578063cc2a9a5b146104d3578063d79875eb146104f2575f80fd5b8063b9e5a03b116100cd578063b9e5a03b1461042f578063bf333f2c14610444578063c13ee4e114610458578063c1a844f014610483575f80fd5b8063a932492f146103db578063ab6ddfa8146103ef578063aec60fab1461041a575f80fd5b80635b1d8d971161015d5780636fb8320d116101385780636fb8320d1461036c5780637deb60251461038857806396951fd81461039d578063a64190c4146103bc575f80fd5b80635b1d8d97146102b8578063633136ac146102cd57806368447c931461034d575f80fd5b8063398482d811610198578063398482d81461023c57806341e70fa614610250578063478222c2146102655780634beb394c14610284575f80fd5b806302d05d3f146101c85780630c6b6737146102045780631aab9a9f14610227575f80fd5b366101c457005b5f80fd5b3480156101d3575f80fd5b506001546101e7906001600160a01b031681565b6040516001600160a01b0390911681526020015b60405180910390f35b34801561020f575f80fd5b50610219600b5481565b6040519081526020016101fb565b348015610232575f80fd5b50610219600d5481565b348015610247575f80fd5b50610219610593565b34801561025b575f80fd5b5061021960095481565b348015610270575f80fd5b506003546101e7906001600160a01b031681565b34801561028f575f80fd5b506102a361029e366004611935565b6105ef565b604080519283526020830191909152016101fb565b3480156102c3575f80fd5b5061021960075481565b3480156102d8575f80fd5b506102e1610713565b6040516101fb91905f61012082019050825182526020830151602083015260408301516040830152606083015160608301526080830151608083015260a083015160a083015260c083015160c083015260e083015160e083015261010080840151818401525092915050565b348015610358575f80fd5b506002546101e7906001600160a01b031681565b348015610377575f80fd5b50610219681043561a882930000081565b61039b610396366004611963565b610825565b005b3480156103a8575f80fd5b506005546101e7906001600160a01b031681565b3480156103c7575f80fd5b506102a36103d6366004611935565b610e76565b3480156103e6575f80fd5b50610219610f9e565b3480156103fa575f80fd5b50610219610409366004611991565b600e6020525f908152604090205481565b348015610425575f80fd5b50610219600c5481565b34801561043a575f80fd5b5061021960085481565b34801561044f575f80fd5b50610219601e81565b348015610463575f80fd5b50610219610472366004611991565b600f6020525f908152604090205481565b34801561048e575f80fd5b5061021968878678326eac90000081565b3480156104aa575f80fd5b506004546101e7906001600160a01b031681565b3480156104c9575f80fd5b50610219600a5481565b3480156104de575f80fd5b5061039b6104ed3660046119b3565b610fc0565b3480156104fd575f80fd5b5061039b61050c366004611a31565b611099565b34801561051c575f80fd5b5060055461053190600160a01b900460ff1681565b60405190151581526020016101fb565b34801561054c575f80fd5b50610219680a18f07d736b90be55601d1b81565b34801561056b575f80fd5b5061021960065481565b348015610580575f80fd5b505f546101e7906001600160a01b031681565b5f80600654681043561a88293000006105ac9190611a65565b90505f600754680a18f07d736b90be55601d1b6105c99190611a7e565b9050806105de83670de0b6b3a7640000611a91565b6105e89190611aa8565b9250505090565b5f8080612710610600601e86611a91565b61060a9190611aa8565b90505f6106178286611a7e565b90505f600654681043561a88293000006106319190611a65565b90505f61063e8383611a65565b90505f600754680a18f07d736b90be55601d1b61065b9190611a7e565b90508161067d680a18f07d736b90be55601d1b681043561a8829300000611a91565b6106879190611aa8565b6106919082611a7e565b96508615610709575f816106ad85670de0b6b3a7640000611a91565b6106b79190611aa8565b90505f886106cd87670de0b6b3a7640000611a91565b6106d79190611aa8565b90508181111561070657816127106106ef8284611a7e565b6106f99190611a91565b6107039190611aa8565b97505b50505b5050505050915091565b6107596040518061012001604052805f81526020015f81526020015f81526020015f81526020015f81526020015f81526020015f81526020015f81526020015f81525090565b600d546009546008545f9161076d91611a65565b90505f80821161077d575f610798565b8161271060085461078e9190611a91565b6107989190611aa8565b90505f68878678326eac9000006127106006546107b59190611a91565b6107bf9190611aa8565b90506127108111156107d057506127105b60405180610120016040528060085481526020016009548152602001600a548152602001600b548152602001600c548152602001600d5481526020018581526020018381526020018281525094505050505090565b61082d611563565b600480545f54604051635b14f18360e01b81526001600160a01b03918216938101939093521690635b14f18390602401602060405180830381865afa158015610878573d5f803e3d5ffd5b505050506040513d601f19601f8201168201806040525081019061089c9190611ac7565b156108e55760405162461bcd60e51b8152602060048201526014602482015273109bdb991a5b99d0dd5c9d994e881c185d5cd95960621b60448201526064015b60405180910390fd5b600554600160a01b900460ff16156109395760405162461bcd60e51b8152602060048201526017602482015276109bdb991a5b99d0dd5c9d994e8819dc98591d585d1959604a1b60448201526064016108dc565b5f34116109885760405162461bcd60e51b815260206004820152601860248201527f426f6e64696e6743757276653a207a65726f2076616c7565000000000000000060448201526064016108dc565b6001600160a01b0381166109de5760405162461bcd60e51b815260206004820152601c60248201527f426f6e64696e6743757276653a207a65726f20726563697069656e740000000060448201526064016108dc565b5f6127106109ed601e34611a91565b6109f79190611aa8565b90505f610a048234611a7e565b90505f60065468878678326eac900000610a1e9190611a7e565b90505f80828410610a9457825f610a38601e612710611a7e565b6001610a47601e612710611a7e565b610a519190611a7e565b610a5d61271085611a91565b610a679190611a65565b610a719190611aa8565b9050610a7d8134611a7e565b9250610a898282611a7e565b965090945060019250505b5f600654681043561a8829300000610aac9190611a65565b90505f610ab98683611a65565b90505f600754680a18f07d736b90be55601d1b610ad69190611a7e565b90505f82610af9680a18f07d736b90be55601d1b681043561a8829300000611a91565b610b039190611aa8565b610b0d9083611a7e565b90508a811015610b585760405162461bcd60e51b8152602060048201526016602482015275426f6e64696e6743757276653a20736c69707061676560501b60448201526064016108dc565b81811115610bb25760405162461bcd60e51b815260206004820152602160248201527f426f6e64696e6743757276653a20696e73756666696369656e7420746f6b656e6044820152607360f81b60648201526084016108dc565b8760065f828254610bc39190611a65565b925050819055508060075f828254610bdb9190611a65565b925050819055508760085f828254610bf39190611a65565b9091555050600a8054905f610c0783611ae6565b90915550506001600160a01b038a165f9081526010602052604090205460ff16610c7b576001600160a01b038a165f908152601060205260408120805460ff19166001179055600c805491610c5b83611ae6565b90915550506001600160a01b038a165f908152600f602052604090204290555b6001600160a01b038a165f908152600e60205260408120549003610cae57600d8054905f610ca883611ae6565b91905055505b6001600160a01b038a165f908152600e602052604081208054839290610cd5908490611a65565b909155505060408051898152602081018390529081018a90526001600160a01b038b169033907ef93dbdb72854b6b6fb35433086556f2635fc83c37080c667496fecfa650fb49060600160405180910390a38815610d925760035f9054906101000a90046001600160a01b03166001600160a01b031663939ad2c28a6040518263ffffffff1660e01b81526004015f604051808303818588803b158015610d7a575f80fd5b505af1158015610d8c573d5f803e3d5ffd5b50505050505b5f54610da8906001600160a01b03168b8361157e565b8415610e45576040515f90339087908381818185875af1925050503d805f8114610ded576040519150601f19603f3d011682016040523d82523d5f602084013e610df2565b606091505b5050905080610e435760405162461bcd60e51b815260206004820152601b60248201527f426f6e64696e6743757276653a20726566756e64206661696c6564000000000060448201526064016108dc565b505b8515610e5357610e536115b8565b505050505050505050610e7260015f80516020611b4683398151915255565b5050565b5f805f600654681043561a8829300000610e909190611a65565b90505f84600754680a18f07d736b90be55601d1b610eae9190611a7e565b610eb89190611a65565b90505f81610edb680a18f07d736b90be55601d1b681043561a8829300000611a91565b610ee59190611aa8565b610eef9084611a7e565b90505f612710610f00601e84611a91565b610f0a9190611aa8565b9050610f168183611a7e565b95505f600754680a18f07d736b90be55601d1b610f339190611a7e565b90505f88118015610f4357505f81115b15610709575f81610f5c87670de0b6b3a7640000611a91565b610f669190611aa8565b90505f89610f7c86670de0b6b3a7640000611a91565b610f869190611aa8565b90508082111561070657816127106106ef8383611a7e565b610fbd680a18f07d736b90be55601d1b681043561a8829300000611a91565b81565b60115460ff161561101d5760405162461bcd60e51b815260206004820152602160248201527f426f6e64696e6743757276653a20616c726561647920696e697469616c697a656044820152601960fa1b60648201526084016108dc565b60118054600160ff1990911681179091555f80546001600160a01b03199081166001600160a01b03998a1617909155815481169688169690961790556002805486169487169490941790935560038054851692861692909217909155600480548416918516919091179055600580549092169216919091179055565b6110a1611563565b600480545f54604051635b14f18360e01b81526001600160a01b03918216938101939093521690635b14f18390602401602060405180830381865afa1580156110ec573d5f803e3d5ffd5b505050506040513d601f19601f820116820180604052508101906111109190611ac7565b156111545760405162461bcd60e51b8152602060048201526014602482015273109bdb991a5b99d0dd5c9d994e881c185d5cd95960621b60448201526064016108dc565b600554600160a01b900460ff16156111a85760405162461bcd60e51b8152602060048201526017602482015276109bdb991a5b99d0dd5c9d994e8819dc98591d585d1959604a1b60448201526064016108dc565b5f82116111f75760405162461bcd60e51b815260206004820152601960248201527f426f6e64696e6743757276653a207a65726f20746f6b656e730000000000000060448201526064016108dc565b5f600654681043561a882930000061120f9190611a65565b90505f83600754680a18f07d736b90be55601d1b61122d9190611a7e565b6112379190611a65565b90505f8161125a680a18f07d736b90be55601d1b681043561a8829300000611a91565b6112649190611aa8565b61126e9084611a7e565b90506006548111156112c25760405162461bcd60e51b815260206004820152601f60248201527f426f6e64696e6743757276653a20696e73756666696369656e7420555344430060448201526064016108dc565b5f6127106112d1601e84611a91565b6112db9190611aa8565b90505f6112e88284611a7e565b9050858110156113335760405162461bcd60e51b8152602060048201526016602482015275426f6e64696e6743757276653a20736c69707061676560501b60448201526064016108dc565b8260065f8282546113449190611a7e565b925050819055508660075f82825461135c9190611a7e565b925050819055508260095f8282546113749190611a65565b9091555050600b8054905f61138883611ae6565b9091555050335f908152600e602052604090205480156113ec578088106113d257335f908152600e60205260408120819055600d8054916113c883611afe565b91905055506113ec565b6113dc8882611a7e565b335f908152600e60205260409020555b604080518981526020810184905290810184905233907f846c37eef631e0943682d87352ec117c20008eb7f425c9b85ac011a6d4774cc09060600160405180910390a25f54611446906001600160a01b031633308b6117f9565b82156114b15760035f9054906101000a90046001600160a01b03166001600160a01b031663939ad2c2846040518263ffffffff1660e01b81526004015f604051808303818588803b158015611499575f80fd5b505af11580156114ab573d5f803e3d5ffd5b50505050505b6040515f90339084908381818185875af1925050503d805f81146114f0576040519150601f19603f3d011682016040523d82523d5f602084013e6114f5565b606091505b50509050806115465760405162461bcd60e51b815260206004820152601d60248201527f426f6e64696e6743757276653a207472616e73666572206661696c656400000060448201526064016108dc565b50505050505050610e7260015f80516020611b4683398151915255565b61156b611835565b60025f80516020611b4683398151915255565b61158b8383836001611866565b6115b357604051635274afe760e01b81526001600160a01b03841660048201526024016108dc565b505050565b6005805460ff60a01b1916600160a01b1790555f80546040516370a0823160e01b81523060048201526001600160a01b03909116906370a0823190602401602060405180830381865afa158015611611573d5f803e3d5ffd5b505050506040513d601f19601f820116820180604052508101906116359190611b13565b6006545f5460055460405163095ea7b360e01b81526001600160a01b03918216600482015260248101859052939450919291169063095ea7b3906044016020604051808303815f875af115801561168e573d5f803e3d5ffd5b505050506040513d601f19601f820116820180604052508101906116b29190611ac7565b506005545f80546001546002546040516324f241ed60e21b81526001600160a01b03938416600482015291831660248301528216604482015260648101869052919216906393c907b490849060840160206040518083038185885af115801561171d573d5f803e3d5ffd5b50505050506040513d601f19601f820116820180604052508101906117429190611b2a565b5f5460408051858152602081018790529293506001600160a01b03808516939216917f18a56450d3c666e2bae9e0829fcada82a9ab0deef6e33c2496752c88d4155c9d910160405180910390a3600480545f546040516330c2bfdd60e01b81526001600160a01b0391821693810193909352838116602484015216906330c2bfdd906044015f604051808303815f87803b1580156117de575f80fd5b505af11580156117f0573d5f803e3d5ffd5b50505050505050565b6118078484848460016118c8565b61182f57604051635274afe760e01b81526001600160a01b03851660048201526024016108dc565b50505050565b5f80516020611b468339815191525460020361186457604051633ee5aeb560e01b815260040160405180910390fd5b565b60405163a9059cbb60e01b5f8181526001600160a01b038616600452602485905291602083604481808b5af1925060015f511483166118bc5783831516156118b0573d5f823e3d81fd5b5f873b113d1516831692505b60405250949350505050565b6040516323b872dd60e01b5f8181526001600160a01b038781166004528616602452604485905291602083606481808c5af1925060015f51148316611924578383151615611918573d5f823e3d81fd5b5f883b113d1516831692505b604052505f60605295945050505050565b5f60208284031215611945575f80fd5b5035919050565b6001600160a01b0381168114611960575f80fd5b50565b5f8060408385031215611974575f80fd5b8235915060208301356119868161194c565b809150509250929050565b5f602082840312156119a1575f80fd5b81356119ac8161194c565b9392505050565b5f805f805f8060c087890312156119c8575f80fd5b86356119d38161194c565b955060208701356119e38161194c565b945060408701356119f38161194c565b93506060870135611a038161194c565b92506080870135611a138161194c565b915060a0870135611a238161194c565b809150509295509295509295565b5f8060408385031215611a42575f80fd5b50508035926020909101359150565b634e487b7160e01b5f52601160045260245ffd5b80820180821115611a7857611a78611a51565b92915050565b81810381811115611a7857611a78611a51565b8082028115828204841417611a7857611a78611a51565b5f82611ac257634e487b7160e01b5f52601260045260245ffd5b500490565b5f60208284031215611ad7575f80fd5b815180151581146119ac575f80fd5b5f60018201611af757611af7611a51565b5060010190565b5f81611b0c57611b0c611a51565b505f190190565b5f60208284031215611b23575f80fd5b5051919050565b5f60208284031215611b3a575f80fd5b81516119ac8161194c56fe9b779b17422d0df92223018b32b4d1fa46e071723d6817e2486d003becc55f00a2646970667358221220bf3ce990af41265910af686dce9ac4cc7d778f830c02f00c4d715e77f45dba2e64736f6c63430008180033","opcodes":"PUSH1 0x80 PUSH1 0x40 MSTORE CALLVALUE DUP1 ISZERO PUSH2 0xF JUMPI PUSH0 DUP1 REVERT JUMPDEST POP PUSH1 0x1 PUSH32 0x9B779B17422D0DF92223018B32B4D1FA46E071723D6817E2486D003BECC55F00 SSTORE PUSH1 0x11 DUP1 SLOAD PUSH1 0xFF NOT AND PUSH1 0x1 OR SWAP1 SSTORE PUSH2 0x1B9B DUP1 PUSH2 0x4E PUSH0 CODECOPY PUSH0 RETURN INVALID PUSH1 0x80 PUSH1 0x40 MSTORE PUSH1 0x4 CALLDATASIZE LT PUSH2 0x1BD JUMPI PUSH0 CALLDATALOAD PUSH1 0xE0 SHR DUP1 PUSH4 0xA932492F GT PUSH2 0xF2 JUMPI DUP1 PUSH4 0xC45A0155 GT PUSH2 0x92 JUMPI DUP1 PUSH4 0xE7C2B772 GT PUSH2 0x62 JUMPI DUP1 PUSH4 0xE7C2B772 EQ PUSH2 0x511 JUMPI DUP1 PUSH4 0xE90CEB9F EQ PUSH2 0x541 JUMPI DUP1 PUSH4 0xF0A374CC EQ PUSH2 0x560 JUMPI DUP1 PUSH4 0xFC0C546A EQ PUSH2 0x575 JUMPI PUSH0 DUP1 REVERT JUMPDEST DUP1 PUSH4 0xC45A0155 EQ PUSH2 0x49F JUMPI DUP1 PUSH4 0xCA703075 EQ PUSH2 0x4BE JUMPI DUP1 PUSH4 0xCC2A9A5B EQ PUSH2 0x4D3 JUMPI DUP1 PUSH4 0xD79875EB EQ PUSH2 0x4F2 JUMPI PUSH0 DUP1 REVERT JUMPDEST DUP1 PUSH4 0xB9E5A03B GT PUSH2 0xCD JUMPI DUP1 PUSH4 0xB9E5A03B EQ PUSH2 0x42F JUMPI DUP1 PUSH4 0xBF333F2C EQ PUSH2 0x444 JUMPI DUP1 PUSH4 0xC13EE4E1 EQ PUSH2 0x458 JUMPI DUP1 PUSH4 0xC1A844F0 EQ PUSH2 0x483 JUMPI PUSH0 DUP1 REVERT JUMPDEST DUP1 PUSH4 0xA932492F EQ PUSH2 0x3DB JUMPI DUP1 PUSH4 0xAB6DDFA8 EQ PUSH2 0x3EF JUMPI DUP1 PUSH4 0xAEC60FAB EQ PUSH2 0x41A JUMPI PUSH0 DUP1 REVERT JUMPDEST DUP1 PUSH4 0x5B1D8D97 GT PUSH2 0x15D JUMPI DUP1 PUSH4 0x6FB8320D GT PUSH2 0x138 JUMPI DUP1 PUSH4 0x6FB8320D EQ PUSH2 0x36C JUMPI DUP1 PUSH4 0x7DEB6025 EQ PUSH2 0x388 JUMPI DUP1 PUSH4 0x96951FD8 EQ PUSH2 0x39D JUMPI DUP1 PUSH4 0xA64190C4 EQ PUSH2 0x3BC JUMPI PUSH0 DUP1 REVERT JUMPDEST DUP1 PUSH4 0x5B1D8D97 EQ PUSH2 0x2B8 JUMPI DUP1 PUSH4 0x633136AC EQ PUSH2 0x2CD JUMPI DUP1 PUSH4 0x68447C93 EQ PUSH2 0x34D JUMPI PUSH0 DUP1 REVERT JUMPDEST DUP1 PUSH4 0x398482D8 GT PUSH2 0x198 JUMPI DUP1 PUSH4 0x398482D8 EQ PUSH2 0x23C JUMPI DUP1 PUSH4 0x41E70FA6 EQ PUSH2 0x250 JUMPI DUP1 PUSH4 0x478222C2 EQ PUSH2 0x265 JUMPI DUP1 PUSH4 0x4BEB394C EQ PUSH2 0x284 JUMPI PUSH0 DUP1 REVERT JUMPDEST DUP1 PUSH4 0x2D05D3F EQ PUSH2 0x1C8 JUMPI DUP1 PUSH4 0xC6B6737 EQ PUSH2 0x204 JUMPI DUP1 PUSH4 0x1AAB9A9F EQ PUSH2 0x227 JUMPI PUSH0 DUP1 REVERT JUMPDEST CALLDATASIZE PUSH2 0x1C4 JUMPI STOP JUMPDEST PUSH0 DUP1 REVERT JUMPDEST CALLVALUE DUP1 ISZERO PUSH2 0x1D3 JUMPI PUSH0 DUP1 REVERT JUMPDEST POP PUSH1 0x1 SLOAD PUSH2 0x1E7 SWAP1 PUSH1 0x1 PUSH1 0x1 PUSH1 0xA0 SHL SUB AND DUP2 JUMP JUMPDEST PUSH1 0x40 MLOAD PUSH1 0x1 PUSH1 0x1 PUSH1 0xA0 SHL SUB SWAP1 SWAP2 AND DUP2 MSTORE PUSH1 0x20 ADD JUMPDEST PUSH1 0x40 MLOAD DUP1 SWAP2 SUB SWAP1 RETURN JUMPDEST CALLVALUE DUP1 ISZERO PUSH2 0x20F JUMPI PUSH0 DUP1 REVERT JUMPDEST POP PUSH2 0x219 PUSH1 0xB SLOAD DUP2 JUMP JUMPDEST PUSH1 0x40 MLOAD SWAP1 DUP2 MSTORE PUSH1 0x20 ADD PUSH2 0x1FB JUMP JUMPDEST CALLVALUE DUP1 ISZERO PUSH2 0x232 JUMPI PUSH0 DUP1 REVERT JUMPDEST POP PUSH2 0x219 PUSH1 0xD SLOAD DUP2 JUMP JUMPDEST CALLVALUE DUP1 ISZERO PUSH2 0x247 JUMPI PUSH0 DUP1 REVERT JUMPDEST POP PUSH2 0x219 PUSH2 0x593 JUMP JUMPDEST CALLVALUE DUP1 ISZERO PUSH2 0x25B JUMPI PUSH0 DUP1 REVERT JUMPDEST POP PUSH2 0x219 PUSH1 0x9 SLOAD DUP2 JUMP JUMPDEST CALLVALUE DUP1 ISZERO PUSH2 0x270 JUMPI PUSH0 DUP1 REVERT JUMPDEST POP PUSH1 0x3 SLOAD PUSH2 0x1E7 SWAP1 PUSH1 0x1 PUSH1 0x1 PUSH1 0xA0 SHL SUB AND DUP2 JUMP JUMPDEST CALLVALUE DUP1 ISZERO PUSH2 0x28F JUMPI PUSH0 DUP1 REVERT JUMPDEST POP PUSH2 0x2A3 PUSH2 0x29E CALLDATASIZE PUSH1 0x4 PUSH2 0x1935 JUMP JUMPDEST PUSH2 0x5EF JUMP JUMPDEST PUSH1 0x40 DUP1 MLOAD SWAP3 DUP4 MSTORE PUSH1 0x20 DUP4 ADD SWAP2 SWAP1 SWAP2 MSTORE ADD PUSH2 0x1FB JUMP JUMPDEST CALLVALUE DUP1 ISZERO PUSH2 0x2C3 JUMPI PUSH0 DUP1 REVERT JUMPDEST POP PUSH2 0x219 PUSH1 0x7 SLOAD DUP2 JUMP JUMPDEST CALLVALUE DUP1 ISZERO PUSH2 0x2D8 JUMPI PUSH0 DUP1 REVERT JUMPDEST POP PUSH2 0x2E1 PUSH2 0x713 JUMP JUMPDEST PUSH1 0x40 MLOAD PUSH2 0x1FB SWAP2 SWAP1 PUSH0 PUSH2 0x120 DUP3 ADD SWAP1 POP DUP3 MLOAD DUP3 MSTORE PUSH1 0x20 DUP4 ADD MLOAD PUSH1 0x20 DUP4 ADD MSTORE PUSH1 0x40 DUP4 ADD MLOAD PUSH1 0x40 DUP4 ADD MSTORE PUSH1 0x60 DUP4 ADD MLOAD PUSH1 0x60 DUP4 ADD MSTORE PUSH1 0x80 DUP4 ADD MLOAD PUSH1 0x80 DUP4 ADD MSTORE PUSH1 0xA0 DUP4 ADD MLOAD PUSH1 0xA0 DUP4 ADD MSTORE PUSH1 0xC0 DUP4 ADD MLOAD PUSH1 0xC0 DUP4 ADD MSTORE PUSH1 0xE0 DUP4 ADD MLOAD PUSH1 0xE0 DUP4 ADD MSTORE PUSH2 0x100 DUP1 DUP5 ADD MLOAD DUP2 DUP5 ADD MSTORE POP SWAP3 SWAP2 POP POP JUMP JUMPDEST CALLVALUE DUP1 ISZERO PUSH2 0x358 JUMPI PUSH0 DUP1 REVERT JUMPDEST POP PUSH1 0x2 SLOAD PUSH2 0x1E7 SWAP1 PUSH1 0x1 PUSH1 0x1 PUSH1 0xA0 SHL SUB AND DUP2 JUMP JUMPDEST CALLVALUE DUP1 ISZERO PUSH2 0x377 JUMPI PUSH0 DUP1 REVERT JUMPDEST POP PUSH2 0x219 PUSH9 0x1043561A8829300000 DUP2 JUMP JUMPDEST PUSH2 0x39B PUSH2 0x396 CALLDATASIZE PUSH1 0x4 PUSH2 0x1963 JUMP JUMPDEST PUSH2 0x825 JUMP JUMPDEST STOP JUMPDEST CALLVALUE DUP1 ISZERO PUSH2 0x3A8 JUMPI PUSH0 DUP1 REVERT JUMPDEST POP PUSH1 0x5 SLOAD PUSH2 0x1E7 SWAP1 PUSH1 0x1 PUSH1 0x1 PUSH1 0xA0 SHL SUB AND DUP2 JUMP JUMPDEST CALLVALUE DUP1 ISZERO PUSH2 0x3C7 JUMPI PUSH0 DUP1 REVERT JUMPDEST POP PUSH2 0x2A3 PUSH2 0x3D6 CALLDATASIZE PUSH1 0x4 PUSH2 0x1935 JUMP JUMPDEST PUSH2 0xE76 JUMP JUMPDEST CALLVALUE DUP1 ISZERO PUSH2 0x3E6 JUMPI PUSH0 DUP1 REVERT JUMPDEST POP PUSH2 0x219 PUSH2 0xF9E JUMP JUMPDEST CALLVALUE DUP1 ISZERO PUSH2 0x3FA JUMPI PUSH0 DUP1 REVERT JUMPDEST POP PUSH2 0x219 PUSH2 0x409 CALLDATASIZE PUSH1 0x4 PUSH2 0x1991 JUMP JUMPDEST PUSH1 0xE PUSH1 0x20 MSTORE PUSH0 SWAP1 DUP2 MSTORE PUSH1 0x40 SWAP1 KECCAK256 SLOAD DUP2 JUMP JUMPDEST CALLVALUE DUP1 ISZERO PUSH2 0x425 JUMPI PUSH0 DUP1 REVERT JUMPDEST POP PUSH2 0x219 PUSH1 0xC SLOAD DUP2 JUMP JUMPDEST CALLVALUE DUP1 ISZERO PUSH2 0x43A JUMPI PUSH0 DUP1 REVERT JUMPDEST POP PUSH2 0x219 PUSH1 0x8 SLOAD DUP2 JUMP JUMPDEST CALLVALUE DUP1 ISZERO PUSH2 0x44F JUMPI PUSH0 DUP1 REVERT JUMPDEST POP PUSH2 0x219 PUSH1 0x1E DUP2 JUMP JUMPDEST CALLVALUE DUP1 ISZERO PUSH2 0x463 JUMPI PUSH0 DUP1 REVERT JUMPDEST POP PUSH2 0x219 PUSH2 0x472 CALLDATASIZE PUSH1 0x4 PUSH2 0x1991 JUMP JUMPDEST PUSH1 0xF PUSH1 0x20 MSTORE PUSH0 SWAP1 DUP2 MSTORE PUSH1 0x40 SWAP1 KECCAK256 SLOAD DUP2 JUMP JUMPDEST CALLVALUE DUP1 ISZERO PUSH2 0x48E JUMPI PUSH0 DUP1 REVERT JUMPDEST POP PUSH2 0x219 PUSH9 0x878678326EAC900000 DUP2 JUMP JUMPDEST CALLVALUE DUP1 ISZERO PUSH2 0x4AA JUMPI PUSH0 DUP1 REVERT JUMPDEST POP PUSH1 0x4 SLOAD PUSH2 0x1E7 SWAP1 PUSH1 0x1 PUSH1 0x1 PUSH1 0xA0 SHL SUB AND DUP2 JUMP JUMPDEST CALLVALUE DUP1 ISZERO PUSH2 0x4C9 JUMPI PUSH0 DUP1 REVERT JUMPDEST POP PUSH2 0x219 PUSH1 0xA SLOAD DUP2 JUMP JUMPDEST CALLVALUE DUP1 ISZERO PUSH2 0x4DE JUMPI PUSH0 DUP1 REVERT JUMPDEST POP PUSH2 0x39B PUSH2 0x4ED CALLDATASIZE PUSH1 0x4 PUSH2 0x19B3 JUMP JUMPDEST PUSH2 0xFC0 JUMP JUMPDEST CALLVALUE DUP1 ISZERO PUSH2 0x4FD JUMPI PUSH0 DUP1 REVERT JUMPDEST POP PUSH2 0x39B PUSH2 0x50C CALLDATASIZE PUSH1 0x4 PUSH2 0x1A31 JUMP JUMPDEST PUSH2 0x1099 JUMP JUMPDEST CALLVALUE DUP1 ISZERO PUSH2 0x51C JUMPI PUSH0 DUP1 REVERT JUMPDEST POP PUSH1 0x5 SLOAD PUSH2 0x531 SWAP1 PUSH1 0x1 PUSH1 0xA0 SHL SWAP1 DIV PUSH1 0xFF AND DUP2 JUMP JUMPDEST PUSH1 0x40 MLOAD SWAP1 ISZERO ISZERO DUP2 MSTORE PUSH1 0x20 ADD PUSH2 0x1FB JUMP JUMPDEST CALLVALUE DUP1 ISZERO PUSH2 0x54C JUMPI PUSH0 DUP1 REVERT JUMPDEST POP PUSH2 0x219 PUSH9 0xA18F07D736B90BE55 PUSH1 0x1D SHL DUP2 JUMP JUMPDEST CALLVALUE DUP1 ISZERO PUSH2 0x56B JUMPI PUSH0 DUP1 REVERT JUMPDEST POP PUSH2 0x219 PUSH1 0x6 SLOAD DUP2 JUMP JUMPDEST CALLVALUE DUP1 ISZERO PUSH2 0x580 JUMPI PUSH0 DUP1 REVERT JUMPDEST POP PUSH0 SLOAD PUSH2 0x1E7 SWAP1 PUSH1 0x1 PUSH1 0x1 PUSH1 0xA0 SHL SUB AND DUP2 JUMP JUMPDEST PUSH0 DUP1 PUSH1 0x6 SLOAD PUSH9 0x1043561A8829300000 PUSH2 0x5AC SWAP2 SWAP1 PUSH2 0x1A65 JUMP JUMPDEST SWAP1 POP PUSH0 PUSH1 0x7 SLOAD PUSH9 0xA18F07D736B90BE55 PUSH1 0x1D SHL PUSH2 0x5C9 SWAP2 SWAP1 PUSH2 0x1A7E JUMP JUMPDEST SWAP1 POP DUP1 PUSH2 0x5DE DUP4 PUSH8 0xDE0B6B3A7640000 PUSH2 0x1A91 JUMP JUMPDEST PUSH2 0x5E8 SWAP2 SWAP1 PUSH2 0x1AA8 JUMP JUMPDEST SWAP3 POP POP POP SWAP1 JUMP JUMPDEST PUSH0 DUP1 DUP1 PUSH2 0x2710 PUSH2 0x600 PUSH1 0x1E DUP7 PUSH2 0x1A91 JUMP JUMPDEST PUSH2 0x60A SWAP2 SWAP1 PUSH2 0x1AA8 JUMP JUMPDEST SWAP1 POP PUSH0 PUSH2 0x617 DUP3 DUP7 PUSH2 0x1A7E JUMP JUMPDEST SWAP1 POP PUSH0 PUSH1 0x6 SLOAD PUSH9 0x1043561A8829300000 PUSH2 0x631 SWAP2 SWAP1 PUSH2 0x1A65 JUMP JUMPDEST SWAP1 POP PUSH0 PUSH2 0x63E DUP4 DUP4 PUSH2 0x1A65 JUMP JUMPDEST SWAP1 POP PUSH0 PUSH1 0x7 SLOAD PUSH9 0xA18F07D736B90BE55 PUSH1 0x1D SHL PUSH2 0x65B SWAP2 SWAP1 PUSH2 0x1A7E JUMP JUMPDEST SWAP1 POP DUP2 PUSH2 0x67D PUSH9 0xA18F07D736B90BE55 PUSH1 0x1D SHL PUSH9 0x1043561A8829300000 PUSH2 0x1A91 JUMP JUMPDEST PUSH2 0x687 SWAP2 SWAP1 PUSH2 0x1AA8 JUMP JUMPDEST PUSH2 0x691 SWAP1 DUP3 PUSH2 0x1A7E JUMP JUMPDEST SWAP7 POP DUP7 ISZERO PUSH2 0x709 JUMPI PUSH0 DUP2 PUSH2 0x6AD DUP6 PUSH8 0xDE0B6B3A7640000 PUSH2 0x1A91 JUMP JUMPDEST PUSH2 0x6B7 SWAP2 SWAP1 PUSH2 0x1AA8 JUMP JUMPDEST SWAP1 POP PUSH0 DUP9 PUSH2 0x6CD DUP8 PUSH8 0xDE0B6B3A7640000 PUSH2 0x1A91 JUMP JUMPDEST PUSH2 0x6D7 SWAP2 SWAP1 PUSH2 0x1AA8 JUMP JUMPDEST SWAP1 POP DUP2 DUP2 GT ISZERO PUSH2 0x706 JUMPI DUP2 PUSH2 0x2710 PUSH2 0x6EF DUP3 DUP5 PUSH2 0x1A7E JUMP JUMPDEST PUSH2 0x6F9 SWAP2 SWAP1 PUSH2 0x1A91 JUMP JUMPDEST PUSH2 0x703 SWAP2 SWAP1 PUSH2 0x1AA8 JUMP JUMPDEST SWAP8 POP JUMPDEST POP POP JUMPDEST POP POP POP POP POP SWAP2 POP SWAP2 JUMP JUMPDEST PUSH2 0x759 PUSH1 0x40 MLOAD DUP1 PUSH2 0x120 ADD PUSH1 0x40 MSTORE DUP1 PUSH0 DUP2 MSTORE PUSH1 0x20 ADD PUSH0 DUP2 MSTORE PUSH1 0x20 ADD PUSH0 DUP2 MSTORE PUSH1 0x20 ADD PUSH0 DUP2 MSTORE PUSH1 0x20 ADD PUSH0 DUP2 MSTORE PUSH1 0x20 ADD PUSH0 DUP2 MSTORE PUSH1 0x20 ADD PUSH0 DUP2 MSTORE PUSH1 0x20 ADD PUSH0 DUP2 MSTORE PUSH1 0x20 ADD PUSH0 DUP2 MSTORE POP SWAP1 JUMP JUMPDEST PUSH1 0xD SLOAD PUSH1 0x9 SLOAD PUSH1 0x8 SLOAD PUSH0 SWAP2 PUSH2 0x76D SWAP2 PUSH2 0x1A65 JUMP JUMPDEST SWAP1 POP PUSH0 DUP1 DUP3 GT PUSH2 0x77D JUMPI PUSH0 PUSH2 0x798 JUMP JUMPDEST DUP2 PUSH2 0x2710 PUSH1 0x8 SLOAD PUSH2 0x78E SWAP2 SWAP1 PUSH2 0x1A91 JUMP JUMPDEST PUSH2 0x798 SWAP2 SWAP1 PUSH2 0x1AA8 JUMP JUMPDEST SWAP1 POP PUSH0 PUSH9 0x878678326EAC900000 PUSH2 0x2710 PUSH1 0x6 SLOAD PUSH2 0x7B5 SWAP2 SWAP1 PUSH2 0x1A91 JUMP JUMPDEST PUSH2 0x7BF SWAP2 SWAP1 PUSH2 0x1AA8 JUMP JUMPDEST SWAP1 POP PUSH2 0x2710 DUP2 GT ISZERO PUSH2 0x7D0 JUMPI POP PUSH2 0x2710 JUMPDEST PUSH1 0x40 MLOAD DUP1 PUSH2 0x120 ADD PUSH1 0x40 MSTORE DUP1 PUSH1 0x8 SLOAD DUP2 MSTORE PUSH1 0x20 ADD PUSH1 0x9 SLOAD DUP2 MSTORE PUSH1 0x20 ADD PUSH1 0xA SLOAD DUP2 MSTORE PUSH1 0x20 ADD PUSH1 0xB SLOAD DUP2 MSTORE PUSH1 0x20 ADD PUSH1 0xC SLOAD DUP2 MSTORE PUSH1 0x20 ADD PUSH1 0xD SLOAD DUP2 MSTORE PUSH1 0x20 ADD DUP6 DUP2 MSTORE PUSH1 0x20 ADD DUP4 DUP2 MSTORE PUSH1 0x20 ADD DUP3 DUP2 MSTORE POP SWAP5 POP POP POP POP POP SWAP1 JUMP JUMPDEST PUSH2 0x82D PUSH2 0x1563 JUMP JUMPDEST PUSH1 0x4 DUP1 SLOAD PUSH0 SLOAD PUSH1 0x40 MLOAD PUSH4 0x5B14F183 PUSH1 0xE0 SHL DUP2 MSTORE PUSH1 0x1 PUSH1 0x1 PUSH1 0xA0 SHL SUB SWAP2 DUP3 AND SWAP4 DUP2 ADD SWAP4 SWAP1 SWAP4 MSTORE AND SWAP1 PUSH4 0x5B14F183 SWAP1 PUSH1 0x24 ADD PUSH1 0x20 PUSH1 0x40 MLOAD DUP1 DUP4 SUB DUP2 DUP7 GAS STATICCALL ISZERO DUP1 ISZERO PUSH2 0x878 JUMPI RETURNDATASIZE PUSH0 DUP1 RETURNDATACOPY RETURNDATASIZE PUSH0 REVERT JUMPDEST POP POP POP POP PUSH1 0x40 MLOAD RETURNDATASIZE PUSH1 0x1F NOT PUSH1 0x1F DUP3 ADD AND DUP3 ADD DUP1 PUSH1 0x40 MSTORE POP DUP2 ADD SWAP1 PUSH2 0x89C SWAP2 SWAP1 PUSH2 0x1AC7 JUMP JUMPDEST ISZERO PUSH2 0x8E5 JUMPI PUSH1 0x40 MLOAD PUSH3 0x461BCD PUSH1 0xE5 SHL DUP2 MSTORE PUSH1 0x20 PUSH1 0x4 DUP3 ADD MSTORE PUSH1 0x14 PUSH1 0x24 DUP3 ADD MSTORE PUSH20 0x109BDB991A5B99D0DD5C9D994E881C185D5CD959 PUSH1 0x62 SHL PUSH1 0x44 DUP3 ADD MSTORE PUSH1 0x64 ADD JUMPDEST PUSH1 0x40 MLOAD DUP1 SWAP2 SUB SWAP1 REVERT JUMPDEST PUSH1 0x5 SLOAD PUSH1 0x1 PUSH1 0xA0 SHL SWAP1 DIV PUSH1 0xFF AND ISZERO PUSH2 0x939 JUMPI PUSH1 0x40 MLOAD PUSH3 0x461BCD PUSH1 0xE5 SHL DUP2 MSTORE PUSH1 0x20 PUSH1 0x4 DUP3 ADD MSTORE PUSH1 0x17 PUSH1 0x24 DUP3 ADD MSTORE PUSH23 0x109BDB991A5B99D0DD5C9D994E8819DC98591D585D1959 PUSH1 0x4A SHL PUSH1 0x44 DUP3 ADD MSTORE PUSH1 0x64 ADD PUSH2 0x8DC JUMP JUMPDEST PUSH0 CALLVALUE GT PUSH2 0x988 JUMPI PUSH1 0x40 MLOAD PUSH3 0x461BCD PUSH1 0xE5 SHL DUP2 MSTORE PUSH1 0x20 PUSH1 0x4 DUP3 ADD MSTORE PUSH1 0x18 PUSH1 0x24 DUP3 ADD MSTORE PUSH32 0x426F6E64696E6743757276653A207A65726F2076616C75650000000000000000 PUSH1 0x44 DUP3 ADD MSTORE PUSH1 0x64 ADD PUSH2 0x8DC JUMP JUMPDEST PUSH1 0x1 PUSH1 0x1 PUSH1 0xA0 SHL SUB DUP2 AND PUSH2 0x9DE JUMPI PUSH1 0x40 MLOAD PUSH3 0x461BCD PUSH1 0xE5 SHL DUP2 MSTORE PUSH1 0x20 PUSH1 0x4 DUP3 ADD MSTORE PUSH1 0x1C PUSH1 0x24 DUP3 ADD MSTORE PUSH32 0x426F6E64696E6743757276653A207A65726F20726563697069656E7400000000 PUSH1 0x44 DUP3 ADD MSTORE PUSH1 0x64 ADD PUSH2 0x8DC JUMP JUMPDEST PUSH0 PUSH2 0x2710 PUSH2 0x9ED PUSH1 0x1E CALLVALUE PUSH2 0x1A91 JUMP JUMPDEST PUSH2 0x9F7 SWAP2 SWAP1 PUSH2 0x1AA8 JUMP JUMPDEST SWAP1 POP PUSH0 PUSH2 0xA04 DUP3 CALLVALUE PUSH2 0x1A7E JUMP JUMPDEST SWAP1 POP PUSH0 PUSH1 0x6 SLOAD PUSH9 0x878678326EAC900000 PUSH2 0xA1E SWAP2 SWAP1 PUSH2 0x1A7E JUMP JUMPDEST SWAP1 POP PUSH0 DUP1 DUP3 DUP5 LT PUSH2 0xA94 JUMPI DUP3 PUSH0 PUSH2 0xA38 PUSH1 0x1E PUSH2 0x2710 PUSH2 0x1A7E JUMP JUMPDEST PUSH1 0x1 PUSH2 0xA47 PUSH1 0x1E PUSH2 0x2710 PUSH2 0x1A7E JUMP JUMPDEST PUSH2 0xA51 SWAP2 SWAP1 PUSH2 0x1A7E JUMP JUMPDEST PUSH2 0xA5D PUSH2 0x2710 DUP6 PUSH2 0x1A91 JUMP JUMPDEST PUSH2 0xA67 SWAP2 SWAP1 PUSH2 0x1A65 JUMP JUMPDEST PUSH2 0xA71 SWAP2 SWAP1 PUSH2 0x1AA8 JUMP JUMPDEST SWAP1 POP PUSH2 0xA7D DUP2 CALLVALUE PUSH2 0x1A7E JUMP JUMPDEST SWAP3 POP PUSH2 0xA89 DUP3 DUP3 PUSH2 0x1A7E JUMP JUMPDEST SWAP7 POP SWAP1 SWAP5 POP PUSH1 0x1 SWAP3 POP POP JUMPDEST PUSH0 PUSH1 0x6 SLOAD PUSH9 0x1043561A8829300000 PUSH2 0xAAC SWAP2 SWAP1 PUSH2 0x1A65 JUMP JUMPDEST SWAP1 POP PUSH0 PUSH2 0xAB9 DUP7 DUP4 PUSH2 0x1A65 JUMP JUMPDEST SWAP1 POP PUSH0 PUSH1 0x7 SLOAD PUSH9 0xA18F07D736B90BE55 PUSH1 0x1D SHL PUSH2 0xAD6 SWAP2 SWAP1 PUSH2 0x1A7E JUMP JUMPDEST SWAP1 POP PUSH0 DUP3 PUSH2 0xAF9 PUSH9 0xA18F07D736B90BE55 PUSH1 0x1D SHL PUSH9 0x1043561A8829300000 PUSH2 0x1A91 JUMP JUMPDEST PUSH2 0xB03 SWAP2 SWAP1 PUSH2 0x1AA8 JUMP JUMPDEST PUSH2 0xB0D SWAP1 DUP4 PUSH2 0x1A7E JUMP JUMPDEST SWAP1 POP DUP11 DUP2 LT ISZERO PUSH2 0xB58 JUMPI PUSH1 0x40 MLOAD PUSH3 0x461BCD PUSH1 0xE5 SHL DUP2 MSTORE PUSH1 0x20 PUSH1 0x4 DUP3 ADD MSTORE PUSH1 0x16 PUSH1 0x24 DUP3 ADD MSTORE PUSH22 0x426F6E64696E6743757276653A20736C697070616765 PUSH1 0x50 SHL PUSH1 0x44 DUP3 ADD MSTORE PUSH1 0x64 ADD PUSH2 0x8DC JUMP JUMPDEST DUP2 DUP2 GT ISZERO PUSH2 0xBB2 JUMPI PUSH1 0x40 MLOAD PUSH3 0x461BCD PUSH1 0xE5 SHL DUP2 MSTORE PUSH1 0x20 PUSH1 0x4 DUP3 ADD MSTORE PUSH1 0x21 PUSH1 0x24 DUP3 ADD MSTORE PUSH32 0x426F6E64696E6743757276653A20696E73756666696369656E7420746F6B656E PUSH1 0x44 DUP3 ADD MSTORE PUSH1 0x73 PUSH1 0xF8 SHL PUSH1 0x64 DUP3 ADD MSTORE PUSH1 0x84 ADD PUSH2 0x8DC JUMP JUMPDEST DUP8 PUSH1 0x6 PUSH0 DUP3 DUP3 SLOAD PUSH2 0xBC3 SWAP2 SWAP1 PUSH2 0x1A65 JUMP JUMPDEST SWAP3 POP POP DUP2 SWAP1 SSTORE POP DUP1 PUSH1 0x7 PUSH0 DUP3 DUP3 SLOAD PUSH2 0xBDB SWAP2 SWAP1 PUSH2 0x1A65 JUMP JUMPDEST SWAP3 POP POP DUP2 SWAP1 SSTORE POP DUP8 PUSH1 0x8 PUSH0 DUP3 DUP3 SLOAD PUSH2 0xBF3 SWAP2 SWAP1 PUSH2 0x1A65 JUMP JUMPDEST SWAP1 SWAP2 SSTORE POP POP PUSH1 0xA DUP1 SLOAD SWAP1 PUSH0 PUSH2 0xC07 DUP4 PUSH2 0x1AE6 JUMP JUMPDEST SWAP1 SWAP2 SSTORE POP POP PUSH1 0x1 PUSH1 0x1 PUSH1 0xA0 SHL SUB DUP11 AND PUSH0 SWAP1 DUP2 MSTORE PUSH1 0x10 PUSH1 0x20 MSTORE PUSH1 0x40 SWAP1 KECCAK256 SLOAD PUSH1 0xFF AND PUSH2 0xC7B JUMPI PUSH1 0x1 PUSH1 0x1 PUSH1 0xA0 SHL SUB DUP11 AND PUSH0 SWAP1 DUP2 MSTORE PUSH1 0x10 PUSH1 0x20 MSTORE PUSH1 0x40 DUP2 KECCAK256 DUP1 SLOAD PUSH1 0xFF NOT AND PUSH1 0x1 OR SWAP1 SSTORE PUSH1 0xC DUP1 SLOAD SWAP2 PUSH2 0xC5B DUP4 PUSH2 0x1AE6 JUMP JUMPDEST SWAP1 SWAP2 SSTORE POP POP PUSH1 0x1 PUSH1 0x1 PUSH1 0xA0 SHL SUB DUP11 AND PUSH0 SWAP1 DUP2 MSTORE PUSH1 0xF PUSH1 0x20 MSTORE PUSH1 0x40 SWAP1 KECCAK256 TIMESTAMP SWAP1 SSTORE JUMPDEST PUSH1 0x1 PUSH1 0x1 PUSH1 0xA0 SHL SUB DUP11 AND PUSH0 SWAP1 DUP2 MSTORE PUSH1 0xE PUSH1 0x20 MSTORE PUSH1 0x40 DUP2 KECCAK256 SLOAD SWAP1 SUB PUSH2 0xCAE JUMPI PUSH1 0xD DUP1 SLOAD SWAP1 PUSH0 PUSH2 0xCA8 DUP4 PUSH2 0x1AE6 JUMP JUMPDEST SWAP2 SWAP1 POP SSTORE POP JUMPDEST PUSH1 0x1 PUSH1 0x1 PUSH1 0xA0 SHL SUB DUP11 AND PUSH0 SWAP1 DUP2 MSTORE PUSH1 0xE PUSH1 0x20 MSTORE PUSH1 0x40 DUP2 KECCAK256 DUP1 SLOAD DUP4 SWAP3 SWAP1 PUSH2 0xCD5 SWAP1 DUP5 SWAP1 PUSH2 0x1A65 JUMP JUMPDEST SWAP1 SWAP2 SSTORE POP POP PUSH1 0x40 DUP1 MLOAD DUP10 DUP2 MSTORE PUSH1 0x20 DUP2 ADD DUP4 SWAP1 MSTORE SWAP1 DUP2 ADD DUP11 SWAP1 MSTORE PUSH1 0x1 PUSH1 0x1 PUSH1 0xA0 SHL SUB DUP12 AND SWAP1 CALLER SWAP1 PUSH31 0xF93DBDB72854B6B6FB35433086556F2635FC83C37080C667496FECFA650FB4 SWAP1 PUSH1 0x60 ADD PUSH1 0x40 MLOAD DUP1 SWAP2 SUB SWAP1 LOG3 DUP9 ISZERO PUSH2 0xD92 JUMPI PUSH1 0x3 PUSH0 SWAP1 SLOAD SWAP1 PUSH2 0x100 EXP SWAP1 DIV PUSH1 0x1 PUSH1 0x1 PUSH1 0xA0 SHL SUB AND PUSH1 0x1 PUSH1 0x1 PUSH1 0xA0 SHL SUB AND PUSH4 0x939AD2C2 DUP11 PUSH1 0x40 MLOAD DUP3 PUSH4 0xFFFFFFFF AND PUSH1 0xE0 SHL DUP2 MSTORE PUSH1 0x4 ADD PUSH0 PUSH1 0x40 MLOAD DUP1 DUP4 SUB DUP2 DUP6 DUP9 DUP1 EXTCODESIZE ISZERO DUP1 ISZERO PUSH2 0xD7A JUMPI PUSH0 DUP1 REVERT JUMPDEST POP GAS CALL ISZERO DUP1 ISZERO PUSH2 0xD8C JUMPI RETURNDATASIZE PUSH0 DUP1 RETURNDATACOPY RETURNDATASIZE PUSH0 REVERT JUMPDEST POP POP POP POP POP JUMPDEST PUSH0 SLOAD PUSH2 0xDA8 SWAP1 PUSH1 0x1 PUSH1 0x1 PUSH1 0xA0 SHL SUB AND DUP12 DUP4 PUSH2 0x157E JUMP JUMPDEST DUP5 ISZERO PUSH2 0xE45 JUMPI PUSH1 0x40 MLOAD PUSH0 SWAP1 CALLER SWAP1 DUP8 SWAP1 DUP4 DUP2 DUP2 DUP2 DUP6 DUP8 GAS CALL SWAP3 POP POP POP RETURNDATASIZE DUP1 PUSH0 DUP2 EQ PUSH2 0xDED JUMPI PUSH1 0x40 MLOAD SWAP2 POP PUSH1 0x1F NOT PUSH1 0x3F RETURNDATASIZE ADD AND DUP3 ADD PUSH1 0x40 MSTORE RETURNDATASIZE DUP3 MSTORE RETURNDATASIZE PUSH0 PUSH1 0x20 DUP5 ADD RETURNDATACOPY PUSH2 0xDF2 JUMP JUMPDEST PUSH1 0x60 SWAP2 POP JUMPDEST POP POP SWAP1 POP DUP1 PUSH2 0xE43 JUMPI PUSH1 0x40 MLOAD PUSH3 0x461BCD PUSH1 0xE5 SHL DUP2 MSTORE PUSH1 0x20 PUSH1 0x4 DUP3 ADD MSTORE PUSH1 0x1B PUSH1 0x24 DUP3 ADD MSTORE PUSH32 0x426F6E64696E6743757276653A20726566756E64206661696C65640000000000 PUSH1 0x44 DUP3 ADD MSTORE PUSH1 0x64 ADD PUSH2 0x8DC JUMP JUMPDEST POP JUMPDEST DUP6 ISZERO PUSH2 0xE53 JUMPI PUSH2 0xE53 PUSH2 0x15B8 JUMP JUMPDEST POP POP POP POP POP POP POP POP POP PUSH2 0xE72 PUSH1 0x1 PUSH0 DUP1 MLOAD PUSH1 0x20 PUSH2 0x1B46 DUP4 CODECOPY DUP2 MLOAD SWAP2 MSTORE SSTORE JUMP JUMPDEST POP POP JUMP JUMPDEST PUSH0 DUP1 PUSH0 PUSH1 0x6 SLOAD PUSH9 0x1043561A8829300000 PUSH2 0xE90 SWAP2 SWAP1 PUSH2 0x1A65 JUMP JUMPDEST SWAP1 POP PUSH0 DUP5 PUSH1 0x7 SLOAD PUSH9 0xA18F07D736B90BE55 PUSH1 0x1D SHL PUSH2 0xEAE SWAP2 SWAP1 PUSH2 0x1A7E JUMP JUMPDEST PUSH2 0xEB8 SWAP2 SWAP1 PUSH2 0x1A65 JUMP JUMPDEST SWAP1 POP PUSH0 DUP2 PUSH2 0xEDB PUSH9 0xA18F07D736B90BE55 PUSH1 0x1D SHL PUSH9 0x1043561A8829300000 PUSH2 0x1A91 JUMP JUMPDEST PUSH2 0xEE5 SWAP2 SWAP1 PUSH2 0x1AA8 JUMP JUMPDEST PUSH2 0xEEF SWAP1 DUP5 PUSH2 0x1A7E JUMP JUMPDEST SWAP1 POP PUSH0 PUSH2 0x2710 PUSH2 0xF00 PUSH1 0x1E DUP5 PUSH2 0x1A91 JUMP JUMPDEST PUSH2 0xF0A SWAP2 SWAP1 PUSH2 0x1AA8 JUMP JUMPDEST SWAP1 POP PUSH2 0xF16 DUP2 DUP4 PUSH2 0x1A7E JUMP JUMPDEST SWAP6 POP PUSH0 PUSH1 0x7 SLOAD PUSH9 0xA18F07D736B90BE55 PUSH1 0x1D SHL PUSH2 0xF33 SWAP2 SWAP1 PUSH2 0x1A7E JUMP JUMPDEST SWAP1 POP PUSH0 DUP9 GT DUP1 ISZERO PUSH2 0xF43 JUMPI POP PUSH0 DUP2 GT JUMPDEST ISZERO PUSH2 0x709 JUMPI PUSH0 DUP2 PUSH2 0xF5C DUP8 PUSH8 0xDE0B6B3A7640000 PUSH2 0x1A91 JUMP JUMPDEST PUSH2 0xF66 SWAP2 SWAP1 PUSH2 0x1AA8 JUMP JUMPDEST SWAP1 POP PUSH0 DUP10 PUSH2 0xF7C DUP7 PUSH8 0xDE0B6B3A7640000 PUSH2 0x1A91 JUMP JUMPDEST PUSH2 0xF86 SWAP2 SWAP1 PUSH2 0x1AA8 JUMP JUMPDEST SWAP1 POP DUP1 DUP3 GT ISZERO PUSH2 0x706 JUMPI DUP2 PUSH2 0x2710 PUSH2 0x6EF DUP4 DUP4 PUSH2 0x1A7E JUMP JUMPDEST PUSH2 0xFBD PUSH9 0xA18F07D736B90BE55 PUSH1 0x1D SHL PUSH9 0x1043561A8829300000 PUSH2 0x1A91 JUMP JUMPDEST DUP2 JUMP JUMPDEST PUSH1 0x11 SLOAD PUSH1 0xFF AND ISZERO PUSH2 0x101D JUMPI PUSH1 0x40 MLOAD PUSH3 0x461BCD PUSH1 0xE5 SHL DUP2 MSTORE PUSH1 0x20 PUSH1 0x4 DUP3 ADD MSTORE PUSH1 0x21 PUSH1 0x24 DUP3 ADD MSTORE PUSH32 0x426F6E64696E6743757276653A20616C726561647920696E697469616C697A65 PUSH1 0x44 DUP3 ADD MSTORE PUSH1 0x19 PUSH1 0xFA SHL PUSH1 0x64 DUP3 ADD MSTORE PUSH1 0x84 ADD PUSH2 0x8DC JUMP JUMPDEST PUSH1 0x11 DUP1 SLOAD PUSH1 0x1 PUSH1 0xFF NOT SWAP1 SWAP2 AND DUP2 OR SWAP1 SWAP2 SSTORE PUSH0 DUP1 SLOAD PUSH1 0x1 PUSH1 0x1 PUSH1 0xA0 SHL SUB NOT SWAP1 DUP2 AND PUSH1 0x1 PUSH1 0x1 PUSH1 0xA0 SHL SUB SWAP10 DUP11 AND OR SWAP1 SWAP2 SSTORE DUP2 SLOAD DUP2 AND SWAP7 DUP9 AND SWAP7 SWAP1 SWAP7 OR SWAP1 SSTORE PUSH1 0x2 DUP1 SLOAD DUP7 AND SWAP5 DUP8 AND SWAP5 SWAP1 SWAP5 OR SWAP1 SWAP4 SSTORE PUSH1 0x3 DUP1 SLOAD DUP6 AND SWAP3 DUP7 AND SWAP3 SWAP1 SWAP3 OR SWAP1 SWAP2 SSTORE PUSH1 0x4 DUP1 SLOAD DUP5 AND SWAP2 DUP6 AND SWAP2 SWAP1 SWAP2 OR SWAP1 SSTORE PUSH1 0x5 DUP1 SLOAD SWAP1 SWAP3 AND SWAP3 AND SWAP2 SWAP1 SWAP2 OR SWAP1 SSTORE JUMP JUMPDEST PUSH2 0x10A1 PUSH2 0x1563 JUMP JUMPDEST PUSH1 0x4 DUP1 SLOAD PUSH0 SLOAD PUSH1 0x40 MLOAD PUSH4 0x5B14F183 PUSH1 0xE0 SHL DUP2 MSTORE PUSH1 0x1 PUSH1 0x1 PUSH1 0xA0 SHL SUB SWAP2 DUP3 AND SWAP4 DUP2 ADD SWAP4 SWAP1 SWAP4 MSTORE AND SWAP1 PUSH4 0x5B14F183 SWAP1 PUSH1 0x24 ADD PUSH1 0x20 PUSH1 0x40 MLOAD DUP1 DUP4 SUB DUP2 DUP7 GAS STATICCALL ISZERO DUP1 ISZERO PUSH2 0x10EC JUMPI RETURNDATASIZE PUSH0 DUP1 RETURNDATACOPY RETURNDATASIZE PUSH0 REVERT JUMPDEST POP POP POP POP PUSH1 0x40 MLOAD RETURNDATASIZE PUSH1 0x1F NOT PUSH1 0x1F DUP3 ADD AND DUP3 ADD DUP1 PUSH1 0x40 MSTORE POP DUP2 ADD SWAP1 PUSH2 0x1110 SWAP2 SWAP1 PUSH2 0x1AC7 JUMP JUMPDEST ISZERO PUSH2 0x1154 JUMPI PUSH1 0x40 MLOAD PUSH3 0x461BCD PUSH1 0xE5 SHL DUP2 MSTORE PUSH1 0x20 PUSH1 0x4 DUP3 ADD MSTORE PUSH1 0x14 PUSH1 0x24 DUP3 ADD MSTORE PUSH20 0x109BDB991A5B99D0DD5C9D994E881C185D5CD959 PUSH1 0x62 SHL PUSH1 0x44 DUP3 ADD MSTORE PUSH1 0x64 ADD PUSH2 0x8DC JUMP JUMPDEST PUSH1 0x5 SLOAD PUSH1 0x1 PUSH1 0xA0 SHL SWAP1 DIV PUSH1 0xFF AND ISZERO PUSH2 0x11A8 JUMPI PUSH1 0x40 MLOAD PUSH3 0x461BCD PUSH1 0xE5 SHL DUP2 MSTORE PUSH1 0x20 PUSH1 0x4 DUP3 ADD MSTORE PUSH1 0x17 PUSH1 0x24 DUP3 ADD MSTORE PUSH23 0x109BDB991A5B99D0DD5C9D994E8819DC98591D585D1959 PUSH1 0x4A SHL PUSH1 0x44 DUP3 ADD MSTORE PUSH1 0x64 ADD PUSH2 0x8DC JUMP JUMPDEST PUSH0 DUP3 GT PUSH2 0x11F7 JUMPI PUSH1 0x40 MLOAD PUSH3 0x461BCD PUSH1 0xE5 SHL DUP2 MSTORE PUSH1 0x20 PUSH1 0x4 DUP3 ADD MSTORE PUSH1 0x19 PUSH1 0x24 DUP3 ADD MSTORE PUSH32 0x426F6E64696E6743757276653A207A65726F20746F6B656E7300000000000000 PUSH1 0x44 DUP3 ADD MSTORE PUSH1 0x64 ADD PUSH2 0x8DC JUMP JUMPDEST PUSH0 PUSH1 0x6 SLOAD PUSH9 0x1043561A8829300000 PUSH2 0x120F SWAP2 SWAP1 PUSH2 0x1A65 JUMP JUMPDEST SWAP1 POP PUSH0 DUP4 PUSH1 0x7 SLOAD PUSH9 0xA18F07D736B90BE55 PUSH1 0x1D SHL PUSH2 0x122D SWAP2 SWAP1 PUSH2 0x1A7E JUMP JUMPDEST PUSH2 0x1237 SWAP2 SWAP1 PUSH2 0x1A65 JUMP JUMPDEST SWAP1 POP PUSH0 DUP2 PUSH2 0x125A PUSH9 0xA18F07D736B90BE55 PUSH1 0x1D SHL PUSH9 0x1043561A8829300000 PUSH2 0x1A91 JUMP JUMPDEST PUSH2 0x1264 SWAP2 SWAP1 PUSH2 0x1AA8 JUMP JUMPDEST PUSH2 0x126E SWAP1 DUP5 PUSH2 0x1A7E JUMP JUMPDEST SWAP1 POP PUSH1 0x6 SLOAD DUP2 GT ISZERO PUSH2 0x12C2 JUMPI PUSH1 0x40 MLOAD PUSH3 0x461BCD PUSH1 0xE5 SHL DUP2 MSTORE PUSH1 0x20 PUSH1 0x4 DUP3 ADD MSTORE PUSH1 0x1F PUSH1 0x24 DUP3 ADD MSTORE PUSH32 0x426F6E64696E6743757276653A20696E73756666696369656E74205553444300 PUSH1 0x44 DUP3 ADD MSTORE PUSH1 0x64 ADD PUSH2 0x8DC JUMP JUMPDEST PUSH0 PUSH2 0x2710 PUSH2 0x12D1 PUSH1 0x1E DUP5 PUSH2 0x1A91 JUMP JUMPDEST PUSH2 0x12DB SWAP2 SWAP1 PUSH2 0x1AA8 JUMP JUMPDEST SWAP1 POP PUSH0 PUSH2 0x12E8 DUP3 DUP5 PUSH2 0x1A7E JUMP JUMPDEST SWAP1 POP DUP6 DUP2 LT ISZERO PUSH2 0x1333 JUMPI PUSH1 0x40 MLOAD PUSH3 0x461BCD PUSH1 0xE5 SHL DUP2 MSTORE PUSH1 0x20 PUSH1 0x4 DUP3 ADD MSTORE PUSH1 0x16 PUSH1 0x24 DUP3 ADD MSTORE PUSH22 0x426F6E64696E6743757276653A20736C697070616765 PUSH1 0x50 SHL PUSH1 0x44 DUP3 ADD MSTORE PUSH1 0x64 ADD PUSH2 0x8DC JUMP JUMPDEST DUP3 PUSH1 0x6 PUSH0 DUP3 DUP3 SLOAD PUSH2 0x1344 SWAP2 SWAP1 PUSH2 0x1A7E JUMP JUMPDEST SWAP3 POP POP DUP2 SWAP1 SSTORE POP DUP7 PUSH1 0x7 PUSH0 DUP3 DUP3 SLOAD PUSH2 0x135C SWAP2 SWAP1 PUSH2 0x1A7E JUMP JUMPDEST SWAP3 POP POP DUP2 SWAP1 SSTORE POP DUP3 PUSH1 0x9 PUSH0 DUP3 DUP3 SLOAD PUSH2 0x1374 SWAP2 SWAP1 PUSH2 0x1A65 JUMP JUMPDEST SWAP1 SWAP2 SSTORE POP POP PUSH1 0xB DUP1 SLOAD SWAP1 PUSH0 PUSH2 0x1388 DUP4 PUSH2 0x1AE6 JUMP JUMPDEST SWAP1 SWAP2 SSTORE POP POP CALLER PUSH0 SWAP1 DUP2 MSTORE PUSH1 0xE PUSH1 0x20 MSTORE PUSH1 0x40 SWAP1 KECCAK256 SLOAD DUP1 ISZERO PUSH2 0x13EC JUMPI DUP1 DUP9 LT PUSH2 0x13D2 JUMPI CALLER PUSH0 SWAP1 DUP2 MSTORE PUSH1 0xE PUSH1 0x20 MSTORE PUSH1 0x40 DUP2 KECCAK256 DUP2 SWAP1 SSTORE PUSH1 0xD DUP1 SLOAD SWAP2 PUSH2 0x13C8 DUP4 PUSH2 0x1AFE JUMP JUMPDEST SWAP2 SWAP1 POP SSTORE POP PUSH2 0x13EC JUMP JUMPDEST PUSH2 0x13DC DUP9 DUP3 PUSH2 0x1A7E JUMP JUMPDEST CALLER PUSH0 SWAP1 DUP2 MSTORE PUSH1 0xE PUSH1 0x20 MSTORE PUSH1 0x40 SWAP1 KECCAK256 SSTORE JUMPDEST PUSH1 0x40 DUP1 MLOAD DUP10 DUP2 MSTORE PUSH1 0x20 DUP2 ADD DUP5 SWAP1 MSTORE SWAP1 DUP2 ADD DUP5 SWAP1 MSTORE CALLER SWAP1 PUSH32 0x846C37EEF631E0943682D87352EC117C20008EB7F425C9B85AC011A6D4774CC0 SWAP1 PUSH1 0x60 ADD PUSH1 0x40 MLOAD DUP1 SWAP2 SUB SWAP1 LOG2 PUSH0 SLOAD PUSH2 0x1446 SWAP1 PUSH1 0x1 PUSH1 0x1 PUSH1 0xA0 SHL SUB AND CALLER ADDRESS DUP12 PUSH2 0x17F9 JUMP JUMPDEST DUP3 ISZERO PUSH2 0x14B1 JUMPI PUSH1 0x3 PUSH0 SWAP1 SLOAD SWAP1 PUSH2 0x100 EXP SWAP1 DIV PUSH1 0x1 PUSH1 0x1 PUSH1 0xA0 SHL SUB AND PUSH1 0x1 PUSH1 0x1 PUSH1 0xA0 SHL SUB AND PUSH4 0x939AD2C2 DUP5 PUSH1 0x40 MLOAD DUP3 PUSH4 0xFFFFFFFF AND PUSH1 0xE0 SHL DUP2 MSTORE PUSH1 0x4 ADD PUSH0 PUSH1 0x40 MLOAD DUP1 DUP4 SUB DUP2 DUP6 DUP9 DUP1 EXTCODESIZE ISZERO DUP1 ISZERO PUSH2 0x1499 JUMPI PUSH0 DUP1 REVERT JUMPDEST POP GAS CALL ISZERO DUP1 ISZERO PUSH2 0x14AB JUMPI RETURNDATASIZE PUSH0 DUP1 RETURNDATACOPY RETURNDATASIZE PUSH0 REVERT JUMPDEST POP POP POP POP POP JUMPDEST PUSH1 0x40 MLOAD PUSH0 SWAP1 CALLER SWAP1 DUP5 SWAP1 DUP4 DUP2 DUP2 DUP2 DUP6 DUP8 GAS CALL SWAP3 POP POP POP RETURNDATASIZE DUP1 PUSH0 DUP2 EQ PUSH2 0x14F0 JUMPI PUSH1 0x40 MLOAD SWAP2 POP PUSH1 0x1F NOT PUSH1 0x3F RETURNDATASIZE ADD AND DUP3 ADD PUSH1 0x40 MSTORE RETURNDATASIZE DUP3 MSTORE RETURNDATASIZE PUSH0 PUSH1 0x20 DUP5 ADD RETURNDATACOPY PUSH2 0x14F5 JUMP JUMPDEST PUSH1 0x60 SWAP2 POP JUMPDEST POP POP SWAP1 POP DUP1 PUSH2 0x1546 JUMPI PUSH1 0x40 MLOAD PUSH3 0x461BCD PUSH1 0xE5 SHL DUP2 MSTORE PUSH1 0x20 PUSH1 0x4 DUP3 ADD MSTORE PUSH1 0x1D PUSH1 0x24 DUP3 ADD MSTORE PUSH32 0x426F6E64696E6743757276653A207472616E73666572206661696C6564000000 PUSH1 0x44 DUP3 ADD MSTORE PUSH1 0x64 ADD PUSH2 0x8DC JUMP JUMPDEST POP POP POP POP POP POP POP PUSH2 0xE72 PUSH1 0x1 PUSH0 DUP1 MLOAD PUSH1 0x20 PUSH2 0x1B46 DUP4 CODECOPY DUP2 MLOAD SWAP2 MSTORE SSTORE JUMP JUMPDEST PUSH2 0x156B PUSH2 0x1835 JUMP JUMPDEST PUSH1 0x2 PUSH0 DUP1 MLOAD PUSH1 0x20 PUSH2 0x1B46 DUP4 CODECOPY DUP2 MLOAD SWAP2 MSTORE SSTORE JUMP JUMPDEST PUSH2 0x158B DUP4 DUP4 DUP4 PUSH1 0x1 PUSH2 0x1866 JUMP JUMPDEST PUSH2 0x15B3 JUMPI PUSH1 0x40 MLOAD PUSH4 0x5274AFE7 PUSH1 0xE0 SHL DUP2 MSTORE PUSH1 0x1 PUSH1 0x1 PUSH1 0xA0 SHL SUB DUP5 AND PUSH1 0x4 DUP3 ADD MSTORE PUSH1 0x24 ADD PUSH2 0x8DC JUMP JUMPDEST POP POP POP JUMP JUMPDEST PUSH1 0x5 DUP1 SLOAD PUSH1 0xFF PUSH1 0xA0 SHL NOT AND PUSH1 0x1 PUSH1 0xA0 SHL OR SWAP1 SSTORE PUSH0 DUP1 SLOAD PUSH1 0x40 MLOAD PUSH4 0x70A08231 PUSH1 0xE0 SHL DUP2 MSTORE ADDRESS PUSH1 0x4 DUP3 ADD MSTORE PUSH1 0x1 PUSH1 0x1 PUSH1 0xA0 SHL SUB SWAP1 SWAP2 AND SWAP1 PUSH4 0x70A08231 SWAP1 PUSH1 0x24 ADD PUSH1 0x20 PUSH1 0x40 MLOAD DUP1 DUP4 SUB DUP2 DUP7 GAS STATICCALL ISZERO DUP1 ISZERO PUSH2 0x1611 JUMPI RETURNDATASIZE PUSH0 DUP1 RETURNDATACOPY RETURNDATASIZE PUSH0 REVERT JUMPDEST POP POP POP POP PUSH1 0x40 MLOAD RETURNDATASIZE PUSH1 0x1F NOT PUSH1 0x1F DUP3 ADD AND DUP3 ADD DUP1 PUSH1 0x40 MSTORE POP DUP2 ADD SWAP1 PUSH2 0x1635 SWAP2 SWAP1 PUSH2 0x1B13 JUMP JUMPDEST PUSH1 0x6 SLOAD PUSH0 SLOAD PUSH1 0x5 SLOAD PUSH1 0x40 MLOAD PUSH4 0x95EA7B3 PUSH1 0xE0 SHL DUP2 MSTORE PUSH1 0x1 PUSH1 0x1 PUSH1 0xA0 SHL SUB SWAP2 DUP3 AND PUSH1 0x4 DUP3 ADD MSTORE PUSH1 0x24 DUP2 ADD DUP6 SWAP1 MSTORE SWAP4 SWAP5 POP SWAP2 SWAP3 SWAP2 AND SWAP1 PUSH4 0x95EA7B3 SWAP1 PUSH1 0x44 ADD PUSH1 0x20 PUSH1 0x40 MLOAD DUP1 DUP4 SUB DUP2 PUSH0 DUP8 GAS CALL ISZERO DUP1 ISZERO PUSH2 0x168E JUMPI RETURNDATASIZE PUSH0 DUP1 RETURNDATACOPY RETURNDATASIZE PUSH0 REVERT JUMPDEST POP POP POP POP PUSH1 0x40 MLOAD RETURNDATASIZE PUSH1 0x1F NOT PUSH1 0x1F DUP3 ADD AND DUP3 ADD DUP1 PUSH1 0x40 MSTORE POP DUP2 ADD SWAP1 PUSH2 0x16B2 SWAP2 SWAP1 PUSH2 0x1AC7 JUMP JUMPDEST POP PUSH1 0x5 SLOAD PUSH0 DUP1 SLOAD PUSH1 0x1 SLOAD PUSH1 0x2 SLOAD PUSH1 0x40 MLOAD PUSH4 0x24F241ED PUSH1 0xE2 SHL DUP2 MSTORE PUSH1 0x1 PUSH1 0x1 PUSH1 0xA0 SHL SUB SWAP4 DUP5 AND PUSH1 0x4 DUP3 ADD MSTORE SWAP2 DUP4 AND PUSH1 0x24 DUP4 ADD MSTORE DUP3 AND PUSH1 0x44 DUP3 ADD MSTORE PUSH1 0x64 DUP2 ADD DUP7 SWAP1 MSTORE SWAP2 SWAP3 AND SWAP1 PUSH4 0x93C907B4 SWAP1 DUP5 SWAP1 PUSH1 0x84 ADD PUSH1 0x20 PUSH1 0x40 MLOAD DUP1 DUP4 SUB DUP2 DUP6 DUP9 GAS CALL ISZERO DUP1 ISZERO PUSH2 0x171D JUMPI RETURNDATASIZE PUSH0 DUP1 RETURNDATACOPY RETURNDATASIZE PUSH0 REVERT JUMPDEST POP POP POP POP POP PUSH1 0x40 MLOAD RETURNDATASIZE PUSH1 0x1F NOT PUSH1 0x1F DUP3 ADD AND DUP3 ADD DUP1 PUSH1 0x40 MSTORE POP DUP2 ADD SWAP1 PUSH2 0x1742 SWAP2 SWAP1 PUSH2 0x1B2A JUMP JUMPDEST PUSH0 SLOAD PUSH1 0x40 DUP1 MLOAD DUP6 DUP2 MSTORE PUSH1 0x20 DUP2 ADD DUP8 SWAP1 MSTORE SWAP3 SWAP4 POP PUSH1 0x1 PUSH1 0x1 PUSH1 0xA0 SHL SUB DUP1 DUP6 AND SWAP4 SWAP3 AND SWAP2 PUSH32 0x18A56450D3C666E2BAE9E0829FCADA82A9AB0DEEF6E33C2496752C88D4155C9D SWAP2 ADD PUSH1 0x40 MLOAD DUP1 SWAP2 SUB SWAP1 LOG3 PUSH1 0x4 DUP1 SLOAD PUSH0 SLOAD PUSH1 0x40 MLOAD PUSH4 0x30C2BFDD PUSH1 0xE0 SHL DUP2 MSTORE PUSH1 0x1 PUSH1 0x1 PUSH1 0xA0 SHL SUB SWAP2 DUP3 AND SWAP4 DUP2 ADD SWAP4 SWAP1 SWAP4 MSTORE DUP4 DUP2 AND PUSH1 0x24 DUP5 ADD MSTORE AND SWAP1 PUSH4 0x30C2BFDD SWAP1 PUSH1 0x44 ADD PUSH0 PUSH1 0x40 MLOAD DUP1 DUP4 SUB DUP2 PUSH0 DUP8 DUP1 EXTCODESIZE ISZERO DUP1 ISZERO PUSH2 0x17DE JUMPI PUSH0 DUP1 REVERT JUMPDEST POP GAS CALL ISZERO DUP1 ISZERO PUSH2 0x17F0 JUMPI RETURNDATASIZE PUSH0 DUP1 RETURNDATACOPY RETURNDATASIZE PUSH0 REVERT JUMPDEST POP POP POP POP POP POP POP JUMP JUMPDEST PUSH2 0x1807 DUP5 DUP5 DUP5 DUP5 PUSH1 0x1 PUSH2 0x18C8 JUMP JUMPDEST PUSH2 0x182F JUMPI PUSH1 0x40 MLOAD PUSH4 0x5274AFE7 PUSH1 0xE0 SHL DUP2 MSTORE PUSH1 0x1 PUSH1 0x1 PUSH1 0xA0 SHL SUB DUP6 AND PUSH1 0x4 DUP3 ADD MSTORE PUSH1 0x24 ADD PUSH2 0x8DC JUMP JUMPDEST POP POP POP POP JUMP JUMPDEST PUSH0 DUP1 MLOAD PUSH1 0x20 PUSH2 0x1B46 DUP4 CODECOPY DUP2 MLOAD SWAP2 MSTORE SLOAD PUSH1 0x2 SUB PUSH2 0x1864 JUMPI PUSH1 0x40 MLOAD PUSH4 0x3EE5AEB5 PUSH1 0xE0 SHL DUP2 MSTORE PUSH1 0x4 ADD PUSH1 0x40 MLOAD DUP1 SWAP2 SUB SWAP1 REVERT JUMPDEST JUMP JUMPDEST PUSH1 0x40 MLOAD PUSH4 0xA9059CBB PUSH1 0xE0 SHL PUSH0 DUP2 DUP2 MSTORE PUSH1 0x1 PUSH1 0x1 PUSH1 0xA0 SHL SUB DUP7 AND PUSH1 0x4 MSTORE PUSH1 0x24 DUP6 SWAP1 MSTORE SWAP2 PUSH1 0x20 DUP4 PUSH1 0x44 DUP2 DUP1 DUP12 GAS CALL SWAP3 POP PUSH1 0x1 PUSH0 MLOAD EQ DUP4 AND PUSH2 0x18BC JUMPI DUP4 DUP4 ISZERO AND ISZERO PUSH2 0x18B0 JUMPI RETURNDATASIZE PUSH0 DUP3 RETURNDATACOPY RETURNDATASIZE DUP2 REVERT JUMPDEST PUSH0 DUP8 EXTCODESIZE GT RETURNDATASIZE ISZERO AND DUP4 AND SWAP3 POP JUMPDEST PUSH1 0x40 MSTORE POP SWAP5 SWAP4 POP POP POP POP JUMP JUMPDEST PUSH1 0x40 MLOAD PUSH4 0x23B872DD PUSH1 0xE0 SHL PUSH0 DUP2 DUP2 MSTORE PUSH1 0x1 PUSH1 0x1 PUSH1 0xA0 SHL SUB DUP8 DUP2 AND PUSH1 0x4 MSTORE DUP7 AND PUSH1 0x24 MSTORE PUSH1 0x44 DUP6 SWAP1 MSTORE SWAP2 PUSH1 0x20 DUP4 PUSH1 0x64 DUP2 DUP1 DUP13 GAS CALL SWAP3 POP PUSH1 0x1 PUSH0 MLOAD EQ DUP4 AND PUSH2 0x1924 JUMPI DUP4 DUP4 ISZERO AND ISZERO PUSH2 0x1918 JUMPI RETURNDATASIZE PUSH0 DUP3 RETURNDATACOPY RETURNDATASIZE DUP2 REVERT JUMPDEST PUSH0 DUP9 EXTCODESIZE GT RETURNDATASIZE ISZERO AND DUP4 AND SWAP3 POP JUMPDEST PUSH1 0x40 MSTORE POP PUSH0 PUSH1 0x60 MSTORE SWAP6 SWAP5 POP POP POP POP POP JUMP JUMPDEST PUSH0 PUSH1 0x20 DUP3 DUP5 SUB SLT ISZERO PUSH2 0x1945 JUMPI PUSH0 DUP1 REVERT JUMPDEST POP CALLDATALOAD SWAP2 SWAP1 POP JUMP JUMPDEST PUSH1 0x1 PUSH1 0x1 PUSH1 0xA0 SHL SUB DUP2 AND DUP2 EQ PUSH2 0x1960 JUMPI PUSH0 DUP1 REVERT JUMPDEST POP JUMP JUMPDEST PUSH0 DUP1 PUSH1 0x40 DUP4 DUP6 SUB SLT ISZERO PUSH2 0x1974 JUMPI PUSH0 DUP1 REVERT JUMPDEST DUP3 CALLDATALOAD SWAP2 POP PUSH1 0x20 DUP4 ADD CALLDATALOAD PUSH2 0x1986 DUP2 PUSH2 0x194C JUMP JUMPDEST DUP1 SWAP2 POP POP SWAP3 POP SWAP3 SWAP1 POP JUMP JUMPDEST PUSH0 PUSH1 0x20 DUP3 DUP5 SUB SLT ISZERO PUSH2 0x19A1 JUMPI PUSH0 DUP1 REVERT JUMPDEST DUP2 CALLDATALOAD PUSH2 0x19AC DUP2 PUSH2 0x194C JUMP JUMPDEST SWAP4 SWAP3 POP POP POP JUMP JUMPDEST PUSH0 DUP1 PUSH0 DUP1 PUSH0 DUP1 PUSH1 0xC0 DUP8 DUP10 SUB SLT ISZERO PUSH2 0x19C8 JUMPI PUSH0 DUP1 REVERT JUMPDEST DUP7 CALLDATALOAD PUSH2 0x19D3 DUP2 PUSH2 0x194C JUMP JUMPDEST SWAP6 POP PUSH1 0x20 DUP8 ADD CALLDATALOAD PUSH2 0x19E3 DUP2 PUSH2 0x194C JUMP JUMPDEST SWAP5 POP PUSH1 0x40 DUP8 ADD CALLDATALOAD PUSH2 0x19F3 DUP2 PUSH2 0x194C JUMP JUMPDEST SWAP4 POP PUSH1 0x60 DUP8 ADD CALLDATALOAD PUSH2 0x1A03 DUP2 PUSH2 0x194C JUMP JUMPDEST SWAP3 POP PUSH1 0x80 DUP8 ADD CALLDATALOAD PUSH2 0x1A13 DUP2 PUSH2 0x194C JUMP JUMPDEST SWAP2 POP PUSH1 0xA0 DUP8 ADD CALLDATALOAD PUSH2 0x1A23 DUP2 PUSH2 0x194C JUMP JUMPDEST DUP1 SWAP2 POP POP SWAP3 SWAP6 POP SWAP3 SWAP6 POP SWAP3 SWAP6 JUMP JUMPDEST PUSH0 DUP1 PUSH1 0x40 DUP4 DUP6 SUB SLT ISZERO PUSH2 0x1A42 JUMPI PUSH0 DUP1 REVERT JUMPDEST POP POP DUP1 CALLDATALOAD SWAP3 PUSH1 0x20 SWAP1 SWAP2 ADD CALLDATALOAD SWAP2 POP JUMP JUMPDEST PUSH4 0x4E487B71 PUSH1 0xE0 SHL PUSH0 MSTORE PUSH1 0x11 PUSH1 0x4 MSTORE PUSH1 0x24 PUSH0 REVERT JUMPDEST DUP1 DUP3 ADD DUP1 DUP3 GT ISZERO PUSH2 0x1A78 JUMPI PUSH2 0x1A78 PUSH2 0x1A51 JUMP JUMPDEST SWAP3 SWAP2 POP POP JUMP JUMPDEST DUP2 DUP2 SUB DUP2 DUP2 GT ISZERO PUSH2 0x1A78 JUMPI PUSH2 0x1A78 PUSH2 0x1A51 JUMP JUMPDEST DUP1 DUP3 MUL DUP2 ISZERO DUP3 DUP3 DIV DUP5 EQ OR PUSH2 0x1A78 JUMPI PUSH2 0x1A78 PUSH2 0x1A51 JUMP JUMPDEST PUSH0 DUP3 PUSH2 0x1AC2 JUMPI PUSH4 0x4E487B71 PUSH1 0xE0 SHL PUSH0 MSTORE PUSH1 0x12 PUSH1 0x4 MSTORE PUSH1 0x24 PUSH0 REVERT JUMPDEST POP DIV SWAP1 JUMP JUMPDEST PUSH0 PUSH1 0x20 DUP3 DUP5 SUB SLT ISZERO PUSH2 0x1AD7 JUMPI PUSH0 DUP1 REVERT JUMPDEST DUP2 MLOAD DUP1 ISZERO ISZERO DUP2 EQ PUSH2 0x19AC JUMPI PUSH0 DUP1 REVERT JUMPDEST PUSH0 PUSH1 0x1 DUP3 ADD PUSH2 0x1AF7 JUMPI PUSH2 0x1AF7 PUSH2 0x1A51 JUMP JUMPDEST POP PUSH1 0x1 ADD SWAP1 JUMP JUMPDEST PUSH0 DUP2 PUSH2 0x1B0C JUMPI PUSH2 0x1B0C PUSH2 0x1A51 JUMP JUMPDEST POP PUSH0 NOT ADD SWAP1 JUMP JUMPDEST PUSH0 PUSH1 0x20 DUP3 DUP5 SUB SLT ISZERO PUSH2 0x1B23 JUMPI PUSH0 DUP1 REVERT JUMPDEST POP MLOAD SWAP2 SWAP1 POP JUMP JUMPDEST PUSH0 PUSH1 0x20 DUP3 DUP5 SUB SLT ISZERO PUSH2 0x1B3A JUMPI PUSH0 DUP1 REVERT JUMPDEST DUP2 MLOAD PUSH2 0x19AC DUP2 PUSH2 0x194C JUMP INVALID SWAP12 PUSH24 0x9B17422D0DF92223018B32B4D1FA46E071723D6817E2486D STOP EXTCODESIZE 0xEC 0xC5 PUSH0 STOP LOG2 PUSH5 0x6970667358 0x22 SLT KECCAK256 0xBF EXTCODECOPY 0xE9 SWAP1 0xAF COINBASE 0x26 MSIZE LT 0xAF PUSH9 0x6DCE9AC4CC7D778F83 0xC MUL CREATE 0xC 0x4D PUSH18 0x5E77F45DBA2E64736F6C6343000818003300 "},"methodIdentifiers":{"FEE_BPS()":"bf333f2c","GRADUATION_TARGET()":"c1a844f0","K()":"a932492f","VIRTUAL_TOKENS()":"e90ceb9f","VIRTUAL_USDC()":"6fb8320d","buy(uint256,address)":"7deb6025","buyCount()":"ca703075","creator()":"02d05d3f","factory()":"c45a0155","feeVault()":"478222c2","firstBuyTimestamp(address)":"c13ee4e1","getArenaMetrics()":"633136ac","graduated()":"e7c2b772","holderBalance(address)":"ab6ddfa8","holderCount()":"1aab9a9f","initialize(address,address,address,address,address,address)":"cc2a9a5b","postMigrationFactory()":"96951fd8","quoteBuy(uint256)":"4beb394c","quoteSell(uint256)":"a64190c4","realTokensSold()":"5b1d8d97","realUSDCRaised()":"f0a374cc","referrer()":"68447c93","sell(uint256,uint256)":"d79875eb","sellCount()":"0c6b6737","spotPrice()":"398482d8","token()":"fc0c546a","totalBuyVolume()":"b9e5a03b","totalSellVolume()":"41e70fa6","uniqueBuyerCount()":"aec60fab"}}}}}