{"project/contracts/FeeVault.sol":{"FeeVault":{"abi":[{"inputs":[],"stateMutability":"nonpayable","type":"constructor"},{"inputs":[{"internalType":"address","name":"owner","type":"address"}],"name":"OwnableInvalidOwner","type":"error"},{"inputs":[{"internalType":"address","name":"account","type":"address"}],"name":"OwnableUnauthorizedAccount","type":"error"},{"inputs":[{"internalType":"address","name":"token","type":"address"}],"name":"SafeERC20FailedOperation","type":"error"},{"anonymous":false,"inputs":[],"name":"AdminRenounced","type":"event"},{"anonymous":false,"inputs":[{"indexed":true,"internalType":"address","name":"creator","type":"address"},{"indexed":false,"internalType":"uint256","name":"amount","type":"uint256"}],"name":"CreatorFeesClaimed","type":"event"},{"anonymous":false,"inputs":[{"indexed":true,"internalType":"address","name":"factory_","type":"address"}],"name":"FactoryAuthorized","type":"event"},{"anonymous":false,"inputs":[{"indexed":true,"internalType":"address","name":"factory_","type":"address"}],"name":"FactoryRevoked","type":"event"},{"anonymous":false,"inputs":[{"indexed":true,"internalType":"address","name":"newOwner","type":"address"}],"name":"OwnerAdded","type":"event"},{"anonymous":false,"inputs":[{"indexed":true,"internalType":"address","name":"previousOwner","type":"address"},{"indexed":true,"internalType":"address","name":"newOwner","type":"address"}],"name":"OwnershipTransferred","type":"event"},{"anonymous":false,"inputs":[{"indexed":true,"internalType":"address","name":"source","type":"address"},{"indexed":false,"internalType":"uint256","name":"amount","type":"uint256"}],"name":"ProtocolFeeDeposited","type":"event"},{"anonymous":false,"inputs":[{"indexed":true,"internalType":"address","name":"to","type":"address"},{"indexed":false,"internalType":"uint256","name":"amount","type":"uint256"}],"name":"ProtocolFeesClaimed","type":"event"},{"anonymous":false,"inputs":[{"indexed":true,"internalType":"address","name":"referrer","type":"address"},{"indexed":false,"internalType":"uint256","name":"amount","type":"uint256"}],"name":"ReferrerFeesClaimed","type":"event"},{"anonymous":false,"inputs":[{"indexed":true,"internalType":"address","name":"source","type":"address"}],"name":"SourceAuthorized","type":"event"},{"anonymous":false,"inputs":[{"indexed":true,"internalType":"address","name":"source","type":"address"}],"name":"SourceRevoked","type":"event"},{"anonymous":false,"inputs":[{"indexed":true,"internalType":"address","name":"source","type":"address"},{"indexed":true,"internalType":"address","name":"creator","type":"address"},{"indexed":true,"internalType":"address","name":"referrer","type":"address"},{"indexed":false,"internalType":"uint256","name":"protocolAmt","type":"uint256"},{"indexed":false,"internalType":"uint256","name":"creatorAmt","type":"uint256"}],"name":"SplitFeeDeposited","type":"event"},{"inputs":[],"name":"REFERRAL_SHARE_OF_CREATOR","outputs":[{"internalType":"uint256","name":"","type":"uint256"}],"stateMutability":"view","type":"function"},{"inputs":[{"internalType":"address","name":"newOwner","type":"address"}],"name":"addOwner","outputs":[],"stateMutability":"nonpayable","type":"function"},{"inputs":[],"name":"adminRenounced","outputs":[{"internalType":"bool","name":"","type":"bool"}],"stateMutability":"view","type":"function"},{"inputs":[{"internalType":"address","name":"factory_","type":"address"}],"name":"authorizeFactory","outputs":[],"stateMutability":"nonpayable","type":"function"},{"inputs":[{"internalType":"address","name":"source","type":"address"}],"name":"authorizeSource","outputs":[],"stateMutability":"nonpayable","type":"function"},{"inputs":[{"internalType":"address","name":"","type":"address"}],"name":"authorizedFactories","outputs":[{"internalType":"bool","name":"","type":"bool"}],"stateMutability":"view","type":"function"},{"inputs":[{"internalType":"address","name":"","type":"address"}],"name":"authorizedSources","outputs":[{"internalType":"bool","name":"","type":"bool"}],"stateMutability":"view","type":"function"},{"inputs":[],"name":"claimCreatorFees","outputs":[],"stateMutability":"nonpayable","type":"function"},{"inputs":[],"name":"claimProtocolFees","outputs":[],"stateMutability":"nonpayable","type":"function"},{"inputs":[],"name":"claimReferrerFees","outputs":[],"stateMutability":"nonpayable","type":"function"},{"inputs":[{"internalType":"address","name":"","type":"address"}],"name":"creatorClaimable","outputs":[{"internalType":"uint256","name":"","type":"uint256"}],"stateMutability":"view","type":"function"},{"inputs":[],"name":"depositProtocolFee","outputs":[],"stateMutability":"payable","type":"function"},{"inputs":[{"internalType":"address","name":"creator","type":"address"},{"internalType":"address","name":"referrer","type":"address"},{"internalType":"uint256","name":"protocolAmt","type":"uint256"},{"internalType":"uint256","name":"creatorAmt","type":"uint256"}],"name":"depositSplitFee","outputs":[],"stateMutability":"payable","type":"function"},{"inputs":[],"name":"getOwners","outputs":[{"internalType":"address[]","name":"","type":"address[]"}],"stateMutability":"view","type":"function"},{"inputs":[{"internalType":"address","name":"","type":"address"}],"name":"isOwner","outputs":[{"internalType":"bool","name":"","type":"bool"}],"stateMutability":"view","type":"function"},{"inputs":[],"name":"owner","outputs":[{"internalType":"address","name":"","type":"address"}],"stateMutability":"view","type":"function"},{"inputs":[],"name":"ownerCount","outputs":[{"internalType":"uint256","name":"","type":"uint256"}],"stateMutability":"view","type":"function"},{"inputs":[{"internalType":"uint256","name":"","type":"uint256"}],"name":"owners","outputs":[{"internalType":"address","name":"","type":"address"}],"stateMutability":"view","type":"function"},{"inputs":[],"name":"protocolClaimable","outputs":[{"internalType":"uint256","name":"","type":"uint256"}],"stateMutability":"view","type":"function"},{"inputs":[{"internalType":"address","name":"","type":"address"}],"name":"referrerClaimable","outputs":[{"internalType":"uint256","name":"","type":"uint256"}],"stateMutability":"view","type":"function"},{"inputs":[],"name":"renounceAdmin","outputs":[],"stateMutability":"nonpayable","type":"function"},{"inputs":[],"name":"renounceOwnership","outputs":[],"stateMutability":"nonpayable","type":"function"},{"inputs":[{"internalType":"address","name":"token","type":"address"},{"internalType":"address","name":"to","type":"address"},{"internalType":"uint256","name":"amount","type":"uint256"}],"name":"rescueERC20","outputs":[],"stateMutability":"nonpayable","type":"function"},{"inputs":[{"internalType":"address","name":"to","type":"address"}],"name":"rescueExcessNative","outputs":[],"stateMutability":"nonpayable","type":"function"},{"inputs":[{"internalType":"address","name":"factory_","type":"address"}],"name":"revokeFactory","outputs":[],"stateMutability":"nonpayable","type":"function"},{"inputs":[{"internalType":"address","name":"source","type":"address"}],"name":"revokeSource","outputs":[],"stateMutability":"nonpayable","type":"function"},{"inputs":[],"name":"totalAccountedUSDC","outputs":[{"internalType":"uint256","name":"","type":"uint256"}],"stateMutability":"view","type":"function"},{"inputs":[{"internalType":"address","name":"newOwner","type":"address"}],"name":"transferOwnership","outputs":[],"stateMutability":"nonpayable","type":"function"},{"stateMutability":"payable","type":"receive"}],"evm":{"bytecode":{"linkReferences":{},"object":"608060405234801561000f575f80fd5b50338061003557604051631e4fbdf760e01b81525f600482015260240160405180910390fd5b61003e816100c6565b506005805460018181019092557f036b6384b5eca791c62761152d0c79bb0604c104a5fb6f4eb0703f3154bb3db00180546001600160a01b031916339081179091555f81815260066020526040808220805460ff1916909417909355915190917f994a936646fe87ffe4f1e469d3d6aa417d6b855598397f323de5b449f765f0c391a2610115565b5f80546001600160a01b038381166001600160a01b0319831681178455604051919092169283917f8be0079c531659141344cd1fd0a4f28419497f9722a3daafe3b4186f6b6457e09190a35050565b6113d8806101225f395ff3fe6080604052600436106101b1575f3560e01c8063715018a6116100e7578063b2118a8d11610087578063dcd6fcaf11610062578063dcd6fcaf1461048d578063e5b769c4146104ac578063ecd24a82146104cb578063f2fde38b146104f9575f80fd5b8063b2118a8d14610444578063bbd93c4b14610463578063ce228ad214610478575f80fd5b8063939ad2c2116100c2578063939ad2c2146103ce578063964ebf42146103d6578063a0e67e2b14610404578063acbb262514610425575f80fd5b8063715018a61461038a5780638bad0c0a1461039e5780638da5cb5b146103b2575f80fd5b80632f54bf6e116101525780634a7d03691161012d5780634a7d036914610318578063636c26561461032c57806365b08e09146103575780637065cb481461036b575f80fd5b80632f54bf6e146102ad578063351fee46146102eb57806349c294d1146102ff575f80fd5b80630db026221161018d5780630db026221461023c578063121f612c14610250578063181fd0121461026357806327cca4e414610282575f80fd5b80621189dd146101bc578063025e7c27146101dd5780630417a71014610219575f80fd5b366101b857005b5f80fd5b3480156101c7575f80fd5b506101db6101d63660046111e6565b610518565b005b3480156101e8575f80fd5b506101fc6101f7366004611206565b610568565b6040516001600160a01b0390911681526020015b60405180910390f35b348015610224575f80fd5b5061022e6107d081565b604051908152602001610210565b348015610247575f80fd5b5060055461022e565b6101db61025e36600461121d565b610590565b34801561026e575f80fd5b506101db61027d3660046111e6565b61079d565b34801561028d575f80fd5b5061022e61029c3660046111e6565b60036020525f908152604090205481565b3480156102b8575f80fd5b506102db6102c73660046111e6565b60066020525f908152604090205460ff1681565b6040519015158152602001610210565b3480156102f6575f80fd5b506101db6107f0565b34801561030a575f80fd5b506007546102db9060ff1681565b348015610323575f80fd5b506101db610888565b348015610337575f80fd5b5061022e6103463660046111e6565b60026020525f908152604090205481565b348015610362575f80fd5b506101db610a9d565b348015610376575f80fd5b506101db6103853660046111e6565b610b2e565b348015610395575f80fd5b506101db610cce565b3480156103a9575f80fd5b506101db610ce1565b3480156103bd575f80fd5b505f546001600160a01b03166101fc565b6101db610d20565b3480156103e1575f80fd5b506102db6103f03660046111e6565b60086020525f908152604090205460ff1681565b34801561040f575f80fd5b50610418610de3565b604051610210919061125c565b348015610430575f80fd5b506101db61043f3660046111e6565b610e43565b34801561044f575f80fd5b506101db61045e3660046112a8565b610f00565b34801561046e575f80fd5b5061022e60045481565b348015610483575f80fd5b5061022e60015481565b348015610498575f80fd5b506101db6104a73660046111e6565b610f21565b3480156104b7575f80fd5b506101db6104c63660046111e6565b610f71565b3480156104d6575f80fd5b506102db6104e53660046111e6565b60096020525f908152604090205460ff1681565b348015610504575f80fd5b506101db6105133660046111e6565b610fdd565b61052061101a565b6001600160a01b0381165f81815260096020526040808220805460ff19169055517fd25dd45a1811dc9170ab90c454ef2024f3086a79da5279a8d42f39bdda8f36d19190a250565b60058181548110610577575f80fd5b5f918252602090912001546001600160a01b0316905081565b335f9081526008602052604090205460ff166105f35760405162461bcd60e51b815260206004820152601f60248201527f4665655661756c743a206e6f7420617574686f72697a656420736f757263650060448201526064015b60405180910390fd5b6105fd81836112f5565b341461064b5760405162461bcd60e51b815260206004820152601860248201527f4665655661756c743a2076616c7565206d69736d61746368000000000000000060448201526064016105ea565b8160015f82825461065c91906112f5565b90915550506001600160a01b0383161580159061067857505f81115b15610709575f61271061068d6107d08461130e565b6106979190611325565b90505f6106a48284611344565b6001600160a01b0387165f908152600260205260408120805492935083929091906106d09084906112f5565b90915550506001600160a01b0385165f90815260036020526040812080548492906106fc9084906112f5565b9091555061073692505050565b6001600160a01b0384165f90815260026020526040812080548392906107309084906112f5565b90915550505b3460045f82825461074791906112f5565b909155505060408051838152602081018390526001600160a01b03808616929087169133917f6f1812ac60560add64fe1009bc946edfacfc179d8e6eafbd8c4fc934101ee283910160405180910390a450505050565b6107a561101a565b6001600160a01b0381165f81815260096020526040808220805460ff19166001179055517f2fa23115f2b369fc34eda97ccf6bc2fab82882719f0547f3e45a9a400086aeae9190a250565b335f908152600260205260409020548061081c5760405162461bcd60e51b81526004016105ea90611357565b335f9081526002602052604081208190556004805483929061083f908490611344565b9091555061084f90503382611046565b60405181815233907fd046302bdc39599e60a5981e59227dcd1c643f512f56f2e984390c3ac6eadedb906020015b60405180910390a250565b335f9081526006602052604090205460ff166108e65760405162461bcd60e51b815260206004820152601e60248201527f4665655661756c743a206e6f7420612070726f746f636f6c206f776e6572000060448201526064016105ea565b600154806109065760405162461bcd60e51b81526004016105ea90611357565b5f6001819055508060045f82825461091e9190611344565b90915550506005545f6109318284611325565b90505f805b610941600185611344565b8110156109e8576109786005828154811061095e5761095e61138e565b5f918252602090912001546001600160a01b031684611046565b6005818154811061098b5761098b61138e565b5f91825260209182902001546040518581526001600160a01b03909116917f0f58cb6262d88971b87878468debb7bc81f1714be597710e16a9fb84c66ff7b5910160405180910390a26109de83836112f5565b9150600101610936565b505f6109f48286611344565b9050610a306005610a06600187611344565b81548110610a1657610a1661138e565b5f918252602090912001546001600160a01b031682611046565b6005610a3d600186611344565b81548110610a4d57610a4d61138e565b5f91825260209182902001546040518381526001600160a01b03909116917f0f58cb6262d88971b87878468debb7bc81f1714be597710e16a9fb84c66ff7b5910160405180910390a25050505050565b335f9081526003602052604090205480610ac95760405162461bcd60e51b81526004016105ea90611357565b335f90815260036020526040812081905560048054839290610aec908490611344565b90915550610afc90503382611046565b60405181815233907f2546672a975ef5e2de5a33b38c7ff4453d874ce5f273494c6544790c8c0c4e999060200161087d565b610b3661101a565b60075460ff1615610b895760405162461bcd60e51b815260206004820152601960248201527f4665655661756c743a2061646d696e2072656e6f756e6365640000000000000060448201526064016105ea565b6001600160a01b038116610bd85760405162461bcd60e51b81526020600482015260166024820152754665655661756c743a207a65726f206164647265737360501b60448201526064016105ea565b6001600160a01b0381165f9081526006602052604090205460ff1615610c405760405162461bcd60e51b815260206004820152601a60248201527f4665655661756c743a20616c726561647920616e206f776e657200000000000060448201526064016105ea565b6005805460018082019092557f036b6384b5eca791c62761152d0c79bb0604c104a5fb6f4eb0703f3154bb3db00180546001600160a01b0319166001600160a01b0384169081179091555f81815260066020526040808220805460ff1916909417909355915190917f994a936646fe87ffe4f1e469d3d6aa417d6b855598397f323de5b449f765f0c391a250565b610cd661101a565b610cdf5f6110e5565b565b610ce961101a565b6007805460ff191660011790556040517fd8f8161a148ed674b4db8c135ee208183f165b46b622d35c6eba45f87ad3d4e8905f90a1565b335f9081526008602052604090205460ff16610d7e5760405162461bcd60e51b815260206004820152601f60248201527f4665655661756c743a206e6f7420617574686f72697a656420736f757263650060448201526064016105ea565b3460015f828254610d8f91906112f5565b925050819055503460045f828254610da791906112f5565b909155505060405134815233907f976cb2034efd8460171c354591cdd9fc14fcabda0805ee745de0215f3583ded29060200160405180910390a2565b60606005805480602002602001604051908101604052809291908181526020018280548015610e3957602002820191905f5260205f20905b81546001600160a01b03168152600190910190602001808311610e1b575b5050505050905090565b5f546001600160a01b0316331480610e695750335f9081526009602052604090205460ff165b610eb55760405162461bcd60e51b815260206004820152601e60248201527f4665655661756c743a206e6f74206f776e6572206f7220666163746f7279000060448201526064016105ea565b6001600160a01b0381165f81815260086020526040808220805460ff19166001179055517f4259866215295669a8aa580379fdb1207113bfbe3fd2e1915e992bdba65acc079190a250565b610f0861101a565b610f1c6001600160a01b0384168383611134565b505050565b610f2961101a565b6001600160a01b0381165f81815260086020526040808220805460ff19169055517ffe99fcb294979665c2561e12bf52a9b17f0412fdafecd42b4642a8582637322a9190a250565b610f7961101a565b5f60045447610f889190611344565b90505f8111610fcf5760405162461bcd60e51b81526020600482015260136024820152724665655661756c743a206e6f2065786365737360681b60448201526064016105ea565b610fd98282611046565b5050565b610fe561101a565b6001600160a01b03811661100e57604051631e4fbdf760e01b81525f60048201526024016105ea565b611017816110e5565b50565b5f546001600160a01b03163314610cdf5760405163118cdaa760e01b81523360048201526024016105ea565b5f826001600160a01b0316826040515f6040518083038185875af1925050503d805f811461108f576040519150601f19603f3d011682016040523d82523d5f602084013e611094565b606091505b5050905080610f1c5760405162461bcd60e51b815260206004820181905260248201527f4665655661756c743a206e6174697665207472616e73666572206661696c656460448201526064016105ea565b5f80546001600160a01b038381166001600160a01b0319831681178455604051919092169283917f8be0079c531659141344cd1fd0a4f28419497f9722a3daafe3b4186f6b6457e09190a35050565b6111418383836001611169565b610f1c57604051635274afe760e01b81526001600160a01b03841660048201526024016105ea565b60405163a9059cbb60e01b5f8181526001600160a01b038616600452602485905291602083604481808b5af1925060015f511483166111bf5783831516156111b3573d5f823e3d81fd5b5f873b113d1516831692505b60405250949350505050565b80356001600160a01b03811681146111e1575f80fd5b919050565b5f602082840312156111f6575f80fd5b6111ff826111cb565b9392505050565b5f60208284031215611216575f80fd5b5035919050565b5f805f8060808587031215611230575f80fd5b611239856111cb565b9350611247602086016111cb565b93969395505050506040820135916060013590565b602080825282518282018190525f9190848201906040850190845b8181101561129c5783516001600160a01b031683529284019291840191600101611277565b50909695505050505050565b5f805f606084860312156112ba575f80fd5b6112c3846111cb565b92506112d1602085016111cb565b9150604084013590509250925092565b634e487b7160e01b5f52601160045260245ffd5b80820180821115611308576113086112e1565b92915050565b8082028115828204841417611308576113086112e1565b5f8261133f57634e487b7160e01b5f52601260045260245ffd5b500490565b81810381811115611308576113086112e1565b6020808252601a908201527f4665655661756c743a206e6f7468696e6720746f20636c61696d000000000000604082015260600190565b634e487b7160e01b5f52603260045260245ffdfea2646970667358221220a482e573e5ec46875e84a7a224ff0777e39e17107b6cb21e374b6d67e4523dd764736f6c63430008180033","opcodes":"PUSH1 0x80 PUSH1 0x40 MSTORE CALLVALUE DUP1 ISZERO PUSH2 0xF JUMPI PUSH0 DUP1 REVERT JUMPDEST POP CALLER DUP1 PUSH2 0x35 JUMPI PUSH1 0x40 MLOAD PUSH4 0x1E4FBDF7 PUSH1 0xE0 SHL DUP2 MSTORE PUSH0 PUSH1 0x4 DUP3 ADD MSTORE PUSH1 0x24 ADD PUSH1 0x40 MLOAD DUP1 SWAP2 SUB SWAP1 REVERT JUMPDEST PUSH2 0x3E DUP2 PUSH2 0xC6 JUMP JUMPDEST POP PUSH1 0x5 DUP1 SLOAD PUSH1 0x1 DUP2 DUP2 ADD SWAP1 SWAP3 SSTORE PUSH32 0x36B6384B5ECA791C62761152D0C79BB0604C104A5FB6F4EB0703F3154BB3DB0 ADD DUP1 SLOAD PUSH1 0x1 PUSH1 0x1 PUSH1 0xA0 SHL SUB NOT AND CALLER SWAP1 DUP2 OR SWAP1 SWAP2 SSTORE PUSH0 DUP2 DUP2 MSTORE PUSH1 0x6 PUSH1 0x20 MSTORE PUSH1 0x40 DUP1 DUP3 KECCAK256 DUP1 SLOAD PUSH1 0xFF NOT AND SWAP1 SWAP5 OR SWAP1 SWAP4 SSTORE SWAP2 MLOAD SWAP1 SWAP2 PUSH32 0x994A936646FE87FFE4F1E469D3D6AA417D6B855598397F323DE5B449F765F0C3 SWAP2 LOG2 PUSH2 0x115 JUMP JUMPDEST PUSH0 DUP1 SLOAD PUSH1 0x1 PUSH1 0x1 PUSH1 0xA0 SHL SUB DUP4 DUP2 AND PUSH1 0x1 PUSH1 0x1 PUSH1 0xA0 SHL SUB NOT DUP4 AND DUP2 OR DUP5 SSTORE PUSH1 0x40 MLOAD SWAP2 SWAP1 SWAP3 AND SWAP3 DUP4 SWAP2 PUSH32 0x8BE0079C531659141344CD1FD0A4F28419497F9722A3DAAFE3B4186F6B6457E0 SWAP2 SWAP1 LOG3 POP POP JUMP JUMPDEST PUSH2 0x13D8 DUP1 PUSH2 0x122 PUSH0 CODECOPY PUSH0 RETURN INVALID PUSH1 0x80 PUSH1 0x40 MSTORE PUSH1 0x4 CALLDATASIZE LT PUSH2 0x1B1 JUMPI PUSH0 CALLDATALOAD PUSH1 0xE0 SHR DUP1 PUSH4 0x715018A6 GT PUSH2 0xE7 JUMPI DUP1 PUSH4 0xB2118A8D GT PUSH2 0x87 JUMPI DUP1 PUSH4 0xDCD6FCAF GT PUSH2 0x62 JUMPI DUP1 PUSH4 0xDCD6FCAF EQ PUSH2 0x48D JUMPI DUP1 PUSH4 0xE5B769C4 EQ PUSH2 0x4AC JUMPI DUP1 PUSH4 0xECD24A82 EQ PUSH2 0x4CB JUMPI DUP1 PUSH4 0xF2FDE38B EQ PUSH2 0x4F9 JUMPI PUSH0 DUP1 REVERT JUMPDEST DUP1 PUSH4 0xB2118A8D EQ PUSH2 0x444 JUMPI DUP1 PUSH4 0xBBD93C4B EQ PUSH2 0x463 JUMPI DUP1 PUSH4 0xCE228AD2 EQ PUSH2 0x478 JUMPI PUSH0 DUP1 REVERT JUMPDEST DUP1 PUSH4 0x939AD2C2 GT PUSH2 0xC2 JUMPI DUP1 PUSH4 0x939AD2C2 EQ PUSH2 0x3CE JUMPI DUP1 PUSH4 0x964EBF42 EQ PUSH2 0x3D6 JUMPI DUP1 PUSH4 0xA0E67E2B EQ PUSH2 0x404 JUMPI DUP1 PUSH4 0xACBB2625 EQ PUSH2 0x425 JUMPI PUSH0 DUP1 REVERT JUMPDEST DUP1 PUSH4 0x715018A6 EQ PUSH2 0x38A JUMPI DUP1 PUSH4 0x8BAD0C0A EQ PUSH2 0x39E JUMPI DUP1 PUSH4 0x8DA5CB5B EQ PUSH2 0x3B2 JUMPI PUSH0 DUP1 REVERT JUMPDEST DUP1 PUSH4 0x2F54BF6E GT PUSH2 0x152 JUMPI DUP1 PUSH4 0x4A7D0369 GT PUSH2 0x12D JUMPI DUP1 PUSH4 0x4A7D0369 EQ PUSH2 0x318 JUMPI DUP1 PUSH4 0x636C2656 EQ PUSH2 0x32C JUMPI DUP1 PUSH4 0x65B08E09 EQ PUSH2 0x357 JUMPI DUP1 PUSH4 0x7065CB48 EQ PUSH2 0x36B JUMPI PUSH0 DUP1 REVERT JUMPDEST DUP1 PUSH4 0x2F54BF6E EQ PUSH2 0x2AD JUMPI DUP1 PUSH4 0x351FEE46 EQ PUSH2 0x2EB JUMPI DUP1 PUSH4 0x49C294D1 EQ PUSH2 0x2FF JUMPI PUSH0 DUP1 REVERT JUMPDEST DUP1 PUSH4 0xDB02622 GT PUSH2 0x18D JUMPI DUP1 PUSH4 0xDB02622 EQ PUSH2 0x23C JUMPI DUP1 PUSH4 0x121F612C EQ PUSH2 0x250 JUMPI DUP1 PUSH4 0x181FD012 EQ PUSH2 0x263 JUMPI DUP1 PUSH4 0x27CCA4E4 EQ PUSH2 0x282 JUMPI PUSH0 DUP1 REVERT JUMPDEST DUP1 PUSH3 0x1189DD EQ PUSH2 0x1BC JUMPI DUP1 PUSH4 0x25E7C27 EQ PUSH2 0x1DD JUMPI DUP1 PUSH4 0x417A710 EQ PUSH2 0x219 JUMPI PUSH0 DUP1 REVERT JUMPDEST CALLDATASIZE PUSH2 0x1B8 JUMPI STOP JUMPDEST PUSH0 DUP1 REVERT JUMPDEST CALLVALUE DUP1 ISZERO PUSH2 0x1C7 JUMPI PUSH0 DUP1 REVERT JUMPDEST POP PUSH2 0x1DB PUSH2 0x1D6 CALLDATASIZE PUSH1 0x4 PUSH2 0x11E6 JUMP JUMPDEST PUSH2 0x518 JUMP JUMPDEST STOP JUMPDEST CALLVALUE DUP1 ISZERO PUSH2 0x1E8 JUMPI PUSH0 DUP1 REVERT JUMPDEST POP PUSH2 0x1FC PUSH2 0x1F7 CALLDATASIZE PUSH1 0x4 PUSH2 0x1206 JUMP JUMPDEST PUSH2 0x568 JUMP JUMPDEST PUSH1 0x40 MLOAD PUSH1 0x1 PUSH1 0x1 PUSH1 0xA0 SHL SUB SWAP1 SWAP2 AND DUP2 MSTORE PUSH1 0x20 ADD JUMPDEST PUSH1 0x40 MLOAD DUP1 SWAP2 SUB SWAP1 RETURN JUMPDEST CALLVALUE DUP1 ISZERO PUSH2 0x224 JUMPI PUSH0 DUP1 REVERT JUMPDEST POP PUSH2 0x22E PUSH2 0x7D0 DUP2 JUMP JUMPDEST PUSH1 0x40 MLOAD SWAP1 DUP2 MSTORE PUSH1 0x20 ADD PUSH2 0x210 JUMP JUMPDEST CALLVALUE DUP1 ISZERO PUSH2 0x247 JUMPI PUSH0 DUP1 REVERT JUMPDEST POP PUSH1 0x5 SLOAD PUSH2 0x22E JUMP JUMPDEST PUSH2 0x1DB PUSH2 0x25E CALLDATASIZE PUSH1 0x4 PUSH2 0x121D JUMP JUMPDEST PUSH2 0x590 JUMP JUMPDEST CALLVALUE DUP1 ISZERO PUSH2 0x26E JUMPI PUSH0 DUP1 REVERT JUMPDEST POP PUSH2 0x1DB PUSH2 0x27D CALLDATASIZE PUSH1 0x4 PUSH2 0x11E6 JUMP JUMPDEST PUSH2 0x79D JUMP JUMPDEST CALLVALUE DUP1 ISZERO PUSH2 0x28D JUMPI PUSH0 DUP1 REVERT JUMPDEST POP PUSH2 0x22E PUSH2 0x29C CALLDATASIZE PUSH1 0x4 PUSH2 0x11E6 JUMP JUMPDEST PUSH1 0x3 PUSH1 0x20 MSTORE PUSH0 SWAP1 DUP2 MSTORE PUSH1 0x40 SWAP1 KECCAK256 SLOAD DUP2 JUMP JUMPDEST CALLVALUE DUP1 ISZERO PUSH2 0x2B8 JUMPI PUSH0 DUP1 REVERT JUMPDEST POP PUSH2 0x2DB PUSH2 0x2C7 CALLDATASIZE PUSH1 0x4 PUSH2 0x11E6 JUMP JUMPDEST PUSH1 0x6 PUSH1 0x20 MSTORE PUSH0 SWAP1 DUP2 MSTORE PUSH1 0x40 SWAP1 KECCAK256 SLOAD PUSH1 0xFF AND DUP2 JUMP JUMPDEST PUSH1 0x40 MLOAD SWAP1 ISZERO ISZERO DUP2 MSTORE PUSH1 0x20 ADD PUSH2 0x210 JUMP JUMPDEST CALLVALUE DUP1 ISZERO PUSH2 0x2F6 JUMPI PUSH0 DUP1 REVERT JUMPDEST POP PUSH2 0x1DB PUSH2 0x7F0 JUMP JUMPDEST CALLVALUE DUP1 ISZERO PUSH2 0x30A JUMPI PUSH0 DUP1 REVERT JUMPDEST POP PUSH1 0x7 SLOAD PUSH2 0x2DB SWAP1 PUSH1 0xFF AND DUP2 JUMP JUMPDEST CALLVALUE DUP1 ISZERO PUSH2 0x323 JUMPI PUSH0 DUP1 REVERT JUMPDEST POP PUSH2 0x1DB PUSH2 0x888 JUMP JUMPDEST CALLVALUE DUP1 ISZERO PUSH2 0x337 JUMPI PUSH0 DUP1 REVERT JUMPDEST POP PUSH2 0x22E PUSH2 0x346 CALLDATASIZE PUSH1 0x4 PUSH2 0x11E6 JUMP JUMPDEST PUSH1 0x2 PUSH1 0x20 MSTORE PUSH0 SWAP1 DUP2 MSTORE PUSH1 0x40 SWAP1 KECCAK256 SLOAD DUP2 JUMP JUMPDEST CALLVALUE DUP1 ISZERO PUSH2 0x362 JUMPI PUSH0 DUP1 REVERT JUMPDEST POP PUSH2 0x1DB PUSH2 0xA9D JUMP JUMPDEST CALLVALUE DUP1 ISZERO PUSH2 0x376 JUMPI PUSH0 DUP1 REVERT JUMPDEST POP PUSH2 0x1DB PUSH2 0x385 CALLDATASIZE PUSH1 0x4 PUSH2 0x11E6 JUMP JUMPDEST PUSH2 0xB2E JUMP JUMPDEST CALLVALUE DUP1 ISZERO PUSH2 0x395 JUMPI PUSH0 DUP1 REVERT JUMPDEST POP PUSH2 0x1DB PUSH2 0xCCE JUMP JUMPDEST CALLVALUE DUP1 ISZERO PUSH2 0x3A9 JUMPI PUSH0 DUP1 REVERT JUMPDEST POP PUSH2 0x1DB PUSH2 0xCE1 JUMP JUMPDEST CALLVALUE DUP1 ISZERO PUSH2 0x3BD JUMPI PUSH0 DUP1 REVERT JUMPDEST POP PUSH0 SLOAD PUSH1 0x1 PUSH1 0x1 PUSH1 0xA0 SHL SUB AND PUSH2 0x1FC JUMP JUMPDEST PUSH2 0x1DB PUSH2 0xD20 JUMP JUMPDEST CALLVALUE DUP1 ISZERO PUSH2 0x3E1 JUMPI PUSH0 DUP1 REVERT JUMPDEST POP PUSH2 0x2DB PUSH2 0x3F0 CALLDATASIZE PUSH1 0x4 PUSH2 0x11E6 JUMP JUMPDEST PUSH1 0x8 PUSH1 0x20 MSTORE PUSH0 SWAP1 DUP2 MSTORE PUSH1 0x40 SWAP1 KECCAK256 SLOAD PUSH1 0xFF AND DUP2 JUMP JUMPDEST CALLVALUE DUP1 ISZERO PUSH2 0x40F JUMPI PUSH0 DUP1 REVERT JUMPDEST POP PUSH2 0x418 PUSH2 0xDE3 JUMP JUMPDEST PUSH1 0x40 MLOAD PUSH2 0x210 SWAP2 SWAP1 PUSH2 0x125C JUMP JUMPDEST CALLVALUE DUP1 ISZERO PUSH2 0x430 JUMPI PUSH0 DUP1 REVERT JUMPDEST POP PUSH2 0x1DB PUSH2 0x43F CALLDATASIZE PUSH1 0x4 PUSH2 0x11E6 JUMP JUMPDEST PUSH2 0xE43 JUMP JUMPDEST CALLVALUE DUP1 ISZERO PUSH2 0x44F JUMPI PUSH0 DUP1 REVERT JUMPDEST POP PUSH2 0x1DB PUSH2 0x45E CALLDATASIZE PUSH1 0x4 PUSH2 0x12A8 JUMP JUMPDEST PUSH2 0xF00 JUMP JUMPDEST CALLVALUE DUP1 ISZERO PUSH2 0x46E JUMPI PUSH0 DUP1 REVERT JUMPDEST POP PUSH2 0x22E PUSH1 0x4 SLOAD DUP2 JUMP JUMPDEST CALLVALUE DUP1 ISZERO PUSH2 0x483 JUMPI PUSH0 DUP1 REVERT JUMPDEST POP PUSH2 0x22E PUSH1 0x1 SLOAD DUP2 JUMP JUMPDEST CALLVALUE DUP1 ISZERO PUSH2 0x498 JUMPI PUSH0 DUP1 REVERT JUMPDEST POP PUSH2 0x1DB PUSH2 0x4A7 CALLDATASIZE PUSH1 0x4 PUSH2 0x11E6 JUMP JUMPDEST PUSH2 0xF21 JUMP JUMPDEST CALLVALUE DUP1 ISZERO PUSH2 0x4B7 JUMPI PUSH0 DUP1 REVERT JUMPDEST POP PUSH2 0x1DB PUSH2 0x4C6 CALLDATASIZE PUSH1 0x4 PUSH2 0x11E6 JUMP JUMPDEST PUSH2 0xF71 JUMP JUMPDEST CALLVALUE DUP1 ISZERO PUSH2 0x4D6 JUMPI PUSH0 DUP1 REVERT JUMPDEST POP PUSH2 0x2DB PUSH2 0x4E5 CALLDATASIZE PUSH1 0x4 PUSH2 0x11E6 JUMP JUMPDEST PUSH1 0x9 PUSH1 0x20 MSTORE PUSH0 SWAP1 DUP2 MSTORE PUSH1 0x40 SWAP1 KECCAK256 SLOAD PUSH1 0xFF AND DUP2 JUMP JUMPDEST CALLVALUE DUP1 ISZERO PUSH2 0x504 JUMPI PUSH0 DUP1 REVERT JUMPDEST POP PUSH2 0x1DB PUSH2 0x513 CALLDATASIZE PUSH1 0x4 PUSH2 0x11E6 JUMP JUMPDEST PUSH2 0xFDD JUMP JUMPDEST PUSH2 0x520 PUSH2 0x101A JUMP JUMPDEST PUSH1 0x1 PUSH1 0x1 PUSH1 0xA0 SHL SUB DUP2 AND PUSH0 DUP2 DUP2 MSTORE PUSH1 0x9 PUSH1 0x20 MSTORE PUSH1 0x40 DUP1 DUP3 KECCAK256 DUP1 SLOAD PUSH1 0xFF NOT AND SWAP1 SSTORE MLOAD PUSH32 0xD25DD45A1811DC9170AB90C454EF2024F3086A79DA5279A8D42F39BDDA8F36D1 SWAP2 SWAP1 LOG2 POP JUMP JUMPDEST PUSH1 0x5 DUP2 DUP2 SLOAD DUP2 LT PUSH2 0x577 JUMPI PUSH0 DUP1 REVERT JUMPDEST PUSH0 SWAP2 DUP3 MSTORE PUSH1 0x20 SWAP1 SWAP2 KECCAK256 ADD SLOAD PUSH1 0x1 PUSH1 0x1 PUSH1 0xA0 SHL SUB AND SWAP1 POP DUP2 JUMP JUMPDEST CALLER PUSH0 SWAP1 DUP2 MSTORE PUSH1 0x8 PUSH1 0x20 MSTORE PUSH1 0x40 SWAP1 KECCAK256 SLOAD PUSH1 0xFF AND PUSH2 0x5F3 JUMPI PUSH1 0x40 MLOAD PUSH3 0x461BCD PUSH1 0xE5 SHL DUP2 MSTORE PUSH1 0x20 PUSH1 0x4 DUP3 ADD MSTORE PUSH1 0x1F PUSH1 0x24 DUP3 ADD MSTORE PUSH32 0x4665655661756C743A206E6F7420617574686F72697A656420736F7572636500 PUSH1 0x44 DUP3 ADD MSTORE PUSH1 0x64 ADD JUMPDEST PUSH1 0x40 MLOAD DUP1 SWAP2 SUB SWAP1 REVERT JUMPDEST PUSH2 0x5FD DUP2 DUP4 PUSH2 0x12F5 JUMP JUMPDEST CALLVALUE EQ PUSH2 0x64B JUMPI PUSH1 0x40 MLOAD PUSH3 0x461BCD PUSH1 0xE5 SHL DUP2 MSTORE PUSH1 0x20 PUSH1 0x4 DUP3 ADD MSTORE PUSH1 0x18 PUSH1 0x24 DUP3 ADD MSTORE PUSH32 0x4665655661756C743A2076616C7565206D69736D617463680000000000000000 PUSH1 0x44 DUP3 ADD MSTORE PUSH1 0x64 ADD PUSH2 0x5EA JUMP JUMPDEST DUP2 PUSH1 0x1 PUSH0 DUP3 DUP3 SLOAD PUSH2 0x65C SWAP2 SWAP1 PUSH2 0x12F5 JUMP JUMPDEST SWAP1 SWAP2 SSTORE POP POP PUSH1 0x1 PUSH1 0x1 PUSH1 0xA0 SHL SUB DUP4 AND ISZERO DUP1 ISZERO SWAP1 PUSH2 0x678 JUMPI POP PUSH0 DUP2 GT JUMPDEST ISZERO PUSH2 0x709 JUMPI PUSH0 PUSH2 0x2710 PUSH2 0x68D PUSH2 0x7D0 DUP5 PUSH2 0x130E JUMP JUMPDEST PUSH2 0x697 SWAP2 SWAP1 PUSH2 0x1325 JUMP JUMPDEST SWAP1 POP PUSH0 PUSH2 0x6A4 DUP3 DUP5 PUSH2 0x1344 JUMP JUMPDEST PUSH1 0x1 PUSH1 0x1 PUSH1 0xA0 SHL SUB DUP8 AND PUSH0 SWAP1 DUP2 MSTORE PUSH1 0x2 PUSH1 0x20 MSTORE PUSH1 0x40 DUP2 KECCAK256 DUP1 SLOAD SWAP3 SWAP4 POP DUP4 SWAP3 SWAP1 SWAP2 SWAP1 PUSH2 0x6D0 SWAP1 DUP5 SWAP1 PUSH2 0x12F5 JUMP JUMPDEST SWAP1 SWAP2 SSTORE POP POP PUSH1 0x1 PUSH1 0x1 PUSH1 0xA0 SHL SUB DUP6 AND PUSH0 SWAP1 DUP2 MSTORE PUSH1 0x3 PUSH1 0x20 MSTORE PUSH1 0x40 DUP2 KECCAK256 DUP1 SLOAD DUP5 SWAP3 SWAP1 PUSH2 0x6FC SWAP1 DUP5 SWAP1 PUSH2 0x12F5 JUMP JUMPDEST SWAP1 SWAP2 SSTORE POP PUSH2 0x736 SWAP3 POP POP POP JUMP JUMPDEST PUSH1 0x1 PUSH1 0x1 PUSH1 0xA0 SHL SUB DUP5 AND PUSH0 SWAP1 DUP2 MSTORE PUSH1 0x2 PUSH1 0x20 MSTORE PUSH1 0x40 DUP2 KECCAK256 DUP1 SLOAD DUP4 SWAP3 SWAP1 PUSH2 0x730 SWAP1 DUP5 SWAP1 PUSH2 0x12F5 JUMP JUMPDEST SWAP1 SWAP2 SSTORE POP POP JUMPDEST CALLVALUE PUSH1 0x4 PUSH0 DUP3 DUP3 SLOAD PUSH2 0x747 SWAP2 SWAP1 PUSH2 0x12F5 JUMP JUMPDEST SWAP1 SWAP2 SSTORE POP POP PUSH1 0x40 DUP1 MLOAD DUP4 DUP2 MSTORE PUSH1 0x20 DUP2 ADD DUP4 SWAP1 MSTORE PUSH1 0x1 PUSH1 0x1 PUSH1 0xA0 SHL SUB DUP1 DUP7 AND SWAP3 SWAP1 DUP8 AND SWAP2 CALLER SWAP2 PUSH32 0x6F1812AC60560ADD64FE1009BC946EDFACFC179D8E6EAFBD8C4FC934101EE283 SWAP2 ADD PUSH1 0x40 MLOAD DUP1 SWAP2 SUB SWAP1 LOG4 POP POP POP POP JUMP JUMPDEST PUSH2 0x7A5 PUSH2 0x101A JUMP JUMPDEST PUSH1 0x1 PUSH1 0x1 PUSH1 0xA0 SHL SUB DUP2 AND PUSH0 DUP2 DUP2 MSTORE PUSH1 0x9 PUSH1 0x20 MSTORE PUSH1 0x40 DUP1 DUP3 KECCAK256 DUP1 SLOAD PUSH1 0xFF NOT AND PUSH1 0x1 OR SWAP1 SSTORE MLOAD PUSH32 0x2FA23115F2B369FC34EDA97CCF6BC2FAB82882719F0547F3E45A9A400086AEAE SWAP2 SWAP1 LOG2 POP JUMP JUMPDEST CALLER PUSH0 SWAP1 DUP2 MSTORE PUSH1 0x2 PUSH1 0x20 MSTORE PUSH1 0x40 SWAP1 KECCAK256 SLOAD DUP1 PUSH2 0x81C JUMPI PUSH1 0x40 MLOAD PUSH3 0x461BCD PUSH1 0xE5 SHL DUP2 MSTORE PUSH1 0x4 ADD PUSH2 0x5EA SWAP1 PUSH2 0x1357 JUMP JUMPDEST CALLER PUSH0 SWAP1 DUP2 MSTORE PUSH1 0x2 PUSH1 0x20 MSTORE PUSH1 0x40 DUP2 KECCAK256 DUP2 SWAP1 SSTORE PUSH1 0x4 DUP1 SLOAD DUP4 SWAP3 SWAP1 PUSH2 0x83F SWAP1 DUP5 SWAP1 PUSH2 0x1344 JUMP JUMPDEST SWAP1 SWAP2 SSTORE POP PUSH2 0x84F SWAP1 POP CALLER DUP3 PUSH2 0x1046 JUMP JUMPDEST PUSH1 0x40 MLOAD DUP2 DUP2 MSTORE CALLER SWAP1 PUSH32 0xD046302BDC39599E60A5981E59227DCD1C643F512F56F2E984390C3AC6EADEDB SWAP1 PUSH1 0x20 ADD JUMPDEST PUSH1 0x40 MLOAD DUP1 SWAP2 SUB SWAP1 LOG2 POP JUMP JUMPDEST CALLER PUSH0 SWAP1 DUP2 MSTORE PUSH1 0x6 PUSH1 0x20 MSTORE PUSH1 0x40 SWAP1 KECCAK256 SLOAD PUSH1 0xFF AND PUSH2 0x8E6 JUMPI PUSH1 0x40 MLOAD PUSH3 0x461BCD PUSH1 0xE5 SHL DUP2 MSTORE PUSH1 0x20 PUSH1 0x4 DUP3 ADD MSTORE PUSH1 0x1E PUSH1 0x24 DUP3 ADD MSTORE PUSH32 0x4665655661756C743A206E6F7420612070726F746F636F6C206F776E65720000 PUSH1 0x44 DUP3 ADD MSTORE PUSH1 0x64 ADD PUSH2 0x5EA JUMP JUMPDEST PUSH1 0x1 SLOAD DUP1 PUSH2 0x906 JUMPI PUSH1 0x40 MLOAD PUSH3 0x461BCD PUSH1 0xE5 SHL DUP2 MSTORE PUSH1 0x4 ADD PUSH2 0x5EA SWAP1 PUSH2 0x1357 JUMP JUMPDEST PUSH0 PUSH1 0x1 DUP2 SWAP1 SSTORE POP DUP1 PUSH1 0x4 PUSH0 DUP3 DUP3 SLOAD PUSH2 0x91E SWAP2 SWAP1 PUSH2 0x1344 JUMP JUMPDEST SWAP1 SWAP2 SSTORE POP POP PUSH1 0x5 SLOAD PUSH0 PUSH2 0x931 DUP3 DUP5 PUSH2 0x1325 JUMP JUMPDEST SWAP1 POP PUSH0 DUP1 JUMPDEST PUSH2 0x941 PUSH1 0x1 DUP6 PUSH2 0x1344 JUMP JUMPDEST DUP2 LT ISZERO PUSH2 0x9E8 JUMPI PUSH2 0x978 PUSH1 0x5 DUP3 DUP2 SLOAD DUP2 LT PUSH2 0x95E JUMPI PUSH2 0x95E PUSH2 0x138E JUMP JUMPDEST PUSH0 SWAP2 DUP3 MSTORE PUSH1 0x20 SWAP1 SWAP2 KECCAK256 ADD SLOAD PUSH1 0x1 PUSH1 0x1 PUSH1 0xA0 SHL SUB AND DUP5 PUSH2 0x1046 JUMP JUMPDEST PUSH1 0x5 DUP2 DUP2 SLOAD DUP2 LT PUSH2 0x98B JUMPI PUSH2 0x98B PUSH2 0x138E JUMP JUMPDEST PUSH0 SWAP2 DUP3 MSTORE PUSH1 0x20 SWAP2 DUP3 SWAP1 KECCAK256 ADD SLOAD PUSH1 0x40 MLOAD DUP6 DUP2 MSTORE PUSH1 0x1 PUSH1 0x1 PUSH1 0xA0 SHL SUB SWAP1 SWAP2 AND SWAP2 PUSH32 0xF58CB6262D88971B87878468DEBB7BC81F1714BE597710E16A9FB84C66FF7B5 SWAP2 ADD PUSH1 0x40 MLOAD DUP1 SWAP2 SUB SWAP1 LOG2 PUSH2 0x9DE DUP4 DUP4 PUSH2 0x12F5 JUMP JUMPDEST SWAP2 POP PUSH1 0x1 ADD PUSH2 0x936 JUMP JUMPDEST POP PUSH0 PUSH2 0x9F4 DUP3 DUP7 PUSH2 0x1344 JUMP JUMPDEST SWAP1 POP PUSH2 0xA30 PUSH1 0x5 PUSH2 0xA06 PUSH1 0x1 DUP8 PUSH2 0x1344 JUMP JUMPDEST DUP2 SLOAD DUP2 LT PUSH2 0xA16 JUMPI PUSH2 0xA16 PUSH2 0x138E JUMP JUMPDEST PUSH0 SWAP2 DUP3 MSTORE PUSH1 0x20 SWAP1 SWAP2 KECCAK256 ADD SLOAD PUSH1 0x1 PUSH1 0x1 PUSH1 0xA0 SHL SUB AND DUP3 PUSH2 0x1046 JUMP JUMPDEST PUSH1 0x5 PUSH2 0xA3D PUSH1 0x1 DUP7 PUSH2 0x1344 JUMP JUMPDEST DUP2 SLOAD DUP2 LT PUSH2 0xA4D JUMPI PUSH2 0xA4D PUSH2 0x138E JUMP JUMPDEST PUSH0 SWAP2 DUP3 MSTORE PUSH1 0x20 SWAP2 DUP3 SWAP1 KECCAK256 ADD SLOAD PUSH1 0x40 MLOAD DUP4 DUP2 MSTORE PUSH1 0x1 PUSH1 0x1 PUSH1 0xA0 SHL SUB SWAP1 SWAP2 AND SWAP2 PUSH32 0xF58CB6262D88971B87878468DEBB7BC81F1714BE597710E16A9FB84C66FF7B5 SWAP2 ADD PUSH1 0x40 MLOAD DUP1 SWAP2 SUB SWAP1 LOG2 POP POP POP POP POP JUMP JUMPDEST CALLER PUSH0 SWAP1 DUP2 MSTORE PUSH1 0x3 PUSH1 0x20 MSTORE PUSH1 0x40 SWAP1 KECCAK256 SLOAD DUP1 PUSH2 0xAC9 JUMPI PUSH1 0x40 MLOAD PUSH3 0x461BCD PUSH1 0xE5 SHL DUP2 MSTORE PUSH1 0x4 ADD PUSH2 0x5EA SWAP1 PUSH2 0x1357 JUMP JUMPDEST CALLER PUSH0 SWAP1 DUP2 MSTORE PUSH1 0x3 PUSH1 0x20 MSTORE PUSH1 0x40 DUP2 KECCAK256 DUP2 SWAP1 SSTORE PUSH1 0x4 DUP1 SLOAD DUP4 SWAP3 SWAP1 PUSH2 0xAEC SWAP1 DUP5 SWAP1 PUSH2 0x1344 JUMP JUMPDEST SWAP1 SWAP2 SSTORE POP PUSH2 0xAFC SWAP1 POP CALLER DUP3 PUSH2 0x1046 JUMP JUMPDEST PUSH1 0x40 MLOAD DUP2 DUP2 MSTORE CALLER SWAP1 PUSH32 0x2546672A975EF5E2DE5A33B38C7FF4453D874CE5F273494C6544790C8C0C4E99 SWAP1 PUSH1 0x20 ADD PUSH2 0x87D JUMP JUMPDEST PUSH2 0xB36 PUSH2 0x101A JUMP JUMPDEST PUSH1 0x7 SLOAD PUSH1 0xFF AND ISZERO PUSH2 0xB89 JUMPI PUSH1 0x40 MLOAD PUSH3 0x461BCD PUSH1 0xE5 SHL DUP2 MSTORE PUSH1 0x20 PUSH1 0x4 DUP3 ADD MSTORE PUSH1 0x19 PUSH1 0x24 DUP3 ADD MSTORE PUSH32 0x4665655661756C743A2061646D696E2072656E6F756E63656400000000000000 PUSH1 0x44 DUP3 ADD MSTORE PUSH1 0x64 ADD PUSH2 0x5EA JUMP JUMPDEST PUSH1 0x1 PUSH1 0x1 PUSH1 0xA0 SHL SUB DUP2 AND PUSH2 0xBD8 JUMPI PUSH1 0x40 MLOAD PUSH3 0x461BCD PUSH1 0xE5 SHL DUP2 MSTORE PUSH1 0x20 PUSH1 0x4 DUP3 ADD MSTORE PUSH1 0x16 PUSH1 0x24 DUP3 ADD MSTORE PUSH22 0x4665655661756C743A207A65726F2061646472657373 PUSH1 0x50 SHL PUSH1 0x44 DUP3 ADD MSTORE PUSH1 0x64 ADD PUSH2 0x5EA JUMP JUMPDEST PUSH1 0x1 PUSH1 0x1 PUSH1 0xA0 SHL SUB DUP2 AND PUSH0 SWAP1 DUP2 MSTORE PUSH1 0x6 PUSH1 0x20 MSTORE PUSH1 0x40 SWAP1 KECCAK256 SLOAD PUSH1 0xFF AND ISZERO PUSH2 0xC40 JUMPI PUSH1 0x40 MLOAD PUSH3 0x461BCD PUSH1 0xE5 SHL DUP2 MSTORE PUSH1 0x20 PUSH1 0x4 DUP3 ADD MSTORE PUSH1 0x1A PUSH1 0x24 DUP3 ADD MSTORE PUSH32 0x4665655661756C743A20616C726561647920616E206F776E6572000000000000 PUSH1 0x44 DUP3 ADD MSTORE PUSH1 0x64 ADD PUSH2 0x5EA JUMP JUMPDEST PUSH1 0x5 DUP1 SLOAD PUSH1 0x1 DUP1 DUP3 ADD SWAP1 SWAP3 SSTORE PUSH32 0x36B6384B5ECA791C62761152D0C79BB0604C104A5FB6F4EB0703F3154BB3DB0 ADD DUP1 SLOAD PUSH1 0x1 PUSH1 0x1 PUSH1 0xA0 SHL SUB NOT AND PUSH1 0x1 PUSH1 0x1 PUSH1 0xA0 SHL SUB DUP5 AND SWAP1 DUP2 OR SWAP1 SWAP2 SSTORE PUSH0 DUP2 DUP2 MSTORE PUSH1 0x6 PUSH1 0x20 MSTORE PUSH1 0x40 DUP1 DUP3 KECCAK256 DUP1 SLOAD PUSH1 0xFF NOT AND SWAP1 SWAP5 OR SWAP1 SWAP4 SSTORE SWAP2 MLOAD SWAP1 SWAP2 PUSH32 0x994A936646FE87FFE4F1E469D3D6AA417D6B855598397F323DE5B449F765F0C3 SWAP2 LOG2 POP JUMP JUMPDEST PUSH2 0xCD6 PUSH2 0x101A JUMP JUMPDEST PUSH2 0xCDF PUSH0 PUSH2 0x10E5 JUMP JUMPDEST JUMP JUMPDEST PUSH2 0xCE9 PUSH2 0x101A JUMP JUMPDEST PUSH1 0x7 DUP1 SLOAD PUSH1 0xFF NOT AND PUSH1 0x1 OR SWAP1 SSTORE PUSH1 0x40 MLOAD PUSH32 0xD8F8161A148ED674B4DB8C135EE208183F165B46B622D35C6EBA45F87AD3D4E8 SWAP1 PUSH0 SWAP1 LOG1 JUMP JUMPDEST CALLER PUSH0 SWAP1 DUP2 MSTORE PUSH1 0x8 PUSH1 0x20 MSTORE PUSH1 0x40 SWAP1 KECCAK256 SLOAD PUSH1 0xFF AND PUSH2 0xD7E JUMPI PUSH1 0x40 MLOAD PUSH3 0x461BCD PUSH1 0xE5 SHL DUP2 MSTORE PUSH1 0x20 PUSH1 0x4 DUP3 ADD MSTORE PUSH1 0x1F PUSH1 0x24 DUP3 ADD MSTORE PUSH32 0x4665655661756C743A206E6F7420617574686F72697A656420736F7572636500 PUSH1 0x44 DUP3 ADD MSTORE PUSH1 0x64 ADD PUSH2 0x5EA JUMP JUMPDEST CALLVALUE PUSH1 0x1 PUSH0 DUP3 DUP3 SLOAD PUSH2 0xD8F SWAP2 SWAP1 PUSH2 0x12F5 JUMP JUMPDEST SWAP3 POP POP DUP2 SWAP1 SSTORE POP CALLVALUE PUSH1 0x4 PUSH0 DUP3 DUP3 SLOAD PUSH2 0xDA7 SWAP2 SWAP1 PUSH2 0x12F5 JUMP JUMPDEST SWAP1 SWAP2 SSTORE POP POP PUSH1 0x40 MLOAD CALLVALUE DUP2 MSTORE CALLER SWAP1 PUSH32 0x976CB2034EFD8460171C354591CDD9FC14FCABDA0805EE745DE0215F3583DED2 SWAP1 PUSH1 0x20 ADD PUSH1 0x40 MLOAD DUP1 SWAP2 SUB SWAP1 LOG2 JUMP JUMPDEST PUSH1 0x60 PUSH1 0x5 DUP1 SLOAD DUP1 PUSH1 0x20 MUL PUSH1 0x20 ADD PUSH1 0x40 MLOAD SWAP1 DUP2 ADD PUSH1 0x40 MSTORE DUP1 SWAP3 SWAP2 SWAP1 DUP2 DUP2 MSTORE PUSH1 0x20 ADD DUP3 DUP1 SLOAD DUP1 ISZERO PUSH2 0xE39 JUMPI PUSH1 0x20 MUL DUP3 ADD SWAP2 SWAP1 PUSH0 MSTORE PUSH1 0x20 PUSH0 KECCAK256 SWAP1 JUMPDEST DUP2 SLOAD PUSH1 0x1 PUSH1 0x1 PUSH1 0xA0 SHL SUB AND DUP2 MSTORE PUSH1 0x1 SWAP1 SWAP2 ADD SWAP1 PUSH1 0x20 ADD DUP1 DUP4 GT PUSH2 0xE1B JUMPI JUMPDEST POP POP POP POP POP SWAP1 POP SWAP1 JUMP JUMPDEST PUSH0 SLOAD PUSH1 0x1 PUSH1 0x1 PUSH1 0xA0 SHL SUB AND CALLER EQ DUP1 PUSH2 0xE69 JUMPI POP CALLER PUSH0 SWAP1 DUP2 MSTORE PUSH1 0x9 PUSH1 0x20 MSTORE PUSH1 0x40 SWAP1 KECCAK256 SLOAD PUSH1 0xFF AND JUMPDEST PUSH2 0xEB5 JUMPI PUSH1 0x40 MLOAD PUSH3 0x461BCD PUSH1 0xE5 SHL DUP2 MSTORE PUSH1 0x20 PUSH1 0x4 DUP3 ADD MSTORE PUSH1 0x1E PUSH1 0x24 DUP3 ADD MSTORE PUSH32 0x4665655661756C743A206E6F74206F776E6572206F7220666163746F72790000 PUSH1 0x44 DUP3 ADD MSTORE PUSH1 0x64 ADD PUSH2 0x5EA JUMP JUMPDEST PUSH1 0x1 PUSH1 0x1 PUSH1 0xA0 SHL SUB DUP2 AND PUSH0 DUP2 DUP2 MSTORE PUSH1 0x8 PUSH1 0x20 MSTORE PUSH1 0x40 DUP1 DUP3 KECCAK256 DUP1 SLOAD PUSH1 0xFF NOT AND PUSH1 0x1 OR SWAP1 SSTORE MLOAD PUSH32 0x4259866215295669A8AA580379FDB1207113BFBE3FD2E1915E992BDBA65ACC07 SWAP2 SWAP1 LOG2 POP JUMP JUMPDEST PUSH2 0xF08 PUSH2 0x101A JUMP JUMPDEST PUSH2 0xF1C PUSH1 0x1 PUSH1 0x1 PUSH1 0xA0 SHL SUB DUP5 AND DUP4 DUP4 PUSH2 0x1134 JUMP JUMPDEST POP POP POP JUMP JUMPDEST PUSH2 0xF29 PUSH2 0x101A JUMP JUMPDEST PUSH1 0x1 PUSH1 0x1 PUSH1 0xA0 SHL SUB DUP2 AND PUSH0 DUP2 DUP2 MSTORE PUSH1 0x8 PUSH1 0x20 MSTORE PUSH1 0x40 DUP1 DUP3 KECCAK256 DUP1 SLOAD PUSH1 0xFF NOT AND SWAP1 SSTORE MLOAD PUSH32 0xFE99FCB294979665C2561E12BF52A9B17F0412FDAFECD42B4642A8582637322A SWAP2 SWAP1 LOG2 POP JUMP JUMPDEST PUSH2 0xF79 PUSH2 0x101A JUMP JUMPDEST PUSH0 PUSH1 0x4 SLOAD SELFBALANCE PUSH2 0xF88 SWAP2 SWAP1 PUSH2 0x1344 JUMP JUMPDEST SWAP1 POP PUSH0 DUP2 GT PUSH2 0xFCF JUMPI PUSH1 0x40 MLOAD PUSH3 0x461BCD PUSH1 0xE5 SHL DUP2 MSTORE PUSH1 0x20 PUSH1 0x4 DUP3 ADD MSTORE PUSH1 0x13 PUSH1 0x24 DUP3 ADD MSTORE PUSH19 0x4665655661756C743A206E6F20657863657373 PUSH1 0x68 SHL PUSH1 0x44 DUP3 ADD MSTORE PUSH1 0x64 ADD PUSH2 0x5EA JUMP JUMPDEST PUSH2 0xFD9 DUP3 DUP3 PUSH2 0x1046 JUMP JUMPDEST POP POP JUMP JUMPDEST PUSH2 0xFE5 PUSH2 0x101A JUMP JUMPDEST PUSH1 0x1 PUSH1 0x1 PUSH1 0xA0 SHL SUB DUP2 AND PUSH2 0x100E JUMPI PUSH1 0x40 MLOAD PUSH4 0x1E4FBDF7 PUSH1 0xE0 SHL DUP2 MSTORE PUSH0 PUSH1 0x4 DUP3 ADD MSTORE PUSH1 0x24 ADD PUSH2 0x5EA JUMP JUMPDEST PUSH2 0x1017 DUP2 PUSH2 0x10E5 JUMP JUMPDEST POP JUMP JUMPDEST PUSH0 SLOAD PUSH1 0x1 PUSH1 0x1 PUSH1 0xA0 SHL SUB AND CALLER EQ PUSH2 0xCDF JUMPI PUSH1 0x40 MLOAD PUSH4 0x118CDAA7 PUSH1 0xE0 SHL DUP2 MSTORE CALLER PUSH1 0x4 DUP3 ADD MSTORE PUSH1 0x24 ADD PUSH2 0x5EA JUMP JUMPDEST PUSH0 DUP3 PUSH1 0x1 PUSH1 0x1 PUSH1 0xA0 SHL SUB AND DUP3 PUSH1 0x40 MLOAD PUSH0 PUSH1 0x40 MLOAD DUP1 DUP4 SUB DUP2 DUP6 DUP8 GAS CALL SWAP3 POP POP POP RETURNDATASIZE DUP1 PUSH0 DUP2 EQ PUSH2 0x108F JUMPI PUSH1 0x40 MLOAD SWAP2 POP PUSH1 0x1F NOT PUSH1 0x3F RETURNDATASIZE ADD AND DUP3 ADD PUSH1 0x40 MSTORE RETURNDATASIZE DUP3 MSTORE RETURNDATASIZE PUSH0 PUSH1 0x20 DUP5 ADD RETURNDATACOPY PUSH2 0x1094 JUMP JUMPDEST PUSH1 0x60 SWAP2 POP JUMPDEST POP POP SWAP1 POP DUP1 PUSH2 0xF1C JUMPI PUSH1 0x40 MLOAD PUSH3 0x461BCD PUSH1 0xE5 SHL DUP2 MSTORE PUSH1 0x20 PUSH1 0x4 DUP3 ADD DUP2 SWAP1 MSTORE PUSH1 0x24 DUP3 ADD MSTORE PUSH32 0x4665655661756C743A206E6174697665207472616E73666572206661696C6564 PUSH1 0x44 DUP3 ADD MSTORE PUSH1 0x64 ADD PUSH2 0x5EA JUMP JUMPDEST PUSH0 DUP1 SLOAD PUSH1 0x1 PUSH1 0x1 PUSH1 0xA0 SHL SUB DUP4 DUP2 AND PUSH1 0x1 PUSH1 0x1 PUSH1 0xA0 SHL SUB NOT DUP4 AND DUP2 OR DUP5 SSTORE PUSH1 0x40 MLOAD SWAP2 SWAP1 SWAP3 AND SWAP3 DUP4 SWAP2 PUSH32 0x8BE0079C531659141344CD1FD0A4F28419497F9722A3DAAFE3B4186F6B6457E0 SWAP2 SWAP1 LOG3 POP POP JUMP JUMPDEST PUSH2 0x1141 DUP4 DUP4 DUP4 PUSH1 0x1 PUSH2 0x1169 JUMP JUMPDEST PUSH2 0xF1C JUMPI PUSH1 0x40 MLOAD PUSH4 0x5274AFE7 PUSH1 0xE0 SHL DUP2 MSTORE PUSH1 0x1 PUSH1 0x1 PUSH1 0xA0 SHL SUB DUP5 AND PUSH1 0x4 DUP3 ADD MSTORE PUSH1 0x24 ADD PUSH2 0x5EA JUMP JUMPDEST PUSH1 0x40 MLOAD PUSH4 0xA9059CBB PUSH1 0xE0 SHL PUSH0 DUP2 DUP2 MSTORE PUSH1 0x1 PUSH1 0x1 PUSH1 0xA0 SHL SUB DUP7 AND PUSH1 0x4 MSTORE PUSH1 0x24 DUP6 SWAP1 MSTORE SWAP2 PUSH1 0x20 DUP4 PUSH1 0x44 DUP2 DUP1 DUP12 GAS CALL SWAP3 POP PUSH1 0x1 PUSH0 MLOAD EQ DUP4 AND PUSH2 0x11BF JUMPI DUP4 DUP4 ISZERO AND ISZERO PUSH2 0x11B3 JUMPI RETURNDATASIZE PUSH0 DUP3 RETURNDATACOPY RETURNDATASIZE DUP2 REVERT JUMPDEST PUSH0 DUP8 EXTCODESIZE GT RETURNDATASIZE ISZERO AND DUP4 AND SWAP3 POP JUMPDEST PUSH1 0x40 MSTORE POP SWAP5 SWAP4 POP POP POP POP JUMP JUMPDEST DUP1 CALLDATALOAD PUSH1 0x1 PUSH1 0x1 PUSH1 0xA0 SHL SUB DUP2 AND DUP2 EQ PUSH2 0x11E1 JUMPI PUSH0 DUP1 REVERT JUMPDEST SWAP2 SWAP1 POP JUMP JUMPDEST PUSH0 PUSH1 0x20 DUP3 DUP5 SUB SLT ISZERO PUSH2 0x11F6 JUMPI PUSH0 DUP1 REVERT JUMPDEST PUSH2 0x11FF DUP3 PUSH2 0x11CB JUMP JUMPDEST SWAP4 SWAP3 POP POP POP JUMP JUMPDEST PUSH0 PUSH1 0x20 DUP3 DUP5 SUB SLT ISZERO PUSH2 0x1216 JUMPI PUSH0 DUP1 REVERT JUMPDEST POP CALLDATALOAD SWAP2 SWAP1 POP JUMP JUMPDEST PUSH0 DUP1 PUSH0 DUP1 PUSH1 0x80 DUP6 DUP8 SUB SLT ISZERO PUSH2 0x1230 JUMPI PUSH0 DUP1 REVERT JUMPDEST PUSH2 0x1239 DUP6 PUSH2 0x11CB JUMP JUMPDEST SWAP4 POP PUSH2 0x1247 PUSH1 0x20 DUP7 ADD PUSH2 0x11CB JUMP JUMPDEST SWAP4 SWAP7 SWAP4 SWAP6 POP POP POP POP PUSH1 0x40 DUP3 ADD CALLDATALOAD SWAP2 PUSH1 0x60 ADD CALLDATALOAD SWAP1 JUMP JUMPDEST PUSH1 0x20 DUP1 DUP3 MSTORE DUP3 MLOAD DUP3 DUP3 ADD DUP2 SWAP1 MSTORE PUSH0 SWAP2 SWAP1 DUP5 DUP3 ADD SWAP1 PUSH1 0x40 DUP6 ADD SWAP1 DUP5 JUMPDEST DUP2 DUP2 LT ISZERO PUSH2 0x129C JUMPI DUP4 MLOAD PUSH1 0x1 PUSH1 0x1 PUSH1 0xA0 SHL SUB AND DUP4 MSTORE SWAP3 DUP5 ADD SWAP3 SWAP2 DUP5 ADD SWAP2 PUSH1 0x1 ADD PUSH2 0x1277 JUMP JUMPDEST POP SWAP1 SWAP7 SWAP6 POP POP POP POP POP POP JUMP JUMPDEST PUSH0 DUP1 PUSH0 PUSH1 0x60 DUP5 DUP7 SUB SLT ISZERO PUSH2 0x12BA JUMPI PUSH0 DUP1 REVERT JUMPDEST PUSH2 0x12C3 DUP5 PUSH2 0x11CB JUMP JUMPDEST SWAP3 POP PUSH2 0x12D1 PUSH1 0x20 DUP6 ADD PUSH2 0x11CB JUMP JUMPDEST SWAP2 POP PUSH1 0x40 DUP5 ADD CALLDATALOAD SWAP1 POP SWAP3 POP SWAP3 POP SWAP3 JUMP JUMPDEST PUSH4 0x4E487B71 PUSH1 0xE0 SHL PUSH0 MSTORE PUSH1 0x11 PUSH1 0x4 MSTORE PUSH1 0x24 PUSH0 REVERT JUMPDEST DUP1 DUP3 ADD DUP1 DUP3 GT ISZERO PUSH2 0x1308 JUMPI PUSH2 0x1308 PUSH2 0x12E1 JUMP JUMPDEST SWAP3 SWAP2 POP POP JUMP JUMPDEST DUP1 DUP3 MUL DUP2 ISZERO DUP3 DUP3 DIV DUP5 EQ OR PUSH2 0x1308 JUMPI PUSH2 0x1308 PUSH2 0x12E1 JUMP JUMPDEST PUSH0 DUP3 PUSH2 0x133F JUMPI PUSH4 0x4E487B71 PUSH1 0xE0 SHL PUSH0 MSTORE PUSH1 0x12 PUSH1 0x4 MSTORE PUSH1 0x24 PUSH0 REVERT JUMPDEST POP DIV SWAP1 JUMP JUMPDEST DUP2 DUP2 SUB DUP2 DUP2 GT ISZERO PUSH2 0x1308 JUMPI PUSH2 0x1308 PUSH2 0x12E1 JUMP JUMPDEST PUSH1 0x20 DUP1 DUP3 MSTORE PUSH1 0x1A SWAP1 DUP3 ADD MSTORE PUSH32 0x4665655661756C743A206E6F7468696E6720746F20636C61696D000000000000 PUSH1 0x40 DUP3 ADD MSTORE PUSH1 0x60 ADD SWAP1 JUMP JUMPDEST PUSH4 0x4E487B71 PUSH1 0xE0 SHL PUSH0 MSTORE PUSH1 0x32 PUSH1 0x4 MSTORE PUSH1 0x24 PUSH0 REVERT INVALID LOG2 PUSH5 0x6970667358 0x22 SLT KECCAK256 LOG4 DUP3 0xE5 PUSH20 0xE5EC46875E84A7A224FF0777E39E17107B6CB21E CALLDATACOPY 0x4B PUSH14 0x67E4523DD764736F6C6343000818 STOP CALLER "},"methodIdentifiers":{"REFERRAL_SHARE_OF_CREATOR()":"0417a710","addOwner(address)":"7065cb48","adminRenounced()":"49c294d1","authorizeFactory(address)":"181fd012","authorizeSource(address)":"acbb2625","authorizedFactories(address)":"ecd24a82","authorizedSources(address)":"964ebf42","claimCreatorFees()":"351fee46","claimProtocolFees()":"4a7d0369","claimReferrerFees()":"65b08e09","creatorClaimable(address)":"636c2656","depositProtocolFee()":"939ad2c2","depositSplitFee(address,address,uint256,uint256)":"121f612c","getOwners()":"a0e67e2b","isOwner(address)":"2f54bf6e","owner()":"8da5cb5b","ownerCount()":"0db02622","owners(uint256)":"025e7c27","protocolClaimable()":"ce228ad2","referrerClaimable(address)":"27cca4e4","renounceAdmin()":"8bad0c0a","renounceOwnership()":"715018a6","rescueERC20(address,address,uint256)":"b2118a8d","rescueExcessNative(address)":"e5b769c4","revokeFactory(address)":"001189dd","revokeSource(address)":"dcd6fcaf","totalAccountedUSDC()":"bbd93c4b","transferOwnership(address)":"f2fde38b"}}}}}