{"project/contracts/PostMigrationPool.sol":{"PostMigrationPool":{"abi":[{"inputs":[],"stateMutability":"nonpayable","type":"constructor"},{"inputs":[{"internalType":"address","name":"spender","type":"address"},{"internalType":"uint256","name":"allowance","type":"uint256"},{"internalType":"uint256","name":"needed","type":"uint256"}],"name":"ERC20InsufficientAllowance","type":"error"},{"inputs":[{"internalType":"address","name":"sender","type":"address"},{"internalType":"uint256","name":"balance","type":"uint256"},{"internalType":"uint256","name":"needed","type":"uint256"}],"name":"ERC20InsufficientBalance","type":"error"},{"inputs":[{"internalType":"address","name":"approver","type":"address"}],"name":"ERC20InvalidApprover","type":"error"},{"inputs":[{"internalType":"address","name":"receiver","type":"address"}],"name":"ERC20InvalidReceiver","type":"error"},{"inputs":[{"internalType":"address","name":"sender","type":"address"}],"name":"ERC20InvalidSender","type":"error"},{"inputs":[{"internalType":"address","name":"spender","type":"address"}],"name":"ERC20InvalidSpender","type":"error"},{"inputs":[],"name":"InvalidInitialization","type":"error"},{"inputs":[],"name":"NotInitializing","type":"error"},{"inputs":[],"name":"ReentrancyGuardReentrantCall","type":"error"},{"inputs":[{"internalType":"address","name":"token","type":"address"}],"name":"SafeERC20FailedOperation","type":"error"},{"anonymous":false,"inputs":[{"indexed":true,"internalType":"address","name":"owner","type":"address"},{"indexed":true,"internalType":"address","name":"spender","type":"address"},{"indexed":false,"internalType":"uint256","name":"value","type":"uint256"}],"name":"Approval","type":"event"},{"anonymous":false,"inputs":[{"indexed":false,"internalType":"uint64","name":"version","type":"uint64"}],"name":"Initialized","type":"event"},{"anonymous":false,"inputs":[{"indexed":true,"internalType":"address","name":"user","type":"address"},{"indexed":false,"internalType":"uint256","name":"amount","type":"uint256"}],"name":"LPFeesClaimed","type":"event"},{"anonymous":false,"inputs":[{"indexed":true,"internalType":"address","name":"provider","type":"address"},{"indexed":true,"internalType":"address","name":"to","type":"address"},{"indexed":false,"internalType":"uint256","name":"tokenAmount","type":"uint256"},{"indexed":false,"internalType":"uint256","name":"usdcAmount","type":"uint256"},{"indexed":false,"internalType":"uint256","name":"lpMinted","type":"uint256"}],"name":"LiquidityAdded","type":"event"},{"anonymous":false,"inputs":[{"indexed":true,"internalType":"address","name":"provider","type":"address"},{"indexed":true,"internalType":"address","name":"to","type":"address"},{"indexed":false,"internalType":"uint256","name":"tokenAmount","type":"uint256"},{"indexed":false,"internalType":"uint256","name":"usdcAmount","type":"uint256"},{"indexed":false,"internalType":"uint256","name":"lpBurned","type":"uint256"}],"name":"LiquidityRemoved","type":"event"},{"anonymous":false,"inputs":[{"indexed":true,"internalType":"address","name":"sender","type":"address"},{"indexed":true,"internalType":"address","name":"to","type":"address"},{"indexed":false,"internalType":"uint256","name":"tokenIn","type":"uint256"},{"indexed":false,"internalType":"uint256","name":"usdcIn","type":"uint256"},{"indexed":false,"internalType":"uint256","name":"tokenOut","type":"uint256"},{"indexed":false,"internalType":"uint256","name":"usdcOut","type":"uint256"}],"name":"Swap","type":"event"},{"anonymous":false,"inputs":[{"indexed":true,"internalType":"address","name":"from","type":"address"},{"indexed":true,"internalType":"address","name":"to","type":"address"},{"indexed":false,"internalType":"uint256","name":"value","type":"uint256"}],"name":"Transfer","type":"event"},{"inputs":[],"name":"CREATOR_FEE_BPS","outputs":[{"internalType":"uint256","name":"","type":"uint256"}],"stateMutability":"view","type":"function"},{"inputs":[],"name":"LP_FEE_BPS","outputs":[{"internalType":"uint256","name":"","type":"uint256"}],"stateMutability":"view","type":"function"},{"inputs":[],"name":"PROTOCOL_FEE_BPS","outputs":[{"internalType":"uint256","name":"","type":"uint256"}],"stateMutability":"view","type":"function"},{"inputs":[{"internalType":"uint256","name":"tokenAmount","type":"uint256"},{"internalType":"uint256","name":"minLPOut","type":"uint256"},{"internalType":"address","name":"to","type":"address"}],"name":"addLiquidity","outputs":[],"stateMutability":"payable","type":"function"},{"inputs":[{"internalType":"address","name":"owner","type":"address"},{"internalType":"address","name":"spender","type":"address"}],"name":"allowance","outputs":[{"internalType":"uint256","name":"","type":"uint256"}],"stateMutability":"view","type":"function"},{"inputs":[{"internalType":"address","name":"spender","type":"address"},{"internalType":"uint256","name":"value","type":"uint256"}],"name":"approve","outputs":[{"internalType":"bool","name":"","type":"bool"}],"stateMutability":"nonpayable","type":"function"},{"inputs":[{"internalType":"address","name":"account","type":"address"}],"name":"balanceOf","outputs":[{"internalType":"uint256","name":"","type":"uint256"}],"stateMutability":"view","type":"function"},{"inputs":[],"name":"burnedLP","outputs":[{"internalType":"uint256","name":"","type":"uint256"}],"stateMutability":"view","type":"function"},{"inputs":[],"name":"claimLPFees","outputs":[],"stateMutability":"nonpayable","type":"function"},{"inputs":[],"name":"creator","outputs":[{"internalType":"address","name":"","type":"address"}],"stateMutability":"view","type":"function"},{"inputs":[],"name":"decimals","outputs":[{"internalType":"uint8","name":"","type":"uint8"}],"stateMutability":"view","type":"function"},{"inputs":[],"name":"feeVault","outputs":[{"internalType":"address","name":"","type":"address"}],"stateMutability":"view","type":"function"},{"inputs":[{"internalType":"address","name":"user","type":"address"}],"name":"getLPBalance","outputs":[{"internalType":"uint256","name":"","type":"uint256"}],"stateMutability":"view","type":"function"},{"inputs":[{"internalType":"address","name":"user","type":"address"}],"name":"getLPFeeClaimable","outputs":[{"internalType":"uint256","name":"","type":"uint256"}],"stateMutability":"view","type":"function"},{"inputs":[],"name":"getPoolStats","outputs":[{"internalType":"uint256","name":"tokenReserve_","type":"uint256"},{"internalType":"uint256","name":"usdcReserve_","type":"uint256"},{"internalType":"uint256","name":"totalLPSupply_","type":"uint256"},{"internalType":"uint256","name":"activeLPSupply_","type":"uint256"},{"internalType":"uint256","name":"spotPrice_","type":"uint256"}],"stateMutability":"view","type":"function"},{"inputs":[{"internalType":"address","name":"_token","type":"address"},{"internalType":"address","name":"_feeVault","type":"address"},{"internalType":"address","name":"_creator","type":"address"},{"internalType":"address","name":"_referrer","type":"address"},{"internalType":"uint256","name":"_tokenAmount","type":"uint256"},{"internalType":"uint256","name":"_usdcAmount","type":"uint256"}],"name":"init","outputs":[],"stateMutability":"payable","type":"function"},{"inputs":[{"internalType":"address","name":"","type":"address"}],"name":"lpFeeClaimable","outputs":[{"internalType":"uint256","name":"","type":"uint256"}],"stateMutability":"view","type":"function"},{"inputs":[{"internalType":"address","name":"","type":"address"}],"name":"lpFeeDebt","outputs":[{"internalType":"uint256","name":"","type":"uint256"}],"stateMutability":"view","type":"function"},{"inputs":[],"name":"lpFeePerShareAccumulated","outputs":[{"internalType":"uint256","name":"","type":"uint256"}],"stateMutability":"view","type":"function"},{"inputs":[],"name":"name","outputs":[{"internalType":"string","name":"","type":"string"}],"stateMutability":"view","type":"function"},{"inputs":[],"name":"referrer","outputs":[{"internalType":"address","name":"","type":"address"}],"stateMutability":"view","type":"function"},{"inputs":[{"internalType":"uint256","name":"lpAmount","type":"uint256"},{"internalType":"uint256","name":"minToken","type":"uint256"},{"internalType":"uint256","name":"minUSDC","type":"uint256"},{"internalType":"address","name":"to","type":"address"}],"name":"removeLiquidity","outputs":[],"stateMutability":"nonpayable","type":"function"},{"inputs":[],"name":"spotPrice","outputs":[{"internalType":"uint256","name":"","type":"uint256"}],"stateMutability":"view","type":"function"},{"inputs":[{"internalType":"uint256","name":"tokenOut","type":"uint256"},{"internalType":"uint256","name":"usdcOut","type":"uint256"},{"internalType":"address","name":"to","type":"address"},{"internalType":"uint256","name":"maxIn","type":"uint256"}],"name":"swap","outputs":[],"stateMutability":"payable","type":"function"},{"inputs":[],"name":"symbol","outputs":[{"internalType":"string","name":"","type":"string"}],"stateMutability":"view","type":"function"},{"inputs":[],"name":"token","outputs":[{"internalType":"address","name":"","type":"address"}],"stateMutability":"view","type":"function"},{"inputs":[],"name":"tokenReserve","outputs":[{"internalType":"uint256","name":"","type":"uint256"}],"stateMutability":"view","type":"function"},{"inputs":[],"name":"totalSupply","outputs":[{"internalType":"uint256","name":"","type":"uint256"}],"stateMutability":"view","type":"function"},{"inputs":[{"internalType":"address","name":"to","type":"address"},{"internalType":"uint256","name":"value","type":"uint256"}],"name":"transfer","outputs":[{"internalType":"bool","name":"","type":"bool"}],"stateMutability":"nonpayable","type":"function"},{"inputs":[{"internalType":"address","name":"from","type":"address"},{"internalType":"address","name":"to","type":"address"},{"internalType":"uint256","name":"value","type":"uint256"}],"name":"transferFrom","outputs":[{"internalType":"bool","name":"","type":"bool"}],"stateMutability":"nonpayable","type":"function"},{"inputs":[],"name":"usdcReserve","outputs":[{"internalType":"uint256","name":"","type":"uint256"}],"stateMutability":"view","type":"function"},{"stateMutability":"payable","type":"receive"}],"evm":{"bytecode":{"linkReferences":{},"object":"608060405234801561000f575f80fd5b5060017f9b779b17422d0df92223018b32b4d1fa46e071723d6817e2486d003becc55f0055600a805460ff1916600117905561271d8061004e5f395ff3fe6080604052600436106101d3575f3560e01c806387b21efc116100fd578063cb297e1f11610092578063dd62ed3e11610062578063dd62ed3e146104f9578063e39b0eb514610518578063fbf00e0214610537578063fc0c546a1461054b575f80fd5b8063cb297e1f1461049c578063cbcb3171146104b1578063cc3cbd2a146104c6578063d2258beb146104da575f80fd5b8063a9059cbb116100cd578063a9059cbb14610416578063bbb8518814610435578063be37822814610402578063c816c73914610471575f80fd5b806387b21efc146103c857806395d89b41146103db578063a3cde17d146103ef578063a525821014610402575f80fd5b8063313ce567116101735780636753754511610143578063675375451461036057806368447c93146103755780636a5809cc1461039457806370a08231146103a9575f80fd5b8063313ce567146102e7578063398482d814610302578063478222c21461031657806356dd31db14610335575f80fd5b806318160ddd116101ae57806318160ddd1461026a57806319b3b9f31461029457806323b872dd146102b357806326cfe340146102d2575f80fd5b806302d05d3f146101de57806306fdde031461021a578063095ea7b31461023b575f80fd5b366101da57005b5f80fd5b3480156101e9575f80fd5b506002546101fd906001600160a01b031681565b6040516001600160a01b0390911681526020015b60405180910390f35b348015610225575f80fd5b5061022e610569565b6040516102119190612264565b348015610246575f80fd5b5061025a6102553660046122cb565b610629565b6040519015158152602001610211565b348015610275575f80fd5b505f805160206126a8833981519152545b604051908152602001610211565b34801561029f575f80fd5b506102866102ae3660046122f3565b610642565b3480156102be575f80fd5b5061025a6102cd366004612313565b6106c7565b6102e56102e036600461234c565b6106ea565b005b3480156102f2575f80fd5b5060405160128152602001610211565b34801561030d575f80fd5b506102866108fa565b348015610321575f80fd5b506001546101fd906001600160a01b031681565b348015610340575f80fd5b5061028661034f3660046122f3565b60096020525f908152604090205481565b34801561036b575f80fd5b5061028660075481565b348015610380575f80fd5b506003546101fd906001600160a01b031681565b34801561039f575f80fd5b5061028660055481565b3480156103b4575f80fd5b506102866103c33660046122f3565b610930565b6102e56103d63660046123ae565b610956565b3480156103e6575f80fd5b5061022e610c4e565b6102e56103fd3660046123e0565b610c8c565b34801561040d575f80fd5b50610286601481565b348015610421575f80fd5b5061025a6104303660046122cb565b610d58565b348015610440575f80fd5b50610449610d65565b604080519586526020860194909452928401919091526060830152608082015260a001610211565b34801561047c575f80fd5b5061028661048b3660046122f3565b60086020525f908152604090205481565b3480156104a7575f80fd5b5061028660065481565b3480156104bc575f80fd5b5061028660045481565b3480156104d1575f80fd5b50610286600a81565b3480156104e5575f80fd5b506102866104f43660046122f3565b610dcf565b348015610504575f80fd5b5061028661051336600461241a565b610dd9565b348015610523575f80fd5b506102e561053236600461244b565b610e22565b348015610542575f80fd5b506102e5611113565b348015610556575f80fd5b505f546101fd906001600160a01b031681565b7f52c63247e1f47db19d5ce0460030c497f067ca4cebf71ba98eeadabe20bace0380546060915f80516020612688833981519152916105a790612487565b80601f01602080910402602001604051908101604052809291908181526020018280546105d390612487565b801561061e5780601f106105f55761010080835404028352916020019161061e565b820191905f5260205f20905b81548152906001019060200180831161060157829003601f168201915b505050505091505090565b5f3361063681858561113c565b60019150505b92915050565b5f8061064d83610930565b90505f811561069c576001600160a01b0384165f90815260086020526040902054600754670de0b6b3a76400009061068590856124d3565b61068f91906124fe565b610699919061251d565b90505b6001600160a01b0384165f908152600960205260409020546106bf908290612530565b949350505050565b5f336106d4858285611149565b6106df8585856111a7565b506001949350505050565b600a5460ff16156107425760405162461bcd60e51b815260206004820152601960248201527f506f6f6c3a20616c726561647920696e697469616c697a65640000000000000060448201526064015b60405180910390fd5b600a805460ff191660011790553481146107945760405162461bcd60e51b81526020600482015260136024820152720a0deded87440aaa6888640dad2e6dac2e8c6d606b1b6044820152606401610739565b5f821180156107a257505f81115b6107e25760405162461bcd60e51b8152602060048201526011602482015270141bdbdb0e881e995c9bc8185b5bdd5b9d607a1b6044820152606401610739565b6108276040518060400160405280600881526020016704475756465204c560c41b815250604051806040016040528060038152602001620644c560ec1b815250611204565b5f80546001600160a01b038089166001600160a01b0319928316178355600180548983169084161790556002805488831690841617905560038054918716919092161790556004839055600582905561088861088383856124d3565b61121a565b90505f81116108e35760405162461bcd60e51b815260206004820152602160248201527f506f6f6c3a20696e73756666696369656e742073656564206c697175696469746044820152607960f81b6064820152608401610739565b6108ef61dead8261136d565b600655505050505050565b5f6004545f0361090957505f90565b60045460055461092190670de0b6b3a76400006124d3565b61092b91906124fe565b905090565b6001600160a01b03165f9081525f80516020612688833981519152602052604090205490565b61095e6113a1565b6001600160a01b0381166109845760405162461bcd60e51b815260040161073990612543565b5f8311801561099257505f34115b6109d35760405162461bcd60e51b8152602060048201526012602482015271506f6f6c3a207a65726f20616d6f756e747360701b6044820152606401610739565b5f6109e95f805160206126a88339815191525490565b90505f60045482866109fb91906124d3565b610a0591906124fe565b90505f6005548334610a1791906124d3565b610a2191906124fe565b90505f818310610a315781610a33565b825b905085811015610a765760405162461bcd60e51b815260206004820152600e60248201526d506f6f6c3a20736c69707061676560901b6044820152606401610739565b5f80838511610ab9578891508560018760055486610a9491906124d3565b610a9e9190612530565b610aa8919061251d565b610ab291906124fe565b9050610aef565b3490508560018760045486610ace91906124d3565b610ad89190612530565b610ae2919061251d565b610aec91906124fe565b91505b8160045f828254610b009190612530565b925050819055508060055f828254610b189190612530565b90915550505f54610b34906001600160a01b03163330856113bc565b610b3e878461136d565b5f610b49823461251d565b90508015610bde576040515f90339083908381818185875af1925050503d805f8114610b90576040519150601f19603f3d011682016040523d82523d5f602084013e610b95565b606091505b5050905080610bdc5760405162461bcd60e51b8152602060048201526013602482015272141bdbdb0e881c99599d5b990819985a5b1959606a1b6044820152606401610739565b505b60408051848152602081018490529081018590526001600160a01b0389169033907f4a1a2a6176e9646d9e3157f7c2ab3c499f18337c0b0828cfb28e0a61de4a11f79060600160405180910390a350505050505050610c4960015f805160206126c883398151915255565b505050565b7f52c63247e1f47db19d5ce0460030c497f067ca4cebf71ba98eeadabe20bace0480546060915f80516020612688833981519152916105a790612487565b610c946113a1565b82151584151503610ce75760405162461bcd60e51b815260206004820152601860248201527f506f6f6c3a2065786163746c79206f6e65206f757470757400000000000000006044820152606401610739565b6001600160a01b038216610d0d5760405162461bcd60e51b815260040161073990612543565b5f610d166113f2565b90508415610d2f57610d2a85848484611424565b610d3b565b610d3b848484846116fd565b50610d5260015f805160206126c883398151915255565b50505050565b5f336106368185856111a7565b6004546005545f8080610d835f805160206126a88339815191525490565b925060065483610d93919061251d565b91505f60045411610da4575f610dc6565b600454600554610dbc90670de0b6b3a76400006124d3565b610dc691906124fe565b90509091929394565b5f61063c82610930565b6001600160a01b039182165f9081527f52c63247e1f47db19d5ce0460030c497f067ca4cebf71ba98eeadabe20bace016020908152604080832093909416825291909152205490565b610e2a6113a1565b6001600160a01b038116610e505760405162461bcd60e51b815260040161073990612543565b5f8411610e8f5760405162461bcd60e51b815260206004820152600d60248201526c0506f6f6c3a207a65726f204c5609c1b6044820152606401610739565b83610e9933610930565b1015610edf5760405162461bcd60e51b81526020600482015260156024820152740506f6f6c3a20696e73756666696369656e74204c5605c1b6044820152606401610739565b5f610ef55f805160206126a88339815191525490565b90505f8160045487610f0791906124d3565b610f1191906124fe565b90505f8260055488610f2391906124d3565b610f2d91906124fe565b905085821015610f765760405162461bcd60e51b8152602060048201526014602482015273506f6f6c3a20746f6b656e20736c69707061676560601b6044820152606401610739565b84811015610fbc5760405162461bcd60e51b8152602060048201526013602482015272506f6f6c3a205553444320736c69707061676560681b6044820152606401610739565b610fc533611970565b8160045f828254610fd6919061251d565b925050819055508060055f828254610fee919061251d565b90915550610ffe90503388611ac9565b5f54611014906001600160a01b03168584611afd565b5f846001600160a01b0316826040515f6040518083038185875af1925050503d805f811461105d576040519150601f19603f3d011682016040523d82523d5f602084013e611062565b606091505b50509050806110ab5760405162461bcd60e51b8152602060048201526015602482015274141bdbdb0e881d1c985b9cd9995c8819985a5b1959605a1b6044820152606401610739565b60408051848152602081018490529081018990526001600160a01b0386169033907fbc7d19d505c7ec4db83f3b51f19fb98c4c8a99922e7839d1ee608dfbee29501b9060600160405180910390a350505050610d5260015f805160206126c883398151915255565b61111b6113a1565b61112433611970565b61113a60015f805160206126c883398151915255565b565b610c498383836001611b32565b5f6111548484610dd9565b90505f19811015610d52578181101561119957604051637dc7a0d960e11b81526001600160a01b03841660048201526024810182905260448101839052606401610739565b610d5284848484035f611b32565b6001600160a01b0383166111d057604051634b637e8f60e11b81525f6004820152602401610739565b6001600160a01b0382166111f95760405163ec442f0560e01b81525f6004820152602401610739565b610c49838383611c16565b61120c611d5b565b6112168282611d80565b5050565b5f60018211611227575090565b816001600160801b82106112405760809190911c9060401b5b600160401b82106112565760409190911c9060201b5b640100000000821061126d5760209190911c9060101b5b6201000082106112825760109190911c9060081b5b61010082106112965760089190911c9060041b5b601082106112a95760049190911c9060021b5b600482106112b55760011b5b600302600190811c908185816112cd576112cd6124ea565b048201901c905060018185816112e5576112e56124ea565b048201901c905060018185816112fd576112fd6124ea565b048201901c90506001818581611315576113156124ea565b048201901c9050600181858161132d5761132d6124ea565b048201901c90506001818581611345576113456124ea565b048201901c905061136481858161135e5761135e6124ea565b04821190565b90039392505050565b6001600160a01b0382166113965760405163ec442f0560e01b81525f6004820152602401610739565b6112165f8383611c16565b6113a9611dd0565b60025f805160206126c883398151915255565b6113ca848484846001611dff565b610d5257604051635274afe760e01b81526001600160a01b0385166004820152602401610739565b5f806113fc611e6c565b1161140d5761092b600a6014612530565b601461141a600a82612530565b61092b9190612530565b60045484106114755760405162461bcd60e51b815260206004820181905260248201527f506f6f6c3a20696e73756666696369656e7420746f6b656e20726573657276656044820152606401610739565b5f84600454611484919061251d565b600186600454611494919061251d565b61149e919061251d565b866005546114ac91906124d3565b6114b69190612530565b6114c091906124fe565b90505f6114cf8361271061251d565b60016114dd8561271061251d565b6114e7919061251d565b6114f3612710856124d3565b6114fd9190612530565b61150791906124fe565b90505f611514838361251d565b9050813410156115665760405162461bcd60e51b815260206004820152601c60248201527f506f6f6c3a20696e73756666696369656e7420555344432073656e74000000006044820152606401610739565b848211156115ac5760405162461bcd60e51b81526020600482015260136024820152722837b7b61d1032bc31b2b2b2399036b0bc24b760691b6044820152606401610739565b8660045f8282546115bd919061251d565b925050819055508260055f8282546115d59190612530565b909155506115e590508185611e8f565b5f546115fb906001600160a01b03168789611afd565b5f611606833461251d565b9050801561169b576040515f90339083908381818185875af1925050503d805f811461164d576040519150601f19603f3d011682016040523d82523d5f602084013e611652565b606091505b50509050806116995760405162461bcd60e51b8152602060048201526013602482015272141bdbdb0e881c99599d5b990819985a5b1959606a1b6044820152606401610739565b505b604080515f808252602082018690529181018a905260608101919091526001600160a01b0388169033907fb3e2773606abfd36b5bd91394b3a54d1398336c65005baf7bf7a05efeffaf75b906080015b60405180910390a35050505050505050565b5f61170a8261271061251d565b60016117188461271061251d565b611722919061251d565b61172e612710886124d3565b6117389190612530565b61174291906124fe565b90505f61174f868361251d565b90506005548211156117a35760405162461bcd60e51b815260206004820152601f60248201527f506f6f6c3a20696e73756666696369656e7420555344432072657365727665006044820152606401610739565b5f826005546117b2919061251d565b6001846005546117c2919061251d565b6117cc919061251d565b846004546117da91906124d3565b6117e49190612530565b6117ee91906124fe565b9050848111156118365760405162461bcd60e51b81526020600482015260136024820152722837b7b61d1032bc31b2b2b2399036b0bc24b760691b6044820152606401610739565b8060045f8282546118479190612530565b925050819055508260055f82825461185f919061251d565b90915550505f5461187b906001600160a01b03163330846113bc565b6118858285611e8f565b5f866001600160a01b0316886040515f6040518083038185875af1925050503d805f81146118ce576040519150601f19603f3d011682016040523d82523d5f602084013e6118d3565b606091505b505090508061191c5760405162461bcd60e51b8152602060048201526015602482015274141bdbdb0e881d1c985b9cd9995c8819985a5b1959605a1b6044820152606401610739565b604080518381525f6020820181905291810191909152606081018990526001600160a01b0388169033907fb3e2773606abfd36b5bd91394b3a54d1398336c65005baf7bf7a05efeffaf75b906080016116eb565b61197981611ffa565b670de0b6b3a764000060075461198e83610930565b61199891906124d3565b6119a291906124fe565b6001600160a01b0382165f908152600860209081526040808320939093556009905290812054908190036119d4575050565b6001600160a01b0382165f818152600960205260408082208290555190919083908381818185875af1925050503d805f8114611a2b576040519150601f19603f3d011682016040523d82523d5f602084013e611a30565b606091505b5050905080611a815760405162461bcd60e51b815260206004820152601960248201527f506f6f6c3a20666565207472616e73666572206661696c6564000000000000006044820152606401610739565b826001600160a01b03167fa44a9f1035049a2fc551576c292269e70bc3914ea6aa00c51fcc2043c979f32783604051611abc91815260200190565b60405180910390a2505050565b6001600160a01b038216611af257604051634b637e8f60e11b81525f6004820152602401610739565b611216825f83611c16565b611b0a8383836001612088565b610c4957604051635274afe760e01b81526001600160a01b0384166004820152602401610739565b5f805160206126888339815191526001600160a01b038516611b695760405163e602df0560e01b81525f6004820152602401610739565b6001600160a01b038416611b9257604051634a1406b160e11b81525f6004820152602401610739565b6001600160a01b038086165f90815260018301602090815260408083209388168352929052208390558115611c0f57836001600160a01b0316856001600160a01b03167f8c5be1e5ebec7d5bd14f71427d1e84f3dd0314c0f7b2291e5b200ac8c7c3b92585604051611c0691815260200190565b60405180910390a35b5050505050565b6001600160a01b03831615801590611c3957506001600160a01b03831661dead14155b15611c4757611c4783611ffa565b6001600160a01b03821615801590611c6a57506001600160a01b03821661dead14155b15611c7857611c7882611ffa565b611c838383836120ea565b6001600160a01b03831615801590611ca657506001600160a01b03831661dead14155b15611ced57670de0b6b3a7640000600754611cc085610930565b611cca91906124d3565b611cd491906124fe565b6001600160a01b0384165f908152600860205260409020555b6001600160a01b03821615801590611d1057506001600160a01b03821661dead14155b15610c4957670de0b6b3a7640000600754611d2a84610930565b611d3491906124d3565b611d3e91906124fe565b6001600160a01b0383165f90815260086020526040902055505050565b611d63612223565b61113a57604051631afcd79f60e31b815260040160405180910390fd5b611d88611d5b565b5f805160206126888339815191527f52c63247e1f47db19d5ce0460030c497f067ca4cebf71ba98eeadabe20bace03611dc184826125c7565b5060048101610d5283826125c7565b5f805160206126c88339815191525460020361113a57604051633ee5aeb560e01b815260040160405180910390fd5b6040516323b872dd60e01b5f8181526001600160a01b038781166004528616602452604485905291602083606481808c5af1925060015f51148316611e5b578383151615611e4f573d5f823e3d81fd5b5f883b113d1516831692505b604052505f60605295945050505050565b5f600654611e855f805160206126a88339815191525490565b61092b919061251d565b815f03611e9a575050565b5f611ea3611e6c565b90505f80808315611efa5784611eba6014886124d3565b611ec491906124fe565b925084611ed2600a886124d3565b611edc91906124fe565b915081611ee9848861251d565b611ef3919061251d565b9050611f1f565b84611f066014886124d3565b611f1091906124fe565b9250611f1c838761251d565b91505b5f611f2a8385612530565b90508015611fab57600154600254600354604051630487d84b60e21b81526001600160a01b0392831660048201529082166024820152604481018790526064810186905291169063121f612c9083906084015f604051808303818588803b158015611f93575f80fd5b505af1158015611fa5573d5f803e3d5ffd5b50505050505b5f82118015611fb957505f85115b15611ff15784611fd1670de0b6b3a7640000846124d3565b611fdb91906124fe565b60075f828254611feb9190612530565b90915550505b50505050505050565b5f61200482610930565b90508015611216576001600160a01b0382165f90815260086020526040812054600754670de0b6b3a76400009061203b90856124d3565b61204591906124fe565b61204f919061251d565b90508015610c49576001600160a01b0383165f908152600960205260408120805483929061207e908490612530565b9091555050505050565b60405163a9059cbb60e01b5f8181526001600160a01b038616600452602485905291602083604481808b5af1925060015f511483166120de5783831516156120d2573d5f823e3d81fd5b5f873b113d1516831692505b60405250949350505050565b5f805160206126888339815191526001600160a01b0384166121245781816002015f8282546121199190612530565b909155506121949050565b6001600160a01b0384165f90815260208290526040902054828110156121765760405163391434e360e21b81526001600160a01b03861660048201526024810182905260448101849052606401610739565b6001600160a01b0385165f9081526020839052604090209083900390555b6001600160a01b0383166121b25760028101805483900390556121d0565b6001600160a01b0383165f9081526020829052604090208054830190555b826001600160a01b0316846001600160a01b03167fddf252ad1be2c89b69c2b068fc378daa952ba7f163c4a11628f55a4df523b3ef8460405161221591815260200190565b60405180910390a350505050565b5f61222c61223c565b54600160401b900460ff16919050565b5f807ff0c57e16840df040f15088dc2f81fe391c3923bec73e23a9662efc9c229c6a0061063c565b5f602080835283518060208501525f5b8181101561229057858101830151858201604001528201612274565b505f604082860101526040601f19601f8301168501019250505092915050565b80356001600160a01b03811681146122c6575f80fd5b919050565b5f80604083850312156122dc575f80fd5b6122e5836122b0565b946020939093013593505050565b5f60208284031215612303575f80fd5b61230c826122b0565b9392505050565b5f805f60608486031215612325575f80fd5b61232e846122b0565b925061233c602085016122b0565b9150604084013590509250925092565b5f805f805f8060c08789031215612361575f80fd5b61236a876122b0565b9550612378602088016122b0565b9450612386604088016122b0565b9350612394606088016122b0565b92506080870135915060a087013590509295509295509295565b5f805f606084860312156123c0575f80fd5b83359250602084013591506123d7604085016122b0565b90509250925092565b5f805f80608085870312156123f3575f80fd5b843593506020850135925061240a604086016122b0565b9396929550929360600135925050565b5f806040838503121561242b575f80fd5b612434836122b0565b9150612442602084016122b0565b90509250929050565b5f805f806080858703121561245e575f80fd5b84359350602085013592506040850135915061247c606086016122b0565b905092959194509250565b600181811c9082168061249b57607f821691505b6020821081036124b957634e487b7160e01b5f52602260045260245ffd5b50919050565b634e487b7160e01b5f52601160045260245ffd5b808202811582820484141761063c5761063c6124bf565b634e487b7160e01b5f52601260045260245ffd5b5f8261251857634e487b7160e01b5f52601260045260245ffd5b500490565b8181038181111561063c5761063c6124bf565b8082018082111561063c5761063c6124bf565b602080825260129082015271506f6f6c3a207a65726f206164647265737360701b604082015260600190565b634e487b7160e01b5f52604160045260245ffd5b601f821115610c4957805f5260205f20601f840160051c810160208510156125a85750805b601f840160051c820191505b81811015611c0f575f81556001016125b4565b815167ffffffffffffffff8111156125e1576125e161256f565b6125f5816125ef8454612487565b84612583565b602080601f831160018114612628575f84156126115750858301515b5f19600386901b1c1916600185901b17855561267f565b5f85815260208120601f198616915b8281101561265657888601518255948401946001909101908401612637565b508582101561267357878501515f19600388901b60f8161c191681555b505060018460011b0185555b50505050505056fe52c63247e1f47db19d5ce0460030c497f067ca4cebf71ba98eeadabe20bace0052c63247e1f47db19d5ce0460030c497f067ca4cebf71ba98eeadabe20bace029b779b17422d0df92223018b32b4d1fa46e071723d6817e2486d003becc55f00a26469706673582212203cb66566d27844cd58d2937bab5591463edc73c8fc2d1b53f483b9d1399085c264736f6c63430008180033","opcodes":"PUSH1 0x80 PUSH1 0x40 MSTORE CALLVALUE DUP1 ISZERO PUSH2 0xF JUMPI PUSH0 DUP1 REVERT JUMPDEST POP PUSH1 0x1 PUSH32 0x9B779B17422D0DF92223018B32B4D1FA46E071723D6817E2486D003BECC55F00 SSTORE PUSH1 0xA DUP1 SLOAD PUSH1 0xFF NOT AND PUSH1 0x1 OR SWAP1 SSTORE PUSH2 0x271D DUP1 PUSH2 0x4E PUSH0 CODECOPY PUSH0 RETURN INVALID PUSH1 0x80 PUSH1 0x40 MSTORE PUSH1 0x4 CALLDATASIZE LT PUSH2 0x1D3 JUMPI PUSH0 CALLDATALOAD PUSH1 0xE0 SHR DUP1 PUSH4 0x87B21EFC GT PUSH2 0xFD JUMPI DUP1 PUSH4 0xCB297E1F GT PUSH2 0x92 JUMPI DUP1 PUSH4 0xDD62ED3E GT PUSH2 0x62 JUMPI DUP1 PUSH4 0xDD62ED3E EQ PUSH2 0x4F9 JUMPI DUP1 PUSH4 0xE39B0EB5 EQ PUSH2 0x518 JUMPI DUP1 PUSH4 0xFBF00E02 EQ PUSH2 0x537 JUMPI DUP1 PUSH4 0xFC0C546A EQ PUSH2 0x54B JUMPI PUSH0 DUP1 REVERT JUMPDEST DUP1 PUSH4 0xCB297E1F EQ PUSH2 0x49C JUMPI DUP1 PUSH4 0xCBCB3171 EQ PUSH2 0x4B1 JUMPI DUP1 PUSH4 0xCC3CBD2A EQ PUSH2 0x4C6 JUMPI DUP1 PUSH4 0xD2258BEB EQ PUSH2 0x4DA JUMPI PUSH0 DUP1 REVERT JUMPDEST DUP1 PUSH4 0xA9059CBB GT PUSH2 0xCD JUMPI DUP1 PUSH4 0xA9059CBB EQ PUSH2 0x416 JUMPI DUP1 PUSH4 0xBBB85188 EQ PUSH2 0x435 JUMPI DUP1 PUSH4 0xBE378228 EQ PUSH2 0x402 JUMPI DUP1 PUSH4 0xC816C739 EQ PUSH2 0x471 JUMPI PUSH0 DUP1 REVERT JUMPDEST DUP1 PUSH4 0x87B21EFC EQ PUSH2 0x3C8 JUMPI DUP1 PUSH4 0x95D89B41 EQ PUSH2 0x3DB JUMPI DUP1 PUSH4 0xA3CDE17D EQ PUSH2 0x3EF JUMPI DUP1 PUSH4 0xA5258210 EQ PUSH2 0x402 JUMPI PUSH0 DUP1 REVERT JUMPDEST DUP1 PUSH4 0x313CE567 GT PUSH2 0x173 JUMPI DUP1 PUSH4 0x67537545 GT PUSH2 0x143 JUMPI DUP1 PUSH4 0x67537545 EQ PUSH2 0x360 JUMPI DUP1 PUSH4 0x68447C93 EQ PUSH2 0x375 JUMPI DUP1 PUSH4 0x6A5809CC EQ PUSH2 0x394 JUMPI DUP1 PUSH4 0x70A08231 EQ PUSH2 0x3A9 JUMPI PUSH0 DUP1 REVERT JUMPDEST DUP1 PUSH4 0x313CE567 EQ PUSH2 0x2E7 JUMPI DUP1 PUSH4 0x398482D8 EQ PUSH2 0x302 JUMPI DUP1 PUSH4 0x478222C2 EQ PUSH2 0x316 JUMPI DUP1 PUSH4 0x56DD31DB EQ PUSH2 0x335 JUMPI PUSH0 DUP1 REVERT JUMPDEST DUP1 PUSH4 0x18160DDD GT PUSH2 0x1AE JUMPI DUP1 PUSH4 0x18160DDD EQ PUSH2 0x26A JUMPI DUP1 PUSH4 0x19B3B9F3 EQ PUSH2 0x294 JUMPI DUP1 PUSH4 0x23B872DD EQ PUSH2 0x2B3 JUMPI DUP1 PUSH4 0x26CFE340 EQ PUSH2 0x2D2 JUMPI PUSH0 DUP1 REVERT JUMPDEST DUP1 PUSH4 0x2D05D3F EQ PUSH2 0x1DE JUMPI DUP1 PUSH4 0x6FDDE03 EQ PUSH2 0x21A JUMPI DUP1 PUSH4 0x95EA7B3 EQ PUSH2 0x23B JUMPI PUSH0 DUP1 REVERT JUMPDEST CALLDATASIZE PUSH2 0x1DA JUMPI STOP JUMPDEST PUSH0 DUP1 REVERT JUMPDEST CALLVALUE DUP1 ISZERO PUSH2 0x1E9 JUMPI PUSH0 DUP1 REVERT JUMPDEST POP PUSH1 0x2 SLOAD PUSH2 0x1FD SWAP1 PUSH1 0x1 PUSH1 0x1 PUSH1 0xA0 SHL SUB AND DUP2 JUMP JUMPDEST PUSH1 0x40 MLOAD PUSH1 0x1 PUSH1 0x1 PUSH1 0xA0 SHL SUB SWAP1 SWAP2 AND DUP2 MSTORE PUSH1 0x20 ADD JUMPDEST PUSH1 0x40 MLOAD DUP1 SWAP2 SUB SWAP1 RETURN JUMPDEST CALLVALUE DUP1 ISZERO PUSH2 0x225 JUMPI PUSH0 DUP1 REVERT JUMPDEST POP PUSH2 0x22E PUSH2 0x569 JUMP JUMPDEST PUSH1 0x40 MLOAD PUSH2 0x211 SWAP2 SWAP1 PUSH2 0x2264 JUMP JUMPDEST CALLVALUE DUP1 ISZERO PUSH2 0x246 JUMPI PUSH0 DUP1 REVERT JUMPDEST POP PUSH2 0x25A PUSH2 0x255 CALLDATASIZE PUSH1 0x4 PUSH2 0x22CB JUMP JUMPDEST PUSH2 0x629 JUMP JUMPDEST PUSH1 0x40 MLOAD SWAP1 ISZERO ISZERO DUP2 MSTORE PUSH1 0x20 ADD PUSH2 0x211 JUMP JUMPDEST CALLVALUE DUP1 ISZERO PUSH2 0x275 JUMPI PUSH0 DUP1 REVERT JUMPDEST POP PUSH0 DUP1 MLOAD PUSH1 0x20 PUSH2 0x26A8 DUP4 CODECOPY DUP2 MLOAD SWAP2 MSTORE SLOAD JUMPDEST PUSH1 0x40 MLOAD SWAP1 DUP2 MSTORE PUSH1 0x20 ADD PUSH2 0x211 JUMP JUMPDEST CALLVALUE DUP1 ISZERO PUSH2 0x29F JUMPI PUSH0 DUP1 REVERT JUMPDEST POP PUSH2 0x286 PUSH2 0x2AE CALLDATASIZE PUSH1 0x4 PUSH2 0x22F3 JUMP JUMPDEST PUSH2 0x642 JUMP JUMPDEST CALLVALUE DUP1 ISZERO PUSH2 0x2BE JUMPI PUSH0 DUP1 REVERT JUMPDEST POP PUSH2 0x25A PUSH2 0x2CD CALLDATASIZE PUSH1 0x4 PUSH2 0x2313 JUMP JUMPDEST PUSH2 0x6C7 JUMP JUMPDEST PUSH2 0x2E5 PUSH2 0x2E0 CALLDATASIZE PUSH1 0x4 PUSH2 0x234C JUMP JUMPDEST PUSH2 0x6EA JUMP JUMPDEST STOP JUMPDEST CALLVALUE DUP1 ISZERO PUSH2 0x2F2 JUMPI PUSH0 DUP1 REVERT JUMPDEST POP PUSH1 0x40 MLOAD PUSH1 0x12 DUP2 MSTORE PUSH1 0x20 ADD PUSH2 0x211 JUMP JUMPDEST CALLVALUE DUP1 ISZERO PUSH2 0x30D JUMPI PUSH0 DUP1 REVERT JUMPDEST POP PUSH2 0x286 PUSH2 0x8FA JUMP JUMPDEST CALLVALUE DUP1 ISZERO PUSH2 0x321 JUMPI PUSH0 DUP1 REVERT JUMPDEST POP PUSH1 0x1 SLOAD PUSH2 0x1FD SWAP1 PUSH1 0x1 PUSH1 0x1 PUSH1 0xA0 SHL SUB AND DUP2 JUMP JUMPDEST CALLVALUE DUP1 ISZERO PUSH2 0x340 JUMPI PUSH0 DUP1 REVERT JUMPDEST POP PUSH2 0x286 PUSH2 0x34F CALLDATASIZE PUSH1 0x4 PUSH2 0x22F3 JUMP JUMPDEST PUSH1 0x9 PUSH1 0x20 MSTORE PUSH0 SWAP1 DUP2 MSTORE PUSH1 0x40 SWAP1 KECCAK256 SLOAD DUP2 JUMP JUMPDEST CALLVALUE DUP1 ISZERO PUSH2 0x36B JUMPI PUSH0 DUP1 REVERT JUMPDEST POP PUSH2 0x286 PUSH1 0x7 SLOAD DUP2 JUMP JUMPDEST CALLVALUE DUP1 ISZERO PUSH2 0x380 JUMPI PUSH0 DUP1 REVERT JUMPDEST POP PUSH1 0x3 SLOAD PUSH2 0x1FD SWAP1 PUSH1 0x1 PUSH1 0x1 PUSH1 0xA0 SHL SUB AND DUP2 JUMP JUMPDEST CALLVALUE DUP1 ISZERO PUSH2 0x39F JUMPI PUSH0 DUP1 REVERT JUMPDEST POP PUSH2 0x286 PUSH1 0x5 SLOAD DUP2 JUMP JUMPDEST CALLVALUE DUP1 ISZERO PUSH2 0x3B4 JUMPI PUSH0 DUP1 REVERT JUMPDEST POP PUSH2 0x286 PUSH2 0x3C3 CALLDATASIZE PUSH1 0x4 PUSH2 0x22F3 JUMP JUMPDEST PUSH2 0x930 JUMP JUMPDEST PUSH2 0x2E5 PUSH2 0x3D6 CALLDATASIZE PUSH1 0x4 PUSH2 0x23AE JUMP JUMPDEST PUSH2 0x956 JUMP JUMPDEST CALLVALUE DUP1 ISZERO PUSH2 0x3E6 JUMPI PUSH0 DUP1 REVERT JUMPDEST POP PUSH2 0x22E PUSH2 0xC4E JUMP JUMPDEST PUSH2 0x2E5 PUSH2 0x3FD CALLDATASIZE PUSH1 0x4 PUSH2 0x23E0 JUMP JUMPDEST PUSH2 0xC8C JUMP JUMPDEST CALLVALUE DUP1 ISZERO PUSH2 0x40D JUMPI PUSH0 DUP1 REVERT JUMPDEST POP PUSH2 0x286 PUSH1 0x14 DUP2 JUMP JUMPDEST CALLVALUE DUP1 ISZERO PUSH2 0x421 JUMPI PUSH0 DUP1 REVERT JUMPDEST POP PUSH2 0x25A PUSH2 0x430 CALLDATASIZE PUSH1 0x4 PUSH2 0x22CB JUMP JUMPDEST PUSH2 0xD58 JUMP JUMPDEST CALLVALUE DUP1 ISZERO PUSH2 0x440 JUMPI PUSH0 DUP1 REVERT JUMPDEST POP PUSH2 0x449 PUSH2 0xD65 JUMP JUMPDEST PUSH1 0x40 DUP1 MLOAD SWAP6 DUP7 MSTORE PUSH1 0x20 DUP7 ADD SWAP5 SWAP1 SWAP5 MSTORE SWAP3 DUP5 ADD SWAP2 SWAP1 SWAP2 MSTORE PUSH1 0x60 DUP4 ADD MSTORE PUSH1 0x80 DUP3 ADD MSTORE PUSH1 0xA0 ADD PUSH2 0x211 JUMP JUMPDEST CALLVALUE DUP1 ISZERO PUSH2 0x47C JUMPI PUSH0 DUP1 REVERT JUMPDEST POP PUSH2 0x286 PUSH2 0x48B CALLDATASIZE PUSH1 0x4 PUSH2 0x22F3 JUMP JUMPDEST PUSH1 0x8 PUSH1 0x20 MSTORE PUSH0 SWAP1 DUP2 MSTORE PUSH1 0x40 SWAP1 KECCAK256 SLOAD DUP2 JUMP JUMPDEST CALLVALUE DUP1 ISZERO PUSH2 0x4A7 JUMPI PUSH0 DUP1 REVERT JUMPDEST POP PUSH2 0x286 PUSH1 0x6 SLOAD DUP2 JUMP JUMPDEST CALLVALUE DUP1 ISZERO PUSH2 0x4BC JUMPI PUSH0 DUP1 REVERT JUMPDEST POP PUSH2 0x286 PUSH1 0x4 SLOAD DUP2 JUMP JUMPDEST CALLVALUE DUP1 ISZERO PUSH2 0x4D1 JUMPI PUSH0 DUP1 REVERT JUMPDEST POP PUSH2 0x286 PUSH1 0xA DUP2 JUMP JUMPDEST CALLVALUE DUP1 ISZERO PUSH2 0x4E5 JUMPI PUSH0 DUP1 REVERT JUMPDEST POP PUSH2 0x286 PUSH2 0x4F4 CALLDATASIZE PUSH1 0x4 PUSH2 0x22F3 JUMP JUMPDEST PUSH2 0xDCF JUMP JUMPDEST CALLVALUE DUP1 ISZERO PUSH2 0x504 JUMPI PUSH0 DUP1 REVERT JUMPDEST POP PUSH2 0x286 PUSH2 0x513 CALLDATASIZE PUSH1 0x4 PUSH2 0x241A JUMP JUMPDEST PUSH2 0xDD9 JUMP JUMPDEST CALLVALUE DUP1 ISZERO PUSH2 0x523 JUMPI PUSH0 DUP1 REVERT JUMPDEST POP PUSH2 0x2E5 PUSH2 0x532 CALLDATASIZE PUSH1 0x4 PUSH2 0x244B JUMP JUMPDEST PUSH2 0xE22 JUMP JUMPDEST CALLVALUE DUP1 ISZERO PUSH2 0x542 JUMPI PUSH0 DUP1 REVERT JUMPDEST POP PUSH2 0x2E5 PUSH2 0x1113 JUMP JUMPDEST CALLVALUE DUP1 ISZERO PUSH2 0x556 JUMPI PUSH0 DUP1 REVERT JUMPDEST POP PUSH0 SLOAD PUSH2 0x1FD SWAP1 PUSH1 0x1 PUSH1 0x1 PUSH1 0xA0 SHL SUB AND DUP2 JUMP JUMPDEST PUSH32 0x52C63247E1F47DB19D5CE0460030C497F067CA4CEBF71BA98EEADABE20BACE03 DUP1 SLOAD PUSH1 0x60 SWAP2 PUSH0 DUP1 MLOAD PUSH1 0x20 PUSH2 0x2688 DUP4 CODECOPY DUP2 MLOAD SWAP2 MSTORE SWAP2 PUSH2 0x5A7 SWAP1 PUSH2 0x2487 JUMP JUMPDEST DUP1 PUSH1 0x1F ADD PUSH1 0x20 DUP1 SWAP2 DIV MUL PUSH1 0x20 ADD PUSH1 0x40 MLOAD SWAP1 DUP2 ADD PUSH1 0x40 MSTORE DUP1 SWAP3 SWAP2 SWAP1 DUP2 DUP2 MSTORE PUSH1 0x20 ADD DUP3 DUP1 SLOAD PUSH2 0x5D3 SWAP1 PUSH2 0x2487 JUMP JUMPDEST DUP1 ISZERO PUSH2 0x61E JUMPI DUP1 PUSH1 0x1F LT PUSH2 0x5F5 JUMPI PUSH2 0x100 DUP1 DUP4 SLOAD DIV MUL DUP4 MSTORE SWAP2 PUSH1 0x20 ADD SWAP2 PUSH2 0x61E JUMP JUMPDEST DUP3 ADD SWAP2 SWAP1 PUSH0 MSTORE PUSH1 0x20 PUSH0 KECCAK256 SWAP1 JUMPDEST DUP2 SLOAD DUP2 MSTORE SWAP1 PUSH1 0x1 ADD SWAP1 PUSH1 0x20 ADD DUP1 DUP4 GT PUSH2 0x601 JUMPI DUP3 SWAP1 SUB PUSH1 0x1F AND DUP3 ADD SWAP2 JUMPDEST POP POP POP POP POP SWAP2 POP POP SWAP1 JUMP JUMPDEST PUSH0 CALLER PUSH2 0x636 DUP2 DUP6 DUP6 PUSH2 0x113C JUMP JUMPDEST PUSH1 0x1 SWAP2 POP POP JUMPDEST SWAP3 SWAP2 POP POP JUMP JUMPDEST PUSH0 DUP1 PUSH2 0x64D DUP4 PUSH2 0x930 JUMP JUMPDEST SWAP1 POP PUSH0 DUP2 ISZERO PUSH2 0x69C JUMPI PUSH1 0x1 PUSH1 0x1 PUSH1 0xA0 SHL SUB DUP5 AND PUSH0 SWAP1 DUP2 MSTORE PUSH1 0x8 PUSH1 0x20 MSTORE PUSH1 0x40 SWAP1 KECCAK256 SLOAD PUSH1 0x7 SLOAD PUSH8 0xDE0B6B3A7640000 SWAP1 PUSH2 0x685 SWAP1 DUP6 PUSH2 0x24D3 JUMP JUMPDEST PUSH2 0x68F SWAP2 SWAP1 PUSH2 0x24FE JUMP JUMPDEST PUSH2 0x699 SWAP2 SWAP1 PUSH2 0x251D JUMP JUMPDEST SWAP1 POP JUMPDEST PUSH1 0x1 PUSH1 0x1 PUSH1 0xA0 SHL SUB DUP5 AND PUSH0 SWAP1 DUP2 MSTORE PUSH1 0x9 PUSH1 0x20 MSTORE PUSH1 0x40 SWAP1 KECCAK256 SLOAD PUSH2 0x6BF SWAP1 DUP3 SWAP1 PUSH2 0x2530 JUMP JUMPDEST SWAP5 SWAP4 POP POP POP POP JUMP JUMPDEST PUSH0 CALLER PUSH2 0x6D4 DUP6 DUP3 DUP6 PUSH2 0x1149 JUMP JUMPDEST PUSH2 0x6DF DUP6 DUP6 DUP6 PUSH2 0x11A7 JUMP JUMPDEST POP PUSH1 0x1 SWAP5 SWAP4 POP POP POP POP JUMP JUMPDEST PUSH1 0xA SLOAD PUSH1 0xFF AND ISZERO PUSH2 0x742 JUMPI PUSH1 0x40 MLOAD PUSH3 0x461BCD PUSH1 0xE5 SHL DUP2 MSTORE PUSH1 0x20 PUSH1 0x4 DUP3 ADD MSTORE PUSH1 0x19 PUSH1 0x24 DUP3 ADD MSTORE PUSH32 0x506F6F6C3A20616C726561647920696E697469616C697A656400000000000000 PUSH1 0x44 DUP3 ADD MSTORE PUSH1 0x64 ADD JUMPDEST PUSH1 0x40 MLOAD DUP1 SWAP2 SUB SWAP1 REVERT JUMPDEST PUSH1 0xA DUP1 SLOAD PUSH1 0xFF NOT AND PUSH1 0x1 OR SWAP1 SSTORE CALLVALUE DUP2 EQ PUSH2 0x794 JUMPI PUSH1 0x40 MLOAD PUSH3 0x461BCD PUSH1 0xE5 SHL DUP2 MSTORE PUSH1 0x20 PUSH1 0x4 DUP3 ADD MSTORE PUSH1 0x13 PUSH1 0x24 DUP3 ADD MSTORE PUSH19 0xA0DEDED87440AAA6888640DAD2E6DAC2E8C6D PUSH1 0x6B SHL PUSH1 0x44 DUP3 ADD MSTORE PUSH1 0x64 ADD PUSH2 0x739 JUMP JUMPDEST PUSH0 DUP3 GT DUP1 ISZERO PUSH2 0x7A2 JUMPI POP PUSH0 DUP2 GT JUMPDEST PUSH2 0x7E2 JUMPI PUSH1 0x40 MLOAD PUSH3 0x461BCD PUSH1 0xE5 SHL DUP2 MSTORE PUSH1 0x20 PUSH1 0x4 DUP3 ADD MSTORE PUSH1 0x11 PUSH1 0x24 DUP3 ADD MSTORE PUSH17 0x141BDBDB0E881E995C9BC8185B5BDD5B9D PUSH1 0x7A SHL PUSH1 0x44 DUP3 ADD MSTORE PUSH1 0x64 ADD PUSH2 0x739 JUMP JUMPDEST PUSH2 0x827 PUSH1 0x40 MLOAD DUP1 PUSH1 0x40 ADD PUSH1 0x40 MSTORE DUP1 PUSH1 0x8 DUP2 MSTORE PUSH1 0x20 ADD PUSH8 0x4475756465204C5 PUSH1 0xC4 SHL DUP2 MSTORE POP PUSH1 0x40 MLOAD DUP1 PUSH1 0x40 ADD PUSH1 0x40 MSTORE DUP1 PUSH1 0x3 DUP2 MSTORE PUSH1 0x20 ADD PUSH3 0x644C5 PUSH1 0xEC SHL DUP2 MSTORE POP PUSH2 0x1204 JUMP JUMPDEST PUSH0 DUP1 SLOAD PUSH1 0x1 PUSH1 0x1 PUSH1 0xA0 SHL SUB DUP1 DUP10 AND PUSH1 0x1 PUSH1 0x1 PUSH1 0xA0 SHL SUB NOT SWAP3 DUP4 AND OR DUP4 SSTORE PUSH1 0x1 DUP1 SLOAD DUP10 DUP4 AND SWAP1 DUP5 AND OR SWAP1 SSTORE PUSH1 0x2 DUP1 SLOAD DUP9 DUP4 AND SWAP1 DUP5 AND OR SWAP1 SSTORE PUSH1 0x3 DUP1 SLOAD SWAP2 DUP8 AND SWAP2 SWAP1 SWAP3 AND OR SWAP1 SSTORE PUSH1 0x4 DUP4 SWAP1 SSTORE PUSH1 0x5 DUP3 SWAP1 SSTORE PUSH2 0x888 PUSH2 0x883 DUP4 DUP6 PUSH2 0x24D3 JUMP JUMPDEST PUSH2 0x121A JUMP JUMPDEST SWAP1 POP PUSH0 DUP2 GT PUSH2 0x8E3 JUMPI PUSH1 0x40 MLOAD PUSH3 0x461BCD PUSH1 0xE5 SHL DUP2 MSTORE PUSH1 0x20 PUSH1 0x4 DUP3 ADD MSTORE PUSH1 0x21 PUSH1 0x24 DUP3 ADD MSTORE PUSH32 0x506F6F6C3A20696E73756666696369656E742073656564206C69717569646974 PUSH1 0x44 DUP3 ADD MSTORE PUSH1 0x79 PUSH1 0xF8 SHL PUSH1 0x64 DUP3 ADD MSTORE PUSH1 0x84 ADD PUSH2 0x739 JUMP JUMPDEST PUSH2 0x8EF PUSH2 0xDEAD DUP3 PUSH2 0x136D JUMP JUMPDEST PUSH1 0x6 SSTORE POP POP POP POP POP POP JUMP JUMPDEST PUSH0 PUSH1 0x4 SLOAD PUSH0 SUB PUSH2 0x909 JUMPI POP PUSH0 SWAP1 JUMP JUMPDEST PUSH1 0x4 SLOAD PUSH1 0x5 SLOAD PUSH2 0x921 SWAP1 PUSH8 0xDE0B6B3A7640000 PUSH2 0x24D3 JUMP JUMPDEST PUSH2 0x92B SWAP2 SWAP1 PUSH2 0x24FE JUMP JUMPDEST SWAP1 POP SWAP1 JUMP JUMPDEST PUSH1 0x1 PUSH1 0x1 PUSH1 0xA0 SHL SUB AND PUSH0 SWAP1 DUP2 MSTORE PUSH0 DUP1 MLOAD PUSH1 0x20 PUSH2 0x2688 DUP4 CODECOPY DUP2 MLOAD SWAP2 MSTORE PUSH1 0x20 MSTORE PUSH1 0x40 SWAP1 KECCAK256 SLOAD SWAP1 JUMP JUMPDEST PUSH2 0x95E PUSH2 0x13A1 JUMP JUMPDEST PUSH1 0x1 PUSH1 0x1 PUSH1 0xA0 SHL SUB DUP2 AND PUSH2 0x984 JUMPI PUSH1 0x40 MLOAD PUSH3 0x461BCD PUSH1 0xE5 SHL DUP2 MSTORE PUSH1 0x4 ADD PUSH2 0x739 SWAP1 PUSH2 0x2543 JUMP JUMPDEST PUSH0 DUP4 GT DUP1 ISZERO PUSH2 0x992 JUMPI POP PUSH0 CALLVALUE GT JUMPDEST PUSH2 0x9D3 JUMPI PUSH1 0x40 MLOAD PUSH3 0x461BCD PUSH1 0xE5 SHL DUP2 MSTORE PUSH1 0x20 PUSH1 0x4 DUP3 ADD MSTORE PUSH1 0x12 PUSH1 0x24 DUP3 ADD MSTORE PUSH18 0x506F6F6C3A207A65726F20616D6F756E7473 PUSH1 0x70 SHL PUSH1 0x44 DUP3 ADD MSTORE PUSH1 0x64 ADD PUSH2 0x739 JUMP JUMPDEST PUSH0 PUSH2 0x9E9 PUSH0 DUP1 MLOAD PUSH1 0x20 PUSH2 0x26A8 DUP4 CODECOPY DUP2 MLOAD SWAP2 MSTORE SLOAD SWAP1 JUMP JUMPDEST SWAP1 POP PUSH0 PUSH1 0x4 SLOAD DUP3 DUP7 PUSH2 0x9FB SWAP2 SWAP1 PUSH2 0x24D3 JUMP JUMPDEST PUSH2 0xA05 SWAP2 SWAP1 PUSH2 0x24FE JUMP JUMPDEST SWAP1 POP PUSH0 PUSH1 0x5 SLOAD DUP4 CALLVALUE PUSH2 0xA17 SWAP2 SWAP1 PUSH2 0x24D3 JUMP JUMPDEST PUSH2 0xA21 SWAP2 SWAP1 PUSH2 0x24FE JUMP JUMPDEST SWAP1 POP PUSH0 DUP2 DUP4 LT PUSH2 0xA31 JUMPI DUP2 PUSH2 0xA33 JUMP JUMPDEST DUP3 JUMPDEST SWAP1 POP DUP6 DUP2 LT ISZERO PUSH2 0xA76 JUMPI PUSH1 0x40 MLOAD PUSH3 0x461BCD PUSH1 0xE5 SHL DUP2 MSTORE PUSH1 0x20 PUSH1 0x4 DUP3 ADD MSTORE PUSH1 0xE PUSH1 0x24 DUP3 ADD MSTORE PUSH14 0x506F6F6C3A20736C697070616765 PUSH1 0x90 SHL PUSH1 0x44 DUP3 ADD MSTORE PUSH1 0x64 ADD PUSH2 0x739 JUMP JUMPDEST PUSH0 DUP1 DUP4 DUP6 GT PUSH2 0xAB9 JUMPI DUP9 SWAP2 POP DUP6 PUSH1 0x1 DUP8 PUSH1 0x5 SLOAD DUP7 PUSH2 0xA94 SWAP2 SWAP1 PUSH2 0x24D3 JUMP JUMPDEST PUSH2 0xA9E SWAP2 SWAP1 PUSH2 0x2530 JUMP JUMPDEST PUSH2 0xAA8 SWAP2 SWAP1 PUSH2 0x251D JUMP JUMPDEST PUSH2 0xAB2 SWAP2 SWAP1 PUSH2 0x24FE JUMP JUMPDEST SWAP1 POP PUSH2 0xAEF JUMP JUMPDEST CALLVALUE SWAP1 POP DUP6 PUSH1 0x1 DUP8 PUSH1 0x4 SLOAD DUP7 PUSH2 0xACE SWAP2 SWAP1 PUSH2 0x24D3 JUMP JUMPDEST PUSH2 0xAD8 SWAP2 SWAP1 PUSH2 0x2530 JUMP JUMPDEST PUSH2 0xAE2 SWAP2 SWAP1 PUSH2 0x251D JUMP JUMPDEST PUSH2 0xAEC SWAP2 SWAP1 PUSH2 0x24FE JUMP JUMPDEST SWAP2 POP JUMPDEST DUP2 PUSH1 0x4 PUSH0 DUP3 DUP3 SLOAD PUSH2 0xB00 SWAP2 SWAP1 PUSH2 0x2530 JUMP JUMPDEST SWAP3 POP POP DUP2 SWAP1 SSTORE POP DUP1 PUSH1 0x5 PUSH0 DUP3 DUP3 SLOAD PUSH2 0xB18 SWAP2 SWAP1 PUSH2 0x2530 JUMP JUMPDEST SWAP1 SWAP2 SSTORE POP POP PUSH0 SLOAD PUSH2 0xB34 SWAP1 PUSH1 0x1 PUSH1 0x1 PUSH1 0xA0 SHL SUB AND CALLER ADDRESS DUP6 PUSH2 0x13BC JUMP JUMPDEST PUSH2 0xB3E DUP8 DUP5 PUSH2 0x136D JUMP JUMPDEST PUSH0 PUSH2 0xB49 DUP3 CALLVALUE PUSH2 0x251D JUMP JUMPDEST SWAP1 POP DUP1 ISZERO PUSH2 0xBDE JUMPI PUSH1 0x40 MLOAD PUSH0 SWAP1 CALLER SWAP1 DUP4 SWAP1 DUP4 DUP2 DUP2 DUP2 DUP6 DUP8 GAS CALL SWAP3 POP POP POP RETURNDATASIZE DUP1 PUSH0 DUP2 EQ PUSH2 0xB90 JUMPI PUSH1 0x40 MLOAD SWAP2 POP PUSH1 0x1F NOT PUSH1 0x3F RETURNDATASIZE ADD AND DUP3 ADD PUSH1 0x40 MSTORE RETURNDATASIZE DUP3 MSTORE RETURNDATASIZE PUSH0 PUSH1 0x20 DUP5 ADD RETURNDATACOPY PUSH2 0xB95 JUMP JUMPDEST PUSH1 0x60 SWAP2 POP JUMPDEST POP POP SWAP1 POP DUP1 PUSH2 0xBDC JUMPI PUSH1 0x40 MLOAD PUSH3 0x461BCD PUSH1 0xE5 SHL DUP2 MSTORE PUSH1 0x20 PUSH1 0x4 DUP3 ADD MSTORE PUSH1 0x13 PUSH1 0x24 DUP3 ADD MSTORE PUSH19 0x141BDBDB0E881C99599D5B990819985A5B1959 PUSH1 0x6A SHL PUSH1 0x44 DUP3 ADD MSTORE PUSH1 0x64 ADD PUSH2 0x739 JUMP JUMPDEST POP JUMPDEST PUSH1 0x40 DUP1 MLOAD DUP5 DUP2 MSTORE PUSH1 0x20 DUP2 ADD DUP5 SWAP1 MSTORE SWAP1 DUP2 ADD DUP6 SWAP1 MSTORE PUSH1 0x1 PUSH1 0x1 PUSH1 0xA0 SHL SUB DUP10 AND SWAP1 CALLER SWAP1 PUSH32 0x4A1A2A6176E9646D9E3157F7C2AB3C499F18337C0B0828CFB28E0A61DE4A11F7 SWAP1 PUSH1 0x60 ADD PUSH1 0x40 MLOAD DUP1 SWAP2 SUB SWAP1 LOG3 POP POP POP POP POP POP POP PUSH2 0xC49 PUSH1 0x1 PUSH0 DUP1 MLOAD PUSH1 0x20 PUSH2 0x26C8 DUP4 CODECOPY DUP2 MLOAD SWAP2 MSTORE SSTORE JUMP JUMPDEST POP POP POP JUMP JUMPDEST PUSH32 0x52C63247E1F47DB19D5CE0460030C497F067CA4CEBF71BA98EEADABE20BACE04 DUP1 SLOAD PUSH1 0x60 SWAP2 PUSH0 DUP1 MLOAD PUSH1 0x20 PUSH2 0x2688 DUP4 CODECOPY DUP2 MLOAD SWAP2 MSTORE SWAP2 PUSH2 0x5A7 SWAP1 PUSH2 0x2487 JUMP JUMPDEST PUSH2 0xC94 PUSH2 0x13A1 JUMP JUMPDEST DUP3 ISZERO ISZERO DUP5 ISZERO ISZERO SUB PUSH2 0xCE7 JUMPI PUSH1 0x40 MLOAD PUSH3 0x461BCD PUSH1 0xE5 SHL DUP2 MSTORE PUSH1 0x20 PUSH1 0x4 DUP3 ADD MSTORE PUSH1 0x18 PUSH1 0x24 DUP3 ADD MSTORE PUSH32 0x506F6F6C3A2065786163746C79206F6E65206F75747075740000000000000000 PUSH1 0x44 DUP3 ADD MSTORE PUSH1 0x64 ADD PUSH2 0x739 JUMP JUMPDEST PUSH1 0x1 PUSH1 0x1 PUSH1 0xA0 SHL SUB DUP3 AND PUSH2 0xD0D JUMPI PUSH1 0x40 MLOAD PUSH3 0x461BCD PUSH1 0xE5 SHL DUP2 MSTORE PUSH1 0x4 ADD PUSH2 0x739 SWAP1 PUSH2 0x2543 JUMP JUMPDEST PUSH0 PUSH2 0xD16 PUSH2 0x13F2 JUMP JUMPDEST SWAP1 POP DUP5 ISZERO PUSH2 0xD2F JUMPI PUSH2 0xD2A DUP6 DUP5 DUP5 DUP5 PUSH2 0x1424 JUMP JUMPDEST PUSH2 0xD3B JUMP JUMPDEST PUSH2 0xD3B DUP5 DUP5 DUP5 DUP5 PUSH2 0x16FD JUMP JUMPDEST POP PUSH2 0xD52 PUSH1 0x1 PUSH0 DUP1 MLOAD PUSH1 0x20 PUSH2 0x26C8 DUP4 CODECOPY DUP2 MLOAD SWAP2 MSTORE SSTORE JUMP JUMPDEST POP POP POP POP JUMP JUMPDEST PUSH0 CALLER PUSH2 0x636 DUP2 DUP6 DUP6 PUSH2 0x11A7 JUMP JUMPDEST PUSH1 0x4 SLOAD PUSH1 0x5 SLOAD PUSH0 DUP1 DUP1 PUSH2 0xD83 PUSH0 DUP1 MLOAD PUSH1 0x20 PUSH2 0x26A8 DUP4 CODECOPY DUP2 MLOAD SWAP2 MSTORE SLOAD SWAP1 JUMP JUMPDEST SWAP3 POP PUSH1 0x6 SLOAD DUP4 PUSH2 0xD93 SWAP2 SWAP1 PUSH2 0x251D JUMP JUMPDEST SWAP2 POP PUSH0 PUSH1 0x4 SLOAD GT PUSH2 0xDA4 JUMPI PUSH0 PUSH2 0xDC6 JUMP JUMPDEST PUSH1 0x4 SLOAD PUSH1 0x5 SLOAD PUSH2 0xDBC SWAP1 PUSH8 0xDE0B6B3A7640000 PUSH2 0x24D3 JUMP JUMPDEST PUSH2 0xDC6 SWAP2 SWAP1 PUSH2 0x24FE JUMP JUMPDEST SWAP1 POP SWAP1 SWAP2 SWAP3 SWAP4 SWAP5 JUMP JUMPDEST PUSH0 PUSH2 0x63C DUP3 PUSH2 0x930 JUMP JUMPDEST PUSH1 0x1 PUSH1 0x1 PUSH1 0xA0 SHL SUB SWAP2 DUP3 AND PUSH0 SWAP1 DUP2 MSTORE PUSH32 0x52C63247E1F47DB19D5CE0460030C497F067CA4CEBF71BA98EEADABE20BACE01 PUSH1 0x20 SWAP1 DUP2 MSTORE PUSH1 0x40 DUP1 DUP4 KECCAK256 SWAP4 SWAP1 SWAP5 AND DUP3 MSTORE SWAP2 SWAP1 SWAP2 MSTORE KECCAK256 SLOAD SWAP1 JUMP JUMPDEST PUSH2 0xE2A PUSH2 0x13A1 JUMP JUMPDEST PUSH1 0x1 PUSH1 0x1 PUSH1 0xA0 SHL SUB DUP2 AND PUSH2 0xE50 JUMPI PUSH1 0x40 MLOAD PUSH3 0x461BCD PUSH1 0xE5 SHL DUP2 MSTORE PUSH1 0x4 ADD PUSH2 0x739 SWAP1 PUSH2 0x2543 JUMP JUMPDEST PUSH0 DUP5 GT PUSH2 0xE8F JUMPI PUSH1 0x40 MLOAD PUSH3 0x461BCD PUSH1 0xE5 SHL DUP2 MSTORE PUSH1 0x20 PUSH1 0x4 DUP3 ADD MSTORE PUSH1 0xD PUSH1 0x24 DUP3 ADD MSTORE PUSH13 0x506F6F6C3A207A65726F204C5 PUSH1 0x9C SHL PUSH1 0x44 DUP3 ADD MSTORE PUSH1 0x64 ADD PUSH2 0x739 JUMP JUMPDEST DUP4 PUSH2 0xE99 CALLER PUSH2 0x930 JUMP JUMPDEST LT ISZERO PUSH2 0xEDF JUMPI PUSH1 0x40 MLOAD PUSH3 0x461BCD PUSH1 0xE5 SHL DUP2 MSTORE PUSH1 0x20 PUSH1 0x4 DUP3 ADD MSTORE PUSH1 0x15 PUSH1 0x24 DUP3 ADD MSTORE PUSH21 0x506F6F6C3A20696E73756666696369656E74204C5 PUSH1 0x5C SHL PUSH1 0x44 DUP3 ADD MSTORE PUSH1 0x64 ADD PUSH2 0x739 JUMP JUMPDEST PUSH0 PUSH2 0xEF5 PUSH0 DUP1 MLOAD PUSH1 0x20 PUSH2 0x26A8 DUP4 CODECOPY DUP2 MLOAD SWAP2 MSTORE SLOAD SWAP1 JUMP JUMPDEST SWAP1 POP PUSH0 DUP2 PUSH1 0x4 SLOAD DUP8 PUSH2 0xF07 SWAP2 SWAP1 PUSH2 0x24D3 JUMP JUMPDEST PUSH2 0xF11 SWAP2 SWAP1 PUSH2 0x24FE JUMP JUMPDEST SWAP1 POP PUSH0 DUP3 PUSH1 0x5 SLOAD DUP9 PUSH2 0xF23 SWAP2 SWAP1 PUSH2 0x24D3 JUMP JUMPDEST PUSH2 0xF2D SWAP2 SWAP1 PUSH2 0x24FE JUMP JUMPDEST SWAP1 POP DUP6 DUP3 LT ISZERO PUSH2 0xF76 JUMPI PUSH1 0x40 MLOAD PUSH3 0x461BCD PUSH1 0xE5 SHL DUP2 MSTORE PUSH1 0x20 PUSH1 0x4 DUP3 ADD MSTORE PUSH1 0x14 PUSH1 0x24 DUP3 ADD MSTORE PUSH20 0x506F6F6C3A20746F6B656E20736C697070616765 PUSH1 0x60 SHL PUSH1 0x44 DUP3 ADD MSTORE PUSH1 0x64 ADD PUSH2 0x739 JUMP JUMPDEST DUP5 DUP2 LT ISZERO PUSH2 0xFBC JUMPI PUSH1 0x40 MLOAD PUSH3 0x461BCD PUSH1 0xE5 SHL DUP2 MSTORE PUSH1 0x20 PUSH1 0x4 DUP3 ADD MSTORE PUSH1 0x13 PUSH1 0x24 DUP3 ADD MSTORE PUSH19 0x506F6F6C3A205553444320736C697070616765 PUSH1 0x68 SHL PUSH1 0x44 DUP3 ADD MSTORE PUSH1 0x64 ADD PUSH2 0x739 JUMP JUMPDEST PUSH2 0xFC5 CALLER PUSH2 0x1970 JUMP JUMPDEST DUP2 PUSH1 0x4 PUSH0 DUP3 DUP3 SLOAD PUSH2 0xFD6 SWAP2 SWAP1 PUSH2 0x251D JUMP JUMPDEST SWAP3 POP POP DUP2 SWAP1 SSTORE POP DUP1 PUSH1 0x5 PUSH0 DUP3 DUP3 SLOAD PUSH2 0xFEE SWAP2 SWAP1 PUSH2 0x251D JUMP JUMPDEST SWAP1 SWAP2 SSTORE POP PUSH2 0xFFE SWAP1 POP CALLER DUP9 PUSH2 0x1AC9 JUMP JUMPDEST PUSH0 SLOAD PUSH2 0x1014 SWAP1 PUSH1 0x1 PUSH1 0x1 PUSH1 0xA0 SHL SUB AND DUP6 DUP5 PUSH2 0x1AFD JUMP JUMPDEST PUSH0 DUP5 PUSH1 0x1 PUSH1 0x1 PUSH1 0xA0 SHL SUB AND DUP3 PUSH1 0x40 MLOAD PUSH0 PUSH1 0x40 MLOAD DUP1 DUP4 SUB DUP2 DUP6 DUP8 GAS CALL SWAP3 POP POP POP RETURNDATASIZE DUP1 PUSH0 DUP2 EQ PUSH2 0x105D JUMPI PUSH1 0x40 MLOAD SWAP2 POP PUSH1 0x1F NOT PUSH1 0x3F RETURNDATASIZE ADD AND DUP3 ADD PUSH1 0x40 MSTORE RETURNDATASIZE DUP3 MSTORE RETURNDATASIZE PUSH0 PUSH1 0x20 DUP5 ADD RETURNDATACOPY PUSH2 0x1062 JUMP JUMPDEST PUSH1 0x60 SWAP2 POP JUMPDEST POP POP SWAP1 POP DUP1 PUSH2 0x10AB JUMPI PUSH1 0x40 MLOAD PUSH3 0x461BCD PUSH1 0xE5 SHL DUP2 MSTORE PUSH1 0x20 PUSH1 0x4 DUP3 ADD MSTORE PUSH1 0x15 PUSH1 0x24 DUP3 ADD MSTORE PUSH21 0x141BDBDB0E881D1C985B9CD9995C8819985A5B1959 PUSH1 0x5A SHL PUSH1 0x44 DUP3 ADD MSTORE PUSH1 0x64 ADD PUSH2 0x739 JUMP JUMPDEST PUSH1 0x40 DUP1 MLOAD DUP5 DUP2 MSTORE PUSH1 0x20 DUP2 ADD DUP5 SWAP1 MSTORE SWAP1 DUP2 ADD DUP10 SWAP1 MSTORE PUSH1 0x1 PUSH1 0x1 PUSH1 0xA0 SHL SUB DUP7 AND SWAP1 CALLER SWAP1 PUSH32 0xBC7D19D505C7EC4DB83F3B51F19FB98C4C8A99922E7839D1EE608DFBEE29501B SWAP1 PUSH1 0x60 ADD PUSH1 0x40 MLOAD DUP1 SWAP2 SUB SWAP1 LOG3 POP POP POP POP PUSH2 0xD52 PUSH1 0x1 PUSH0 DUP1 MLOAD PUSH1 0x20 PUSH2 0x26C8 DUP4 CODECOPY DUP2 MLOAD SWAP2 MSTORE SSTORE JUMP JUMPDEST PUSH2 0x111B PUSH2 0x13A1 JUMP JUMPDEST PUSH2 0x1124 CALLER PUSH2 0x1970 JUMP JUMPDEST PUSH2 0x113A PUSH1 0x1 PUSH0 DUP1 MLOAD PUSH1 0x20 PUSH2 0x26C8 DUP4 CODECOPY DUP2 MLOAD SWAP2 MSTORE SSTORE JUMP JUMPDEST JUMP JUMPDEST PUSH2 0xC49 DUP4 DUP4 DUP4 PUSH1 0x1 PUSH2 0x1B32 JUMP JUMPDEST PUSH0 PUSH2 0x1154 DUP5 DUP5 PUSH2 0xDD9 JUMP JUMPDEST SWAP1 POP PUSH0 NOT DUP2 LT ISZERO PUSH2 0xD52 JUMPI DUP2 DUP2 LT ISZERO PUSH2 0x1199 JUMPI PUSH1 0x40 MLOAD PUSH4 0x7DC7A0D9 PUSH1 0xE1 SHL DUP2 MSTORE PUSH1 0x1 PUSH1 0x1 PUSH1 0xA0 SHL SUB DUP5 AND PUSH1 0x4 DUP3 ADD MSTORE PUSH1 0x24 DUP2 ADD DUP3 SWAP1 MSTORE PUSH1 0x44 DUP2 ADD DUP4 SWAP1 MSTORE PUSH1 0x64 ADD PUSH2 0x739 JUMP JUMPDEST PUSH2 0xD52 DUP5 DUP5 DUP5 DUP5 SUB PUSH0 PUSH2 0x1B32 JUMP JUMPDEST PUSH1 0x1 PUSH1 0x1 PUSH1 0xA0 SHL SUB DUP4 AND PUSH2 0x11D0 JUMPI PUSH1 0x40 MLOAD PUSH4 0x4B637E8F PUSH1 0xE1 SHL DUP2 MSTORE PUSH0 PUSH1 0x4 DUP3 ADD MSTORE PUSH1 0x24 ADD PUSH2 0x739 JUMP JUMPDEST PUSH1 0x1 PUSH1 0x1 PUSH1 0xA0 SHL SUB DUP3 AND PUSH2 0x11F9 JUMPI PUSH1 0x40 MLOAD PUSH4 0xEC442F05 PUSH1 0xE0 SHL DUP2 MSTORE PUSH0 PUSH1 0x4 DUP3 ADD MSTORE PUSH1 0x24 ADD PUSH2 0x739 JUMP JUMPDEST PUSH2 0xC49 DUP4 DUP4 DUP4 PUSH2 0x1C16 JUMP JUMPDEST PUSH2 0x120C PUSH2 0x1D5B JUMP JUMPDEST PUSH2 0x1216 DUP3 DUP3 PUSH2 0x1D80 JUMP JUMPDEST POP POP JUMP JUMPDEST PUSH0 PUSH1 0x1 DUP3 GT PUSH2 0x1227 JUMPI POP SWAP1 JUMP JUMPDEST DUP2 PUSH1 0x1 PUSH1 0x1 PUSH1 0x80 SHL DUP3 LT PUSH2 0x1240 JUMPI PUSH1 0x80 SWAP2 SWAP1 SWAP2 SHR SWAP1 PUSH1 0x40 SHL JUMPDEST PUSH1 0x1 PUSH1 0x40 SHL DUP3 LT PUSH2 0x1256 JUMPI PUSH1 0x40 SWAP2 SWAP1 SWAP2 SHR SWAP1 PUSH1 0x20 SHL JUMPDEST PUSH5 0x100000000 DUP3 LT PUSH2 0x126D JUMPI PUSH1 0x20 SWAP2 SWAP1 SWAP2 SHR SWAP1 PUSH1 0x10 SHL JUMPDEST PUSH3 0x10000 DUP3 LT PUSH2 0x1282 JUMPI PUSH1 0x10 SWAP2 SWAP1 SWAP2 SHR SWAP1 PUSH1 0x8 SHL JUMPDEST PUSH2 0x100 DUP3 LT PUSH2 0x1296 JUMPI PUSH1 0x8 SWAP2 SWAP1 SWAP2 SHR SWAP1 PUSH1 0x4 SHL JUMPDEST PUSH1 0x10 DUP3 LT PUSH2 0x12A9 JUMPI PUSH1 0x4 SWAP2 SWAP1 SWAP2 SHR SWAP1 PUSH1 0x2 SHL JUMPDEST PUSH1 0x4 DUP3 LT PUSH2 0x12B5 JUMPI PUSH1 0x1 SHL JUMPDEST PUSH1 0x3 MUL PUSH1 0x1 SWAP1 DUP2 SHR SWAP1 DUP2 DUP6 DUP2 PUSH2 0x12CD JUMPI PUSH2 0x12CD PUSH2 0x24EA JUMP JUMPDEST DIV DUP3 ADD SWAP1 SHR SWAP1 POP PUSH1 0x1 DUP2 DUP6 DUP2 PUSH2 0x12E5 JUMPI PUSH2 0x12E5 PUSH2 0x24EA JUMP JUMPDEST DIV DUP3 ADD SWAP1 SHR SWAP1 POP PUSH1 0x1 DUP2 DUP6 DUP2 PUSH2 0x12FD JUMPI PUSH2 0x12FD PUSH2 0x24EA JUMP JUMPDEST DIV DUP3 ADD SWAP1 SHR SWAP1 POP PUSH1 0x1 DUP2 DUP6 DUP2 PUSH2 0x1315 JUMPI PUSH2 0x1315 PUSH2 0x24EA JUMP JUMPDEST DIV DUP3 ADD SWAP1 SHR SWAP1 POP PUSH1 0x1 DUP2 DUP6 DUP2 PUSH2 0x132D JUMPI PUSH2 0x132D PUSH2 0x24EA JUMP JUMPDEST DIV DUP3 ADD SWAP1 SHR SWAP1 POP PUSH1 0x1 DUP2 DUP6 DUP2 PUSH2 0x1345 JUMPI PUSH2 0x1345 PUSH2 0x24EA JUMP JUMPDEST DIV DUP3 ADD SWAP1 SHR SWAP1 POP PUSH2 0x1364 DUP2 DUP6 DUP2 PUSH2 0x135E JUMPI PUSH2 0x135E PUSH2 0x24EA JUMP JUMPDEST DIV DUP3 GT SWAP1 JUMP JUMPDEST SWAP1 SUB SWAP4 SWAP3 POP POP POP JUMP JUMPDEST PUSH1 0x1 PUSH1 0x1 PUSH1 0xA0 SHL SUB DUP3 AND PUSH2 0x1396 JUMPI PUSH1 0x40 MLOAD PUSH4 0xEC442F05 PUSH1 0xE0 SHL DUP2 MSTORE PUSH0 PUSH1 0x4 DUP3 ADD MSTORE PUSH1 0x24 ADD PUSH2 0x739 JUMP JUMPDEST PUSH2 0x1216 PUSH0 DUP4 DUP4 PUSH2 0x1C16 JUMP JUMPDEST PUSH2 0x13A9 PUSH2 0x1DD0 JUMP JUMPDEST PUSH1 0x2 PUSH0 DUP1 MLOAD PUSH1 0x20 PUSH2 0x26C8 DUP4 CODECOPY DUP2 MLOAD SWAP2 MSTORE SSTORE JUMP JUMPDEST PUSH2 0x13CA DUP5 DUP5 DUP5 DUP5 PUSH1 0x1 PUSH2 0x1DFF JUMP JUMPDEST PUSH2 0xD52 JUMPI PUSH1 0x40 MLOAD PUSH4 0x5274AFE7 PUSH1 0xE0 SHL DUP2 MSTORE PUSH1 0x1 PUSH1 0x1 PUSH1 0xA0 SHL SUB DUP6 AND PUSH1 0x4 DUP3 ADD MSTORE PUSH1 0x24 ADD PUSH2 0x739 JUMP JUMPDEST PUSH0 DUP1 PUSH2 0x13FC PUSH2 0x1E6C JUMP JUMPDEST GT PUSH2 0x140D JUMPI PUSH2 0x92B PUSH1 0xA PUSH1 0x14 PUSH2 0x2530 JUMP JUMPDEST PUSH1 0x14 PUSH2 0x141A PUSH1 0xA DUP3 PUSH2 0x2530 JUMP JUMPDEST PUSH2 0x92B SWAP2 SWAP1 PUSH2 0x2530 JUMP JUMPDEST PUSH1 0x4 SLOAD DUP5 LT PUSH2 0x1475 JUMPI PUSH1 0x40 MLOAD PUSH3 0x461BCD PUSH1 0xE5 SHL DUP2 MSTORE PUSH1 0x20 PUSH1 0x4 DUP3 ADD DUP2 SWAP1 MSTORE PUSH1 0x24 DUP3 ADD MSTORE PUSH32 0x506F6F6C3A20696E73756666696369656E7420746F6B656E2072657365727665 PUSH1 0x44 DUP3 ADD MSTORE PUSH1 0x64 ADD PUSH2 0x739 JUMP JUMPDEST PUSH0 DUP5 PUSH1 0x4 SLOAD PUSH2 0x1484 SWAP2 SWAP1 PUSH2 0x251D JUMP JUMPDEST PUSH1 0x1 DUP7 PUSH1 0x4 SLOAD PUSH2 0x1494 SWAP2 SWAP1 PUSH2 0x251D JUMP JUMPDEST PUSH2 0x149E SWAP2 SWAP1 PUSH2 0x251D JUMP JUMPDEST DUP7 PUSH1 0x5 SLOAD PUSH2 0x14AC SWAP2 SWAP1 PUSH2 0x24D3 JUMP JUMPDEST PUSH2 0x14B6 SWAP2 SWAP1 PUSH2 0x2530 JUMP JUMPDEST PUSH2 0x14C0 SWAP2 SWAP1 PUSH2 0x24FE JUMP JUMPDEST SWAP1 POP PUSH0 PUSH2 0x14CF DUP4 PUSH2 0x2710 PUSH2 0x251D JUMP JUMPDEST PUSH1 0x1 PUSH2 0x14DD DUP6 PUSH2 0x2710 PUSH2 0x251D JUMP JUMPDEST PUSH2 0x14E7 SWAP2 SWAP1 PUSH2 0x251D JUMP JUMPDEST PUSH2 0x14F3 PUSH2 0x2710 DUP6 PUSH2 0x24D3 JUMP JUMPDEST PUSH2 0x14FD SWAP2 SWAP1 PUSH2 0x2530 JUMP JUMPDEST PUSH2 0x1507 SWAP2 SWAP1 PUSH2 0x24FE JUMP JUMPDEST SWAP1 POP PUSH0 PUSH2 0x1514 DUP4 DUP4 PUSH2 0x251D JUMP JUMPDEST SWAP1 POP DUP2 CALLVALUE LT ISZERO PUSH2 0x1566 JUMPI PUSH1 0x40 MLOAD PUSH3 0x461BCD PUSH1 0xE5 SHL DUP2 MSTORE PUSH1 0x20 PUSH1 0x4 DUP3 ADD MSTORE PUSH1 0x1C PUSH1 0x24 DUP3 ADD MSTORE PUSH32 0x506F6F6C3A20696E73756666696369656E7420555344432073656E7400000000 PUSH1 0x44 DUP3 ADD MSTORE PUSH1 0x64 ADD PUSH2 0x739 JUMP JUMPDEST DUP5 DUP3 GT ISZERO PUSH2 0x15AC JUMPI PUSH1 0x40 MLOAD PUSH3 0x461BCD PUSH1 0xE5 SHL DUP2 MSTORE PUSH1 0x20 PUSH1 0x4 DUP3 ADD MSTORE PUSH1 0x13 PUSH1 0x24 DUP3 ADD MSTORE PUSH19 0x2837B7B61D1032BC31B2B2B2399036B0BC24B7 PUSH1 0x69 SHL PUSH1 0x44 DUP3 ADD MSTORE PUSH1 0x64 ADD PUSH2 0x739 JUMP JUMPDEST DUP7 PUSH1 0x4 PUSH0 DUP3 DUP3 SLOAD PUSH2 0x15BD SWAP2 SWAP1 PUSH2 0x251D JUMP JUMPDEST SWAP3 POP POP DUP2 SWAP1 SSTORE POP DUP3 PUSH1 0x5 PUSH0 DUP3 DUP3 SLOAD PUSH2 0x15D5 SWAP2 SWAP1 PUSH2 0x2530 JUMP JUMPDEST SWAP1 SWAP2 SSTORE POP PUSH2 0x15E5 SWAP1 POP DUP2 DUP6 PUSH2 0x1E8F JUMP JUMPDEST PUSH0 SLOAD PUSH2 0x15FB SWAP1 PUSH1 0x1 PUSH1 0x1 PUSH1 0xA0 SHL SUB AND DUP8 DUP10 PUSH2 0x1AFD JUMP JUMPDEST PUSH0 PUSH2 0x1606 DUP4 CALLVALUE PUSH2 0x251D JUMP JUMPDEST SWAP1 POP DUP1 ISZERO PUSH2 0x169B JUMPI PUSH1 0x40 MLOAD PUSH0 SWAP1 CALLER SWAP1 DUP4 SWAP1 DUP4 DUP2 DUP2 DUP2 DUP6 DUP8 GAS CALL SWAP3 POP POP POP RETURNDATASIZE DUP1 PUSH0 DUP2 EQ PUSH2 0x164D JUMPI PUSH1 0x40 MLOAD SWAP2 POP PUSH1 0x1F NOT PUSH1 0x3F RETURNDATASIZE ADD AND DUP3 ADD PUSH1 0x40 MSTORE RETURNDATASIZE DUP3 MSTORE RETURNDATASIZE PUSH0 PUSH1 0x20 DUP5 ADD RETURNDATACOPY PUSH2 0x1652 JUMP JUMPDEST PUSH1 0x60 SWAP2 POP JUMPDEST POP POP SWAP1 POP DUP1 PUSH2 0x1699 JUMPI PUSH1 0x40 MLOAD PUSH3 0x461BCD PUSH1 0xE5 SHL DUP2 MSTORE PUSH1 0x20 PUSH1 0x4 DUP3 ADD MSTORE PUSH1 0x13 PUSH1 0x24 DUP3 ADD MSTORE PUSH19 0x141BDBDB0E881C99599D5B990819985A5B1959 PUSH1 0x6A SHL PUSH1 0x44 DUP3 ADD MSTORE PUSH1 0x64 ADD PUSH2 0x739 JUMP JUMPDEST POP JUMPDEST PUSH1 0x40 DUP1 MLOAD PUSH0 DUP1 DUP3 MSTORE PUSH1 0x20 DUP3 ADD DUP7 SWAP1 MSTORE SWAP2 DUP2 ADD DUP11 SWAP1 MSTORE PUSH1 0x60 DUP2 ADD SWAP2 SWAP1 SWAP2 MSTORE PUSH1 0x1 PUSH1 0x1 PUSH1 0xA0 SHL SUB DUP9 AND SWAP1 CALLER SWAP1 PUSH32 0xB3E2773606ABFD36B5BD91394B3A54D1398336C65005BAF7BF7A05EFEFFAF75B SWAP1 PUSH1 0x80 ADD JUMPDEST PUSH1 0x40 MLOAD DUP1 SWAP2 SUB SWAP1 LOG3 POP POP POP POP POP POP POP POP JUMP JUMPDEST PUSH0 PUSH2 0x170A DUP3 PUSH2 0x2710 PUSH2 0x251D JUMP JUMPDEST PUSH1 0x1 PUSH2 0x1718 DUP5 PUSH2 0x2710 PUSH2 0x251D JUMP JUMPDEST PUSH2 0x1722 SWAP2 SWAP1 PUSH2 0x251D JUMP JUMPDEST PUSH2 0x172E PUSH2 0x2710 DUP9 PUSH2 0x24D3 JUMP JUMPDEST PUSH2 0x1738 SWAP2 SWAP1 PUSH2 0x2530 JUMP JUMPDEST PUSH2 0x1742 SWAP2 SWAP1 PUSH2 0x24FE JUMP JUMPDEST SWAP1 POP PUSH0 PUSH2 0x174F DUP7 DUP4 PUSH2 0x251D JUMP JUMPDEST SWAP1 POP PUSH1 0x5 SLOAD DUP3 GT ISZERO PUSH2 0x17A3 JUMPI PUSH1 0x40 MLOAD PUSH3 0x461BCD PUSH1 0xE5 SHL DUP2 MSTORE PUSH1 0x20 PUSH1 0x4 DUP3 ADD MSTORE PUSH1 0x1F PUSH1 0x24 DUP3 ADD MSTORE PUSH32 0x506F6F6C3A20696E73756666696369656E742055534443207265736572766500 PUSH1 0x44 DUP3 ADD MSTORE PUSH1 0x64 ADD PUSH2 0x739 JUMP JUMPDEST PUSH0 DUP3 PUSH1 0x5 SLOAD PUSH2 0x17B2 SWAP2 SWAP1 PUSH2 0x251D JUMP JUMPDEST PUSH1 0x1 DUP5 PUSH1 0x5 SLOAD PUSH2 0x17C2 SWAP2 SWAP1 PUSH2 0x251D JUMP JUMPDEST PUSH2 0x17CC SWAP2 SWAP1 PUSH2 0x251D JUMP JUMPDEST DUP5 PUSH1 0x4 SLOAD PUSH2 0x17DA SWAP2 SWAP1 PUSH2 0x24D3 JUMP JUMPDEST PUSH2 0x17E4 SWAP2 SWAP1 PUSH2 0x2530 JUMP JUMPDEST PUSH2 0x17EE SWAP2 SWAP1 PUSH2 0x24FE JUMP JUMPDEST SWAP1 POP DUP5 DUP2 GT ISZERO PUSH2 0x1836 JUMPI PUSH1 0x40 MLOAD PUSH3 0x461BCD PUSH1 0xE5 SHL DUP2 MSTORE PUSH1 0x20 PUSH1 0x4 DUP3 ADD MSTORE PUSH1 0x13 PUSH1 0x24 DUP3 ADD MSTORE PUSH19 0x2837B7B61D1032BC31B2B2B2399036B0BC24B7 PUSH1 0x69 SHL PUSH1 0x44 DUP3 ADD MSTORE PUSH1 0x64 ADD PUSH2 0x739 JUMP JUMPDEST DUP1 PUSH1 0x4 PUSH0 DUP3 DUP3 SLOAD PUSH2 0x1847 SWAP2 SWAP1 PUSH2 0x2530 JUMP JUMPDEST SWAP3 POP POP DUP2 SWAP1 SSTORE POP DUP3 PUSH1 0x5 PUSH0 DUP3 DUP3 SLOAD PUSH2 0x185F SWAP2 SWAP1 PUSH2 0x251D JUMP JUMPDEST SWAP1 SWAP2 SSTORE POP POP PUSH0 SLOAD PUSH2 0x187B SWAP1 PUSH1 0x1 PUSH1 0x1 PUSH1 0xA0 SHL SUB AND CALLER ADDRESS DUP5 PUSH2 0x13BC JUMP JUMPDEST PUSH2 0x1885 DUP3 DUP6 PUSH2 0x1E8F JUMP JUMPDEST PUSH0 DUP7 PUSH1 0x1 PUSH1 0x1 PUSH1 0xA0 SHL SUB AND DUP9 PUSH1 0x40 MLOAD PUSH0 PUSH1 0x40 MLOAD DUP1 DUP4 SUB DUP2 DUP6 DUP8 GAS CALL SWAP3 POP POP POP RETURNDATASIZE DUP1 PUSH0 DUP2 EQ PUSH2 0x18CE JUMPI PUSH1 0x40 MLOAD SWAP2 POP PUSH1 0x1F NOT PUSH1 0x3F RETURNDATASIZE ADD AND DUP3 ADD PUSH1 0x40 MSTORE RETURNDATASIZE DUP3 MSTORE RETURNDATASIZE PUSH0 PUSH1 0x20 DUP5 ADD RETURNDATACOPY PUSH2 0x18D3 JUMP JUMPDEST PUSH1 0x60 SWAP2 POP JUMPDEST POP POP SWAP1 POP DUP1 PUSH2 0x191C JUMPI PUSH1 0x40 MLOAD PUSH3 0x461BCD PUSH1 0xE5 SHL DUP2 MSTORE PUSH1 0x20 PUSH1 0x4 DUP3 ADD MSTORE PUSH1 0x15 PUSH1 0x24 DUP3 ADD MSTORE PUSH21 0x141BDBDB0E881D1C985B9CD9995C8819985A5B1959 PUSH1 0x5A SHL PUSH1 0x44 DUP3 ADD MSTORE PUSH1 0x64 ADD PUSH2 0x739 JUMP JUMPDEST PUSH1 0x40 DUP1 MLOAD DUP4 DUP2 MSTORE PUSH0 PUSH1 0x20 DUP3 ADD DUP2 SWAP1 MSTORE SWAP2 DUP2 ADD SWAP2 SWAP1 SWAP2 MSTORE PUSH1 0x60 DUP2 ADD DUP10 SWAP1 MSTORE PUSH1 0x1 PUSH1 0x1 PUSH1 0xA0 SHL SUB DUP9 AND SWAP1 CALLER SWAP1 PUSH32 0xB3E2773606ABFD36B5BD91394B3A54D1398336C65005BAF7BF7A05EFEFFAF75B SWAP1 PUSH1 0x80 ADD PUSH2 0x16EB JUMP JUMPDEST PUSH2 0x1979 DUP2 PUSH2 0x1FFA JUMP JUMPDEST PUSH8 0xDE0B6B3A7640000 PUSH1 0x7 SLOAD PUSH2 0x198E DUP4 PUSH2 0x930 JUMP JUMPDEST PUSH2 0x1998 SWAP2 SWAP1 PUSH2 0x24D3 JUMP JUMPDEST PUSH2 0x19A2 SWAP2 SWAP1 PUSH2 0x24FE JUMP JUMPDEST PUSH1 0x1 PUSH1 0x1 PUSH1 0xA0 SHL SUB DUP3 AND PUSH0 SWAP1 DUP2 MSTORE PUSH1 0x8 PUSH1 0x20 SWAP1 DUP2 MSTORE PUSH1 0x40 DUP1 DUP4 KECCAK256 SWAP4 SWAP1 SWAP4 SSTORE PUSH1 0x9 SWAP1 MSTORE SWAP1 DUP2 KECCAK256 SLOAD SWAP1 DUP2 SWAP1 SUB PUSH2 0x19D4 JUMPI POP POP JUMP JUMPDEST PUSH1 0x1 PUSH1 0x1 PUSH1 0xA0 SHL SUB DUP3 AND PUSH0 DUP2 DUP2 MSTORE PUSH1 0x9 PUSH1 0x20 MSTORE PUSH1 0x40 DUP1 DUP3 KECCAK256 DUP3 SWAP1 SSTORE MLOAD SWAP1 SWAP2 SWAP1 DUP4 SWAP1 DUP4 DUP2 DUP2 DUP2 DUP6 DUP8 GAS CALL SWAP3 POP POP POP RETURNDATASIZE DUP1 PUSH0 DUP2 EQ PUSH2 0x1A2B JUMPI PUSH1 0x40 MLOAD SWAP2 POP PUSH1 0x1F NOT PUSH1 0x3F RETURNDATASIZE ADD AND DUP3 ADD PUSH1 0x40 MSTORE RETURNDATASIZE DUP3 MSTORE RETURNDATASIZE PUSH0 PUSH1 0x20 DUP5 ADD RETURNDATACOPY PUSH2 0x1A30 JUMP JUMPDEST PUSH1 0x60 SWAP2 POP JUMPDEST POP POP SWAP1 POP DUP1 PUSH2 0x1A81 JUMPI PUSH1 0x40 MLOAD PUSH3 0x461BCD PUSH1 0xE5 SHL DUP2 MSTORE PUSH1 0x20 PUSH1 0x4 DUP3 ADD MSTORE PUSH1 0x19 PUSH1 0x24 DUP3 ADD MSTORE PUSH32 0x506F6F6C3A20666565207472616E73666572206661696C656400000000000000 PUSH1 0x44 DUP3 ADD MSTORE PUSH1 0x64 ADD PUSH2 0x739 JUMP JUMPDEST DUP3 PUSH1 0x1 PUSH1 0x1 PUSH1 0xA0 SHL SUB AND PUSH32 0xA44A9F1035049A2FC551576C292269E70BC3914EA6AA00C51FCC2043C979F327 DUP4 PUSH1 0x40 MLOAD PUSH2 0x1ABC SWAP2 DUP2 MSTORE PUSH1 0x20 ADD SWAP1 JUMP JUMPDEST PUSH1 0x40 MLOAD DUP1 SWAP2 SUB SWAP1 LOG2 POP POP POP JUMP JUMPDEST PUSH1 0x1 PUSH1 0x1 PUSH1 0xA0 SHL SUB DUP3 AND PUSH2 0x1AF2 JUMPI PUSH1 0x40 MLOAD PUSH4 0x4B637E8F PUSH1 0xE1 SHL DUP2 MSTORE PUSH0 PUSH1 0x4 DUP3 ADD MSTORE PUSH1 0x24 ADD PUSH2 0x739 JUMP JUMPDEST PUSH2 0x1216 DUP3 PUSH0 DUP4 PUSH2 0x1C16 JUMP JUMPDEST PUSH2 0x1B0A DUP4 DUP4 DUP4 PUSH1 0x1 PUSH2 0x2088 JUMP JUMPDEST PUSH2 0xC49 JUMPI PUSH1 0x40 MLOAD PUSH4 0x5274AFE7 PUSH1 0xE0 SHL DUP2 MSTORE PUSH1 0x1 PUSH1 0x1 PUSH1 0xA0 SHL SUB DUP5 AND PUSH1 0x4 DUP3 ADD MSTORE PUSH1 0x24 ADD PUSH2 0x739 JUMP JUMPDEST PUSH0 DUP1 MLOAD PUSH1 0x20 PUSH2 0x2688 DUP4 CODECOPY DUP2 MLOAD SWAP2 MSTORE PUSH1 0x1 PUSH1 0x1 PUSH1 0xA0 SHL SUB DUP6 AND PUSH2 0x1B69 JUMPI PUSH1 0x40 MLOAD PUSH4 0xE602DF05 PUSH1 0xE0 SHL DUP2 MSTORE PUSH0 PUSH1 0x4 DUP3 ADD MSTORE PUSH1 0x24 ADD PUSH2 0x739 JUMP JUMPDEST PUSH1 0x1 PUSH1 0x1 PUSH1 0xA0 SHL SUB DUP5 AND PUSH2 0x1B92 JUMPI PUSH1 0x40 MLOAD PUSH4 0x4A1406B1 PUSH1 0xE1 SHL DUP2 MSTORE PUSH0 PUSH1 0x4 DUP3 ADD MSTORE PUSH1 0x24 ADD PUSH2 0x739 JUMP JUMPDEST PUSH1 0x1 PUSH1 0x1 PUSH1 0xA0 SHL SUB DUP1 DUP7 AND PUSH0 SWAP1 DUP2 MSTORE PUSH1 0x1 DUP4 ADD PUSH1 0x20 SWAP1 DUP2 MSTORE PUSH1 0x40 DUP1 DUP4 KECCAK256 SWAP4 DUP9 AND DUP4 MSTORE SWAP3 SWAP1 MSTORE KECCAK256 DUP4 SWAP1 SSTORE DUP2 ISZERO PUSH2 0x1C0F JUMPI DUP4 PUSH1 0x1 PUSH1 0x1 PUSH1 0xA0 SHL SUB AND DUP6 PUSH1 0x1 PUSH1 0x1 PUSH1 0xA0 SHL SUB AND PUSH32 0x8C5BE1E5EBEC7D5BD14F71427D1E84F3DD0314C0F7B2291E5B200AC8C7C3B925 DUP6 PUSH1 0x40 MLOAD PUSH2 0x1C06 SWAP2 DUP2 MSTORE PUSH1 0x20 ADD SWAP1 JUMP JUMPDEST PUSH1 0x40 MLOAD DUP1 SWAP2 SUB SWAP1 LOG3 JUMPDEST POP POP POP POP POP JUMP JUMPDEST PUSH1 0x1 PUSH1 0x1 PUSH1 0xA0 SHL SUB DUP4 AND ISZERO DUP1 ISZERO SWAP1 PUSH2 0x1C39 JUMPI POP PUSH1 0x1 PUSH1 0x1 PUSH1 0xA0 SHL SUB DUP4 AND PUSH2 0xDEAD EQ ISZERO JUMPDEST ISZERO PUSH2 0x1C47 JUMPI PUSH2 0x1C47 DUP4 PUSH2 0x1FFA JUMP JUMPDEST PUSH1 0x1 PUSH1 0x1 PUSH1 0xA0 SHL SUB DUP3 AND ISZERO DUP1 ISZERO SWAP1 PUSH2 0x1C6A JUMPI POP PUSH1 0x1 PUSH1 0x1 PUSH1 0xA0 SHL SUB DUP3 AND PUSH2 0xDEAD EQ ISZERO JUMPDEST ISZERO PUSH2 0x1C78 JUMPI PUSH2 0x1C78 DUP3 PUSH2 0x1FFA JUMP JUMPDEST PUSH2 0x1C83 DUP4 DUP4 DUP4 PUSH2 0x20EA JUMP JUMPDEST PUSH1 0x1 PUSH1 0x1 PUSH1 0xA0 SHL SUB DUP4 AND ISZERO DUP1 ISZERO SWAP1 PUSH2 0x1CA6 JUMPI POP PUSH1 0x1 PUSH1 0x1 PUSH1 0xA0 SHL SUB DUP4 AND PUSH2 0xDEAD EQ ISZERO JUMPDEST ISZERO PUSH2 0x1CED JUMPI PUSH8 0xDE0B6B3A7640000 PUSH1 0x7 SLOAD PUSH2 0x1CC0 DUP6 PUSH2 0x930 JUMP JUMPDEST PUSH2 0x1CCA SWAP2 SWAP1 PUSH2 0x24D3 JUMP JUMPDEST PUSH2 0x1CD4 SWAP2 SWAP1 PUSH2 0x24FE JUMP JUMPDEST PUSH1 0x1 PUSH1 0x1 PUSH1 0xA0 SHL SUB DUP5 AND PUSH0 SWAP1 DUP2 MSTORE PUSH1 0x8 PUSH1 0x20 MSTORE PUSH1 0x40 SWAP1 KECCAK256 SSTORE JUMPDEST PUSH1 0x1 PUSH1 0x1 PUSH1 0xA0 SHL SUB DUP3 AND ISZERO DUP1 ISZERO SWAP1 PUSH2 0x1D10 JUMPI POP PUSH1 0x1 PUSH1 0x1 PUSH1 0xA0 SHL SUB DUP3 AND PUSH2 0xDEAD EQ ISZERO JUMPDEST ISZERO PUSH2 0xC49 JUMPI PUSH8 0xDE0B6B3A7640000 PUSH1 0x7 SLOAD PUSH2 0x1D2A DUP5 PUSH2 0x930 JUMP JUMPDEST PUSH2 0x1D34 SWAP2 SWAP1 PUSH2 0x24D3 JUMP JUMPDEST PUSH2 0x1D3E SWAP2 SWAP1 PUSH2 0x24FE JUMP JUMPDEST PUSH1 0x1 PUSH1 0x1 PUSH1 0xA0 SHL SUB DUP4 AND PUSH0 SWAP1 DUP2 MSTORE PUSH1 0x8 PUSH1 0x20 MSTORE PUSH1 0x40 SWAP1 KECCAK256 SSTORE POP POP POP JUMP JUMPDEST PUSH2 0x1D63 PUSH2 0x2223 JUMP JUMPDEST PUSH2 0x113A JUMPI PUSH1 0x40 MLOAD PUSH4 0x1AFCD79F PUSH1 0xE3 SHL DUP2 MSTORE PUSH1 0x4 ADD PUSH1 0x40 MLOAD DUP1 SWAP2 SUB SWAP1 REVERT JUMPDEST PUSH2 0x1D88 PUSH2 0x1D5B JUMP JUMPDEST PUSH0 DUP1 MLOAD PUSH1 0x20 PUSH2 0x2688 DUP4 CODECOPY DUP2 MLOAD SWAP2 MSTORE PUSH32 0x52C63247E1F47DB19D5CE0460030C497F067CA4CEBF71BA98EEADABE20BACE03 PUSH2 0x1DC1 DUP5 DUP3 PUSH2 0x25C7 JUMP JUMPDEST POP PUSH1 0x4 DUP2 ADD PUSH2 0xD52 DUP4 DUP3 PUSH2 0x25C7 JUMP JUMPDEST PUSH0 DUP1 MLOAD PUSH1 0x20 PUSH2 0x26C8 DUP4 CODECOPY DUP2 MLOAD SWAP2 MSTORE SLOAD PUSH1 0x2 SUB PUSH2 0x113A JUMPI PUSH1 0x40 MLOAD PUSH4 0x3EE5AEB5 PUSH1 0xE0 SHL DUP2 MSTORE PUSH1 0x4 ADD PUSH1 0x40 MLOAD DUP1 SWAP2 SUB SWAP1 REVERT JUMPDEST PUSH1 0x40 MLOAD PUSH4 0x23B872DD PUSH1 0xE0 SHL PUSH0 DUP2 DUP2 MSTORE PUSH1 0x1 PUSH1 0x1 PUSH1 0xA0 SHL SUB DUP8 DUP2 AND PUSH1 0x4 MSTORE DUP7 AND PUSH1 0x24 MSTORE PUSH1 0x44 DUP6 SWAP1 MSTORE SWAP2 PUSH1 0x20 DUP4 PUSH1 0x64 DUP2 DUP1 DUP13 GAS CALL SWAP3 POP PUSH1 0x1 PUSH0 MLOAD EQ DUP4 AND PUSH2 0x1E5B JUMPI DUP4 DUP4 ISZERO AND ISZERO PUSH2 0x1E4F JUMPI RETURNDATASIZE PUSH0 DUP3 RETURNDATACOPY RETURNDATASIZE DUP2 REVERT JUMPDEST PUSH0 DUP9 EXTCODESIZE GT RETURNDATASIZE ISZERO AND DUP4 AND SWAP3 POP JUMPDEST PUSH1 0x40 MSTORE POP PUSH0 PUSH1 0x60 MSTORE SWAP6 SWAP5 POP POP POP POP POP JUMP JUMPDEST PUSH0 PUSH1 0x6 SLOAD PUSH2 0x1E85 PUSH0 DUP1 MLOAD PUSH1 0x20 PUSH2 0x26A8 DUP4 CODECOPY DUP2 MLOAD SWAP2 MSTORE SLOAD SWAP1 JUMP JUMPDEST PUSH2 0x92B SWAP2 SWAP1 PUSH2 0x251D JUMP JUMPDEST DUP2 PUSH0 SUB PUSH2 0x1E9A JUMPI POP POP JUMP JUMPDEST PUSH0 PUSH2 0x1EA3 PUSH2 0x1E6C JUMP JUMPDEST SWAP1 POP PUSH0 DUP1 DUP1 DUP4 ISZERO PUSH2 0x1EFA JUMPI DUP5 PUSH2 0x1EBA PUSH1 0x14 DUP9 PUSH2 0x24D3 JUMP JUMPDEST PUSH2 0x1EC4 SWAP2 SWAP1 PUSH2 0x24FE JUMP JUMPDEST SWAP3 POP DUP5 PUSH2 0x1ED2 PUSH1 0xA DUP9 PUSH2 0x24D3 JUMP JUMPDEST PUSH2 0x1EDC SWAP2 SWAP1 PUSH2 0x24FE JUMP JUMPDEST SWAP2 POP DUP2 PUSH2 0x1EE9 DUP5 DUP9 PUSH2 0x251D JUMP JUMPDEST PUSH2 0x1EF3 SWAP2 SWAP1 PUSH2 0x251D JUMP JUMPDEST SWAP1 POP PUSH2 0x1F1F JUMP JUMPDEST DUP5 PUSH2 0x1F06 PUSH1 0x14 DUP9 PUSH2 0x24D3 JUMP JUMPDEST PUSH2 0x1F10 SWAP2 SWAP1 PUSH2 0x24FE JUMP JUMPDEST SWAP3 POP PUSH2 0x1F1C DUP4 DUP8 PUSH2 0x251D JUMP JUMPDEST SWAP2 POP JUMPDEST PUSH0 PUSH2 0x1F2A DUP4 DUP6 PUSH2 0x2530 JUMP JUMPDEST SWAP1 POP DUP1 ISZERO PUSH2 0x1FAB JUMPI PUSH1 0x1 SLOAD PUSH1 0x2 SLOAD PUSH1 0x3 SLOAD PUSH1 0x40 MLOAD PUSH4 0x487D84B PUSH1 0xE2 SHL DUP2 MSTORE PUSH1 0x1 PUSH1 0x1 PUSH1 0xA0 SHL SUB SWAP3 DUP4 AND PUSH1 0x4 DUP3 ADD MSTORE SWAP1 DUP3 AND PUSH1 0x24 DUP3 ADD MSTORE PUSH1 0x44 DUP2 ADD DUP8 SWAP1 MSTORE PUSH1 0x64 DUP2 ADD DUP7 SWAP1 MSTORE SWAP2 AND SWAP1 PUSH4 0x121F612C SWAP1 DUP4 SWAP1 PUSH1 0x84 ADD PUSH0 PUSH1 0x40 MLOAD DUP1 DUP4 SUB DUP2 DUP6 DUP9 DUP1 EXTCODESIZE ISZERO DUP1 ISZERO PUSH2 0x1F93 JUMPI PUSH0 DUP1 REVERT JUMPDEST POP GAS CALL ISZERO DUP1 ISZERO PUSH2 0x1FA5 JUMPI RETURNDATASIZE PUSH0 DUP1 RETURNDATACOPY RETURNDATASIZE PUSH0 REVERT JUMPDEST POP POP POP POP POP JUMPDEST PUSH0 DUP3 GT DUP1 ISZERO PUSH2 0x1FB9 JUMPI POP PUSH0 DUP6 GT JUMPDEST ISZERO PUSH2 0x1FF1 JUMPI DUP5 PUSH2 0x1FD1 PUSH8 0xDE0B6B3A7640000 DUP5 PUSH2 0x24D3 JUMP JUMPDEST PUSH2 0x1FDB SWAP2 SWAP1 PUSH2 0x24FE JUMP JUMPDEST PUSH1 0x7 PUSH0 DUP3 DUP3 SLOAD PUSH2 0x1FEB SWAP2 SWAP1 PUSH2 0x2530 JUMP JUMPDEST SWAP1 SWAP2 SSTORE POP POP JUMPDEST POP POP POP POP POP POP POP JUMP JUMPDEST PUSH0 PUSH2 0x2004 DUP3 PUSH2 0x930 JUMP JUMPDEST SWAP1 POP DUP1 ISZERO PUSH2 0x1216 JUMPI PUSH1 0x1 PUSH1 0x1 PUSH1 0xA0 SHL SUB DUP3 AND PUSH0 SWAP1 DUP2 MSTORE PUSH1 0x8 PUSH1 0x20 MSTORE PUSH1 0x40 DUP2 KECCAK256 SLOAD PUSH1 0x7 SLOAD PUSH8 0xDE0B6B3A7640000 SWAP1 PUSH2 0x203B SWAP1 DUP6 PUSH2 0x24D3 JUMP JUMPDEST PUSH2 0x2045 SWAP2 SWAP1 PUSH2 0x24FE JUMP JUMPDEST PUSH2 0x204F SWAP2 SWAP1 PUSH2 0x251D JUMP JUMPDEST SWAP1 POP DUP1 ISZERO PUSH2 0xC49 JUMPI PUSH1 0x1 PUSH1 0x1 PUSH1 0xA0 SHL SUB DUP4 AND PUSH0 SWAP1 DUP2 MSTORE PUSH1 0x9 PUSH1 0x20 MSTORE PUSH1 0x40 DUP2 KECCAK256 DUP1 SLOAD DUP4 SWAP3 SWAP1 PUSH2 0x207E SWAP1 DUP5 SWAP1 PUSH2 0x2530 JUMP JUMPDEST SWAP1 SWAP2 SSTORE POP POP POP POP POP JUMP JUMPDEST PUSH1 0x40 MLOAD PUSH4 0xA9059CBB PUSH1 0xE0 SHL PUSH0 DUP2 DUP2 MSTORE PUSH1 0x1 PUSH1 0x1 PUSH1 0xA0 SHL SUB DUP7 AND PUSH1 0x4 MSTORE PUSH1 0x24 DUP6 SWAP1 MSTORE SWAP2 PUSH1 0x20 DUP4 PUSH1 0x44 DUP2 DUP1 DUP12 GAS CALL SWAP3 POP PUSH1 0x1 PUSH0 MLOAD EQ DUP4 AND PUSH2 0x20DE JUMPI DUP4 DUP4 ISZERO AND ISZERO PUSH2 0x20D2 JUMPI RETURNDATASIZE PUSH0 DUP3 RETURNDATACOPY RETURNDATASIZE DUP2 REVERT JUMPDEST PUSH0 DUP8 EXTCODESIZE GT RETURNDATASIZE ISZERO AND DUP4 AND SWAP3 POP JUMPDEST PUSH1 0x40 MSTORE POP SWAP5 SWAP4 POP POP POP POP JUMP JUMPDEST PUSH0 DUP1 MLOAD PUSH1 0x20 PUSH2 0x2688 DUP4 CODECOPY DUP2 MLOAD SWAP2 MSTORE PUSH1 0x1 PUSH1 0x1 PUSH1 0xA0 SHL SUB DUP5 AND PUSH2 0x2124 JUMPI DUP2 DUP2 PUSH1 0x2 ADD PUSH0 DUP3 DUP3 SLOAD PUSH2 0x2119 SWAP2 SWAP1 PUSH2 0x2530 JUMP JUMPDEST SWAP1 SWAP2 SSTORE POP PUSH2 0x2194 SWAP1 POP JUMP JUMPDEST PUSH1 0x1 PUSH1 0x1 PUSH1 0xA0 SHL SUB DUP5 AND PUSH0 SWAP1 DUP2 MSTORE PUSH1 0x20 DUP3 SWAP1 MSTORE PUSH1 0x40 SWAP1 KECCAK256 SLOAD DUP3 DUP2 LT ISZERO PUSH2 0x2176 JUMPI PUSH1 0x40 MLOAD PUSH4 0x391434E3 PUSH1 0xE2 SHL DUP2 MSTORE PUSH1 0x1 PUSH1 0x1 PUSH1 0xA0 SHL SUB DUP7 AND PUSH1 0x4 DUP3 ADD MSTORE PUSH1 0x24 DUP2 ADD DUP3 SWAP1 MSTORE PUSH1 0x44 DUP2 ADD DUP5 SWAP1 MSTORE PUSH1 0x64 ADD PUSH2 0x739 JUMP JUMPDEST PUSH1 0x1 PUSH1 0x1 PUSH1 0xA0 SHL SUB DUP6 AND PUSH0 SWAP1 DUP2 MSTORE PUSH1 0x20 DUP4 SWAP1 MSTORE PUSH1 0x40 SWAP1 KECCAK256 SWAP1 DUP4 SWAP1 SUB SWAP1 SSTORE JUMPDEST PUSH1 0x1 PUSH1 0x1 PUSH1 0xA0 SHL SUB DUP4 AND PUSH2 0x21B2 JUMPI PUSH1 0x2 DUP2 ADD DUP1 SLOAD DUP4 SWAP1 SUB SWAP1 SSTORE PUSH2 0x21D0 JUMP JUMPDEST PUSH1 0x1 PUSH1 0x1 PUSH1 0xA0 SHL SUB DUP4 AND PUSH0 SWAP1 DUP2 MSTORE PUSH1 0x20 DUP3 SWAP1 MSTORE PUSH1 0x40 SWAP1 KECCAK256 DUP1 SLOAD DUP4 ADD SWAP1 SSTORE JUMPDEST DUP3 PUSH1 0x1 PUSH1 0x1 PUSH1 0xA0 SHL SUB AND DUP5 PUSH1 0x1 PUSH1 0x1 PUSH1 0xA0 SHL SUB AND PUSH32 0xDDF252AD1BE2C89B69C2B068FC378DAA952BA7F163C4A11628F55A4DF523B3EF DUP5 PUSH1 0x40 MLOAD PUSH2 0x2215 SWAP2 DUP2 MSTORE PUSH1 0x20 ADD SWAP1 JUMP JUMPDEST PUSH1 0x40 MLOAD DUP1 SWAP2 SUB SWAP1 LOG3 POP POP POP POP JUMP JUMPDEST PUSH0 PUSH2 0x222C PUSH2 0x223C JUMP JUMPDEST SLOAD PUSH1 0x1 PUSH1 0x40 SHL SWAP1 DIV PUSH1 0xFF AND SWAP2 SWAP1 POP JUMP JUMPDEST PUSH0 DUP1 PUSH32 0xF0C57E16840DF040F15088DC2F81FE391C3923BEC73E23A9662EFC9C229C6A00 PUSH2 0x63C JUMP JUMPDEST PUSH0 PUSH1 0x20 DUP1 DUP4 MSTORE DUP4 MLOAD DUP1 PUSH1 0x20 DUP6 ADD MSTORE PUSH0 JUMPDEST DUP2 DUP2 LT ISZERO PUSH2 0x2290 JUMPI DUP6 DUP2 ADD DUP4 ADD MLOAD DUP6 DUP3 ADD PUSH1 0x40 ADD MSTORE DUP3 ADD PUSH2 0x2274 JUMP JUMPDEST POP PUSH0 PUSH1 0x40 DUP3 DUP7 ADD ADD MSTORE PUSH1 0x40 PUSH1 0x1F NOT PUSH1 0x1F DUP4 ADD AND DUP6 ADD ADD SWAP3 POP POP POP SWAP3 SWAP2 POP POP JUMP JUMPDEST DUP1 CALLDATALOAD PUSH1 0x1 PUSH1 0x1 PUSH1 0xA0 SHL SUB DUP2 AND DUP2 EQ PUSH2 0x22C6 JUMPI PUSH0 DUP1 REVERT JUMPDEST SWAP2 SWAP1 POP JUMP JUMPDEST PUSH0 DUP1 PUSH1 0x40 DUP4 DUP6 SUB SLT ISZERO PUSH2 0x22DC JUMPI PUSH0 DUP1 REVERT JUMPDEST PUSH2 0x22E5 DUP4 PUSH2 0x22B0 JUMP JUMPDEST SWAP5 PUSH1 0x20 SWAP4 SWAP1 SWAP4 ADD CALLDATALOAD SWAP4 POP POP POP JUMP JUMPDEST PUSH0 PUSH1 0x20 DUP3 DUP5 SUB SLT ISZERO PUSH2 0x2303 JUMPI PUSH0 DUP1 REVERT JUMPDEST PUSH2 0x230C DUP3 PUSH2 0x22B0 JUMP JUMPDEST SWAP4 SWAP3 POP POP POP JUMP JUMPDEST PUSH0 DUP1 PUSH0 PUSH1 0x60 DUP5 DUP7 SUB SLT ISZERO PUSH2 0x2325 JUMPI PUSH0 DUP1 REVERT JUMPDEST PUSH2 0x232E DUP5 PUSH2 0x22B0 JUMP JUMPDEST SWAP3 POP PUSH2 0x233C PUSH1 0x20 DUP6 ADD PUSH2 0x22B0 JUMP JUMPDEST SWAP2 POP PUSH1 0x40 DUP5 ADD CALLDATALOAD SWAP1 POP SWAP3 POP SWAP3 POP SWAP3 JUMP JUMPDEST PUSH0 DUP1 PUSH0 DUP1 PUSH0 DUP1 PUSH1 0xC0 DUP8 DUP10 SUB SLT ISZERO PUSH2 0x2361 JUMPI PUSH0 DUP1 REVERT JUMPDEST PUSH2 0x236A DUP8 PUSH2 0x22B0 JUMP JUMPDEST SWAP6 POP PUSH2 0x2378 PUSH1 0x20 DUP9 ADD PUSH2 0x22B0 JUMP JUMPDEST SWAP5 POP PUSH2 0x2386 PUSH1 0x40 DUP9 ADD PUSH2 0x22B0 JUMP JUMPDEST SWAP4 POP PUSH2 0x2394 PUSH1 0x60 DUP9 ADD PUSH2 0x22B0 JUMP JUMPDEST SWAP3 POP PUSH1 0x80 DUP8 ADD CALLDATALOAD SWAP2 POP PUSH1 0xA0 DUP8 ADD CALLDATALOAD SWAP1 POP SWAP3 SWAP6 POP SWAP3 SWAP6 POP SWAP3 SWAP6 JUMP JUMPDEST PUSH0 DUP1 PUSH0 PUSH1 0x60 DUP5 DUP7 SUB SLT ISZERO PUSH2 0x23C0 JUMPI PUSH0 DUP1 REVERT JUMPDEST DUP4 CALLDATALOAD SWAP3 POP PUSH1 0x20 DUP5 ADD CALLDATALOAD SWAP2 POP PUSH2 0x23D7 PUSH1 0x40 DUP6 ADD PUSH2 0x22B0 JUMP JUMPDEST SWAP1 POP SWAP3 POP SWAP3 POP SWAP3 JUMP JUMPDEST PUSH0 DUP1 PUSH0 DUP1 PUSH1 0x80 DUP6 DUP8 SUB SLT ISZERO PUSH2 0x23F3 JUMPI PUSH0 DUP1 REVERT JUMPDEST DUP5 CALLDATALOAD SWAP4 POP PUSH1 0x20 DUP6 ADD CALLDATALOAD SWAP3 POP PUSH2 0x240A PUSH1 0x40 DUP7 ADD PUSH2 0x22B0 JUMP JUMPDEST SWAP4 SWAP7 SWAP3 SWAP6 POP SWAP3 SWAP4 PUSH1 0x60 ADD CALLDATALOAD SWAP3 POP POP JUMP JUMPDEST PUSH0 DUP1 PUSH1 0x40 DUP4 DUP6 SUB SLT ISZERO PUSH2 0x242B JUMPI PUSH0 DUP1 REVERT JUMPDEST PUSH2 0x2434 DUP4 PUSH2 0x22B0 JUMP JUMPDEST SWAP2 POP PUSH2 0x2442 PUSH1 0x20 DUP5 ADD PUSH2 0x22B0 JUMP JUMPDEST SWAP1 POP SWAP3 POP SWAP3 SWAP1 POP JUMP JUMPDEST PUSH0 DUP1 PUSH0 DUP1 PUSH1 0x80 DUP6 DUP8 SUB SLT ISZERO PUSH2 0x245E JUMPI PUSH0 DUP1 REVERT JUMPDEST DUP5 CALLDATALOAD SWAP4 POP PUSH1 0x20 DUP6 ADD CALLDATALOAD SWAP3 POP PUSH1 0x40 DUP6 ADD CALLDATALOAD SWAP2 POP PUSH2 0x247C PUSH1 0x60 DUP7 ADD PUSH2 0x22B0 JUMP JUMPDEST SWAP1 POP SWAP3 SWAP6 SWAP2 SWAP5 POP SWAP3 POP JUMP JUMPDEST PUSH1 0x1 DUP2 DUP2 SHR SWAP1 DUP3 AND DUP1 PUSH2 0x249B JUMPI PUSH1 0x7F DUP3 AND SWAP2 POP JUMPDEST PUSH1 0x20 DUP3 LT DUP2 SUB PUSH2 0x24B9 JUMPI PUSH4 0x4E487B71 PUSH1 0xE0 SHL PUSH0 MSTORE PUSH1 0x22 PUSH1 0x4 MSTORE PUSH1 0x24 PUSH0 REVERT JUMPDEST POP SWAP2 SWAP1 POP JUMP JUMPDEST PUSH4 0x4E487B71 PUSH1 0xE0 SHL PUSH0 MSTORE PUSH1 0x11 PUSH1 0x4 MSTORE PUSH1 0x24 PUSH0 REVERT JUMPDEST DUP1 DUP3 MUL DUP2 ISZERO DUP3 DUP3 DIV DUP5 EQ OR PUSH2 0x63C JUMPI PUSH2 0x63C PUSH2 0x24BF JUMP JUMPDEST PUSH4 0x4E487B71 PUSH1 0xE0 SHL PUSH0 MSTORE PUSH1 0x12 PUSH1 0x4 MSTORE PUSH1 0x24 PUSH0 REVERT JUMPDEST PUSH0 DUP3 PUSH2 0x2518 JUMPI PUSH4 0x4E487B71 PUSH1 0xE0 SHL PUSH0 MSTORE PUSH1 0x12 PUSH1 0x4 MSTORE PUSH1 0x24 PUSH0 REVERT JUMPDEST POP DIV SWAP1 JUMP JUMPDEST DUP2 DUP2 SUB DUP2 DUP2 GT ISZERO PUSH2 0x63C JUMPI PUSH2 0x63C PUSH2 0x24BF JUMP JUMPDEST DUP1 DUP3 ADD DUP1 DUP3 GT ISZERO PUSH2 0x63C JUMPI PUSH2 0x63C PUSH2 0x24BF JUMP JUMPDEST PUSH1 0x20 DUP1 DUP3 MSTORE PUSH1 0x12 SWAP1 DUP3 ADD MSTORE PUSH18 0x506F6F6C3A207A65726F2061646472657373 PUSH1 0x70 SHL PUSH1 0x40 DUP3 ADD MSTORE PUSH1 0x60 ADD SWAP1 JUMP JUMPDEST PUSH4 0x4E487B71 PUSH1 0xE0 SHL PUSH0 MSTORE PUSH1 0x41 PUSH1 0x4 MSTORE PUSH1 0x24 PUSH0 REVERT JUMPDEST PUSH1 0x1F DUP3 GT ISZERO PUSH2 0xC49 JUMPI DUP1 PUSH0 MSTORE PUSH1 0x20 PUSH0 KECCAK256 PUSH1 0x1F DUP5 ADD PUSH1 0x5 SHR DUP2 ADD PUSH1 0x20 DUP6 LT ISZERO PUSH2 0x25A8 JUMPI POP DUP1 JUMPDEST PUSH1 0x1F DUP5 ADD PUSH1 0x5 SHR DUP3 ADD SWAP2 POP JUMPDEST DUP2 DUP2 LT ISZERO PUSH2 0x1C0F JUMPI PUSH0 DUP2 SSTORE PUSH1 0x1 ADD PUSH2 0x25B4 JUMP JUMPDEST DUP2 MLOAD PUSH8 0xFFFFFFFFFFFFFFFF DUP2 GT ISZERO PUSH2 0x25E1 JUMPI PUSH2 0x25E1 PUSH2 0x256F JUMP JUMPDEST PUSH2 0x25F5 DUP2 PUSH2 0x25EF DUP5 SLOAD PUSH2 0x2487 JUMP JUMPDEST DUP5 PUSH2 0x2583 JUMP JUMPDEST PUSH1 0x20 DUP1 PUSH1 0x1F DUP4 GT PUSH1 0x1 DUP2 EQ PUSH2 0x2628 JUMPI PUSH0 DUP5 ISZERO PUSH2 0x2611 JUMPI POP DUP6 DUP4 ADD MLOAD JUMPDEST PUSH0 NOT PUSH1 0x3 DUP7 SWAP1 SHL SHR NOT AND PUSH1 0x1 DUP6 SWAP1 SHL OR DUP6 SSTORE PUSH2 0x267F JUMP JUMPDEST PUSH0 DUP6 DUP2 MSTORE PUSH1 0x20 DUP2 KECCAK256 PUSH1 0x1F NOT DUP7 AND SWAP2 JUMPDEST DUP3 DUP2 LT ISZERO PUSH2 0x2656 JUMPI DUP9 DUP7 ADD MLOAD DUP3 SSTORE SWAP5 DUP5 ADD SWAP5 PUSH1 0x1 SWAP1 SWAP2 ADD SWAP1 DUP5 ADD PUSH2 0x2637 JUMP JUMPDEST POP DUP6 DUP3 LT ISZERO PUSH2 0x2673 JUMPI DUP8 DUP6 ADD MLOAD PUSH0 NOT PUSH1 0x3 DUP9 SWAP1 SHL PUSH1 0xF8 AND SHR NOT AND DUP2 SSTORE JUMPDEST POP POP PUSH1 0x1 DUP5 PUSH1 0x1 SHL ADD DUP6 SSTORE JUMPDEST POP POP POP POP POP POP JUMP INVALID MSTORE 0xC6 ORIGIN SELFBALANCE 0xE1 DELEGATECALL PUSH30 0xB19D5CE0460030C497F067CA4CEBF71BA98EEADABE20BACE0052C63247E1 DELEGATECALL PUSH30 0xB19D5CE0460030C497F067CA4CEBF71BA98EEADABE20BACE029B779B1742 0x2D 0xD 0xF9 0x22 0x23 ADD DUP12 ORIGIN 0xB4 0xD1 STATICCALL CHAINID 0xE0 PUSH18 0x723D6817E2486D003BECC55F00A264697066 PUSH20 0x582212203CB66566D27844CD58D2937BAB559146 RETURNDATACOPY 0xDC PUSH20 0xC8FC2D1B53F483B9D1399085C264736F6C634300 ADDMOD XOR STOP CALLER "},"methodIdentifiers":{"CREATOR_FEE_BPS()":"cc3cbd2a","LP_FEE_BPS()":"a5258210","PROTOCOL_FEE_BPS()":"be378228","addLiquidity(uint256,uint256,address)":"87b21efc","allowance(address,address)":"dd62ed3e","approve(address,uint256)":"095ea7b3","balanceOf(address)":"70a08231","burnedLP()":"cb297e1f","claimLPFees()":"fbf00e02","creator()":"02d05d3f","decimals()":"313ce567","feeVault()":"478222c2","getLPBalance(address)":"d2258beb","getLPFeeClaimable(address)":"19b3b9f3","getPoolStats()":"bbb85188","init(address,address,address,address,uint256,uint256)":"26cfe340","lpFeeClaimable(address)":"56dd31db","lpFeeDebt(address)":"c816c739","lpFeePerShareAccumulated()":"67537545","name()":"06fdde03","referrer()":"68447c93","removeLiquidity(uint256,uint256,uint256,address)":"e39b0eb5","spotPrice()":"398482d8","swap(uint256,uint256,address,uint256)":"a3cde17d","symbol()":"95d89b41","token()":"fc0c546a","tokenReserve()":"cbcb3171","totalSupply()":"18160ddd","transfer(address,uint256)":"a9059cbb","transferFrom(address,address,uint256)":"23b872dd","usdcReserve()":"6a5809cc"}}}}}